:020000040800F2
:100000001008002099010008A1010008A3010008C0
:10001000A5010008A7010008A901000800000000D0
:10002000000000000000000000000000AB0100081C
:10003000AD01000800000000AF010008B101000898
:10004000B3010008B3010008B3010008B3010008C0
:10005000B3010008B3010008B3010008B3010008B0
:10006000B3010008B3010008CD040008B301000883
:10007000B3010008B3010008B3010008B301000890
:10008000B3010008B3010008B3010008B301000880
:10009000B3010008B3010008B3010008110500080E
:1000A000B3010008B3010008B3010008B301000860
:1000B000B3010008B3010008F90D0008B3010008FE
:1000C000B3010008B3010008B3010008B301000840
:1000D000B3010008E10E000835100008B301000864
:1000E000B3010008B3010008B301000800F002F8F2
:1000F00000F042F80AA090E8000C82448344AAF180
:100100000107DA4501D100F037F8AFF2090EBAE87D
:100110000F0013F0010F18BFFB1A43F0010318473B
:10012000204C0000404C0000103A24BF78C878C131
:10013000FAD8520724BF30C830C144BF04680C60ED
:10014000704700000023002400250026103A28BF35
:1001500078C1FBD8520728BF30C148BF0B60704739
:10016000642900F0A580732900F04D8100207047BC
:100170001FB51FBD10B510BD00F078F91146FFF78F
:10018000F7FF01F0BDF800F096F903B4FFF7F2FFB6
:1001900003BC01F065F800000948804709480047A2
:1001A000FEE7FEE7FEE7FEE7FEE7FEE7FEE7FEE727
:1001B000FEE7FEE704480549054A064B7047000084
:1001C000990D0008ED000008100200201008002022
:1001D0001004002010040020704700000FB40449F0
:1001E00010B503AA029800F013F910BC5DF814FBD7
:1001F000000000202DE9F0410E4604460020206258
:100200002046E168884730B3252805D0D4E901218C
:100210009047206A401CF2E7E168204600278847A3
:10022000050018D0A5F14100192802D820354FF457
:1002300000673246294620462760FFF791FF40B10C
:10024000012804D0F61D26F007060836D8E7361D2B
:10025000D6E72846DAE7206ABDE8F08170B50C469B
:100260000546012A05D02878800600D5EA690023D2
:1002700002E0012305E05B1C934202D2E05C00280F
:10028000F9D1A869E618C01AA861286A184428623A
:100290002846AFF3008004E0D5E9012114F8010BF2
:1002A0009047B442F8D32846AFF3008070BD0000F9
:1002B0002DE9F0410646002410687529314616A53F
:1002C00010D0AFF30080002802DA404213A507E007
:1002D00031688A0701D512A502E0490704D511A5A6
:1002E000012401E0AFF3008000210A2206F1240777
:1002F00009E0B0FBF2FCB0FBF2F302FB1C00303073
:1003000078541846491C0028F3D123462A46304623
:10031000BDE8F04100F00CB8000000002D00000026
:100320002B000000200000007047704770477047A6
:100330002DE9F0470D4699469246044600F12408FF
:100340000168880604D5E06921F01001216000E011
:100350000120A84201DD471B00E00027A1697A19AE
:1003600002EB0900081AA0612078C00602D42046DA
:10037000AFF30080002608E0D4E901211AF8060056
:100380009047206A401C761C20624E45F4DB2078A2
:10039000C0060AD52046AFF3008006E0D4E901216B
:1003A00030209047206A401C2062381EA7F10107C8
:1003B000F4DC07E0D4E9012118F805009047206A31
:1003C000401C2062281EA5F10105F3DC2046AFF396
:1003D00000802078000602D50220BDE8F0870120C9
:1003E000FBE710B5436913B1AFF3008001E0FFF7FD
:1003F00035FF012010BD127800F124010A7000229F
:100400004A700122EDE711684FF0FF32E9E7000082
:10041000074B70B50D467B4400F011F804462846A2
:1004200000F020F810B14FF0FF3070BD204670BDD5
:10043000CB0E000001694A1C02610878704700B5C4
:100440008FB0CDE901310021059105497944CDE90D
:10045000031011466846FFF7CDFE0FB000BD000047
:10046000E5FFFFFF007B00F080007047754600F05D
:1004700029F8AE4605006946534620F00700854638
:1004800018B020B5FFF796FEBDE820404FF00006FB
:100490004FF000074FF000084FF0000B21F007016C
:1004A000AC46ACE8C009ACE8C009ACE8C009ACE8AF
:1004B000C0098D4670470446AFF300802046FFF721
:1004C00064FE000000487047B001002010B5102005
:1004D00000F036F8012813D10A2000F0E2FE0948A6
:1004E000006800F0100058B90748006840F010009C
:1004F000054908600548006880F02000034908604D
:1005000010BD000008180140140401400C0C01400B
:1005100010B5202000F014F801280BD1064800681F
:1005200040F02000044908600448006880F0200082
:100530000249086010BD0000140401400C0C014089
:1005400001460020034A12680A400AB1012000E077
:1005500000207047140401402DE9F04102460025B7
:100560000026002000230024002791F803C00CF08F
:100570000F0591F803C00CF0100CBCF1000F03D074
:1005800091F802C04CEA050591F800C0BCF1000FDB
:1005900031D0146800202BE04FF0010C0CFA00F36E
:1005A000B1F800C00CEA03069E4220D183004FF050
:1005B0000F0C0CFA03F7BC4305FA03FC4CEA0404E5
:1005C00091F803C0BCF1280F06D14FF0010C0CFAD2
:1005D00000FCC2F814C00AE091F803C0BCF1480F57
:1005E00005D14FF0010C0CFA00FCC2F810C0401C01
:1005F0000828D1D31460B1F800C0BCF1FF0F34DD7E
:10060000546800202EE000F1080C4FF0010808FAB1
:100610000CF3B1F800C00CEA03069E4221D183001E
:100620004FF00F0C0CFA03F7BC4305FA03FC4CEA3D
:10063000040491F803C0BCF1280F05D100F1080CA7
:1006400008FA0CF8C2F8148091F803C0BCF1480F06
:1006500007D100F1080C4FF0010808FA0CF8C2F8B5
:100660001080401C0828CED35460BDE8F081000003
:10067000F0B50A46002300240021002500F00046C2
:10068000B6F1004F02D11D4EF16901E01B4E7168B9
:10069000C0F3034583B200F44016B6F5401F08D1FD
:1006A00021F07061154E766826F07066134F7E60FB
:1006B00012E000F48016B6F5801F06D1032606FA74
:1006C00005F4A14341F0706106E0460D360103FADE
:1006D00006F6B14341F0706122B1460D360103FACE
:1006E00006F6314300F00046B6F1004F02D1034E4A
:1006F000F16101E0014E7160F0BD000000000140B9
:10070000416170470161704708B50121084600F05A
:100710004BFA01210E48FFF7ABFF0121082000F042
:1007200043FA0C20ADF8000010208DF803000320E0
:100730008DF8020069460748FFF70EFF04210548BF
:10074000FFF7E0FF08210348FFF7DCFF08BD0000CA
:1007500000023000000C014070B5002100230F2280
:10076000C47804B3154C246804F4E064C4F5E06470
:10077000210AC1F10403CA40447804FA03F18478E1
:100780001440214309010E4C0678A155047804F069
:100790001F050124AC4005786D11AD0005F1E02581
:1007A000C5F8004109E0047804F01F050124AC40BD
:1007B000044D0678761145F8264070BD0CED00E03A
:1007C00000E400E080E100E070B5002419E004F1ED
:1007D000B001C8B2002100F08DF90021102000F016
:1007E00089F90021084600F085F9002505E001217E
:1007F000002000F07FF9681CC5B2802DF7DB601C7B
:10080000C4B2082CE3DB70BD2DE9F04105468846F3
:1008100016461C4600270AE007FB065188B223460D
:100820003246414600F0BCF8A41C781C87B2207800
:100830000028F1D1BDE8F08108B50121042000F0C5
:10084000B3F90121082000F0AFF94FF42040ADF8D2
:10085000000010208DF8030003208DF80200694687
:100860000848FFF779FE4FF41840ADF800006946DC
:100870000548FFF771FE4FF400410348FFF742FFC0
:1008800008BD0000000C01400008014010B5FFF752
:10089000D3FF4FF400614148FFF732FF642000F0BE
:1008A00000FD4FF480513D48FFF72CFF0021AE20A2
:1008B00000F020F90021084600F01CF9002110206A
:1008C00000F018F90021402000F014F900218120E7
:1008D00000F010F90021CF2000F00CF90021A12038
:1008E00000F008F90021C82000F004F90021A6203A
:1008F00000F000F90021A82000F0FCF800213F20C2
:1009000000F0F8F80021D32000F0F4F800210846A8
:1009100000F0F0F80021D52000F0ECF80021802054
:1009200000F0E8F80021D92000F0E4F80021F120DF
:1009300000F0E0F80021DA2000F0DCF800211220BD
:1009400000F0D8F80021DB2000F0D4F8002140208E
:1009500000F0D0F80021202000F0CCF80021022087
:1009600000F0C8F800218D2000F0C4F80021142008
:1009700000F0C0F80021A42000F0BCF80021A6205F
:1009800000F0B8F80021AF2000F0B4F8FFF71CFF2A
:100990000021084600F0F2F810BD000000080140F8
:1009A0002DE9F0470746884615469946002612E08D
:1009B00099F800004C4911F81610884209D199F8AD
:1009C0000100012101EB4601474A515C884200D1F8
:1009D00002E0701CC6B2EBE700BF78197F2818DD73
:1009E00079197F2291FBF2F12846EA1705EB527242
:1009F000D21002FB018101F0FF0878197F38A8426C
:100A000001DA002705E078197F3890FBF5F068439C
:100A100087B2102D24D1F8B2414600F0AFF800247F
:100A200008E004EB4611314A505C012100F062F805
:100A3000601CC4B2102CF4DB08F10102D1B2F8B290
:100A400000F09CF8002409E004EB46111031274A1D
:100A5000505C012100F04EF8601CC4B2102CF3DB96
:100A6000182D3ED1F8B2414600F088F800240AE083
:100A700006EBC60104EBC1011D4A505C012100F0E8
:100A800039F8601CC4B2182CF2DB08F10102D1B2B3
:100A9000F8B200F073F800240BE006EBC60104EB9B
:100AA000C1011831124A505C012100F023F8601C8A
:100AB000C4B2182CF1DB08F10202D1B2F8B200F096
:100AC0005DF800240BE006EBC60104EBC1013031F8
:100AD000074A505C012100F00DF8601CC4B2182CCC
:100AE000F1DBBDE8F087000060450008874500089D
:100AF000E747000870B504460E464FF400411D4814
:100B0000FFF7FEFD4FF400411B48FFF7F9FD2EB142
:100B10004FF400611848FFF7F5FD04E04FF4006161
:100B20001548FFF7EDFD00251BE04FF4005111487B
:100B3000FFF7E6FD04F0800028B14FF400410D48B6
:100B4000FFF7E0FD04E04FF400410A48FFF7D8FD4D
:100B50004FF400510748FFF7D5FD6006040E681CEE
:100B6000C5B2082DE1DB4FF400410348FFF7CAFD91
:100B700070BD0000000C01400008014070B5044643
:100B80000D4605F1B001C8B20021FFF7B3FF1021F7
:100B900041EA24100021FFF7ADFF04F00F0000210F
:100BA000FFF7A8FF70BD000029B1064A9269024311
:100BB000044B9A6104E0034A92698243014B9A61B3
:100BC000704700000010024030B5002100220024D0
:100BD00000232D4D6D6805F00C0121B1042905D0CD
:100BE000082923D105E0294D056022E0274D056045
:100BF0001FE0254D6D6805F47012234D6D6805F4F6
:100C00008034022505EB92421CB9214D5543056005
:100C10000BE01D4D6D6805F400351DB11C4D5543AD
:100C2000056002E0194D5543056002E0174D05606F
:100C300000BF00BF144D6D6805F0F0010909154DA6
:100C40006B5C0568DD4045600F4D6D6805F4E06143
:100C5000090A104D6B5C4568DD4085600A4D6D6882
:100C600005F46051C90A0B4D6B5C4568DD40C560F9
:100C7000054D6D6805F44041890B074D6B5CC568F7
:100C8000B5FBF3F5056130BD0010024000127A009B
:100C900000093D000A0000201A00002010B500F0F5
:100CA00001F810BD0CB50020019000903348006899
:100CB00040F480303149086000BF3048006800F4DB
:100CC000003000900198401C0190009818B90198DC
:100CD000B0F5A06FF1D12948006800F4003010B1E0
:100CE0000120009001E0002000900098012843D1ED
:100CF0002348006840F01000214908600846006859
:100D000020F0030008600846006840F00200086018
:100D10001A484068194948600846406848600846D3
:100D2000406840F4806048600846406820F47C10C9
:100D300048600846406840F4E8104860084600688B
:100D400040F08070086000BF0C48006800F0007040
:100D50000028F9D00948406820F00300074948609E
:100D60000846406840F00200486000BF0348406801
:100D700000F00C000828F9D10CBD00000010024062
:100D8000002002404FF0E020006920F004004FF006
:100D9000E02108617047000010B51348006840F07A
:100DA00001001149086008464068104908400E4992
:100DB0004860084600680E4908400B49086008462C
:100DC000006820F4802008600846406820F4FE0097
:100DD00048604FF41F008860FFF760FF4FF000602D
:100DE0000449086010BD0000001002400000FFF838
:100DF000FFFFF6FE08ED00E02DE9F04704211E4854
:100E000000F05DF840B104211B4800F04FF81A488B
:100E100000F052F8194908800221174800F04FF8F5
:100E2000002827D00221144800F040F84FF4007148
:100E3000114800F03BF8104800F03BF807463846F0
:100E400000F056FB80460D48008800F051FB8146BB
:100E5000414600F06BFA0646094900F05DFB054685
:100E600000F026FB84B2234604480288394605A0D8
:100E7000FFF7B4F9BDE8F087000800400800002043
:100E80000000C842D6DCC6DAA3BA2564202020B808
:100E9000DFB5E7C6BDA3BA2564202020D5BCBFD5E9
:100EA000B1C8A3BA256425250D0A0000CA430282F1
:100EB00070470146888E70470146088F704730B5ED
:100EC0000246002000230024158A05EA01039589C3
:100ED00005EA010413B10CB1012000E0002030BD8F
:100EE00010B52021144800F0EFF801280BD112486A
:100EF000001D00881149124A127888541048007861
:100F0000401C0F49087040F224410B4800F0E9F8FA
:100F100001280FD1084800880748001D00880020DC
:100F20000649074A12788854084600F077F80020EE
:100F30000349087010BD0000003801402000002067
:100F40000400002010B586B0044601210420FFF7FC
:100F50002BFE01218803FFF727FE4FF40070ADF848
:100F6000140018208DF8170003208DF8160005A92D
:100F70002048FFF7F1FA4FF48060ADF81400042028
:100F80008DF8170003208DF8160005A91948FFF702
:100F9000E3FA01940020ADF80800ADF80A00ADF8BE
:100FA0000C00ADF810000C20ADF80E0001A912489D
:100FB00000F0E6F8012240F225510F4800F0BBF89E
:100FC000012240F224410C4800F0B5F825208DF8AC
:100FD000000001208DF801008DF802008DF803005B
:100FE0006846FFF7B9FB0121034800F061F806B03D
:100FF00010BD0000000801400038014010B5044653
:1010000000BF4021044800F05FF80128F9D12146D3
:10101000014800F021F910BD0038014010B5044628
:1010200003E02078FFF7EAFF641C20780028F8D15D
:1010300010BD000010B52021144800F045F801282B
:101040000BD11248001D00881149124A12788854A9
:1010500010480078401C0F49087040F224410B48AA
:1010600000F03FF801280FD1084800880748001D0C
:10107000008800200649074A1278885406A0FFF726
:10108000ADF800200349087010BD00000044004086
:10109000E800002005000020C4E3B7A2CBCDB5C412
:1010A000CAFDBEDDCAC7A3BA25730D0A0000000041
:1010B00021B1828942F40052828104E082894DF696
:1010C000FF731A408281704702460020B1F5007F0D
:1010D00000D100BF13880B400BB1012000E00020BD
:1010E000704770B50246002400230025002040F61A
:1010F0006A16B14200D100BFC1F3421501F01F03CF
:10110000012606FA03F3012D02D19689334006E049
:10111000022D02D1168A334001E0968A33400C1228
:10112000012606FA04F41688344013B10CB10120EC
:1011300000E0002070BDF0B5034600240026002525
:10114000002040F66A17B94200D100BF1846C1F32B
:10115000421401F01F06012707FA06F5012C01D100
:101160000C3004E0022C01D1103000E014301AB130
:1011700007682F43076002E00768AF430760F0BDD0
:101180002DE9F04786B005460E460024A24600BF72
:10119000A1460027B08900B100BF2F462C8A4CF62B
:1011A000FF700440F08804432C82AC894EF6F310A3
:1011B0000440B08831890843718908430443AC81F5
:1011C000AC8A4FF6FF400440B0890443AC8201A8CA
:1011D000FFF7FAFC1F48874202D1DDF810A001E0BA
:1011E000DDF80CA0A88900F4004040B10AEBCA0069
:1011F00000EB0A1031684900B0FBF1F807E00AEB98
:10120000CA0000EB0A1031688900B0FBF1F86420D5
:10121000B8FBF0F004012009642101FB1089A889C2
:1012200000F4004040B1322000EBC900B0FBF1F007
:1012300000F00700044308E0322000EB09106421AD
:10124000B0FBF1F000F00F0004432C8106B0BDE8C4
:10125000F087000000380140C1F308028280704727
:10126000014600BF7047FF214FF0E022916142F23A
:101270002831414351611146096941F00101116171
:1012800000BF4FF0E021096901F480310029F8D056
:101290004FF0E021096921F001014FF0E0221161D6
:1012A000704730B503460025B3F5E96F03DC1846F7
:1012B000FFF7D9FF15E004E0A3F5E96083B2681CED
:1012C000C5B2B3F5E96FF7DA002405E04FF4E96041
:1012D000FFF7C9FF601CC4B2AC42F7DB1846FFF74A
:1012E000C2FF30BD00BF054A128802F04002002A4A
:1012F000F9D0C2B2014B1B1D1A8070470038014063
:10130000FFF740FD4FF4E130FFF71CFEFFF7FCF95B
:10131000FFF7BCFA03A3102200210846FFF774FA76
:1013200000BFFEE7C6D5CDA8000000004FF47F0C3B
:101330001CEAD0121EBF1CEAD11392EA0C0F93EAEA
:101340000C0F00F0858090EA010F48BF42F48072D4
:1013500040F4000C41F400002CF07F4120F07F406D
:1013600000B58142A2EB03020FF2081CACEB504E19
:10137000C0F100009EF800E04FEA4E0E00FB0EFCAC
:1013800038BF49004FEA2C1C02F5FA020CFB0EF3A1
:101390004FEACE1E4FEA112C4FEAC1210EEB635EDD
:1013A00042EB22420EFB0CFC4FEA1C5300FB0311E4
:1013B0004FEA112C4FEA01310EFB0CFC4FEADC4CDA
:1013C00000FB0C11C14228BF09184CEB03335DF838
:1013D00004EB10EB410143EBC250B2F57C0F38BF78
:1013E000704729D512F0F00F1CBF00F1C04000F08B
:1013F00000407047008182838485868788898B8C32
:101400008D8E8F919293959697999A9C9D9FA0A26D
:10141000A3A5A7A8AAACAEB0B2B3B5B7B9BCBEC0BD
:10142000C2C5C7C9CCCED1D4D7D9DCDFE2E6E9EC5E
:10143000F0F3F7FAFE0000004FEA400C0CF1807C5C
:10144000BCF17E4F28BF7047B0F1C04000F02BB90F
:1014500090EA010F0CEAD11348BF42F48072624552
:1014600038BF634507D213F47F0F16D080EA01001E
:1014700000F00040704710B500F0CFF8097EFC3E48
:1014800000F005B880EA010000F00040704780EAF3
:10149000010000F0004000F006B912F47F0F04BF15
:1014A0000248704780EA010000F0FDB80000C07FEC
:1014B000C10DD1F19E0206DB4FEA002343F0004349
:1014C00023FA02F07047004207D54FEA4001B1F11C
:1014D000FE4F02D24FF00000704710B500F09DF8AB
:1014E00049922480002070476FEA20007047000076
:1014F000B0FA80F310FA03F2C3F19D030AD0D905C4
:1015000001EB1220530638BF704700F1010008BFFD
:1015100020F00100704700004FF47F0C1CEAD0124D
:101520001EBF1CEAD11392EA0C0F93EA0C0F00F0D5
:10153000478090EA010F48BF42F480724FF0004CA0
:101540004CEA00204CEA012102EB0302A0FB01134C
:10155000A2F50002002918BF43F001035B0028BF79
:101560004FEA330342EB22425FEA132C4CEBC250AA
:101570002EBFBCEB436FB2F57C0F70474FEA036C94
:10158000BCF1004F08BF20F00100B2F57C0F38BF5E
:1015900070470BD582F0FF0212F5803FC8BF70473D
:1015A00000F1C040D8BF00F00040704700F5000CCB
:1015B0005FEA4C0C48BF7047B0F1C04000F073B810
:1015C00090EA010F0CEAD11348BF42F480726245E1
:1015D00038BF634504D280EA010000F00040704744
:1015E00010B500F01AF800BF8900013E00F007B8FE
:1015F00000F009B85FEA410C5FEA1C6C08D080EA91
:10160000010000F050B85FEA400C5FEA1C6CF6D1B4
:101610004FF00040A0F5800070470EF1020E2EF052
:10162000030E5EF8044B244204D44FEA4102B2F1A7
:101630007F4F11D84FEA4003B3F17F4F0CD80ED142
:101640004FEAD07CB2F17F4F0CEB4C0C0CF1020C4A
:1016500008BF4CEBD17C04E04FF0080C01E04FEAEE
:10166000D17C0CEB4C0324FA03F404F00704B4F12E
:10167000040C06D20EEB840CBDE810404CF0010CBB
:101680006047DFE80CF0070802024FF00040A0F5C9
:10169000800010BD0846420018BFD2F1807288BF9A
:1016A00000F0004010BDFF2141EAD050C005704756
:1016B0000000000000005E0000040602243C243C00
:1016C000004CFE001E7A5E78705E3E480006000008
:1016D00000007C82423C000018103C1810107C1066
:1016E00000C00000101010100040000080701C02AC
:1016F0003844380000447C406C544C0044546C0026
:1017000030687C604C4C7C00784C7C0000047C0091
:101710006C546C005C543C00000048000000C800A1
:10172000001824421818181800422418000C540CF1
:101730003C7A767C40383840447C7C003844440015
:10174000447C3800007C7C00407C7C003864642051
:10175000007C7C0000447C448084FC04007C4400C9
:10176000407C44007C607C00407C7C043844380031
:10177000407C5C003864F800007C3C404C547C00A9
:1017800004447C44007C7C000C30300C1C247C0C19
:101790006C106C000448704864544C000000FE005B
:1017A000000638C000FE000000010001808080803B
:1017B0000000010068687840007E780070484800AA
:1017C000784A7E0000787800487E4A00F8A8B8C8B9
:1017D000427E780000487A400088FA00007E380097
:1017E00000427E4078087808487878007048780091
:1017F00000F8F80078C8F8004878480000787800C9
:10180000087C4800007878001820201818687808AC
:101810004830480088D83808007878000010FE82E8
:101820000000FF0082FE1000010102020000000023
:1018300000000000002F0000000007000700001457
:101840007F147F1400242A7F2A1200626408132365
:1018500000364955225000000503000000001C22FC
:101860004100000041221C000014083E081400083A
:10187000083E0808000000A06000000808080808EA
:10188000000060600000002010080402003E514982
:10189000453E0000427F4000004261514946002120
:1018A00041454B31001814127F100027454545393A
:1018B000003C4A4949300001710905030036494995
:1018C000493600064949291E00003636000000004E
:1018D0005636000000081422410000141414141499
:1018E0000000412214080002015109060032495942
:1018F000513E007C1211127C007F49494936003E5E
:1019000041414122007F4141221C007F4949494118
:10191000007F09090901003E4149497A007F080812
:10192000087F0000417F4100002040413F01007FCF
:1019300008142241007F40404040007F020C027F9B
:10194000007F0408107F003E4141413E007F0909AD
:101950000906003E4151215E007F091929460046D3
:10196000494949310001017F0101003F4040403FAA
:10197000001F2040201F003F4038403F00631408F4
:1019800014630007087008070061514945430000CF
:101990007F41410000552A552A55000041417F00F2
:1019A00000040201020400404040404000000102E7
:1019B0000400002054545478007F484444380038D0
:1019C0004444442000384444487F00385454541858
:1019D00000087E0901020018A4A4A47C007F08046A
:1019E00004780000447D4000004080847D00007F3A
:1019F000102844000000417F4000007C0418047857
:101A0000007C0804047800384444443800FC242452
:101A100024180018242418FC007C0804040800483A
:101A20005454542000043F444020003C4040207C5B
:101A3000001C2040201C003C4030403C004428104A
:101A40002844001CA0A0A07C004464544C441414FE
:101A50001414141400000000000000000000000036
:101A600000000000000000F800000000000000334B
:101A70000000000000100C02100C0200000000002A
:101A8000000000000040C07840C0780000043F041F
:101A9000043F040000708888FC08300000182020F3
:101AA000FF211E00F008F0806018000000310C03D8
:101AB0001E211E0000F00888700000001E21232C4B
:101AC0001927211000120E00000000000000000085
:101AD00000000000000000E0180402000000000701
:101AE0001820400000020418E00000000040201808
:101AF00007000000404080F0804040000202010FDB
:101B00000102020000000000E000000000010101ED
:101B10000F010101000000000000000000907000B3
:101B200000000000000000000000000000010101B2
:101B30000101010000000000000000000030300042
:101B40000000000000000000C0380400006018071A
:101B50000000000000E010080810E000000F102056
:101B600020100F0000001010F800000000002020DE
:101B70003F202000007008080808F00000302824EA
:101B80002221300000300808088870000018202149
:101B900021221C000000804030F8000000060524CF
:101BA000243F242400F88888880808000019202091
:101BB00020110E0000E0108888900000000F112016
:101BC00020201F0000180808886818000000003E48
:101BD000010000000070880808887000001C2221A5
:101BE00021221C0000F008080810E0000001122269
:101BF00022110F00000000C0C000000000000030F3
:101C0000300000000000008000000000000000E044
:101C100000000000000080402010080000010204C5
:101C200008102000004040404040400000020202F6
:101C3000020202000008102040800000002010086E
:101C4000040201000070480808887000000000309D
:101C500037000000C030C828E810E0000718272827
:101C60002F2817000000C038E0000000203C2302AD
:101C70000227382008F8888888700000203F20203C
:101C800020110E00C030080808083800071820206E
:101C90002010080008F808080810E000203F202065
:101CA00020100F0008F88888E8081000203F202046
:101CB0002320180008F88888E8081000203F20003A
:101CC00003000000C0300808083800000718202072
:101CD000221E020008F808000008F808203F210131
:101CE00001213F20000808F8080800000020203FDC
:101CF0002020000000000808F8080800C08080804C
:101D00007F00000008F888C028180800203F200144
:101D10002638200008F8080000000000203F20209E
:101D20002020300008F8F800F8F80800203F013EB5
:101D3000013F200008F830C00008F808203F2000CC
:101D400007183F00E01008080810E0000F102020DE
:101D500020100F0008F808080808F000203F2101B3
:101D600001010000E01008080810E0000F1028280A
:101D700030504F0008F8888888887000203F200085
:101D8000030C302000708808080838000038202133
:101D900021221C00180808F8080818000000203F3D
:101DA0002000000008F808000008F808001F2020A4
:101DB00020201F000878880000C838080000073875
:101DC0000E01000008F800F800F8080000033E01CA
:101DD0003E030000081868808068180820302C0333
:101DE000032C30200838C800C83808000000203F05
:101DF0002000000010080808C838080020382621F4
:101E000020201800000000FE020202000000007FF7
:101E100040404000000438C0000000000000000105
:101E20000638C00000020202FE00000000404040F0
:101E30007F00000000000402020400000000000017
:101E40000000000000000000000000008080808092
:101E5000808080800002020400000000000000007A
:101E60000000000000008080800000000019242491
:101E7000123F200010F0008080000000003F112081
:101E800020110E000000008080800000000E112054
:101E900020201100000080808090F000001F202092
:101EA00020103F200000808080800000001F24243C
:101EB00024241700008080E0909020000020203F24
:101EC000202000000000808080808000006B9494BF
:101ED0009493600010F0008080800000203F21007B
:101EE00000203F2000809898000000000020203F44
:101EF00020200000000000809898000000C0808032
:101F0000807F000010F0000080808000203F2406C9
:101F100029302000001010F8000000000020203FB1
:101F2000202000008080808080808000203F200072
:101F30003F20003F8080008080800000203F210003
:101F400000203F200000808080800000001F2020B3
:101F500020201F00808000808000000080FF9120F2
:101F600020110E000000008080008000000E112073
:101F70002091FF80808080008080800020203F2191
:101F80002000010000008080808080000033242435
:101F900024241900008080E0808000000000001FE1
:101FA000202010008080000000808000001F202082
:101FB00020103F20808080008080800000030C3053
:101FC0000C0300008080008080008080010E300CB7
:101FD0000738060100808080008080000020310EDC
:101FE0002E312000808080000080808000818678F3
:101FF0001806010000808080808080000021302C45
:10200000222130000000000000FC0202000000005D
:10201000013E404000000000FF0000000000000002
:10202000FF0000000202FC000000000040403E01F2
:102030000000000000020102020402000000000093
:102040000000000000000000000000000000000090
:102050000000000000000000000000000000000080
:1020600000000000000000000000000000F0F00090
:10207000000000000000000000770F0000000000DA
:1020800000000000001C1C00000000000000806038
:10209000301C8C60301C0C000000000000000000B0
:1020A0000000000000000000000000000000000030
:1020B00000000000F000000000F00000008383FF3B
:1020C00083838383FB87830000011F0101010101DA
:1020D0001F010100000080C06020F820E0C0000067
:1020E000000003070C18FF71E18100000000070FDA
:1020F00012107F100F070000C0301030C00000C069
:102100003000000007181018CF38C6311030C0005A
:102110000000180700000718101807000000E0F082
:1021200010F0E00000000000C0E0173FF8C703080F
:10213000F8080800070F181010130F0E1910100CD4
:1021400000008C4C3800000000000000000000007F
:10215000000000000000000000000000000000007F
:102160000000000000000000000080601008040073
:102170000000000000FE0100000000000000000060
:102180000000030C102040000004081060800000D4
:1021900000000000000000000001FE000000000040
:1021A000004020100C0300000000000000000000B0
:1021B0000000C08000000000006666243810FF1890
:1021C0003C246666000000000000030000000000E0
:1021D000000000000000800000000000001010104F
:1021E0001010FF101010101000000000000003007D
:1021F00000000000000000000000000000000000DF
:1022000000000000000000000000000000008C4CF6
:102210003800000000000000000000000000000086
:10222000000000000010101010101010101010000E
:10223000000000000000000000000000000000009E
:10224000000000000000000000000000000000008E
:102250000000000000001C1C1C000000000000002A
:102260000000000000000000E0380C00000000004A
:1022700080701C03000000000060380E01000000A8
:1022800000000000000080C060202060C0800000CE
:1022900000FEFF010000000001FFFE000001070E2C
:1022A000181010180E0701000000404040C0E00068
:1022B000000000000000000000FFFF000000000020
:1022C00000001010101F1F10101000000080402090
:1022D00020202060C08000000003030000C06030A8
:1022E0001F07000000181C1211101010101E000013
:1022F00000C0C020202060C080000000000101005C
:102300001010182FE7800000000E0E10101010188B
:102310000F07000000000000000080E0E000000067
:1023200000C0A098848380FFFF80808000000000B0
:102330000010101F1F1010000000E020202020209F
:102340002020000000003F1008080818F0E00000FE
:1023500000070B101010101C0F030000000080C0BD
:1023600040202020E0C0000000FCFF2110080808E9
:1023700018F0E0000001070C18101010080F0300FF
:102380000000C0602020202020E06000000001004C
:102390000000E0180700000000000000001F1F0000
:1023A000000000000080C0602020202060C080006D
:1023B0000083CF6C1810303068CF830000070F08FF
:1023C00010101010180F07000000C0C0202020209F
:1023D000C0800000001F3F604040402010FFFE0012
:1023E00000000C1C101010080F030000000000007B
:1023F000000000000000000000000000001C1C1C89
:102400000000000000000000001C1C1C0000000078
:1024100000000000000000000000000000000000BC
:10242000000C0C00000000000000000000D8380084
:1024300000000000000000000000008040201000AC
:10244000000010284482010000000000000000008D
:10245000000001020408100000000000000000005D
:1024600000000000004444444444444444444400C4
:10247000000000000000000000000000000010202C
:102480004080000000000000000000000000018209
:1024900044281000000010080402010000000000A1
:1024A00000008040402020202060C08000000706FF
:1024B0000000E01018080F0700000000001C1C1CA2
:1024C000000000000000C0E020109090A06080009C
:1024D00000FEFF00F8FF03FC07807F000000070EEE
:1024E00018111111090C0200000000008060E000CA
:1024F00000000000000080784740415FF08000004D
:10250000101C131000000000111F18100020E0E044
:1025100020202060C0C000000000FFFF1010101835
:102520002FE7800000101F1F10101010180F070059
:10253000000080C04020202060E0800000FCFF01FF
:1025400000000000000003000001070E181010102A
:10255000080C03002020E0E020202040C080000084
:102560000000FFFF0000000001FFFE0010101F1F11
:10257000101010080E07010020E0E020202020208D
:102580006060800000FFFF10101010FC00000100D0
:10259000101F1F10101010101018060020E0E0206F
:1025A000202020206060800000FFFF10101010FC31
:1025B00000000100101F1F101000000000000000AC
:1025C000000080C0602020204080000000FCFF014F
:1025D00000004040C0C340400001070E181010101A
:1025E0000F0F000020E0E0200000000020E0E020CD
:1025F00000FFFF101010101010FFFF00101F1F1021
:1026000000000000101F1F100000202020E0E0202C
:10261000202000000000000000FFFF00000000007C
:1026200000001010101F1F101010000000000020EC
:102630002020E0E020202000000000000000FFFF3C
:10264000000000000060E08080C07F3F00000000CC
:1026500020E0E0200000A0E06020000000FFFF304C
:102660000C3AE18000000000101F1F100000001352
:102670001E18100020E0E0202000000000000000F4
:1026800000FFFF000000000000000000101F1F10EE
:10269000101010101018060020E0E000000000C02C
:1026A000E0E0200000FF0FFFE0807C03FFFF000060
:1026B000101F10000F0700101F1F10000020E0E087
:1026C0008000002020E020200000FF01071E78C0CD
:1026D00000FF000010101F10100000030F1F00006B
:1026E000000080C060202060C080000000FEFF016C
:1026F0000000000000FFFE000001070E1810101877
:102700000C07010020E0E0202020202040C08000B5
:1027100000FFFF2020202030101F0F00101F1F106F
:102720001000000000000000000080C06020206059
:10273000C080000000FEFF010000000000FFFE005E
:102740000001070E1911173C6C67210020E0E02002
:102750002020202060C0800000FFFF10101070D0EB
:10276000080F0700101F1F1000000001071E18109F
:102770000080C0602020202040E0000000070F1CE7
:1027800018383070E0E1800000070C0810101010BD
:10279000180F07008060202020E0E02020206080CB
:1027A0000100000000FFFF00000000010000001019
:1027B000101F1F10100000000020E0E020000000AB
:1027C00020E020000000FFFF0000000000FF0000EC
:1027D0000000070F18101010080700002060E0200C
:1027E00000000000A06020000000077EE00080786C
:1027F0000700000000000000071E030000000000AA
:1028000020E020002060E0200020E0200003FFC046
:10281000C03C3FF0807C03000000001F0300001F4D
:1028200007000000002060E020000020E0202000E1
:1028300000000001877CE8860100000000101816E7
:10284000010000131E1810002060E02000000000AE
:1028500020A060200000010F3CF8E01806010000F5
:1028600000000010101F1F10100000000080E0602A
:1028700020202020A0E02000000100008060180639
:102880000300000000101C17111010101018060093
:102890000000000000FC040404040000000000002C
:1028A00000FF00000000000000000000007F40402A
:1028B00040400000000030C00000000000000000A8
:1028C000000000000718E080000000000000000089
:1028D000000000030C708000000004040404FC00ED
:1028E00000000000000000000000FF0000000000E9
:1028F0000000404040407F00000000000000000851
:1029000004020204080000000000000000000000B3
:1029100000000000000000000000000000000000B7
:1029200000000000000000000000000000000000A7
:102930000000000000000000808080808080808097
:10294000808080800000000404080800000000006F
:102950000000000000000000000000000000000077
:102960000000000000000000000000000000000067
:10297000000000000000989884444444FCF80000E3
:10298000000F1F19101010080F1F10180020E0F082
:1029900000000000000000000000FFFF1808040411
:1029A0000CF8F00000001F0F08101010180F0300A3
:1029B00000000000000000000000000000E0F81827
:1029C0000404043C3800000000030F0C1010101029
:1029D000080600000000000000002020E0F00000D9
:1029E00000E0F81C04040408FFFF000000030F18B7
:1029F000101010081F0F0800000000000000000069
:102A0000000000000000E0F8888484848CF8E00076
:102A10000000030F0C10101010080400000000004C
:102A200080C0602020E0C00000040404FFFF040414
:102A300004000000000010101F1F10101000000004
:102A4000000000000000000000000000000070F81E
:102A50008C040CFCF40C0C0000707ECF85858DCDB1
:102A6000787800000020E0F0000000000000000086
:102A70000000FFFF08040404FCF8000000101F1F02
:102A8000100000101F1F1000000000000060600018
:102A9000000000000000040404FCFE000000000030
:102AA00000001010101F1F10101000000000000088
:102AB000000060606000000000000000040404FCEE
:102AC000FE0000000000C0C08080C07F3F0000000A
:102AD0000020E0F000000000000000000000FFFF08
:102AE0008040E01C0404000000101F1F10000013B1
:102AF0001E1810000000202020E0F0000000000060
:102B00000000000000FFFF000000000000001010A7
:102B1000101F1F1010100000000000000000000037
:102B20000000000004FCFC0804FCF80804FCFC00A5
:102B3000101F1F10101F1F10101F1F10000000007B
:102B400000000000000000000004FCFC0804040475
:102B5000FCF8000000101F1F100000101F1F1000C5
:102B600000000000000000000000000000E0F0187D
:102B70000C04040C18F0E00000030F0C10101010EF
:102B80000C0F030000000000000000000000000027
:102B90000004FCFC080404040CF8F0000080FFFFB3
:102BA000889010101C0F03000000000000000000BF
:102BB0000000000000E0F81C04040408F8FC000019
:102BC00000030F1810109088FFFF80000000000025
:102BD0000000000000000000040404FCFC100804D5
:102BE000041C18001010101F1F101010000000000F
:102BF0000000000000000000000000000000387825
:102C0000CCC484840C3C000000001E181010111964
:102C10001F0F00000000000000C0000000000000C6
:102C200000040404FFFF040404000000000000008E
:102C30000F1F1010100C000000000000000000002A
:102C4000000000000004FCFE00000004FCFE000088
:102C500000000F1F181010081F0F080000000000D0
:102C6000000000000000000000040C7CC400008094
:102C7000740C040000000000031F0C03000000009F
:102C8000000000000000000000000000041CF480B0
:102C900004ECFC8400E41C040000011F0F00000F82
:102CA0000F00000000000000000000000000000015
:102CB0000000040C3CE4C0241C0404000010101CA0
:102CC000120101131C181000000000000000000099
:102CD000000000000004043CC40000C43C040400E4
:102CE0000000C080817F0E01000000000000000095
:102CF000000000000000000000003C0404C4741C3C
:102D00000C0000000000181E13111010180E000017
:102D100000000000000000F80404000000000000B3
:102D2000001028C700000000000000000000003F65
:102D300040400000000000000000FF000000000014
:102D4000000000000000FF00000000000000000084
:102D50000000FF000000000000000404F800000074
:102D60000000000000000000C72810000000000064
:102D7000000040403F00000000000000000C020284
:102D80000204081810100C000000000000000000F1
:102D90000000000000000000000000000000000033
:102DA0000000000000000000000000000000000023
:102DB0000000000000000000000000000000000013
:102DC0000000000000000000000000000000000003
:102DD00000000000000000000000000000000000F3
:102DE000000000000000C0C0C0C0000000000000E3
:102DF0000000000000000FFFFF1F000000000000A7
:102E0000000000000000001F1F0000000000000084
:102E1000000000000000060F0F0600000000000088
:102E200000000080E0783C1C80E0783C1C00000042
:102E3000000003010000000301000000000000008A
:102E40000000000000000000000000000000000082
:102E50000000000000000000000000000000000072
:102E60000000000000C0000000000000C0000000E2
:102E700000383838F83F3838383838F83F383800B4
:102E8000007070F0FF7070707070F0FF7070700004
:102E90000000000F0000000000000F000000000014
:102EA00000000000808040F0404080800000000072
:102EB0000000001E7FF0C0FF00000C0F0F0000009C
:102EC0000000C0C0C00001FF07071EFCF0000000AA
:102ED000000003070408087F080C06030100000037
:102EE0000080C040C0800000000000C00000000062
:102EF0007EFF000000FF7E00E01C030000000000D9
:102F00000001030283611C03F8FE030103FEF800C5
:102F10000000000C0300000001070C080C07010072
:102F200000000080C04040C0000000000000000021
:102F300000007FFFC080603F0F0000000000000025
:102F4000F8FC03030F3E78E08081710F010100005F
:102F50000103060C0808080503070E0C0C06030005
:102F600000001C1CFC7800000000000000000000B5
:102F7000000203010000000000000000000000004B
:102F80000000000000000000000000000000000041
:102F90000000000000000000000000000000000031
:102FA00000000000000000000000C06030080400C5
:102FB00000000000000000F0FC0F01000000000015
:102FC000000000000000001F7FE000000000000083
:102FD00000000000000000000001070C1820400065
:102FE0000004083060C00000000000000000000085
:102FF0000000000000010FFCF000000000000000D5
:10300000000000000000E0FF1F00000000000000C2
:10301000004020180C070100000000000000000024
:1030200000000000000000000000000000000000A0
:103030000000183830604086FF8F4060303818003C
:103040000000181C0C0602F1FFE102060C1C18001F
:103050000000000000000000000000000000000070
:103060000000000000000000000000000000000060
:103070000000000000000000FE0000000000000052
:103080000000010101010101FF0101010101010035
:103090000000000000000000000000000000000030
:1030A0000000000000000000000000000000000020
:1030B0000000000000000000000000000000000010
:1030C0000000000000000000000000000000000000
:1030D0000080C7473F1E0000000000000000000005
:1030E00000000000000000000000000000000000E0
:1030F00000000000000000000000000000000000D0
:1031000000010101010101010101010101010100B1
:1031100000000000000000000000000000000000AF
:10312000000000000000000000000000000000009F
:10313000000000000000000000000000000000008F
:10314000000000000000000000000000000000007F
:103150000000060F0F060000000000000000000045
:10316000000000000000000000000000C070180017
:103170000000000000000000C0701C0701000000FB
:1031800000000000C0701C070100000000000000EB
:1031900000301C07010000000000000000000000DB
:1031A000000000000080C04040408000000000009F
:1031B0000000F0FE0F01000000000107FEF000001B
:1031C00000003FFFC000000000000080FF3F000043
:1031D0000000000103060C080808060301000000B7
:1031E0000000000000000080C0000000000000009F
:1031F00000000001010101FFFF00000000000000CD
:1032000000000000000000FFFF00000000000000C0
:103210000000000808080C0F0F0C08080800000048
:1032200000000000804040404040C080800000001E
:1032300000001E1900000000000000C1FF3E000059
:1032400000000000804030180C06030100C00000A0
:1032500000000E0D0C0C0C0C0C0C0C0C0E030000E2
:10326000000000808040404040C08000000000001E
:1032700000000F0F000000000080C17F3E00000032
:103280000000C0C00000010101030206FCF00000C4
:1032900000000307040808080808040603000000EB
:1032A000000000000000000000C0C000000000009E
:1032B000000000008060100C03FFFF000000000011
:1032C00000302C262120202020FFFF20202000007D
:1032D0000000000000000808080F0F0808080000A0
:1032E00000000000C0C0C0C0C0C0C0C0C0C000005E
:1032F000000000FF008040404040C080000000000F
:103300000000C0C30100000000000001FFFC00003D
:10331000000003040408080808080407030000006C
:10332000000000000080804040404080800000009D
:103330000000E0FC0781C0404040C0830300000063
:1033400000007FFF8300000000000001FFFC000080
:103350000000000107060C0808080C060300000026
:10336000000000C0C0C0C0C0C0C0C0C0C0C000001D
:1033700000000E030000000000E01806010000003D
:10338000000000000000C0FC03000000000000007E
:103390000000000000000F0F00000000000000000F
:1033A0000000000080C040404040C080000000009D
:1033B00000003E7FF1C0C080000080417F1E000001
:1033C00000F0FC0E0201010103070E1EFCF00000DC
:1033D00000010306040808080808040603010000A9
:1033E000000000808040404040408000000000001D
:1033F00000FCFF030000000000000003FEF80000D6
:10340000000103070C080808080406E17F1F0000FC
:1034100000000707080808080C0603010000000068
:10342000000000000000000000000000000000009C
:10343000000000000000C0E0E0C00000000000004C
:10344000000000000000000101000000000000007A
:10345000000000000000060F0F0600000000000042
:10346000000000000000000000000000000000005C
:10347000000000000000C0C0C0000000000000000C
:103480000000000000000101010000000000000039
:103490000000000000006E7E1E0000000000000022
:1034A000000000000000000000000000804000005C
:1034B000000000008040201008040201000000000D
:1034C00000000003040810204080000000000000FD
:1034D00000000000000000000000010204080000DD
:1034E00000000000000000000000000000000000DC
:1034F000002020202020202020202020202020000C
:10350000000808080808080808080808080808004B
:1035100000000000000000000000000000000000AB
:1035200000004080000000000000000000000000DB
:10353000000000000102040810204080000000008C
:10354000000000000000804020100804030000007C
:10355000000008040201000000000000000000005C
:10356000000000008080404040404080800000001B
:1035700000003C3F3900000000000080C17F3E0099
:1035800000000000000000003E03010100000000F8
:10359000000000000000060F0F0600000000000001
:1035A000000000000080C04040404080000000005B
:1035B00000E0FC0E0381E0780C04F83C0106F80002
:1035C000001FFFC0003F7F40203C7F402018870045
:1035D00000000003060408080808080406030000A9
:1035E000000000000000C0C0C0000000000000009B
:1035F00000000000C07C03033FFC800000000000CE
:10360000000080780F080808080B7FF88000000091
:10361000080C0F08080000000000080F0F0C08003D
:10362000004040C0C04040404040C080800000009A
:10363000000000FFFF000000000080C17F3E00008E
:10364000000000FFFF0101010101010206FCF00082
:103650000008080F0F0808080808080C06030100F6
:10366000000000000080C04040404080808000009A
:1036700000E0FC1E030000000000000001030E003B
:10368000003FFFC000000000000000000000C0007C
:1036900000000003060408080808080402010000EE
:1036A000004040C0C040404040C08080000000005A
:1036B000000000FFFF000000000000010FFCF00010
:1036C000000000FFFF00000000000000C0FF1F001E
:1036D0000008080F0F080808080C04030300000086
:1036E000004040C0C040404040404040C0C000009A
:1036F000000000FFFF000000000080E00001060065
:10370000000000FFFF0101010101030F0000800024
:103710000008080F0F080808080808080C0E010028
:10372000004040C0C0404040404040C0C0C00000D9
:10373000000000FFFF000000000080E00001060024
:10374000000000FFFF0101010101031F0000000054
:103750000008080F0F08080000000000000000002B
:103760000000000080804040404080800000000059
:1037700000E0FC0E03000000000000030E0000004B
:10378000001FFFC000000000000404FCFC04040053
:1037900000000003060C08080808040303000000EA
:1037A0004040C0C04040000000004040C0C0404019
:1037B0000000FFFF0000000000000000FFFF00000D
:1037C0000000FFFF0101010101010101FFFF0000F5
:1037D00008080F0F08080000000008080F0F08086D
:1037E00000000040404040C0C04040404000000059
:1037F00000000000000000FFFF00000000000000CB
:1038000000000000000000FFFF00000000000000BA
:10381000000000080808080F0F080808080000004A
:10382000000000000040404040C0C0404040400018
:10383000000000000000000000FFFF00000000008A
:10384000000000000000000000FFFF00000000007A
:103850000070F0F0808080C0603F1F00000000001A
:10386000004040C0C04040000040C0C04040000098
:10387000000000FFFF0080E01806030000000000C9
:10388000000000FFFF0300030F3CF0C00000000039
:103890000008080F0F0808000000090F0E080800B4
:1038A000004040C0C0404000000000000000000098
:1038B000000000FFFF00000000000000000000000A
:1038C000000000FFFF00000000000000000080007A
:1038D0000008080F0F080808080808080C0E010067
:1038E0004040C0C08000000000000080C0C04040D8
:1038F0000000FF0FFFF0000000807807FFFF0000CE
:103900000000FF00011FFEC0F00F0000FFFF0000DD
:1039100008080F080000030F000008080F0F080830
:103920004040C0C0800000000000004040C0404057
:103930000000FF01071E78E08000000000FF00008B
:103940000000FF0000000001071E78E080FF00007B
:1039500008080F080800000000000001070F000021
:103960000000000080804040404080800000000057
:1039700000F0FC0F01000000000000010FFCE0005F
:10398000001FFFC00000000000000000C0FF3F005B
:1039900000000003060408080808040603000000ED
:1039A000004040C0C0404040404040C08000000057
:1039B000000000FFFF0000000000000081FF7E000B
:1039C000000000FFFF0202020202020101000000EB
:1039D0000008080F0F0808000000000000000000A9
:1039E00000000000808040404040808000000000D7
:1039F00000F0FC0F01000000000000010FFCF000CF
:103A0000003FFF8080404040C080000080FF3F00BA
:103A10000000010307040808080F3F7663611000E7
:103A2000004040C0C04040404040C0808000000096
:103A3000000000FFFF000000000080C17F3E00008A
:103A4000000000FFFF010101073FF9C00000000076
:103A50000008080F0F0808000000010F0E080800FA
:103A600000000080C040404040C08080C000000096
:103A7000003E7FE1C0C08080000000030F00000016
:103A800000E08000000101030307061EFCF00000B7
:103A900000000F060408080808080C0603010000CF
:103AA0000000C0C0404040C0C040404040C0000096
:103AB00000060100000000FFFF00000000010700F9
:103AC00000000000000000FFFF00000000000000F8
:103AD000000000000008080F0F08080000000000A8
:103AE0004040C0C04040000000004040C040400096
:103AF0000000FFFF0000000000000000FF000000C9
:103B00000000FFFF0000000000000000FF000000B8
:103B100000000107060C0808080804020100000064
:103B2000004040C0C040000000000040C0C0400055
:103B300000000007FFF80000000080780700000088
:103B400000000000000FFFF0807807000000000078
:103B5000000000000000000F030000000000000053
:103B600040C0C040000040C0C040000040C0C04055
:103B70000001FFF8000000F3FFF80000C03F000064
:103B80000000003FFCE01E0101FFFCF00F00000000
:103B9000000000000F03000000000F010000000003
:103BA000004040C0C040000000004040C040400015
:103BB00000000001071E78E0C0300C030000000088
:103BC00000000000806018070F7CF0C000000000BB
:103BD0000008080E0B0800000000090F0E0C08007A
:103BE0000040C0C0C040400000004040C040400015
:103BF000000000031F7CE0800080700E01000000C8
:103C000000000000000003FFFE01000000000000B3
:103C1000000000000008080F0F0808000000000066
:103C2000000000C0C0C0404040404040C0C0400014
:103C30000000060301000000C0F0380E070100007C
:103C400000000080C0703C0F0300000000008000F6
:103C500000080E0F090808080808080C0C0F0100DE
:103C6000000000000000F8F8080808080808000034
:103C7000000000000000FFFF000000000000000046
:103C8000000000000000FFFF000000000000000036
:103C90000000000000003F3F2020202020200000E6
:103CA00000000060E00000000000000000000000D4
:103CB00000000000010F3CE0800000000000000058
:103CC0000000000000000001073CF0C00000000000
:103CD0000000000000000000000001073E784000E6
:103CE0000000080808080808F8F8000000000000B4
:103CF0000000000000000000FFFF000000000000C6
:103D00000000000000000000FFFF000000000000B5
:103D100000002020202020203F3F00000000000065
:103D20000000000020101C0C0C0C182000000000EB
:103D30000000000000000000000000000000000083
:103D40000000000000000000000000000000000073
:103D50000000000000000000000000000000000063
:103D60000000000000000000000000000000000053
:103D70000000000000000000000000000000000043
:103D80000000000000000000000000000000000033
:103D90008080808080808080808080808080808023
:103DA0000000000404040C081000000000000000E3
:103DB0000000000000000000000000000000000003
:103DC00000000000000000000000000000000000F3
:103DD00000000000000000000000000000000000E3
:103DE00000000000000000000000000000000000D3
:103DF000000080C040202020202060C08000000003
:103E000000C0E33310180808080804FFFF00000092
:103E10000003070C08080808080404070F08080630
:103E2000004040C0E0000000000000000000000072
:103E3000000000FFFF804020202060C0C000000084
:103E4000000000FFFF01000000000000FFFF000075
:103E50000000000F0706080808080C060300000011
:103E60000000000000000000000000000000000052
:103E700000000000C0C06020202020C080000000A2
:103E80000000FEFF010000000000000303800000AE
:103E900000000003070408080808080402010000E5
:103EA0000000000000000000004040C0E0000000F2
:103EB00000000080C0602020202040FFFF000000A4
:103EC0000000FEFF01000000000000FFFF000000F6
:103ED00000000003060C08080804020F0704040091
:103EE00000000000000000000000000000000000D2
:103EF00000000000C0402020202040C080000000C2
:103F00000000FEFF11101010101010101F1E0000F6
:103F10000000000307040C0808080804060100005C
:103F200000000000000000808040404040C0800051
:103F3000000020202020FEFF20202020200303005E
:103F4000000000000000FFFF000000000000000073
:103F50000000000808080F0F08080808000000000B
:103F60000000000000000000000000000000000051
:103F700000000000C0402020202060C0A060600041
:103F8000000000C7FF3020202020301F0F0000005D
:103F90000000387D47838383838382467E3C000014
:103FA000004040C0E00000000000000000000000F1
:103FB000000000FFFF804020202060C08000000043
:103FC000000000FFFF000000000000FFFF000000F5
:103FD0000008080F0F0808000008080F0F08080065
:103FE00000000000000080C0C08000000000000051
:103FF00000000020202020E1F1000000000000006F
:1040000000000000000000FFFF00000000000000B2
:10401000000000080808080F0F0808080800000042
:1040200000000000000000000080C0C0C0000000D0
:1040300000000000000020202020E1F1000000002E
:1040400000000000000000000000FFFF0000000072
:1040500000000060E080808080603F1F0000000062
:10406000004040C0E0000000000000000000000030
:10407000000000FFFF0000000020E06020200000A2
:10408000000000FFFF30180C3E71C08000000000EF
:104090000008080F0F0808000000090F0E0C0800A8
:1040A00000000040404040C0E00000000000000070
:1040B00000000000000000FFFF0000000000000002
:1040C00000000000000000FFFF00000000000000F2
:1040D000000000080808080F0F0808080800000082
:1040E00000000000000000000000000000000000D0
:1040F00020E0F040202020E0C040202020E0C00050
:1041000000FFFF00000000FFFF00000000FFFF00B5
:10411000080F0F080000080F0F080000080F0F0815
:10412000000000000000000000000000000000008F
:10413000004040C0E0804020202060C0800000009F
:10414000000000FFFF000000000000FFFF00000073
:104150000008080F0F0808000008080F0F080800E3
:10416000000000000000000000000000000000004F
:1041700000000000C0402020202040C0800000003F
:104180000000FCFF0100000000000001FFFE000035
:1041900000000003070408080808040703000000E3
:1041A000000000000000000000000000000000000F
:1041B000004040C0E0804020202060C0800000001F
:1041C000000000FFFF00000000000000FFFE0000F4
:1041D000008080FFFF86840808080C0703000000A9
:1041E00000000000000000000000000000000000CF
:1041F00000000080C04020202060C0C0E00000001F
:104200000000FEFF01000000000000FFFF000000B2
:1042100000000003060C0808088486FFFF80800069
:10422000000000000000000000000000000000008E
:104230000040404040E0E0008040402020E0C000DE
:104240000000000000FFFF0301000000000000006C
:1042500000080808080F0F08080808000000000000
:10426000000000000000000000000000000000004E
:104270000000000080C0602020202040C0E000003E
:1042800000000080070F0C1818383070E0C30000E1
:104290000000000F060408080808080C07030000C7
:1042A000000000000000000000000000000000000E
:1042B000000020202030F8FF2020202020000000D7
:1042C000000000000000FFFF0000000000000000F0
:1042D00000000000000003070C08080804030000A9
:1042E00000000000000000000000000000000000CE
:1042F000002020E0F0000000002020E0F00000009E
:10430000000000FFFF000000000000FFFF000000B1
:1043100000000003070C08080804020F070404004B
:10432000000000000000000000000000000000008D
:10433000002020E0E020000000002020E0602000BD
:1043400000000001073EF0C000C038070100000077
:10435000000000000000010F070100000000000045
:10436000000000000000000000000000000000004D
:104370002060E020200020E0E020000020E060201D
:104380000000077FF080F00F1FFCC0C03C0300005E
:1043900000000000070F000000010F0300000000F4
:1043A000000000000000000000000000000000000D
:1043B00000002020E0E0A000002020E020200000FD
:1043C000000000000081473E38E6C1000000000008
:1043D0000008080C0E0900000008090F0E0808006C
:1043E00000000000000000000000000000000000CD
:1043F000002020E0E0200000000020E060202000FD
:1044000000000000031E78C000E01C030000000054
:104410000000C0C0C0C0601F03000000000000001A
:10442000000000000000000000000000000000008C
:104430000000E0E0202020202020E0E060000000DC
:104440000000030080C0F0381E0703000080000059
:1044500000000C0E0B0908080808080C0E030000E9
:1044600000000000000000000000F008040400004C
:10447000000000000000000080807F0000000000BD
:1044800000000000000000010102FC00000000002C
:10449000000000000000000000001F20404000005D
:1044A0000000000000000000FF000000000000000D
:1044B0000000000000000000FF00000000000000FD
:1044C0000000000000000000FF00000000000000ED
:1044D0000000000000000000FF00000000000000DD
:1044E000000000040408F0000000000000000000CC
:1044F0000000000000007F8080000000000000003D
:10450000000000000000FC020101000000000000AB
:104510000000004040201F000000000000000000DC
:10452000001804020202060C3820604040201800E7
:10453000000000000000000000000000000000007B
:10454000000000000000000000000000000000006B
:10455000000000000000000000000000000000005B
:10456000C6D5CDA8B3ACC9F9B2A8B1DCD5CFB8FADD
:10457000CBE6BAECCDE2D1B0BCA3C0B6D1C0D2A3D9
:10458000BFD8C4A3CABD0040445464457E444444DB
:104590007E456454444000000000FF4949494949B0
:1045A0004949FF000000004042CC0000E2222A2AD4
:1045B000F22A2622E0000080403F4080FF8989895E
:1045C000BF89A9C9BF800040484848FF484842A267
:1045D0009E82A2C2BE000080601F207F4444404FE4
:1045E000484848484F40000414D454545454DF54AD
:1045F000545454D414040080601F020202020302C7
:10460000020202030000001060020CC000F888885B
:1046100088FF8888A8180004047C0380601F8043FA
:104620002C1028468180004042CC00807E22223E11
:10463000005465C664540040201F22415F49495F11
:104640004042425F42420000FE0222DA0610D25689
:104650005A535A56D2100000FF08100807101715B9
:1046600015FD1515171000003E22E2223E00FE92B5
:10467000929292FE000000203F201F111100FF4087
:10468000230C142241400000FE225A8608104424C4
:10469000F42C2724E4040000FF040887413F4080F5
:1046A000BF8595A59F80002030AC632018000404CE
:1046B00004FC04040400002267221212124040404D
:1046C000407F404040400000C0301F1010F000000C
:1046D000FF204080000000814021120C03000000F8
:1046E000FF000000030000000082929292929292DA
:1046F000929292FE000000040404040C340404446A
:10470000847F0404040400404042CC0008C808F838
:10471000090EF8084888000040201F2051484641F3
:1047200048504F404041000404E4040FF40404F4F2
:1047300044CF444444040040407D44447D444544C7
:104740007C44457C4040000000C2B282828282826A
:10475000FE828282828000002020100804024180B4
:104760007F000000000000404042CC00004A32229E
:104770002AF121312D00000080403F408081BDA101
:10478000A1BFA1A1BD8100101010FF902098482862
:10479000090E2848A818000242817F00404042428A
:1047A000427E42424240001010D0FF9014E4AFA479
:1047B000A4A4AFE4040000040300FF00894B2A1AFC
:1047C0000E1A2A4B88800010109090909090101034
:1047D000FF101011161000002060203F1010100074
:1047E000030C102040F8000000001010D0901214AC
:1047F000FC181010F0F8161010D050100000000037
:104800000808080808CFCA484F4848484F4F484C46
:10481000CB0808080800000000000000007F7F228D
:1048200022222222222222223F0000000000000039
:10483000000008706000000084848494A4E4E49480
:10484000948C88800000000004040404FC00000034
:10485000FF44444444FF4444444444FF00000000F7
:1048600020301808070810302F206060606F6060EB
:1048700060687C6F200000000020202020FE2420A3
:104880002020000808C8F808080808F818000000E8
:104890000202F21202FFFE4242624A0CF2111010B2
:1048A000121216FB10000000601C07060C0F1F30D0
:1048B000202020206F6262626262626760200000D6
:1048C0000010109090909090909090FE909090900A
:1048D00090D090181000000000000000FC444444F8
:1048E0004444447C444444444444FC0000000000EC
:1048F0004020100C03000000000000000000000039
:1049000000000000000000008080000C18008060A3
:10491000E02020202022FE202020A0602000000097
:10492000000107C0300E0100FF080838C8080F0852
:10493000886818080000000000013F3F4030184719
:1049400041202010080D0607091830202020000003
:1049500000000418300000F8080808F8F810509219
:10496000141CD01010000000020202FEFE00C03F26
:10497000F1F11113F144444544FE45444600000062
:1049800010180807070A1130272762626740404065
:104990004C6F60602020000000F80808887818003C
:1049A000101030D0921C18907010181000000000E9
:1049B00000FF00000708F00101FD9595959595957C
:1049C0009595FD0501000000007F0001030305042B
:1049D00004050404047F7F040404050406040000A5
:1049E0000000F80808080808F80000F80808080897
:1049F0000808F810000000000000E70202FE424232
:104A0000434000FF1111F1111111BFC0000000005F
:104A100020203F10101F08080804007F2010080BFA
:104A20000E1930202020000000F8F808887818209F
:104A3000C0A0202020E03C282020202020000000D2
:104A400000FFFF000708F00809F90804FFFF4949C3
:104A50004949FFFF00000000007F3F0103013110C2
:104A6000080708101F3F302024343F371010000083
:104A700000000080701C080080A020202020E02082
:104A80002020203020000000000C8744A49C8C8350
:104A9000414000000000FF00000000000000000096
:104AA00000103111180808141414101010101F10E1
:104AB00010101010180000000000000080F0BC88EA
:104AC000808080800000FCF80000000000000000F2
:104AD0000040300C0B107080E03C07010000FFFF2D
:104AE000040818307000000000402010100C06036D
:104AF0000000000000007F3F0000000000000000F8
:104B0000000000084848484848484848484848483D
:104B1000F8FC00000000000040404044444444448D
:104B2000444444444444FCF44F4F4060400000007F
:104B3000000000000000030E0400002020603F0F72
:104B400000000000000000000000041830002020D9
:104B5000202020E0E4383820E02020202000000041
:104B600002020202FE0220180E02C07F01000000B5
:104B7000FF02040C38000000101808040704081491
:104B8000121130202024242C272020301010000067
:104B9000001010101010927C10101010D07E3C10DD
:104BA00010109018100000000000003F8080C0BF6F
:104BB000819088878181858999F101010000000039
:104BC000202020203F2020203F2020203F20202088
:104BD0003F2020203000000000000808C8F8280806
:104BE00008080808F8F8080808080C080000000081
:104BF0000000000703020282C2623A0EFFFF0202B7
:104C00000202020302000000201010080402030147
:104C1000101020607F1F0000000000000000000056
:104C20000000043870000018E8C8880834E4040460
:104C300084643E140000000002020202FE002028EC
:104C4000A4A3232222FE22232222A220200000004D
:104C500010300804070810202727646444474444A0
:104C600044446F602020000040404040FE444040EB
:104C700080E02020A0243828202020E060000000D0
:104C800060602010FF1008041028242623E1E02192
:104C90002122261C00000000002020603F000010A0
:104CA00010101010101F1F10101010101000000016
:104CB00040404040FE404070101090FEFC909090AC
:104CC000FE9090901000000000C0380FFF020C18FA
:104CD00000007F2424E4642424247F0000000000DA
:104CE000010000007F000041412121110D07010753
:104CF0000911312121200000004040404040404047
:104D000040404040FEFC4040445878604000000075
:104D1000000808080808F80808080800017FE000F3
:104D200000000000000000000030301010080F08E4
:104D300004040404000001070C1830307E40000019
:104D4000604D00080000002020000000280100083D
:104D5000804D000820000020F007000044010008FA
:104D60000000000000000000000000000000010240
:104D700003040102030406070809020406080000F0
:04000005080000ED02
:00000001FF
