:020000040800F2
:100000001008002099010008A1010008A3010008C0
:10001000A5010008A7010008A901000800000000D0
:10002000000000000000000000000000AB0100081C
:10003000AD01000800000000AF010008B101000898
:10004000B3010008B3010008B3010008B3010008C0
:10005000B3010008B3010008B3010008B3010008B0
:10006000B3010008B301000801050008B30100084E
:10007000B3010008B3010008B3010008B301000890
:10008000B3010008B3010008B3010008B301000880
:10009000B3010008B3010008B301000845050008DA
:1000A000B3010008B3010008B3010008B301000860
:1000B000B3010008B3010008490A0008B3010008B1
:1000C000B3010008B3010008B3010008B301000840
:1000D000B3010008310B0008850C0008B3010008CB
:1000E000B3010008B3010008B301000800F002F8F2
:1000F00000F042F80AA090E8000C82448344AAF180
:100100000107DA4501D100F037F8AFF2090EBAE87D
:100110000F0013F0010F18BFFB1A43F0010318473B
:100120000413000024130000103A24BF78C878C1DB
:10013000FAD8520724BF30C830C144BF04680C60ED
:10014000704700000023002400250026103A28BF35
:1001500078C1FBD8520728BF30C148BF0B60704739
:10016000642900F0A580732900F04D8100207047BC
:100170001FB51FBD10B510BD00F078F91146FFF78F
:10018000F7FF00F05BFF00F096F903B4FFF7F2FF12
:1001900003BC00F003FF00000948804709480047FE
:1001A000FEE7FEE7FEE7FEE7FEE7FEE7FEE7FEE727
:1001B000FEE7FEE704480549054A064B7047000084
:1001C000E9090008ED0000081002002010080020D6
:1001D0001004002010040020704700000FB40449F0
:1001E00010B503AA029800F013F910BC5DF814FBD7
:1001F000000000202DE9F0410E4604460020206258
:100200002046E168884730B3252805D0D4E901218C
:100210009047206A401CF2E7E168204600278847A3
:10022000050018D0A5F14100192802D820354FF457
:1002300000673246294620462760FFF791FF40B10C
:10024000012804D0F61D26F007060836D8E7361D2B
:10025000D6E72846DAE7206ABDE8F08170B50C469B
:100260000546012A05D02878800600D5EA690023D2
:1002700002E0012305E05B1C934202D2E05C00280F
:10028000F9D1A869E618C01AA861286A184428623A
:100290002846AFF3008004E0D5E9012114F8010BF2
:1002A0009047B442F8D32846AFF3008070BD0000F9
:1002B0002DE9F0410646002410687529314616A53F
:1002C00010D0AFF30080002802DA404213A507E007
:1002D00031688A0701D512A502E0490704D511A5A6
:1002E000012401E0AFF3008000210A2206F1240777
:1002F00009E0B0FBF2FCB0FBF2F302FB1C00303073
:1003000078541846491C0028F3D123462A46304623
:10031000BDE8F04100F00CB8000000002D00000026
:100320002B000000200000007047704770477047A6
:100330002DE9F0470D4699469246044600F12408FF
:100340000168880604D5E06921F01001216000E011
:100350000120A84201DD471B00E00027A1697A19AE
:1003600002EB0900081AA0612078C00602D42046DA
:10037000AFF30080002608E0D4E901211AF8060056
:100380009047206A401C761C20624E45F4DB2078A2
:10039000C0060AD52046AFF3008006E0D4E901216B
:1003A00030209047206A401C2062381EA7F10107C8
:1003B000F4DC07E0D4E9012118F805009047206A31
:1003C000401C2062281EA5F10105F3DC2046AFF396
:1003D00000802078000602D50220BDE8F0870120C9
:1003E000FBE710B5436913B1AFF3008001E0FFF7FD
:1003F00035FF012010BD127800F124010A7000229F
:100400004A700122EDE711684FF0FF32E9E7000082
:10041000074B70B50D467B4400F011F804462846A2
:1004200000F020F810B14FF0FF3070BD204670BDD5
:10043000070C000001694A1C02610878704700B58A
:100440008FB0CDE901310021059105497944CDE90D
:10045000031011466846FFF7CDFE0FB000BD000047
:10046000E5FFFFFF007B00F080007047754600F05D
:1004700029F8AE4605006946534620F00700854638
:1004800018B020B5FFF796FEBDE820404FF00006FB
:100490004FF000074FF000084FF0000B21F007016C
:1004A000AC46ACE8C009ACE8C009ACE8C009ACE8AF
:1004B000C0098D4670470446AFF300802046FFF721
:1004C00064FE000000487047B001002008B501211B
:1004D000082000F091F940F20220ADF80000102051
:1004E0008DF8030003208DF802006946034800F0F0
:1004F0004DF80221014800F0DDF808BD000C014074
:1005000010B5102000F036F8012813D10A2000F0B1
:1005100066FD0948006800F0100058B907480068F7
:1005200040F01000054908600548006880F0200090
:100530000349086010BD0000081801401404014080
:100540000C0C014010B5202000F014F801280BD14C
:100550000648006840F0200004490860044800682C
:1005600080F020000249086010BD00001404014022
:100570000C0C014001460020034A12680A400AB1EF
:10058000012000E000207047140401402DE9F041F3
:10059000024600250026002000230024002791F8B1
:1005A00003C00CF00F0591F803C00CF0100CBCF167
:1005B000000F03D091F802C04CEA050591F800C085
:1005C000BCF1000F31D0146800202BE04FF0010C7B
:1005D0000CFA00F3B1F800C00CEA03069E4220D1E9
:1005E00083004FF00F0C0CFA03F7BC4305FA03FC31
:1005F0004CEA040491F803C0BCF1280F06D14FF077
:10060000010C0CFA00FCC2F814C00AE091F803C017
:10061000BCF1480F05D14FF0010C0CFA00FCC2F8F8
:1006200010C0401C0828D1D31460B1F800C0BCF140
:10063000FF0F34DD546800202EE000F1080C4FF06D
:10064000010808FA0CF3B1F800C00CEA03069E4258
:1006500021D183004FF00F0C0CFA03F7BC4305FACD
:1006600003FC4CEA040491F803C0BCF1280F05D147
:1006700000F1080C08FA0CF8C2F8148091F803C0D5
:10068000BCF1480F07D100F1080C4FF0010808FA3F
:100690000CF8C2F81080401C0828CED35460BDE886
:1006A000F0810246002093680B400BB1012000E06E
:1006B00000207047416170470161704708B5012112
:1006C000082000F099F84FF48070ADF80000482041
:1006D0008DF8030069460248FFF758FF08BD000087
:1006E000000C014010B500241048007890B14FF480
:1006F00080710F48FFF7D5FF60B90A2000F06FFC4A
:100700004FF480710A48FFF7CCFF18B90020074961
:10071000087001244FF480710548FFF7C2FF10B143
:10072000012002490870204610BD00000A00002088
:10073000000C014008B50121042000F05DF8022002
:10074000ADF8000010208DF8030003208DF80200A2
:1007500069460448FFF71AFF02210248FFF7ACFF81
:1007600008BD00000008014070B5002100230F22E1
:10077000C47804B3154C246804F4E064C4F5E06460
:10078000210AC1F10403CA40447804FA03F18478D1
:100790001440214309010E4C0678A155047804F059
:1007A0001F050124AC4005786D11AD0005F1E02571
:1007B000C5F8004109E0047804F01F050124AC40AD
:1007C000044D0678761145F8264070BD0CED00E02A
:1007D00000E400E080E100E029B1064AD26902436A
:1007E000044BDA6104E0034AD2698243014BDA61C7
:1007F000704700000010024029B1064A9269024386
:10080000044B9A6104E0034A92698243014B9A6166
:10081000704700000010024030B500210022002483
:1008200000232D4D6D6805F00C0121B1042905D080
:10083000082923D105E0294D056022E0274D0560F8
:100840001FE0254D6D6805F47012234D6D6805F4A9
:100850008034022505EB92421CB9214D55430560B9
:100860000BE01D4D6D6805F400351DB11C4D554361
:10087000056002E0194D5543056002E0174D056023
:1008800000BF00BF144D6D6805F0F0010909154D5A
:100890006B5C0568DD4045600F4D6D6805F4E061F7
:1008A000090A104D6B5C4568DD4085600A4D6D6836
:1008B00005F46051C90A0B4D6B5C4568DD40C560AD
:1008C000054D6D6805F44041890B074D6B5CC568AB
:1008D000B5FBF3F5056130BD0010024000127A004F
:1008E00000093D000B0000201B00002010B500F0A7
:1008F00001F810BD0CB5002001900090334800684D
:1009000040F480303149086000BF3048006800F48E
:10091000003000900198401C0190009818B901988F
:10092000B0F5A06FF1D12948006800F4003010B193
:100930000120009001E0002000900098012843D1A0
:100940002348006840F0100021490860084600680C
:1009500020F0030008600846006840F002000860CC
:100960001A48406819494860084640684860084687
:10097000406840F4806048600846406820F47C107D
:1009800048600846406840F4E8104860084600683F
:1009900040F08070086000BF0C48006800F00070F4
:1009A0000028F9D00948406820F003000749486052
:1009B0000846406840F00200486000BF03484068B5
:1009C00000F00C000828F9D10CBD00000010024016
:1009D000002002404FF0E020006920F004004FF0BA
:1009E000E02108617047000010B51348006840F02E
:1009F00001001149086008464068104908400E4946
:100A00004860084600680E4908400B4908600846DF
:100A1000006820F4802008600846406820F4FE004A
:100A200048604FF41F008860FFF760FF4FF00060E0
:100A30000449086010BD0000001002400000FFF8EB
:100A4000FFFFF6FE08ED00E02DE9F04704211E4807
:100A500000F05DF840B104211B4800F04FF81A483F
:100A600000F052F8194908800221174800F04FF8A9
:100A7000002827D00221144800F040F84FF40071FC
:100A8000114800F03BF8104800F03BF807463846A4
:100A900000F0E8FB80460D48008800F0E3FB81464B
:100AA000414600F0FDFA0646094900F0EFFB054615
:100AB00000F0B8FB84B2234604480288394605A0FA
:100AC000FFF78CFBBDE8F08700080040080000201D
:100AD0000000C842D6DCC6DAA3BA2564202020B8BC
:100AE000DFB5E7C6BDA3BA2564202020D5BCBFD59D
:100AF000B1C8A3BA256425250D0A0000CA430282A5
:100B000070470146888E70470146088F704730B5A0
:100B10000246002000230024158A05EA0103958976
:100B200005EA010413B10CB1012000E0002030BD42
:100B300010B52021144800F064F901280BD11248A7
:100B4000001D00881149124A127888541048007814
:100B5000401C0F49087040F224410B4800F05EF938
:100B600001280FD1084800880748001D0088002090
:100B70000649074A12788854084600F02BF90020ED
:100B80000349087010BD000000380140200000201B
:100B90000400002010B586B0044601210420FFF7B0
:100BA0002BFE01218803FFF727FE4FF40070ADF8FC
:100BB000140018208DF8170003208DF8160005A9E1
:100BC0002048FFF7E3FC4FF48060ADF814000420E8
:100BD0008DF8170003208DF8160005A91948FFF7B6
:100BE000D5FC01940020ADF80800ADF80A00ADF87E
:100BF0000C00ADF810000C20ADF80E0001A9124851
:100C000000F05CF9012240F225510F4800F030F964
:100C1000012240F224410C4800F02AF925208DF8E9
:100C2000000001208DF801008DF802008DF803000E
:100C30006846FFF799FD0121034800F0D6F806B099
:100C400010BD0000000801400038014010B5044606
:100C500000BF4021044800F0D4F80128F9D1214612
:100C6000014800F097F910BD0038014010B5044666
:100C700003E02078FFF7EAFF641C20780028F8D111
:100C800010BD000010B52021144800F0BAF801286A
:100C90000BD11248001D00881149124A127888545D
:100CA00010480078401C0F49087040F224410B485E
:100CB00000F0B4F801280FD1084800880748001D4B
:100CC000008800200649074A1278885406A0FFF7DA
:100CD00085FA00200349087010BD00000044004060
:100CE000E800002005000020C4E3B7A2CBCDB5C4C6
:100CF000CAFDBEDDCAC7A3BA25730D0A00000000F5
:100D000010B586B0044601210420FFF775FD0121CE
:100D10004804FFF761FD0420ADF8140018208DF899
:100D2000170003208DF8160005A92048FFF72EFCB8
:100D30000820ADF8140004208DF8170003208DF86A
:100D4000160005A91948FFF721FC01940020ADF811
:100D50000800ADF80A00ADF80C00ADF810000C204A
:100D6000ADF80E0001A9124800F0A8F8012240F2E7
:100D700025510F4800F07CF8012240F224410C4834
:100D800000F076F826208DF8000001208DF8010093
:100D90008DF802008DF803006846FFF7E5FC01219D
:100DA000034800F022F806B010BD00000008014022
:100DB0000044004010B5044600BF4021044800F044
:100DC00020F80128F9D12146014800F0E3F810BDD0
:100DD0000044004010B5044603E02078FFF7EAFF26
:100DE000641C20780028F8D110BD21B1828942F41A
:100DF0000052828104E082894DF6FF731A4082819D
:100E0000704702460020B1F5007F00D100BF138873
:100E10000B400BB1012000E00020704770B5024686
:100E2000002400230025002040F66A16B14200D1BC
:100E300000BFC1F3421501F01F03012606FA03F3B8
:100E4000012D02D19689334006E0022D02D1168A87
:100E5000334001E0968A33400C12012606FA04F46E
:100E60001688344013B10CB1012000E0002070BDA1
:100E7000F0B50346002400260025002040F66A173E
:100E8000B94200D100BF1846C1F3421401F01F0659
:100E9000012707FA06F5012C01D10C3004E0022CE1
:100EA00001D1103000E014301AB107682F430760F9
:100EB00002E00768AF430760F0BD00002DE9F0478E
:100EC00086B005460E460024A24600BFA146002774
:100ED000B08900B100BF2F462C8A4CF6FF70044049
:100EE000F08804432C82AC894EF6F3100440B0889D
:100EF00031890843718908430443AC81AC8A4FF6B9
:100F0000FF400440B0890443AC8201A8FFF784FC91
:100F10001F48874202D1DDF810A001E0DDF80CA0E7
:100F2000A88900F4004040B10AEBCA0000EB0A10A7
:100F300031684900B0FBF1F807E00AEBCA0000EBAA
:100F40000A1031688900B0FBF1F86420B8FBF0F0BA
:100F500004012009642101FB1089A88900F40040E4
:100F600040B1322000EBC900B0FBF1F000F0070007
:100F7000044308E0322000EB09106421B0FBF1F0DB
:100F800000F00F0004432C8106B0BDE8F08700009C
:100F900000380140C1F3080282807047014600BF5B
:100FA0007047FF214FF0E022916142F22831414326
:100FB00051611146096941F00101116100BF4FF013
:100FC000E021096901F480310029F8D04FF0E021D7
:100FD000096921F001014FF0E0221161704730B53D
:100FE00003460025B3F5E96F03DC1846FFF7D9FF88
:100FF00015E004E0A3F5E96083B2681CC5B2B3F55F
:10100000E96FF7DA002405E04FF4E960FFF7C9FF64
:10101000601CC4B2AC42F7DB1846FFF7C2FF30BD1C
:1010200000BF054A128802F04002002AF9D0C2B27D
:10103000014B1B1D1A80704700380140FFF7CAFCA6
:10104000FFF778FBFFF73AFB4FF4E130FFF7A2FD23
:101050004FF41640FFF754FEFFF738FA02210C4810
:10106000FFF72AFB4FF400710948FFF725FB0DE05D
:10107000FFF738FB0446012C08D10648006880F0D1
:1010800002000449086004A0FFF7F0FDF0E700004B
:10109000000C01400C080140C4E3BAC30D0A000073
:1010A0004FF47F0C1CEAD0121EBF1CEAD11392EA47
:1010B0000C0F93EA0C0F00F0858090EA010F48BFF7
:1010C00042F4807240F4000C41F400002CF07F41A7
:1010D00020F07F4000B58142A2EB03020FF2081C12
:1010E000ACEB504EC0F100009EF800E04FEA4E0E0F
:1010F00000FB0EFC38BF49004FEA2C1C02F5FA0237
:101100000CFB0EF34FEACE1E4FEA112C4FEAC12121
:101110000EEB635E42EB22420EFB0CFC4FEA1C53CB
:1011200000FB03114FEA112C4FEA01310EFB0CFCBE
:101130004FEADC4C00FB0C11C14228BF09184CEBF4
:1011400003335DF804EB10EB410143EBC250B2F501
:101150007C0F38BF704729D512F0F00F1CBF00F18B
:10116000C04000F0004070470081828384858687FC
:1011700088898B8C8D8E8F919293959697999A9C56
:101180009D9FA0A2A3A5A7A8AAACAEB0B2B3B5B7C5
:10119000B9BCBEC0C2C5C7C9CCCED1D4D7D9DCDF9B
:1011A000E2E6E9ECF0F3F7FAFE0000004FEA400C4B
:1011B0000CF1807CBCF17E4F28BF7047B0F1C0407D
:1011C00000F02BB990EA010F0CEAD11348BF42F4AA
:1011D0008072624538BF634507D213F47F0F16D083
:1011E00080EA010000F00040704710B500F0CFF831
:1011F000097EFC3E00F005B880EA010000F00040E6
:10120000704780EA010000F0004000F006B912F4D7
:101210007F0F04BF0248704780EA010000F0FDB86C
:101220000000C07FC10DD1F19E0206DB4FEA002312
:1012300043F0004323FA02F07047004207D54FEA1B
:101240004001B1F1FE4F02D24FF00000704710B5DF
:1012500000F09DF849922480002070476FEA20003A
:1012600070470000B0FA80F310FA03F2C3F19D0357
:101270000AD0D90501EB1220530638BF704700F1A0
:10128000010008BF20F00100704700004FF47F0C00
:101290001CEAD0121EBF1CEAD11392EA0C0F93EA8B
:1012A0000C0F00F0478090EA010F48BF42F48072B3
:1012B0004FF0004C4CEA00204CEA012102EB030203
:1012C000A0FB0113A2F50002002918BF43F001039F
:1012D0005B0028BF4FEA330342EB22425FEA132C44
:1012E0004CEBC2502EBFBCEB436FB2F57C0F704786
:1012F0004FEA036CBCF1004F08BF20F00100B2F5CB
:101300007C0F38BF70470BD582F0FF0212F5803F8B
:10131000C8BF704700F1C040D8BF00F00040704720
:1013200000F5000C5FEA4C0C48BF7047B0F1C040BC
:1013300000F073B890EA010F0CEAD11348BF42F4F1
:101340008072624538BF634504D280EA010000F034
:101350000040704710B500F01AF800BF8900013E48
:1013600000F007B800F009B85FEA410C5FEA1C6CB6
:1013700008D080EA010000F050B85FEA400C5FEA54
:101380001C6CF6D14FF00040A0F5800070470EF1C4
:10139000020E2EF0030E5EF8044B244204D44FEAF2
:1013A0004102B2F17F4F11D84FEA4003B3F17F4FB2
:1013B0000CD80ED14FEAD07CB2F17F4F0CEB4C0C25
:1013C0000CF1020C08BF4CEBD17C04E04FF0080C90
:1013D00001E04FEAD17C0CEB4C0324FA03F404F057
:1013E0000704B4F1040C06D20EEB840CBDE81040E7
:1013F0004CF0010C6047DFE80CF0070802024FF0E8
:101400000040A0F5800010BD0846420018BFD2F190
:10141000807288BF00F0004010BDFF2141EAD0502B
:10142000C0057047441400080000002020000000A0
:10143000280100086414000820000020F0070000C4
:10144000440100080000000000000000000001004E
:101450000000000102030401020304060708090258
:041460000406080076
:04000005080000ED02
:00000001FF
