:020000040800F2
:10000000685C0020950200089D0200089F0200081D
:10001000A1020008A3020008A502000800000000D9
:10002000000000000000000000000000A70200081F
:10003000A902000800000000AB020008AD020008A1
:10004000AF020008AF020008AF020008AF020008CC
:10005000AF020008AF020008AF020008AF020008BC
:10006000AF020008AF020008AF020008AF020008AC
:10007000AF020008AF020008AF020008AF0200089C
:10008000AF020008AF02000885160008AF020008A2
:10009000AF020008AF020008AF020008AF0200087C
:1000A000193F0008453F0008AF020008AF020008F2
:1000B000AF020008713F00089D3F0008AF02000832
:1000C000AF020008AF020008AF020008AF0200084C
:1000D000AF0200085D420008AF020008AF0200084E
:1000E000AF020008AF020008AF020008AF0200082C
:1000F000AF020008AF020008AF020008AF0200081C
:10010000AF020008AF020008AF020008AF0200080B
:10011000AF020008AF020008AF020008AF020008FB
:10012000AF020008AF020008AF020008AF020008EB
:10013000AF020008AF020008AF020008AF020008DB
:10014000AF020008AF020008AF020008AF020008CB
:10015000AF020008AF020008AF020008AF020008BB
:10016000AF020008AF020008AF020008AF020008AB
:10017000AF020008AF020008AF020008AF0200089B
:10018000AF020008AF02000800F002F800F073F8B8
:100190000AA090E8000C82448344AAF10107DA45E2
:1001A00001D100F068F8AFF2090EBAE80F0013F0C1
:1001B000010F18BFFB1A43F001031847D86600006F
:1001C000F866000010F8013B0A4413F0030408BF6E
:1001D00010F8014B1D1108BF10F8015B641E05D01B
:1001E00010F8016B641E01F8016BF9D1002D15D0D8
:1001F00010F8014B03F00C030C2BA1EB04040ABF15
:1002000010F8013BA4EB8314A4EB032405F10103D4
:1002100014F8016B5B1E01F8016BF9D5914238BFF0
:1002200010F8013BD1D3704700230024002500269D
:10023000103A28BF78C1FBD8520728BF30C148BF49
:100240000B607047662905F0F487642900F0B480DC
:10025000732900F05484002070471FB505F0DFFFBC
:1002600000F064FC04000020002105F0B5F9E06016
:100270001FBD10B510BD00F05DFD1146FFF7EDFF8D
:1002800005F0FCF800F07BFD03B4FFF7F2FF03BCC0
:1002900005F051F80948804709480047FEE7FEE7A6
:1002A000FEE7FEE7FEE7FEE7FEE7FEE7FEE7FEE726
:1002B00004480549054A064B704700004D3E0008BA
:1002C0008901000868560020685C002068580020FA
:1002D00068580020704700000FB4044910B503AA05
:1002E000029800F011FC10BC5DF814FB0400002023
:1002F0000FB41CB5074B06AA7B44694600900598CD
:1003000000F0D3FB0020694600F0E2FB1CBC5DF866
:1003100014FB0000D507000070B50446856900682D
:10032000C10601D5302600E02026C00707D070BDE9
:10033000D4E9012130469047206A401C20626D1E9E
:10034000F6D570BD70B5044685690078C00707D141
:1003500070BDD4E9012120209047206A401C206212
:100360006D1EF6D570BD70B50C460546012A05D048
:100370002878800600D5EA69002302E0012305E021
:100380005B1C934202D2E05C0028F9D1A869E61810
:10039000C01AA861286A184428622846FFF7BCFFE3
:1003A00004E0D5E9012114F8010B9047B442F8D3D9
:1003B0002846FFF7C7FF70BD2DE9F041064600242F
:1003C00010687529314616A510D0AFF300800028BB
:1003D00002DA404213A507E031688A0701D512A569
:1003E00002E0490704D511A5012401E0AFF3008024
:1003F00000210A2206F1240709E0B0FBF2FCB0FB61
:10040000F2F302FB1C00303078541846491C0028D7
:10041000F3D123462A463046BDE8F04100F0DAB871
:10042000000000002D0000002B0000002000000054
:100430002DE9F05F894604464FF0000ADFF824B149
:10044000FB44C0F820A02046E168884700287DD002
:10045000252806D0D4E901219047206A401C20625B
:10046000F1E700255F462046E168884720280646D8
:1004700007DB312E05D2B81910F8200C08B105435E
:10048000F1E7A80701D525F00405C4F81CA0002752
:10049000C4F818A02A2E09D0304604F045FF38B31E
:1004A00004EB8708303EC8F8186019E059F8041BBF
:1004B000204604EB87029161E1688847012F0646D8
:1004C00018D1E069002820DA25F020051DE0D8F8D1
:1004D000180000EB800006EB40003038C8F8180028
:1004E0002046E1688847064604F01EFF0028EED14A
:1004F000012F0AD02E2E08D12046E16888477F1CA4
:100500000646022F45F02005C4DBA069002803DA67
:10051000404245F00105A061E80701D025F0100533
:10052000A6B1A6F14100192802D8203645F400658D
:100530004A463146204625604D46FFF783FE60B1AE
:10054000012807D0ED1D25F0070000E007E000F1CD
:10055000080978E705F1040975E730467AE7206A6B
:10056000BDE8F09F146300004FF0000200B5134691
:1005700094469646203922BFA0E80C50A0E80C50C3
:10058000B1F12001BFF4F7AF090728BFA0E80C5074
:1005900048BF0CC05DF804EB890028BF40F8042B6D
:1005A00008BF704748BF20F8022B11F0804F18BFDA
:1005B00000F8012B7047704770477047704710B5BF
:1005C00000F0B8FA006810BD10B5044600F0B2FAA9
:1005D000046010BD2DE9F0470D4699469246044649
:1005E00000F124080168880604D5E06921F01001B3
:1005F000216000E00120A84201DD471B00E0002748
:10060000A1697A1902EB0900081AA0612078C006D6
:1006100002D42046FFF780FE002608E0D4E901213D
:100620001AF806009047206A401C761C20624E454E
:10063000F4DB2078C0060AD52046FFF76DFE06E001
:10064000D4E9012130209047206A401C2062381EE6
:10065000A7F10107F4DC07E0D4E9012118F805004F
:100660009047206A401C2062281EA5F10105F3DC9A
:100670002046FFF767FE2078000602D50220BDE87D
:10068000F0870120FBE770472DE9FF4F0C461E461F
:100690004FF0FF378BB0D2E90001DDF860800A909F
:1006A0008A46C1F30A5505B93D46002108464FF078
:1006B0000000BAF1000F00F4400005DA00EB800002
:1006C0004FF4400101EA50004FEA9059B9F1010F8F
:1006D00000DDB9460A9850EA4A000ED044F61050A0
:1006E000A5F2FF3545432F14B8F1000F1ED0754217
:1006F000291E1EDDC9F100021CE0B8F1010F4FF008
:10070000000001D0302103E0F24305E02154401CF9
:10071000B042FBDB30460022002121540B99C1F886
:100720000880C1E900200FB0BDE8F08FBD1B6D1C33
:10073000DEE74A4600DA694206A800F085FA06AB11
:1007400093E8070003AB83E8070050460A9900F0DE
:100750005DFB8DE80700A0F500501F38009003985E
:10076000002D09DD42F21F014A46084403A9039007
:10077000684600F0BCFD08E0A0F500504A461F386E
:1007800003A90390684600F0C6FD8DE80700000449
:10079000000C03D04FF0FF30410800E01046B8F1E4
:1007A000000F03D00022009215461EE0751E05D4EE
:1007B00000F0C4F9303262556D1EF9D5B3460122FE
:1007C000084302D000227F1C04E02078302801D1A9
:1007D00000227F1E002A099786D01DE0112D07DA1E
:1007E00000F0ACF9303262556D1C50EA0102F5D1CF
:1007F000084302D00098C8B10EE00021681E05E051
:10080000235C625C63542254401E491C8142F7DB26
:10081000AB46A81B401E0990002004F80B000B9863
:10082000099AC0F80880C0E9002B7CE711264FF038
:10083000000859E72DE9F04F88460446D21D22F002
:10084000070191B0D1E90001CDE90A0103F026FECC
:1008500002460B98C00F01D02D2007E020688107C9
:1008600001D52B2002E0202101EAC000032A0990D3
:1008700001D0072A05DB03464146204600F0A4F9D3
:100880000BE12078800601D5E06900E00620B8F190
:10089000650F814606D0B8F1660F18D0B8F1670F22
:1008A00070D131E00020B9F1110F009001DB11236C
:1008B00001E009F101030AAA01A90CA8FFF7E4FE6F
:1008C000DDE90C70002609F10105834647E00120AF
:1008D0004B4600904FF000470AAA01A90CA8FFF769
:1008E000D3FEDDE90DB00C995D46002610B909F183
:1008F00001000D18B9EB050003D4C0F1FF3609F172
:100900000105A5EB09002BE0B9F1010F01DA4FF069
:1009100001090020B9F1110F0090484601DD1123B3
:1009200000E003460AAA01A90CA8FFF7ADFEDDE925
:100930000C704D4600268346207800070AD4AB454C
:1009400000DA5D4601A8012D04DD411911F8011CF2
:10095000302907D04F4502DA17F1040F04DA0120DD
:1009600082460FE06D1EEEE7002F02DCED1B3E44D9
:1009700003E0781CA84200DD7D1CB81B00F1010AD1
:100980004FF000472078000703D4AA4501DB4FF061
:10099000FF3A0021B7F1004F0DF143088DF84310E5
:1009A00024D002202B23002F01DA7F422D230A219D
:1009B000021EA0F1010000DC5FB197FBF1FC97FB88
:1009C000F1F201FB1C7C17460CF1300C08F801CD4C
:1009D000EEE7A8F1010003702188090501D5452142
:1009E00000E06521A0F1010800F8011C09980FA999
:1009F000A1EB0807FF1D00B10120411901EBEA70CE
:100A0000A1693844081A401EA0612078C00602D4AB
:100A10002046FFF781FC099828B1D4E901219047CD
:100A2000206A401C20622078C00622D52046FFF7AD
:100A300073FC1EE0002E04DBB34502DD01A8805DDF
:100A400000E03020D4E901219047206A401C206258
:100A5000761CAAF101005FEA000A0AD100F066F8EC
:100A6000C0680168405CD4E901219047206A401CBD
:100A70002062281EA5F10105DCDC07E0D4E9012194
:100A800018F8010B9047206A401C2062381EA7F11D
:100A90000107F3DC2046FFF755FC032011B043E6C5
:100AA00001694A1C02610878704700B58FB0CDE932
:100AB00001310021059105497944CDE90310114622
:100AC0006846FFF7B5FC0FB000BD0000E5FFFFFF73
:100AD0000A6802F8010B0A60704710B5436913B148
:100AE000AFF3008001E0FFF73EFC012010BD12785B
:100AF00000F124010A7000224A700122EDE711681A
:100B00004FF0FF32E9E70000074B70B50D467B441C
:100B1000FFF7CBFF0446284600F004F910B14FF070
:100B2000FF3070BD204670BD4F490000004870473F
:100B300028560020004870470856002030B5B0F114
:100B40000A024FEA900E71F100034EEA817EB0EB8B
:100B50000E0061EB91014FEA101E4EEA017E10EB90
:100B60000E0041EB11114FEA102E4EEA016E10EB10
:100B70000E0041EB11214FEA104E4EEA014E10EBF0
:100B80000E0041EB1141401841F100014FEAD00045
:100B900040EA41704FEAD10110EB80054FEA810431
:100BA00044EA907444EB01046D1944EB0404521BB5
:100BB000A3414FF0000348BF0A3200D530BD401CAE
:100BC00041F1000130BD00002DE9F0411F4604460F
:100BD00003260168072A01F4006004DB08B116A5AA
:100BE00005E016A503E008B115A500E015A521F064
:100BF00010002060A069C01EA0610FB1401EA0615E
:100C00002046FFF789FB4FB1D4E9012138469047D0
:100C1000206A401C2062C01C206206E0206AFAE7BD
:100C2000D4E9012115F8010B9047761EF8D2204631
:100C3000FFF788FBBDE8F0814E414E006E616E000B
:100C4000494E4600696E66002DE9F047814616461A
:100C50008AB0334878440DC88DE80D003048784498
:100C6000801C03AC0DC884E80D0041F69B3008449D
:100C7000372190FBF1F290FBF1F5A5F1800501FB26
:100C800012041B3C02D56442012000E00020DFF882
:100C900090A080460027FA44AAF1BE0A0DE0E007C2
:100CA00009D03246684607EB47010AEB810100F0A4
:100CB00032FB8DE8070064107F1C002CEFD1184F29
:100CC0007F44AC3F18E0E80714D007EB04100DF1A7
:100CD000180A90E80E008AE80E00C068F04201D1C0
:100CE00098190890324606A903A800F014FB03AB3C
:100CF00083E807006D10641C002DE4D1324669467C
:100D0000B8F1000F03A802D000F0F1FA01E000F002
:100D100002FBC9E90001C9F808200AB0BDE8F08764
:100D2000245C0000007B00F08000704700487047A2
:100D3000085600207546FFF7F9FFAE4605006946E4
:100D4000534620F00700854618B020B5FFF7B0FAEB
:100D5000BDE820404FF000064FF000074FF00008BC
:100D60004FF0000B21F00701AC46ACE8C009ACE83D
:100D7000C009ACE8C009ACE8C0098D46704704461C
:100D8000AFF300802046FFF77FFA00004FF0013CF0
:100D900050F8042B51F8043B9A4221D1A2EB0C03EA
:100DA000934313EACC1317D150F8042B51F8043BAA
:100DB0009A4215D1A2EB0C03934313EACC130BD147
:100DC00050F8042B51F8043B9A4209D1A2EB0C03D2
:100DD000934313EACC13DBD04FF00000704700BF01
:100DE000D01A01BAB1FA81F101F0180122FA01F02A
:100DF000CB40C1F12001DBB2C0B2C01A2CFA01F322
:100E0000D11A914311EAC311E6D170475FEA400C51
:100E100008BF91F0000F4FEA8C234FEAC12243EA4A
:100E200051514FEA1C5018BF00F5F0404FEA300016
:100E300018BF41F000415FEA6C5C00F02980BCF112
:100E4000FF3F08BF40F080407047130C06BF1204FC
:100E50004FF0100C4FF0000C130E04BF12020CF1F7
:100E6000080C130F04BF12010CF1040C930F04BF04
:100E700092000CF1020CD30F04BF52000CF1010CD4
:100E800011464FF00002A0F11F00A0EB0C007047CC
:100E900011F0004F08BF704731F000413FF4D5AF6B
:100EA0000B0C06BF09044FF0100C4FF0000C0B0E9A
:100EB00004BF09020CF1080C0B0F04BF09010CF16F
:100EC000040C8B0F04BF89000CF1020CCB0F04BF84
:100ED00049000CF1010CCCF12003A0EB0C0022FA2C
:100EE00003F302FA0CF241EA030100F1010070473A
:100EF00020F07F4C80EA030023F07F47ACEB070330
:100F000003F57C5300F0004003F1FF032DE9804915
:100F10004FEA154B09B44FEA144325EA0B4E24EA75
:100F200003480FF2042606EB132749083E785FEAD0
:100F3000320203FB0667C7F5000707FB06F64FEA18
:100F400054374FEAD64606F1020607FB066CCCF191
:100F5000005C4FEA1C472CEA074C07FB06F40CFB2D
:100F600006F504EB15464FEA961634BF00204FF005
:100F700000404FEAD13706FB07FC4FEA1C4C0CFB44
:100F80000BF7D21B03FB0CF761EB07010CFB0EF711
:100F9000B0EB074072EB17420CFB08F734BFA2EB33
:100FA0000742B2EB074261EB17414FEA0C444FEAAC
:100FB000910706FB07FC4FEA1C4C0CFB0BF7B0EB50
:100FC000C74072EB573203FB0CF734BFA2EBC742AA
:100FD000B2EBC74261EB57310CFB0EF7B0EBC70029
:100FE00072EB57720CFB08F734BFA2EBC702B2EBEF
:100FF000C70261EB5771039F4FEA816141EA921189
:1010000004EBCC044FEAD1374FEA826206FB07FCBF
:1010100042EA90124FEA80604FEA1C4C0CFB0BF73F
:10102000D21B03FB0CF761EB07010CFB0EF7B0EBD7
:10103000074072EB17420CFB08F734BFA2EB0742E4
:10104000B2EB074261EB17414FEA8C554FEA91072B
:1010500004EB9C2406FB07FC4FEA1C4C0CFB0BF733
:10106000B0EBC74072EB573203FB0CF734BFA2EB77
:10107000C742B2EBC74261EB57310CFB0EF7B0EB46
:10108000C70072EB57720CFB08F734BFA2EBC70224
:10109000B2EBC70261EB577115EB4C254FEA81614A
:1010A00041EA92114FEA82624FEAD13742EA901246
:1010B00006FB07FC44F100044FEA80604FEA1C4C39
:1010C0000CFB0BF7D21B03FB0CF761EB07010CFBCE
:1010D0000EF7B0EB074072EB17420CFB08F734BF7A
:1010E000A2EB0742B2EB074261EB174115EB1C156F
:1010F0004FEA813141EA92414FEA823242EA90421C
:101100004FEA80304FEA0C7644F1000448EA03438A
:101110004EEA0B484FF0000EB2EB080C71EB0307E0
:1011200024BF624639464EEB0E0E4FF0000B0018FE
:10113000524149414BEB0B0BB2EB080C71EB03072F
:101140007BF1000B24BF624639464EEB0E0E4FF08A
:10115000000B0018524149414BEB0B0BB2EB080C52
:1011600071EB03077BF1000B24BF624639464EEB5F
:101170000E0E51EA020718BF46F0010616EB0E7676
:1011800055F1000254F1000103D5BDE88901BDE825
:101190000088BDE88901BDE80048B619524141EB1D
:1011A0000101A3F10103704780807F7E7D7C7B7A03
:1011B0007978777676757473727171706F6E6E6D03
:1011C0006C6C6B6A6A6968686766666564646363A9
:1011D00062616160605F5F5E5E5D5D5C5C5B5B5A2F
:1011E0005A5959585857575656555555545453539C
:1011F00052525251515050504F4F4F4E4E4D4D4DF7
:101200004C4C4C4B4B4B4A4A4A4949494848484741
:10121000474747464646454545444444444343437F
:101220004342424242414141002B26D4770021D023
:101230001CB54FEA370703B44FF010004FF0100110
:101240004FF000000FBCBDE810400BF1010BBBF1EB
:10125000010F08BF5FEA170722BF12F1010211F167
:1012600001014FF0004143F1000300F0004043EA68
:1012700000007047F9D35708DAE746EA064613F14B
:10128000400F4FEA16461FDD13F1200FDFBF164354
:101290000A46002120335B42C8D0C3F1200746EA4A
:1012A000064602FA07F74FEA164646EA0706C3F172
:1012B000200722FA03F201FA07F721FA03F14FF0AF
:1012C000000342EA0702B1E746EA020646EA06469A
:1012D0004FEA164646EA0106BCBF46EA0646360C09
:1012E0004FF000034FF000024FF000019EE72DE9A0
:1012F000C048934630B491E8380007C831EA400C42
:1013000048BF34EA430C03D5FFF7F2FDFFF78CFF2B
:10131000F0BCBDE800882DE9C048934630B491E8A0
:10132000380007C810F0804F08BF13F0804F03D17A
:1013300000F005F8FFF778FFF0BCBDE8008820F06A
:101340007F4780EA030023F07F4C07EB0C03A3F5F3
:101350007C5300F00040A3F1FE0392F0000F00F078
:10136000B38095F0000F00F077802DE901494FEA36
:1013700011404FEA144621EA004800FB06FC24EA2B
:10138000064708FB06F607FB08F800FB07F718EB13
:1013900006484CEB164C4FEA124B18EB07484FEA45
:1013A00015464CEB174022EA0B4E0BFB06FC25EAD8
:1013B00006470EFB06F607FB0EFE0BFB07F71EEBC0
:1013C000064E4CEB164C4FF000061EEB074E4CEB56
:1013D000174B18EB0B0840F1000018EB0E0B58EB05
:1013E000000840F100008F1A4FF000013CBFC943D4
:1013F000661B14BFB5EB040C00213CBFC943F61BB0
:101400004FEA17444EEA8E0E27EA04454FEA1C477E
:1014100004FB07622CEA074C05FB07F70CFB05F6FB
:1014200004FB0CFC16EB074642EB174216EB0C468E
:1014300042EB1C421BEB060658EB0202414146EA16
:101440009E0601D5BDE80189B619524141EB010163
:10145000A3F10103BDE801894FEA14454FEA1147A2
:1014600024EA054621EA074C05FB07F406FB07F7CB
:101470000CFB06F105FB0CFC11EB074144EB174498
:101480004FEA124711EB0C4144EB1C4422EA074C93
:1014900005FB07F206FB07F70CFB06F605FB0CFC49
:1014A00016EB074642EB174216EB0C4642EB1C4587
:1014B0006A1854F1000148BF7047B619524141EB18
:1014C0000101A3F10103704795F0000F37D04FEAF7
:1014D00011424FEA144721EA024624EA074C02FB74
:1014E00007F106FB07F70CFB06F402FB0CFC14EB00
:1014F000074441EB17414FEA154714EB0C4441EB0D
:101500001C4125EA074C02FB07F506FB07F70CFB1D
:1015100006F602FB0CFC16EB074645EB174516EBEF
:101520000C4645EB1C42121951F1000148BF7047AF
:10153000B619524141EB0101A3F1010370474FEA93
:1015400014454FEA114724EA054621EA074C05FBFA
:1015500007F106FB07F70CFB06F24FF0000605FB50
:101560000CFC12EB074241EB174112EB0C4251EB22
:101570001C4148BF7047921841EB0101A3F10103E0
:101580007047000000B58DB00121084601F0D4FD80
:101590000121080201F0F0FD08200B9003208DF8D6
:1015A000300000208DF833000BA9144800F056FCE1
:1015B000002007900A9009904FF48030089007A807
:1015C00000F030F8002001908DF808008DF8090037
:1015D0000390059001208DF8180001A9084800F03B
:1015E00073F8072301220321054800F097F8012131
:1015F000034800F00CF80DB000BD000000000240F0
:101600000020014000220A12D3430360704721B139
:10161000826842F00102826003E0826822F00102E7
:10162000826070470021084A1168084A1140D0E9D9
:1016300000231A4383681A43C3681A431143044AB8
:10164000C2F804137047000004230140E030FCFF9F
:10165000002001400146C86C80B2704770B5024658
:101660000020002300240B12556801268E4005EA55
:10167000060415681D4015B10CB1012000E00020E2
:1016800070BD000010B540F205210B48FFF7E6FFE2
:10169000012807D10848FFF7DDFF0446214607A0CF
:1016A000FEF71AFE40F205210348FFF7ABFF0248A0
:1016B00000F090F810BD00000020014064617461EA
:1016C0003A25640D0A00000030B5024600200023D0
:1016D0005068104C20400D790C6844EA05242043E2
:1016E000506090680C4C2040D1E903542C438D6825
:1016F0002C434D7944EA450420439060D06A20F49D
:1017000070000C7D641EE4B2234340EA0350D062B3
:1017100030BD0000FFFEFFFCFDF7FFC0F0B5044642
:101720000D4600200021092D11DDE068A5F10A0613
:1017300006EB4607072606FA07F18843A5F10A06D5
:1017400006EB460603FA06F10843E0600CE0206968
:1017500005EB4507072606FA07F1884305EB450622
:1017600003FA06F108432061072A0FDA606B561E60
:1017700006EB86071F2606FA07F18843561E06EB7E
:10178000860605FA06F10843606322E00D2A0FDAA7
:10179000206BD61F06EB86071F2606FA07F1884343
:1017A000D61F06EB860605FA06F10843206310E013
:1017B000E06AA2F10D0606EB86071F2606FA07F17E
:1017C0008843A2F10D0606EB860605FA06F10843EA
:1017D000E062F0BD816841F08041816070470000A7
:1017E0000246DFED310AB0EE600A002000BF09E0DA
:1017F00002EB8003D3ED000A70EE800AB0EE600ABF
:10180000431CD8B28842F3DBF1EE000A80EE201AC6
:10181000B0EE410AF2EE000AB4EEE00AF1EE10FA80
:1018200004DBDFED220AB0EE600A3CE0F1EE0C0AC8
:10183000B4EEE00AF1EE10FA0BDBF2EE000AB4EEC1
:10184000E00AF1EE10FA04D2DFED190AB0EE600AF8
:1018500029E0F1EE000AB4EEE00AF1EE10FA0BDB3B
:10186000F1EE0C0AB4EEE00AF1EE10FA04D2DFED6C
:10187000110AB0EE600A16E0F0EE080AB4EEE00AD3
:10188000F1EE10FA0BDBF1EE000AB4EEE00AF1EE35
:1018900010FA04D2F0EE000AB0EE600A03E0DFEDC9
:1018A000060AB0EE600A7047000000009A9989406D
:1018B00033335340333313406666A63F30B58BB0A5
:1018C00000240025182105A8FEF74EFE14216846C5
:1018D000FEF74AFE85E000F073FF04467CB104E0A9
:1018E000681C85B2012003F092FD01213F4800F001
:1018F000FDFA0028F4D1B5F5C87F00DD0224012CE3
:101900005AD1002400253A4A0021022001F05DFB53
:1019100041F2883003F07BFD01F0BEF8354A00212A
:10192000232001F035FB34A30C220121022001F019
:1019300069FB00F049FB02E005A800F00DFB9DF8F3
:101940001B000028F8D000F0DFFA9DF81F309DF84A
:101950001E202BA16846FEF7CBFC00208DF81B0053
:1019600001F09AF82AA310220121322001F080F917
:101970006B46102203210F2001F07AF902E000F0FB
:101980001FFF0446002CFAD013E000F019FF0446B4
:101990007CB104E0681C85B2012003F038FD012110
:1019A000124800F0A3FA0028F4D1B5F5C87F00DD95
:1019B0000224002CE9D10324022C0CD101F06CF894
:1019C00002F02EFD2A2310221348017813480078D4
:1019D00001F07AF906E0032C03D101F05DF800F084
:1019E0001FF878E700BF0BB030BD000000000240D8
:1019F000BE470020BE3F0020746573742E2E2E005B
:101A0000483A25336420204C3A2533640000000016
:101A1000D1AAD1B900000000B5540020B454002070
:101A200010B50C4A0021012001F0B2FA0AA31022DD
:101A30000121412001F050F80AA310220321412086
:101A400001F04AF80AA310220521522001F044F8BF
:101A500010BD0000BE3F0020B0B4CFC2B0B4BCFC8B
:101A600000000000BFAACABCD1AAD1B90000000082
:101A7000BCECB2E90000000000B52DED028B83B094
:101A8000124890ED000A10EE101A084604F056FBBA
:101A900041EC180B53EC182B0DA101A8FEF728FC04
:101AA0000DA310220121432001F0ACFA01AB182252
:101AB0000321452001F0A6FA09A30C220621642087
:101AC00001F0A0FA03B0BDEC028B00BDD45500209C
:101AD00025302E316600000043616C6F726965002D
:101AE00063616C0030B502464FF6FF7009E0C4B286
:101AF000157884EA0503521C054C34F8134084EA37
:101B000010200C00A1F10105E9B2F0D130BD0000B8
:101B10004E6500082DE9F041B0EE403A0746884690
:101B200044463D46984890ED000AB5EEC00AF1EEF5
:101B300010FA02D180ED003A1FE19348D0ED000A7F
:101B4000B0EE430A00F03EF90028F5D08F48006857
:101B50008F49086068782978C1EB011100EB81009A
:101B6000C0EB0010A97801EB80004FF47A71484374
:101B7000E97801EB810100EB810686480660006888
:101B800083490968401AFA287EDB834890ED000AF1
:101B90008248D0ED000A30EE600A8148D0ED000A9C
:101BA000B4EEE00AF1EE10FAEEDB7A48006877490D
:101BB00008607C480078401C7A4908707A480068C0
:101BC000401C7949086079480068301AB0F5FA6F0E
:101BD0007ED308460068012806D194ED000AF1EE94
:101BE000040AC0EE202A3FE06F480068022806D1B0
:101BF00094ED000AF1EE000AC0EE202A34E06A48B3
:101C00000068032806D194ED000AF0EE080AC0EE41
:101C1000202A29E064480068042806D194ED000ACF
:101C2000F0EE000AC0EE202A1EE05F48006805289A
:101C300006D194ED000ADFED5E0AC0EE202A13E023
:101C400059480068072802D1D4ED002A0CE0564814
:101C50000068082806D194ED000ADFED550A60EE11
:101C6000202A01E0DFED532A4F4890ED000AB8EE3C
:101C7000400A20EE220AF0EE000AC0EE204A90ED63
:101C8000000AB8EE400A00E04DE020EE224AD4ED12
:101C9000010AB0EE001A80EE810AF1EE020A64EE4B
:101CA000A00A20EE200ADFED440AC0EE203A4348A5
:101CB00090ED000A30EE230A80ED000A90ED010A53
:101CC00030EE040A80ED010A38480660002000E08A
:101CD00001E0354908603348007805280CDA2D48C2
:101CE00000682B490968401A40F6B831884203DB86
:101CF00000202C49087016E02A480078052812DBDD
:101D00002448006822490968401A40F6B8318842E0
:101D100009DC2A48806823490978084427498860F3
:101D20000020204908701B48006819490968401ABA
:101D3000FA2822DB184890ED000A1848D0ED000A76
:101D400030EE600A1E48D0ED000AB4EEE00AF1EE73
:101D500010FA12DB0F4800680C4908600E48D0EDFD
:101D6000000A0E4890ED001A70EEC10AB0EE600A4B
:101D700002F038FA0A4880ED000A034880ED003A84
:101D80000E48BDE8F0810000D0540020D45400205B
:101D9000D8540020DC540020EC540020F0540020E3
:101DA000F454002000550020045500200855002060
:101DB0009A99993F000000000000E144FC55002082
:101DC000FC5400201F4800781F490870B4EEE00A58
:101DD000F1EE10FA08DB01201A4908701B48006870
:101DE000401C1A49086009E000201649087017488D
:101DF00000681749086000201449086011480078FD
:101E000090B91148007878B11148006802280BDBBE
:101E1000B3EE041AF4EEC10AF1EE10FA04DB0D4839
:101E2000C0ED000A012070470748007838B905481E
:101E3000007820B10848C0ED000A0020F3E7002038
:101E4000F1E70000E1540020E0540020E4540020B9
:101E5000E8540020EC540020F0540020F0B50A466D
:101E600000210023002400BF3DE0012505FA01F315
:101E7000156805EA03049C4234D105684F00032627
:101E8000BE40B543056015794E00B5400668354340
:101E900005601579012D02D01579022D16D18568BE
:101EA0004F000326BE40B543856055794E00B540CE
:101EB000866835438560456801268E40B543456098
:101EC000456896798E40B6B235434560C5684F0087
:101ED0000326BE40B543C560D5794E00B540C668FF
:101EE0003543C560491C1029BFD3F0BD0246002010
:101EF00013690B400BB1012000E0002070474183C3
:101F0000704701837047000010B586B069460648E7
:101F100000F0CEF804464FF400510448FFF7F1FFFB
:101F2000204606B010BD0000F25300200008024019
:101F300010B586B06946064800F0BAF804464FF47A
:101F400000510448FFF7DDFF204606B010BD000039
:101F50003A5400200008024070B504462146034868
:101F600000F0A6F80546284670BD00000A5400207F
:101F700070B504462146034800F09AF80546284605
:101F800070BD0000525400201CB500F047F901213B
:101F9000042001F0D1F84FF40050009001208DF89A
:101FA000040000208DF8060002208DF80500694627
:101FB0000448FFF753FF4FF400510248FFF79FFF1B
:101FC0001CBD00000008024010B586B04FF400515F
:101FD0000548FFF794FF6946044800F069F8044695
:101FE000204606B010BD000000080240DA53002071
:101FF00010B586B04FF400510548FFF780FF6946E1
:10200000044800F055F80446204606B010BD000014
:10201000000802402254002070B5054600F0D2F9B5
:10202000CD2000F0A1F900F021F90646012E03D1E0
:1020300000F0E6F9012070BD00240DE000F03AF94F
:102040002855172C03D1012000F060F902E0002090
:1020500000F05CF9601CC4B2182CEFDB00F0D0F982
:102060003046E8E770B5054600F0ACF9CC2000F04A
:102070007BF900F0FBF80646012E03D100F0C0F911
:10208000012070BD00240DE0285D00F06DF900F026
:10209000EDF80646012E03D100F0B2F90220F0E778
:1020A000601CC4B2182CEFDB00F0AAF90020E8E7AE
:1020B0002DE9F04105460C4601271221281DFFF7A6
:1020C00011FD0646EE822846FFF7CCFF052003F0FF
:1020D0008AF92046FFF7A0FFE68A1221201DFFF7AC
:1020E00001FDB04200D000273846BDE8F081000075
:1020F00070B52DED0A8B86B00026002437A3102280
:102100000121432000F0E8FC62E000F059FB0646A4
:10211000E6B104E0601C84B2012003F078F90121EB
:102120003148FFF7E3FE0028F4D1B4F5C87F0CDD99
:1021300000F0B2FC02F074F92A2310222B48017837
:102140002B48007800F0C0FD43E00024F52001F0AA
:102150001BFC00EE100AB8EE400A10EE105A9FED7C
:10216000251B9FED260B02F0B3F9B0EE40BAF0EE5E
:1021700060BA284603F0E2FF41EC1C0B53EC1B2B2A
:1021800003F03AFB41EC1A0B9FED1E0B53EC102BA6
:1021900003F0DEFC41EC190B9FED1C0B53EC102BF4
:1021A00003F06EFA41EC180B03F038FA05462846A6
:1021B00003F0C4FF41EC180B53EC182B15A101A838
:1021C000FEF796F801AB18220321472000F01AFF12
:1021D0009BE700BF06B0BDEC0A8B70BDCAB5CAB1A3
:1021E000CAAAB6C80000000000000240B554002092
:1021F000B454002000000000000030400000000047
:10220000000000400000000000405F4000000000AF
:10221000000018C025322E31660000001CB50121D7
:10222000084600F089FF0420009001208DF804008A
:1022300000208DF8060003208DF8050069460A4845
:10224000FFF70CFE0220009001208DF80600694681
:102250000548FFF703FE04210348FFF752FE022161
:102260000148FFF74EFE1CBD0000024010B50421DE
:102270000F48FFF744FE02210D48FFF742FE0520FC
:1022800003F0D9F804210A48FFF73BFE0221084871
:10229000FFF72CFE28B104210548FFF730FE01208E
:1022A00010BD04210248FFF72AFE0020F8E70000D5
:1022B0000000024070B5002404211348FFF71FFE00
:1022C00002211148FFF71DFE002515E004210E48EC
:1022D000FFF715FE052003F0AEF86006040E04219A
:1022E0000948FFF70EFE02210748FFF7FFFD08B17E
:1022F00044F00104681CC5B2082DE7DB0421024844
:10230000FFF7FDFD204670BD0000024010B50446F9
:1023100004211448FFF7F3FD052003F08CF8012C8D
:102320000BD102210F48FFF7ECFD012003F083F8E9
:1023300004210C48FFF7E5FD0BE054B902210948E0
:10234000FFF7DDFD012003F076F804210548FFF7D3
:10235000D8FD052003F06FF804210248FFF7CFFDF8
:1023600010BD00000000024070B50446002520E0CA
:1023700004211348FFF7C3FD052003F05CF804F0C7
:10238000800020B102210E48FFF7BBFD03E00221CF
:102390000B48FFF7B4FD012003F04DF80421084875
:1023A000FFF7AFFD052003F046F86006040E681C39
:1023B000C5B2082DDCDB04210148FFF7A0FD70BD8C
:1023C0000000024010B504210C48FFF798FD0221DF
:1023D0000A48FFF796FD04210848FFF792FD052003
:1023E00003F029F802210548FFF789FD052003F0D5
:1023F00022F804210148FFF782FD10BD00000240D1
:1024000010B504210A48FFF77AFD02210848FFF7BA
:1024100076FD04210648FFF774FD052003F00BF854
:1024200002210348FFF76DFD052003F004F810BDFD
:10243000000002401CB50121022000F07DFE4FF497
:102440008070009001208DF8040000208DF80600B7
:1024500003208DF8050069460B48FFF7FFFC4FF499
:102460000070009001208DF8060069460648FFF7CD
:10247000F5FC4FF480710448FFF743FD4FF4007101
:102480000148FFF73EFD1CBD000402402DE9F0416C
:102490000546884614461E4600F002F9002141EA2E
:1024A0004501C8B200F0C8F800F038F8074627B177
:1024B00000F01AF90120BDE8F081404600F0BCF8B8
:1024C00000F02CF807461FB100F00EF90220F2E7E9
:1024D00000F0E6F8012101EB4501C8B200F0ACF8CC
:1024E00000F01CF807461FB100F0FEF80320E2E7F9
:1024F0000EE000F03DF83070012C03D1012000F017
:1025000069F802E0002000F065F8761C601EC4B295
:10251000002CEED100F0E8F80020CCE710B54FF425
:1025200080711248FFF7EBFC4FF400710F48FFF782
:10253000E8FC052002F07FFF4FF480710B48FFF7A5
:10254000E0FC4FF400710948FFF7D0FC30B14FF4C4
:1025500080710648FFF7D3FC012010BD4FF4807155
:102560000248FFF7CCFC0020F7E70000000402401F
:1025700070B500244FF480711548FFF7C0FC4FF48C
:1025800000711348FFF7BDFC002518E04FF480717F
:102590000F48FFF7B4FC052002F04DFF6006040E63
:1025A0004FF480710A48FFF7ACFC4FF40071084803
:1025B000FFF79CFC08B144F00104681CC5B2082D6B
:1025C000E4DB4FF480710248FFF799FC204670BDB0
:1025D0000004024010B504464FF480711548FFF71F
:1025E0008EFC052002F027FF012C0BD1610211485F
:1025F000FFF787FC012002F01EFF21020D48FFF7C4
:1026000080FC0DE064B94FF400710A48FFF777FCD5
:10261000012002F010FF4FF480710648FFF771FCB3
:10262000052002F008FF4FF480710248FFF767FCB5
:1026300010BD00000004024070B50446002524E0EF
:102640004FF480711548FFF75AFC052002F0F3FEA5
:1026500004F0800028B14FF400711048FFF751FCDE
:1026600004E04FF400710D48FFF749FC012002F02F
:10267000E2FE4FF480710948FFF743FC052002F0A9
:10268000DAFE6006040E681CC5B2082DD8DB4FF4D4
:1026900080710248FFF733FC70BD00000004024067
:1026A00010B54FF480710F48FFF729FC4FF400710B
:1026B0000C48FFF726FC4FF480710A48FFF721FC15
:1026C000052002F0B8FE4FF400710648FFF717FC32
:1026D000052002F0B0FE4FF480710248FFF70FFCB6
:1026E00010BD00000004024010B54FF480710C488A
:1026F000FFF705FC4FF400710948FFF700FC4FF4A9
:1027000080710748FFF7FDFB052002F094FE4FF4AF
:1027100000710348FFF7F5FB052002F08CFE10BDA9
:10272000000402402DE9F04706460F4690469946C0
:10273000FFF7B6FF002141EA4601C8B2FFF77CFF70
:10274000FFF7ECFE054625B1FFF7CEFF0120BDE8FF
:10275000F0873846FFF770FFFFF7E0FE05461DB132
:10276000FFF7C2FF0220F2E700240DE019F8040091
:10277000FFF762FFFFF7D2FE05461DB1FFF7B4FF7A
:102780000320E4E7601CC4B24445EFDBFFF7ACFF75
:102790000020DCE71CB50121084600F0CDFC01203B
:1027A000009000208DF804008DF8070002208DF8BD
:1027B000050069460148FFF751FB1CBD00000240BF
:1027C00010B500240E48007880B101210D48FFF7B4
:1027D0008DFB58B10A2002F0F2FD01210948FFF7F4
:1027E00085FB18B100200649087001240121054825
:1027F000FFF77CFB10B9012001490870204610BD8D
:1028000008000020000002401CB50121084600F02D
:1028100093FC8020009001208DF8040000208DF8AA
:1028200007008DF806008DF8050069460348FFF79C
:1028300015FB80210148FFF764FB1CBD000002402E
:102840001CB50121022000F077FC4FF4806000905D
:1028500001208DF8040000208DF807008DF8060097
:102860008DF8050069460448FFF7F8FA4FF48061D7
:102870000148FFF744FB1CBD000402401CB51AA12F
:1028800003C9CDE90001FFF7D5FD032002F0B5FD36
:102890006B4601226B216820FFF744FF642002F0A1
:1028A000ACFD0DF1010301226B216820FFF73AFF17
:1028B0000DF10203012219216820FFF733FF0DF10A
:1028C000030301221A216820FFF72CFF01AB01222C
:1028D0001B216820FFF726FF0DF1050301221C21B3
:1028E0006820FFF71FFF1CBD8001070418000000CF
:1028F00000B52DED048B83B03B2000F03DF809EED0
:10290000100A3D2000F038F808EE100A3F2000F0D1
:1029100033F808EE900AB8EEC90ADFED160A80EE29
:10292000201AB2EE040A21EE000A8DED000AF8EE3C
:10293000C80A9FED101A80EE810AF2EE040A20EE1A
:10294000200A8DED010AF8EEE80A9FED0A1A80EEE2
:10295000810AF2EE040A20EE200A8DED020A9DEDB6
:10296000000ADDED010A9DED021A03B0BDEC048BF7
:1029700000BD00000000804638B504466B460222C8
:1029800021466820FFF782FD9DF801009DF80010A8
:1029900040EA012000B238BD13B584B00121080718
:1029A00000F0DAFB012000F0C1FB012000F014FC74
:1029B0004FF4007000F01CFC012000F00DFC00BF83
:1029C000612000F0E9FB0028FAD0012000F00AFCA9
:1029D000002000F0B5FDF52820D07F200290FF20D8
:1029E00003900020019001A800F078FD9DF81730B9
:1029F0009DF816209DF815109DF8140000F08EFE2D
:102A00009DF813309DF812209DF811109DF81000CC
:102A100000F072FEF521002000F0C2FE06B010BDED
:102A200070B5002100230F22C4781CB3174C246812
:102A300004F4E064C4F5E064C4F30721C1F10404C4
:102A4000E3B20A4144789C40E1B2847814402143C7
:102A50000C07210E0E4C05786155047804F01F0513
:102A60000124AC4005786D11AD0005F1E025C5F8F5
:102A7000004109E0047804F01F050124AC40054D35
:102A80000678761145F8264070BD00000CED00E098
:102A900000E400E080E100E070B5002419E004F1FA
:102AA000B001C8B2002100F0EFFA0021084600F0A2
:102AB000EBFA0021102000F0E7FA002505E00121E3
:102AC000002000F0E1FA681CC5B2842DF7DB601C21
:102AD000C4B2082CE3DB70BD2DE9F0410546884601
:102AE00016461C4600270AE007FB065188B223461B
:102AF0003246414600F0E6F9A41C781C87B22078E3
:102B00000028F1D1BDE8F0811CB50121084600F094
:102B100013FB0121022000F00FFB42F2A8000090FD
:102B200001208DF8040000208DF807008DF80600C4
:102B300003208DF8050069460548FFF78FF94FF42B
:102B40000040009069460348FFF788F91CBD00006B
:102B5000000402400000024010B5FFF7D5FF4FF41B
:102B600000414148FFF7CBF9642002F005FC4FF427
:102B700000513E48FFF7C5F90021AE2000F084FA6D
:102B80000021084600F080FA0021102000F07CFAB5
:102B90000021402000F078FA0021812000F074FA32
:102BA0000021CF2000F070FA0021A12000F06CFA83
:102BB0000021C82000F068FA0021A62000F064FA85
:102BC0000021A82000F060FA00213F2000F05CFA0C
:102BD0000021D32000F058FA0021084600F054FAF2
:102BE0000021D52000F050FA0021802000F04CFA9E
:102BF0000021D92000F048FA0021F12000F044FA29
:102C00000021DA2000F040FA0021122000F03CFA06
:102C10000021DB2000F038FA0021402000F034FAD7
:102C20000021202000F030FA0021022000F02CFAD0
:102C300000218D2000F028FA0021142000F024FA51
:102C40000021A42000F020FA0021A62000F01CFAA8
:102C50000021AF2000F018FAFFF71EFF0021084600
:102C600000F04EFA10BD00000000024000040240D7
:102C70002DE9F0410746884615461C4600261EE011
:102C80002078202811DB20787F280EDC2378B919E2
:102C900088B22A46414600F017F8284605EBD07165
:102CA00006EB61018EB2641C09E0B91988B22346B3
:102CB0002A46414600F006F9701986B2A41C207815
:102CC0000028DDD1BDE8F0812DE9F04706468846B1
:102CD00017469946A9F12000C5B2F019832818DDDE
:102CE000F119832291FBF2F13846FA1707EB527281
:102CF000D21002FB018101F0FF08F0198338B842BD
:102D000001DA002605E0F019833890FBF7F07843EC
:102D100086B20C2F13D1F0B2414600F0F1F9002435
:102D20000AE005EB450104EB4101624A505C0121D8
:102D300000F0AAF9601CC4B2062CF2DBB8E0102F38
:102D400025D1F0B2414600F0DBF9002408E004EBA5
:102D50000511594A505C012100F096F9601CC4B27B
:102D6000082CF4DB08F10102D1B2F0B200F0C8F98E
:102D7000002409E004EB051108314F4A505C0121A1
:102D800000F082F9601CC4B2082CF3DB90E0182F2D
:102D90003FD1F0B2414600F0B3F900240AE005EB60
:102DA000C50104EB8101454A505C012100F06CF93A
:102DB000601CC4B20C2CF2DB08F10102D1B2F0B2FB
:102DC00000F09EF900240BE005EBC50104EB810146
:102DD0000C313A4A505C012100F056F9601CC4B233
:102DE0000C2CF1DB08F10202D1B2F0B200F088F94C
:102DF00000240BE005EBC50104EB810118312F4ADB
:102E0000505C012100F040F9601CC4B20C2CF1DBD5
:102E10004EE0202F4CD1F0B2414600F071F9002471
:102E200008E004EB8511264A505C012100F02CF9E2
:102E3000601CC4B2102CF4DB08F10102D1B2F0B274
:102E400000F05EF9002409E004EB851110311C4A02
:102E5000505C012100F018F9601CC4B2102CF3DBA7
:102E600008F10202D1B2F0B200F04AF9002409E000
:102E700004EB85112031124A505C012100F004F965
:102E8000601CC4B2102CF3DB08F10302D1B2F0B223
:102E900000F036F9002409E004EB85113031084ACE
:102EA000505C012100F0F0F8601CC4B2102CF3DB80
:102EB000BDE8F0872663000809000020F90500201E
:102EC000551300202DE9F0470646884614469946DA
:102ED000002512E099F800002B4911F815108842DE
:102EE00009D199F80100012101EB4501264A515C05
:102EF000884200D102E0681CC5B2EBE700BF301980
:102F0000832818DD3119832291FBF2F12046E21764
:102F100004EB5272D21002FB018101F0FF0830195C
:102F20008338A04201DA002605E03019833890FB8F
:102F3000F4F0604386B2102C24D1F0B2414600F088
:102F4000DFF8002708E007EB4511104A505C01212B
:102F500000F09AF8781CC7B2102FF4DB08F10102D8
:102F6000D1B2F0B200F0CCF8002709E007EB451130
:102F70001031064A505C012100F086F8781CC7B277
:102F8000102FF3DBBDE8F087152B00203E2B00202F
:102F90002DE9F04180460E461446002511E07019D7
:102FA000C1B2404600F0ACF8002706E020780121CD
:102FB00000F06AF8641C781CC7B2402FF6DB681C6E
:102FC000C5B2082DEBDBBDE8F0812DE9F04180466C
:102FD0000E461446002511E07019C1B2404600F0BB
:102FE0008FF8002706E02078012100F04DF8641CDE
:102FF000781CC7B2802FF6DB681CC5B2082DEBDB4E
:10300000BDE8F0812DE9F0470646884615461C4686
:1030100000270EE0A94605EBD971491007FB0161B5
:1030200088B223782A464146FFF74EFE641C781C7E
:10303000C7B220780028EDD1BDE8F0872DE9F04136
:1030400006460F461546F0B2394600F059F80024FE
:1030500005E0285D012100F017F8601CC4B20E2CB9
:10306000F7DB7A1CD1B2F0B200F04AF80E3500243A
:1030700005E0285D012100F007F8601CC4B20E2CA9
:10308000F7DBBDE8F081000070B504460E46202154
:103090001948FEF734FF80211748FEF730FF2EB1A4
:1030A0004FF400411548FEF72CFF04E04FF40041B7
:1030B0001248FEF724FF002517E008210E48FEF70E
:1030C0001EFF04F0800020B120210B48FEF719FFFD
:1030D00003E020210848FEF712FF08210648FEF70A
:1030E00010FF6006040E681CC5B2082DE5DB8021C8
:1030F0000148FEF706FF70BD0004024000000240D8
:1031000070B504460D4605F1B001C8B20021FFF7C5
:10311000BBFF04F00F000021FFF7B6FF102141EACA
:1031200024100021FFF7B0FF70BD000001490862C4
:103130007047000000000E4229B1064A126802439F
:10314000044B1A6004E0034A12688243014B1A6080
:10315000704700003038024029B1064A1268024325
:10316000044B1A6004E0034A12688243014B1A6060
:10317000704700004038024029B1064A12680243F5
:10318000044B1A6004E0034A12688243014B1A6040
:10319000704700004438024010B501460022002369
:1031A00000204A11012A02D10A4C236808E0022AB1
:1031B00003D1084C7034236802E0064C7434236851
:1031C00001F01F02012494401C400CB1012000E0DA
:1031D000002010BD0038024001490860704700001F
:1031E000800E474201490860704700003C0E47428C
:1031F000002100F44072B2F5407F08D1094A1168FD
:1032000021F4F811084A02401143064A1160054AA8
:1032100068321268C0F30B031A43024B68331A601A
:103220007047000008380240FFFCFF0F014600BF56
:10323000080900EB8000420001F00F001044C0B20A
:1032400070470146002204E0501CC2B2A1F10A00FE
:10325000C1B20A29F8DA100741EA1060704700008D
:1032600008B50022009200200021104A126802F0E6
:103270004002CAB9421E0D4B1A6000BF0B4A1268C9
:1032800002F04001009A521C0092009AB2F5803F71
:1032900001D00029F2D0054A126802F040020AB1BA
:1032A000012002E0002000E0012008BD0C280040C1
:1032B0000348006820F08000014908607047000062
:1032C0000C28004030B591B0002582E010A9002004
:1032D00000F0DCF80FA9002000F0B2F89DF83E00E5
:1032E00000909DF83D309DF83F203CA108A8FCF7D8
:1032F000FFFF9DF841309DF840203DA101A8FCF75B
:10330000F7FF9DF83C00082836D2DFE800F03504CE
:103310000B121920272E39A3102206212D20FFF78A
:1033200071FE29E037A3102206212D20FFF76AFE47
:1033300022E036A3102206212D20FFF763FE1BE0BA
:1033400034A3102206212D20FFF75CFE14E033A3E6
:10335000102206212D20FFF755FE0DE031A310228B
:1033600006212D20FFF74EFE06E030A31022062195
:103370002D20FFF747FE00BF00BF01AB182201213F
:103380002320FFF73FFE08AB102204211920FFF78E
:1033900039FEFFF715FA0546DDB104E0601C84B282
:1033A000012002F034F801212248FEF79FFD002899
:1033B000F4D1B4F5C87F0CDDFFF76EFB01F030F8F7
:1033C0002A2310221C4801781C480078FFF77CFC57
:1033D00000E07BE700BF11B030BD00003230253087
:1033E00032642D253032642D253032640000000017
:1033F000253032643A25303264000000204D6F6E73
:10340000200000005475657320000000205765649B
:103410002000000054687572730000002046726935
:103420002000000020536174200000002053756EBE
:103430002000000000000240B5540020B4540020D9
:1034400070B506460C4600250E4800680E4900EA95
:103450000105280CE070C5F30420607005F03F0002
:10346000A070C5F3423020705EB9E078FFF7DEFE51
:10347000E0706078FFF7DAFE6070A078FFF7D6FEA4
:10348000A07070BD042800403FFFFF0070B50646E5
:103490000C4600250F4800680F4900EA0105C5F3F6
:1034A00005402070C5F30620607005F07F00A07015
:1034B00005F48000000CE0705EB92078FFF7B6FEDE
:1034C00020706078FFF7B2FE6070A078FFF7AEFE64
:1034D000A07070BD002800407F7F7F0030B504469B
:1034E0000025CA201549086053200860FFF7B8FE80
:1034F00000B91DE011481C38006820F040000F4959
:103500001C39086008460068216808430B491C39CB
:1035100008600A491439A068086008460068A18854
:1035200040EA0140054914390860FFF7C1FE012552
:10353000FF2002490860284630BD000024280040D2
:1035400008B501460020009004480090009800EB68
:10355000810000900098006808BD000050280040DD
:103560002DE9F04105460C46002600274DB960784C
:1035700000F01000102804D1607820F010000A300C
:10358000607005B908E06078FFF750FE0646A07845
:10359000FFF74CFE064600BF55B1E07800046178A5
:1035A00040EA0120A1780843217840EA413611E041
:1035B000E078FFF746FE4FEA00486078FFF741FEEB
:1035C00048EA0028A078FFF73CFE48EA0008207887
:1035D00048EA4036CA201249086053200860FFF7C5
:1035E0003FFE08B9002714E00E4830400C4920394E
:1035F0000860FFF75DFE0A481C38006800F02000F4
:1036000030B900F09DF808B9002702E0012700E07A
:103610000127FF20024908603846BDE8F08100001C
:10362000242800403FFFFF002DE9F04105460C46ED
:10363000002600274DB92E48006800F0400000B178
:1036400002E00020E07000BF0DE02948006800F0B3
:10365000400020B12078FFF7E9FD064602E0002097
:10366000E07000BF00BF55B120780004617840EAE7
:103670000120A1780843E17840EA014611E0207872
:10368000FFF7DFFD4FEA00486078FFF7DAFD48EA10
:103690000028A078FFF7D5FD48EA0008E07848EA5E
:1036A0000046CA2012491C31086053200860FFF709
:1036B000D7FD08B9002713E00E4830400C490839FF
:1036C0000860FFF7F5FD0A48006800F0200030B9F7
:1036D00000F036F808B9002702E0012700E00127D2
:1036E000FF2003491C3108603846BDE8F081000026
:1036F000082800407F7F7F00F8B504460D46174636
:103700001E468DF802708DF801508DF800608DF81E
:10371000034069460020FFF723FFF8BDF8B50446D3
:103720000D4616461F468DF800408DF801508DF865
:1037300002608DF8037069460020FFF775FFF8BD41
:1037400008B50022009200200021CA22134B1A6003
:1037500053221A60114A183A126822F0A0020F4B45
:10376000183B1A6000BF0D4A183A126802F0200197
:10377000009A521C0092009AB2F5003F01D0002935
:10378000F1D0064A183A126802F020020AB101206C
:1037900000E00020FF22014B1A6008BD24280040F1
:1037A00008B500220092044A0092009A02EB8002BF
:1037B0000092009A116008BD5028004030B58BB0CF
:1037C00000240025182105A8FCF7CEFE1421684628
:1037D000FCF7CAFE8AE0FEF7F3FF04467CB104E082
:1037E000681C85B2012001F012FE01214148FEF75C
:1037F0007DFB0028F4D1B5F5C87F00DD0224012C43
:103800005FD1002400253C4A00210220FFF7DDFBA8
:103810004FF4965001F0FBFDFFF73EF9374A0021C7
:103820002020FFF7B5FB36A30C2206215220FFF71C
:10383000E9FBFEF7DDFB02E005A8FEF799FB9DF82A
:103840001B000028F8D09DF81B002F4909788842FA
:10385000F2D0FEF76DFB9DF81B002B4908709DF818
:103860001B202AA16846FCF743FDFFF715F929A3A1
:10387000102201213220FFF7FBF96B4618220321A9
:103880000F20FFF7F5F902E0FEF79AFF0446002C3F
:10389000FAD013E0FEF794FF04467CB104E0681C04
:1038A00085B2012001F0B3FD01211248FEF71EFB95
:1038B0000028F4D1B5F5C87F00DD0224002CE9D141
:1038C0000324022C0CD1FFF7E7F800F0A9FD2A230E
:1038D00010221248017812480078FFF7F5F906E047
:1038E000032C03D1FFF7D8F800F01CF873E700BFF2
:1038F0000BB030BD00000240BE4B0020BE3D00209A
:10390000746573742E2E2E00CA5400202533642053
:1039100042504D00D0C4C2CA00000000B55400207F
:10392000B454002010B50C4A00210120FFF730FBF1
:103930000AA3102201214120FFF7CEF80AA310228A
:1039400003214120FFF7C8F80AA3102205215220C5
:10395000FFF7C2F810BD0000BE3D0020B0B4CFC2DA
:10396000B0B4BCFC00000000BFAACABCD0C4C2CA2C
:1039700000000000BCECB2E90000000010B5FEF74A
:1039800059FD00F03EF810BD2DE9F0418046FEF7EC
:1039900087FE8020FEF750FEFEF7C0FD0446012C96
:1039A00004D1FEF7A1FE0120BDE8F0814046FEF7FC
:1039B00043FEFEF7B3FD0446012C03D1FEF794FE4F
:1039C0000120F1E7552001F004FDFEF769FE81209A
:1039D000FEF732FE00BFFEF7A1FD0028FBD1FEF787
:1039E000C7FD05460020FEF7F5FDFEF7C1FD0646C2
:1039F0000120FEF7EFFDFEF777FE46EA0527384681
:103A0000D2E710B5FEF74CFE8020FEF715FEFEF75C
:103A100085FD0446012C03D1FEF766FE012010BD92
:103A2000FE20FEF709FEFEF779FD0446012C03D1C6
:103A3000FEF75AFE0220F2E7FEF756FE0020EEE700
:103A400070B5002400250026FEF7BAFE04467CB1BE
:103A500004E0681C85B2012001F0D9FC01214C482A
:103A6000FEF744FA0028F4D1B5F5C87F00DD022442
:103A7000012C5CD147480078412803D146480078A2
:103A8000052839D043480078412816D02023102239
:103A9000414801783F480078FFF716F93D48007823
:103AA00037303C4908702A2310223B4801783948B6
:103AB0000078FFF709F9002518E020231022364886
:103AC000017834480078FFF7FFF80A203149087080
:103AD00031480078801C304908702A23102208469B
:103AE00001782C480078FFF7EFF800252B48007884
:103AF000401C2A49087049E02023102226480178FA
:103B000024480078FFF7E0F80A20224908700120D5
:103B1000214908702A231022084601781D480078A0
:103B2000FFF7D2F8002501201C4908702EE0022C76
:103B30002CD1FEF7B1FF19480078072824D2DFE81E
:103B400000F02304080C131A1C00FDF769FF01267E
:103B50001AE0FFF7E7FE022616E0114A00210120D5
:103B6000FFF716FA03260FE00E4A00210120FFF7A7
:103B70000FFA042608E0052606E00B4A0021012082
:103B8000FFF706FA062600BF00BF0025304670BDCD
:103B900000000240B4540020B5540020C954002055
:103BA000BE410020BE430020BE4500202DE9F0416B
:103BB0002DED048B04460E461746254695ED000A6A
:103BC00020EE000AD5ED010A95ED011A00EE810AFA
:103BD000D5ED020A95ED021A00EE810A10EE101AD8
:103BE000084602F0ABFA41EC190BB0EE490AF0EED0
:103BF000690A01F089FAB0EE408AF0EE608A51EC71
:103C0000180B01F00BFD0649086039463046044A9E
:103C100092ED000AFDF77EFFBDEC048BBDE8F0815C
:103C2000CC5400202248006840F0805020490860B1
:103C30002048006840F440401E4908601C4838385D
:103C400000681B4938390860084600680860084663
:103C5000006840F4805008601748091F0860081F7A
:103C6000006840F08070091F086000BF10484038AD
:103C7000006800F000700028F8D040F202700F4990
:103C800008600B483838006820F0030008493839CC
:103C900008600846006840F00200086000BF044861
:103CA0003838006800F00C000828F8D17047000090
:103CB000403802400070004010640107003C0240A0
:103CC00000B52DED028B83B0124890ED010A10EE85
:103CD000101A084602F032FA41EC180B53EC182B7C
:103CE0000DA101A8FCF704FB0DA3102201213B202C
:103CF000FFF788F901AB182203214520FFF782F96D
:103D00000AA30C2206217320FFF77CF903B0BDEC57
:103D1000028B00BDD455002025302E3166000000F6
:103D200044697374616E6365000000004D0000001B
:103D30001CB5094809A182686846FCF7D9FA09A3AD
:103D4000102201214320FFF75DF96B461822032161
:103D50004720FFF757F91CBDD455002025303464A7
:103D600000000000537465700000000070B500266C
:103D7000002501245BE0FEF723FD0646002E43D01C
:103D800004E0681C85B2012001F041FB01212948B3
:103D9000FEF7ACF80028F4D1B5F5C87F0CDDFEF7CE
:103DA0007BFE00F03DFB2A231022234801782348A4
:103DB0000078FEF789FF3BE00025601CC4B2042CAC
:103DC00000D10124FEF768FE012C04D0022C0AD099
:103DD000032C18D10FE01A4A00210120FFF7D8F870
:103DE000FFF7A6FF0FE0174A00210120FFF7D0F8E8
:103DF000FDF742FE07E0144A00210120FFF7C8F852
:103E0000FFF75EFF00BF00BF012C04D0022C05D0DD
:103E1000032C09D105E0FFF78BFF05E0FDF72CFE31
:103E200002E0FFF74DFF00BF00BF01F057FBA2E724
:103E300000BF70BD00000240B5540020B454002003
:103E4000BE450020BE4F0020BE51002010B51548D1
:103E5000006840F47000134908601348006840F09F
:103E600001001149086000200F49083108600E4820
:103E700000680E4908400C4908600D48091D08609B
:103E8000081F006820F48020091F086000200649F0
:103E90000C310860FFF7C6FE4FF000600149803921
:103EA000086010BD88ED00E000380240FFFFF6FE1C
:103EB000103000247FB505460C4601214804FFF769
:103EC0005BF90295ADF804400020ADF80600ADF8AE
:103ED0000C0001A90F4800F0A5F8012211460D4879
:103EE00000F096F819208DF8000002208DF80100EE
:103EF0008DF8020001208DF803006846FEF790FD62
:103F00000121044800F058F80121024800F063F84C
:103F10007FBD00000044014010B50121074800F0BA
:103F200066F8012809D10648406980F080000449FC
:103F300048610121014800F04BF810BD00400140EC
:103F40000000024010B50121074800F050F8012898
:103F500009D10648406980F0800004494861012188
:103F6000014800F035F810BD004401400000024057
:103F700010B50121074800F03AF8012809D1064898
:103F8000406980F08000044948610121014800F047
:103F90001FF810BD000400400000024010B50121D0
:103FA000044800F024F8012803D10121014800F061
:103FB0000FF810BD0008004021B1028842F08002D5
:103FC000028004E002884FF67F731A400280704737
:103FD000CA430282704721B1028842F00102028086
:103FE00004E002884FF6FE731A400280704730B535
:103FF0000246002000230024158A05EA0103958962
:1040000005EA010413B10CB1012000E0002030BD2D
:104010001AB183890B43838102E083898B438381B7
:104020007047000000220288184B98420ED0184BAF
:1040300098420BD0B0F1804F08D0164B984205D073
:10404000154B984202D0154B984204D14FF68F730E
:104050001A404B881A43124B984207D0114B984292
:1040600004D04FF6FF431A400B891A4302804B6875
:10407000C3620B880385054B984202D0044B9842DB
:1040800001D18B7A038601238382704700000140AF
:10409000000401400004004000080040000C004003
:1040A000001000400014004070B52DED0A8B86B062
:1040B000002600243AA3102201213720FEF70CFD30
:1040C00067E0FEF77DFB0646E6B104E0601C84B2C3
:1040D000012001F09CF901213448FDF707FF002879
:1040E000F4D1B4F5C87F0CDDFEF7D6FC00F098F9EA
:1040F0002A2310222E4801782E480078FEF7E4FD8E
:1041000048E00024F320FFF73FFC00EE100AB8EE71
:10411000400A10EE105A9FED281B9FED290B00F06E
:10412000D7F9B0EE40BAF0EE60BA284602F006F8D1
:1041300041EC1C0B53EC1B2B01F05EFB41EC1A0B0A
:104140009FED210B53EC102B01F002FD41EC190BFC
:104150009FED1F0B53EC102B01F092FA41EC180B62
:1041600001F05CFA0546284601F0E8FF41EC180B27
:1041700053EC182B18A101A8FCF7BAF801AB1822D0
:1041800003213720FEF73EFF154A04216E20FEF77B
:1041900055FF96E700BF06B0BDEC0A8B70BD00006E
:1041A000CAB5CAB1CEC2B6C80000000000000240C5
:1041B000B5540020B454002000000000000030403E
:1041C0000000000000000040D7A3703D0AF76540E2
:1041D000CDCCCCCCCC6C47C025322E316600000053
:1041E000BE53002010B5F0EE401A194890ED000AB9
:1041F000B0EE402A1748006804280CDA1648154922
:10420000096800EB8100C0ED001A12480068401CEC
:104210001049086019E004210F48FDF7E1FAB0EEFB
:10422000402A01240CE00C4800EB840090ED000AC9
:10423000601E094901EB800080ED000A601CC4B2D9
:10424000042CF0DB0448C0ED031AB0EE420A10BDA6
:10425000F4540020F8540020EC55002010B5202123
:10426000144800F039F801280BD1124800F06BF81F
:104270001149124A1278885410480078401C0F499E
:10428000087040F224410B4800F033F801280FD1A8
:10429000084800880748808800210748074A1278A4
:1042A0008154014606A0FCF717F800200349087066
:1042B00010BD0000001001400C550020000000203F
:1042C000C4E3B7A2CBCDB5C4CAFDBEDDCAC7A3BA8D
:1042D00025730D0A0000000002460020B1F5007FA2
:1042E00000D100BF13880B400BB1012000E000207B
:1042F000704770B50246002400230025002040F6D8
:104300006A16B14200D100BFC1F3421501F01F038C
:10431000012606FA03F3012D02D19689334006E007
:10432000022D02D1168A334001E0968A33400C12E6
:10433000012606FA04F41688344013B10CB10120AA
:1043400000E0002070BD01468888C0F30800704777
:104350007CB52C4903C9CDE900014626FEF754FA85
:10436000FEF718FAFEF76CFA42F20F710846FFF7F3
:10437000A1FDFDF707F9FEF7EFFBFDF703F9FFF7E6
:10438000FDFAFDF701FEFEF779FADDE90001FEF71F
:1043900003FB002515E0601CC4B2072C00D10024EB
:1043A000194800EB442200213046FEF7F1FD64205D
:1043B00001F037F8FEF770FBA6F10A00C6B2681CE0
:1043C000C5B20E2DE7DB114A00210120FEF7E0FD0A
:1043D0000FA3102202213C20FEF714FE0EA3102290
:1043E00004213F20FEF70EFE00BFFEF7E9F900288A
:1043F000FBD0FEF751FB2A23102201210A20FEF7F1
:1044000063FC7CBD50670008BE2D0020BE3B002031
:1044100077656C636F6D6500746F20757365000060
:1044200010B512A3102201211420FEF755FB11A391
:10443000102201214B20FEF74FFB10A31022032175
:104440001420FEF749FB0FA3102203214B20FEF797
:1044500043FB0EA3102205211420FEF73DFB0DA304
:10446000102205214B20FEF737FB10BDD1AAD1B990
:1044700000000000D0C4C2CA00000000CEC2B6C80E
:1044800000000000CAAAB6C800000000CAB1BCE41F
:1044900000000000B2BDCAFD0000000003B4019896
:1044A0004100009850EAC12018BF04204A0D18BFEF
:1044B00040F0010040F2FF72B2EB515F08BF40F0E4
:1044C0000200012808BF052002B07047000000006C
:1044D0002DE9F04D2DED040B2DED0C8B96B0DDE9A3
:1044E0002350259CDDF888A025F0004624F00048E4
:1044F000BAF1000F14BF0121002101EB4502FE4972
:1045000053184A1093422AD3002814BF01230023D2
:1045100003EB44030B44F9498B4220D358EA0001D2
:104520009FEDF78B6FD0DFF8E0B35D4503D1BAF1B3
:10453000000F05D187E0BAF1000F08BF002100D0BD
:10454000012101EB450111F5001F08D8002814BF17
:104550000121002101EB440111F5001F0BD99DED54
:10456000241B9DED220B16B0BDEC0C8B04B0BDE8F6
:10457000F04D00F09DBE0027002DBCBFE3498845EB
:1045800021DAE3498845A8BF02271CDAC3451ADCB3
:10459000E04901EB2851142908DDC1F1340220FA69
:1045A00002F101FA02F282420DD108E058B9C1F1DC
:1045B000140228FA02F101FA02F2424503D101F095
:1045C0000101C1F1020756EA0A011DD1002C1BDAD4
:1045D000002D18BF022F01D0012F0AD00220FBF7B7
:1045E000F3FF16B0BDEC0C8B04B0BDE8F04D00F04D
:1045F00047BE0220FBF7E8FF00F042FE51EC100B33
:1046000001F000F883E01EE09FEDC39B9FEDC4AB7B
:10461000002872D1BD4880452DD105F1804010F5AC
:10462000801008BFBAF1000F0DD0B34515DC002C87
:10463000A1BF9DED240B16B0BDEC0C8B04B0A8BF40
:10464000BDE8F08D12E0B0EE480AF0EE680A16B050
:10465000BDEC0C8B04B0BDE8F08D002C06DA9DEDAE
:10466000240B51EC100B00F0CDFF50E0AE48784425
:1046700090ED000BEBE7D8454FD1002C4ADA2EB174
:1046800086423BD1BAF1000F44D126E0BAF1000FC7
:1046900013D00220FBF798FF00F026FE8DED020BF1
:1046A0009DED220B8DED000B10EE900A039961F346
:1046B0001E0003909DED020BC9E78DED029B9DED61
:1046C000220B19EE901A10EE900A8DED000B61F39B
:1046D0001E0003909DED020BB9E78DED02AB9DED41
:1046E000220B1AEE901A10EE900A8DED000B61F37A
:1046F0001E0003909DED020BA9E729E00ADA9DED6B
:10470000220B51EC180B53EC102B01F075F841EC17
:10471000100B9CE79DED220B99E7864218DAB4F165
:10472000804F0DD0A4F10050B0F1FF5010D1002DFA
:104730000EDB9DED220B51EC100B00F015FFE6E7B0
:104740009DED220B53EC102B51EC100B00F0AEBC86
:104750009DED220B51EC100B00F076FEBAF1000F2C
:10476000CDE90C0134D19FED720BDEB1A6F1E04032
:10477000B0F17F602CD1002D01DD002C0DDA002D71
:1047800001DD002C1FDB002D16DA002C14DB012FBD
:1047900008BF9FED690B3FF45AAFB0EE490AF0EE47
:1047A000690A54E7022F18BF002D0CD0012F0AD13F
:1047B000002DFFF64CAF06E0002DB8BF002C07DA45
:1047C000012F3FF444AFB0EE4A0AF0EE6A0A3EE72A
:1047D000012000EBE57A5AEA07000CD05848002582
:1047E00080457CDD57495848884514DDB0420DDBD3
:1047F000002C19DB2BE00120FBF7E6FE16B0BDEC28
:104800000C8B04B0BDE8F04D00F05EBDB34502DC9A
:10481000002C09DC1BE0864202DA002C17DA03E0E8
:104820005E4527DD002C12DD0220FBF7CDFE00F0F7
:104830005BFD10EE901A19EE900A8DED020B8DEDD6
:10484000009B61F31E0003909DED020BFFE602202A
:10485000FBF7BAFE00F058FD10EE901A18EE900A21
:104860008DED020B8DED008B61F31E0003909DED2D
:10487000020BECE69DED220B53EC182B51EC100BC8
:1048800001F072FB9FED320BCDE90A0153EC102BC6
:104890009DED0A0B51EC100B01F05AF99FED2E1B08
:1048A00053EC112B01F088FA9DED0A1B53EC112BF0
:1048B00001F04EF99FED2A1B53EC112B01F07CFA0D
:1048C0009DED0A0B41EC190B53EC102B51EC100B26
:1048D00001F03EF953EC192B01F03AF900E07EE0CB
:1048E0009FED210B41EC1A0B53EC102B9DED0A0BA5
:1048F00051EC100B3CE00000FFFF1F00FFFF0F001A
:10490000000000000000F03F0000F03F0000F07FDA
:104910000000404301FCFFFF000000000000F07FAA
:1049200000000000000000008621000000000000E0
:104930000000000000000080000000000000F0FF08
:104940000000E0410000F043FFFFEF3F00000000E7
:10495000000000000000D03F555555555555D53F36
:10496000000000000000E03F000000604715F73F36
:1049700001F0EEF841EC190B9FEDFD0B51EC1A0B19
:1049800053EC102B01F0E4F841EC1A0B9FEDFA0BFD
:1049900053EC102B9DED0A0B51EC100B01F0D8F8E5
:1049A00053EC1A2B01F0E0FA41EC1A0B51EC190B05
:1049B00053EC1A2B00F064FE0690CDE906519DEDF4
:1049C000060B53EC192B51EC100B01F0CDFA53EC04
:1049D0001A2B01F0F1F941EC100B00F09FB9002007
:1049E000B6F5801F0EDA9FEDE60B53EC102B9DED14
:1049F0000C0B51EC100B01F0ABF8CDE90C016FF092
:104A000034000E4600EB2650A0F2FF38C6F3130028
:104A1000DD4940F07F6646F040568842D8BF00240A
:104A200009DDDA498142C8BF012404DC0024A6F56F
:104A3000801608F10108D648784400EBC4000D96B2
:104A400090ED00BB9DED0C0B53EC1B2B51EC100BB0
:104A500001F08AFA9DED0C0B41EC1A0B53EC1B2B69
:104A600051EC100B00F00CFE41EC100B51EC180B4C
:104A700053EC102B00F0C0FE41EC1C0B51EC1A0B58
:104A800053EC1C2B01F064F841EC190BC1488DED7F
:104A9000109B7844109590ED000B4FF0005040EAC9
:104AA000660000EB84408DED0A0B00F500200B90B2
:104AB0009DED0A0B53EC1B2B51EC100B01F054FA3B
:104AC0009DED0C1B53EC112B01F076F941EC100B12
:104AD00053EC102B9DED100B51EC100B01F038F83E
:104AE0009DED0A0B41EC1B0B53EC102B9DED100BB5
:104AF00051EC100B01F02CF853EC1A2B01F05CF97F
:104B000053EC1B2B01F030FA53EC1C2B01F020F876
:104B100041EC1B0B53EC192B51EC190B01F018F85D
:104B200041EC1A0B9C480621B0EE4A0AF0EE6A0AE4
:104B3000784400F026FBB0EE40CAF0EE60CA53ECB9
:104B40001A2B51EC1A0B01F003F853EC1C2B00F05C
:104B5000FFFF9DED100B41EC1A0B53EC192B51ECA0
:104B6000100B00F08DFD53EC1B2B00F0F1FF53EC0C
:104B70001A2B00F085FD9DED100B41EC1A0B53EC48
:104B8000102B51EC100B00F0E3FF41EC1C0B9FEDE0
:104B900084DB53EC1D2B00F073FD53EC1A2B00F05B
:104BA0006FFD0A90CDE90A519DED0A0B53EC1D2BC8
:104BB00051EC100B01F0D8F953EC1C2B01F0D4F997
:104BC00053EC1A2B01F0F8F89DED0A0B41EC1C0B8D
:104BD00053EC102B9DED100B51EC100B00F0B8FFB7
:104BE00041EC1A0B53EC192B51EC1C0B00F0B0FFED
:104BF0009DED0A0B41EC190B53EC102B51EC1B0BE8
:104C000000F0A6FF53EC192B00F03AFD41EC190B14
:104C100051EC1A0B53EC192B00F032FD1090CDE93A
:104C200010519DED100B53EC1A2B51EC100B01F0B1
:104C30009BF953EC192B01F0BFF841EC190B9FEDD8
:104C40005A0B53EC102B9DED100B51EC100B00F098
:104C50007FFF41EC1A0B9FED560B51EC190B53ECF7
:104C6000102B00F075FF41EC190B9FED530B53EC2B
:104C7000102B9DED100B51EC100B00F069FF53EC65
:104C8000192B00F0FDFC41EC100B4D48784400EB73
:104C9000C40090ED001B51EC100B53EC112B00F0F5
:104CA000EFFC41EC190B404600F0FEFECDE90A0195
:104CB00053EC192B51EC1A0B00F0E2FC41EC100BF9
:104CC0004048784400EBC40090ED00BB51EC100B61
:104CD00053EC1B2B00F0D4FC9DED0A1B53EC112B65
:104CE00000F0CEFC0690CDE906519DED0A0B53EC89
:104CF000102B9DED060B51EC100B01F035F953EC28
:104D00001B2B01F031F953EC1A2B01F02DF953EC68
:104D1000192B01F051F841EC100B00BF781EB0EEDA
:104D200048AAF0EE68AA5AEA000008BF9FED268B59
:104D30009DED241B53EC102B8DED001B00959DED7C
:104D4000240B51EC100B00F003FF9DED000B41EC28
:104D5000190B53EC102B9DED240B51EC100B01F0B3
:104D600003F99DED061B53EC112B00F0F1FE2FE033
:104D7000FE822B654715F73F44DF5DF80BAE543ECE
:104D800000000000000040438E9803007AB60B003C
:104D9000341D0000621D00006C1C000000000000BB
:104DA0000000000000000840000000E009C7EE3FDE
:104DB000FD033ADC09C7EE3FF5015B14E02F3EBE70
:104DC000001B0000BA1A0000000000000000F0BF45
:104DD00053EC192B00F054FC9DED060B41EC190B24
:104DE00053EC102B9DED000B51EC100B00F0B0FEBE
:104DF000CDE910019DED100B51EC190B53EC102B6C
:104E000000F03EFCCDE902010C46AB498C422FDBA1
:104E1000611A084318D19DED100B53EC102B9DED3A
:104E2000020B51EC100B01F09FF841EC1B0B9FEDB6
:104E3000A40B51EC190B53EC102B00F021FC53EC9C
:104E40001B2B00F083FF2DD20220FBF7BDFB00F0EF
:104E50004BFA10EE901A18EE900A8DED020B8DEDC4
:104E6000008B61F31E0003909DED020BFFF7EFBB7B
:104E7000954A24F00041914214D3944921440843B7
:104E80007FF4E5AC9DED100B53EC102B9DED020B68
:104E900051EC100B01F068F853EC192B00F056FFA1
:104EA0007FF6D5AC24F0004089498A4A002601EB00
:104EB000205182422BDA481C4FF4801121FA00F075
:104EC0002044854AC0F30A517A44A1F2FF3192EDA1
:104ED000000B824A8DED0A0BCA4020EA0202C0F3A1
:104EE000130040F48010C1F1140120FA01F60B9276
:104EF000002CB8BF76429DED0A0B53EC102B9DEDB4
:104F0000100B51EC100B01F02FF8CDE910019DEDC5
:104F1000100B51EC190B53EC102B00F0B1FB9FED73
:104F2000700B0A90CDE90A5153EC102B9DED0A0B42
:104F300051EC100B00F00CFE41EC1B0B9FED6A0BCB
:104F400053EC102B9DED0A0B51EC100B00F000FE02
:104F50009DED100B41EC1C0B53EC102B9DED0A0B3F
:104F600051EC100B01F000F853EC192B00F024FF6A
:104F70009FED5F1B53EC112B00F0EAFD53EC1C2B53
:104F800000F07EFB41EC190B51EC1B0B53EC192B81
:104F900000F076FBCDE902019DED020B53EC1B2BDB
:104FA00051EC100B00F0E0FF53EC192B00F004FF64
:104FB0009DED020B41EC190B53EC102B51EC100B37
:104FC00000F0C6FDCDE90A014B489DED0A0B052115
:104FD000784400F0D6F89DED0A1B51EC100B53EC11
:104FE000112B00F0B5FD9DED021B53EC112B00F0D1
:104FF000E3FECDE906019DED020B53EC192B51ECBC
:10500000100B00F0A5FD53EC192B00F039FB9FEDC0
:105010003C0B41EC190B53EC102B9DED060B51ECA6
:10502000100B00F0A1FF9DED060B41EC1B0B53ECA8
:10503000102B9DED020B51EC100B00F089FD53EC91
:105040001B2B00F0D9FB53EC192B00F08DFF9DEDCD
:10505000021B53EC112B00F087FF53EC1A2B00F0CE
:10506000ABFECDE9020101EB065001150029C8BFD6
:10507000039015DC9DED020B324651EC100B01F054
:105080000CF9FFF70BFA042808BF00F03DF932468F
:105090009DED020B51EC100B01F0FFF8CDE9020180
:1050A0009DED020B51EC180B53EC102B00F050FD52
:1050B000FFF72DBB00000000000090400000000042
:1050C000FE822B654715973C00CC904000346F3F23
:1050D00001FCFFFF0000E03F2C190000FFFF0F0064
:1050E00000000000432EE63F396CA80C615C20BE36
:1050F000EF39FAFE422EE63FFC17000000000000E8
:10510000000000000000004000B52DED048BB0EE63
:10511000409AF0EE609A83B051EC190B00F058FE03
:1051200041EC180B18EE100A18EE901A8DED008B5A
:10513000002818BF0120084320F00040C0F17F6024
:1051400000F1E040C00F14D019EE101A19EE900AC9
:105150008DED009B002918BF0121084320F000407D
:10516000C0F17F6000F1E040C00F04BF0120FBF7F9
:105170002BFAB0EE480A03B0F0EE680ABDEC048BDF
:1051800000BD70B504462DED028B4D1E00EBC50031
:10519000B0EE408AF0EE608A90ED000B35F006002C
:1051A00017D053EC182B51EC100B00F0D1FC41EC54
:1051B000100B6D1E04EBC50090ED001B51EC100BA5
:1051C00053EC112B00F05CFA41EC100B35F00600AB
:1051D000E7D1022D36D0042D1CD0062D1CBFBDEC0E
:1051E000028B70BD53EC182B51EC100B00F0B0FC8F
:1051F00094ED0A1B53EC112B00F042FA53EC182BE0
:1052000000F0A6FC94ED081B53EC112B00F038FACB
:1052100041EC100B53EC182B51EC100B00F098FCE8
:1052200094ED061B53EC112B00F02AFA53EC182BCB
:1052300000F08EFC94ED040B53EC102B00F020FAE0
:1052400041EC100B53EC182B51EC100B00F080FCD0
:1052500094ED021B53EC112B00F012FA53EC182BB7
:1052600000F076FC94ED001B53EC112B00F008FAD3
:10527000BDEC028B41EC100B70BD00000000000083
:105280009FED070B10B553EC102B9FED070B51EC66
:10529000100B00F0B1FA41EC100B10BD0000000043
:1052A0000000000000000000000000000000F03FCF
:1052B00010B553EC112B51EC100B00F0E1F941EC5F
:1052C000100B10BD000000009FED050B10B553EC56
:1052D000102B51EC100B00F08FFA41EC100B10BDAD
:1052E00000000000000000009FED050B10B553EC1E
:1052F000102B51EC100B00F02BFC41EC100B10BDEF
:1053000000000000000000709FED050B10B553EC8D
:10531000102B51EC100B00F01BFC41EC100B10BDDE
:10532000000000000000001030380A2801D20120DF
:10533000704700207047014600BF7047FF214FF0C3
:10534000E022916145F2082141435161114609690A
:1053500041F00101116100BF4FF0E021096901F442
:1053600080310029F8D04FF0E021096921F00101D6
:105370004FF0E0221161704730B50346002540F23E
:105380001E30834203DC1846FFF7D8FF16E004E026
:10539000A3F21E3083B2681CC5B240F21E308342B5
:1053A000F6DA002405E040F21E30FFF7C7FF601C6C
:1053B000C4B2AC42F7DB1846FFF7C0FF30BD014670
:1053C00046F2A81201FB02F000E0401E0028FCD1CA
:1053D0007047014646F2A81201FB02F000E0401EB1
:1053E0000028FCD1704701464AF2104201FB02F04E
:1053F00000E0401E0028FCD17047014646F2A8128A
:1054000001FB02F000E0401E0028FCD1704701467D
:1054100046F2A81201FB02F000E0401E0028FCD179
:105420007047014646F2A81201FB02F000E0401E60
:105430000028FCD1704701462A2201FB02F000E05F
:10544000401E0028FCD1704782B0CDE9000121F058
:10545000004001909DED000B02B051EC100B704725
:1054600000BF054A128802F04002002AF9D0C2B2F9
:10547000014B9A8070470000001001400024FEF7A5
:1054800067FFFEF7CDFF27E01CB9FEF7D9FA044607
:1054900020E0072C1DD2DFE804F01C04080C1014D7
:1054A0001800FCF70BFA002413E0FEF787F900243C
:1054B0000FE0FEF7F9FD00240BE0FCF719FE0024D5
:1054C00007E0FDF7FFFE002403E0FEF74FFC002499
:1054D00000BF00BF00F002F8D6E7000010B5FDF7EE
:1054E00007FA1B4880ED000AC0ED010A80ED021AA0
:1054F00018490020FDF7CAFF174880781749097836
:10550000884207D014488078144908700020124956
:10551000C87004E01048C078401C0F49C8700D489E
:1055200000780D4908700B48407848700948807829
:1055300088700B4A0648FEF739FB0A49D0E9002378
:105540008068C1E9002388601420FFF760FF10BD68
:10555000E0550020C0540020C5540020C454002051
:10556000B8540020D455002000B52DED048B83B035
:1055700041EC190B00F02CFC41EC180B18EE100A52
:1055800018EE901A8DED008B002818BF01200843FB
:1055900020F00040C0F17F6000F1E040C00F14D067
:1055A00019EE101A19EE900A8DED009B002918BF14
:1055B0000121084320F00040C0F17F6000F1E0408D
:1055C000C00F04BF0120FAF7FFFF51EC180B03B026
:1055D000BDEC048B00BD000010B500290AD008788E
:1055E000002807D005487844FBF7D0FB002801D0FD
:1055F000002010BD0248784410BD0000CE1200000B
:10560000C612000081F00041704780F000407047F2
:1056100021F00041704720F00040704721F0004227
:10562000A2F16052B2F5801F01F0004328BFD2F111
:105630007F6C0BD95FEA001C43EAC20242EB507058
:1056400018BF704728BF20F001007047B2F5801FD7
:10565000BCBF184670474FEA410C1CF5001F02D230
:10566000084600F0E1BD70B500F01CFB00000089A9
:10567000FFF7F6BF4FF00040A0F580007047000034
:1056800010B591EA030F48BF83F0004300F1748422
:10569000841A71EB030C05D2121943EB0C03001BA7
:1056A00061EB0C01DFF824E14FEA1154A4EB135C29
:1056B0001EEA430F18BF9EEA445F73D023EA0E032D
:1056C000DCF1200E21EA045143F4801332D322FA94
:1056D0000CFE10EB0E0023FA0CFE41EB0E01CCF198
:1056E000200E03FA0EFE10EB0E0051F10001B1F591
:1056F000801FCCF1200E32D201EB045112FA0EF2CF
:10570000BDE8104058BF7047401C38BF5FEA4202F6
:1057100018BF7047002814BF20F0010041F10001BC
:105720004FEA410313F5001F38BF7047A1F1C04194
:1057300000F006BB012A43EB0302ACF1200CDCF1C4
:105740001F0E32BF4FF0000E23FA0CF310EB0300D4
:1057500041EB0451B4EB115FD0D0A1EB045101F542
:10576000801149085FEA300001EB04510ED350F17B
:10577000000038BF12FA0EFE08D1BDE81040C9E79C
:10578000401C38BF5FEA4202CAD1C3E7BDE81040FF
:105790004FEA410313F5001F38BF7047A1F1C04124
:1057A00000F0CEBA9EEA445F08D011EA5E0FBDE871
:1057B000104004BF01F0004100207047BDE81040D8
:1057C00070B500F06FFA00BF64FBBE3E0000E0FF62
:1057D00002494FF0000000F02EBD00BF0000F87F2E
:1057E000491058BFC1F140415B1058BFC3F140435D
:1057F0008B42EFF3008070472DE9C04130B4DFF8F1
:10580000A0C23CEA111418BF3CEA131400F0EC806B
:1058100081EA03051CEA111444EAD57418BF1CEA96
:10582000131500F0C780A4EB05044FF0004545EACE
:10583000C12145EAC32341EA505143EA525304F1DE
:105840007F74994204F500344FEAC0204FEAC22227
:1058500008BF904200F09C804FEA13650FF240169B
:10586000765D4FEA134506FB05F7C7F1807706FB27
:1058700007F74FEAD737A7FB03687642C8F58038A9
:10588000A7FB06CE38BFA8F1010807FB08E64FF0DA
:10589000000EA6FB028CE6FB03CEDCF1000CCEF181
:1058A000004E38BFAEF1010EA6FB0C584FF00007BA
:1058B0004FF00005E6FB0E87A1FB08C6A0FB07CE54
:1058C00016EB0E0645F10005E1FB076515F1E04E0C
:1058D0007EBFA4F580345FEA46066D4116F180076D
:1058E00045F100054FEA17274FEA066647EA0567C4
:1058F000A6F1DE46B6F1805F4FEA15251FD938467E
:1059000024F0010C05EBC471BCF1FE6F01EB0C112E
:1059100002D8F0BCBDE8008124425CBF01F5801EC6
:105920009EEAC47F02D4F0BCBDE80081244238D492
:10593000F0BCA1F1C041BDE8004100F001BA4FEA5E
:10594000D22242EA43524FEAD323A7FB02864FEA10
:10595000D02040EA415007FB03661EEA0E0F4FEAD3
:10596000D12105FB026658BFA6EB0056B6EB0056E8
:105970004FEA520E4EEAC37E18EB0E0E56EB530E54
:10598000BDD518EB02085E417F1C55F10005B6E756
:105990004FF480154FF000074FF000064FF000085D
:1059A000ADE7F0BC4FF0000001F1C04101F0004153
:1059B000BDE8008111EA0C1F0CEA131500D00CE0C1
:1059C00013EA0C1F00F025804FF00000F0BC81EAC4
:1059D000030101F00041BDE80081F0BCBDE80041D9
:1059E00081EA030100F0ACB9F0BCBDE8004170B53C
:1059F00000F058F9097EFC3E00F007B881EA030187
:105A00004FF0000001F00041704781EA030100F00F
:105A100097B9F0BCBDE800414FF000002149704744
:105A2000FFFDFBF9F7F5F4F2F0EEEDEBE9E8E6E463
:105A3000E3E1E0DEDDDBDAD8D7D5D4D3D1D0CFCDEA
:105A4000CCCBCAC8C7C6C5C4C2C1C0BFBEBDBCBB23
:105A5000BAB9B8B7B6B5B4B3B2B1B0AFAEADACAB1E
:105A6000AAA9A8A8A7A6A5A4A3A3A2A1A09F9F9EF8
:105A70009D9C9C9B9A9999989797969595949393AA
:105A8000929191908F8F8E8E8D8C8C8B8B8A898941
:105A900088888787868585848483838282818180C4
:105AA0000000FF070000F87F10F0004248BF4042AE
:105AB000B0FA80F310FA03F10AD0C3F11D0303F525
:105AC00080634FEA415002EB035202EBD121704751
:105AD0004FF000007047000051EA030C17D41CF58A
