:020000040800F2
:10000000680800209D010008A5010008A70100085C
:10001000A9010008AB010008AD01000800000000C4
:10002000000000000000000000000000AF01000818
:10003000B101000800000000B3010008B50100088C
:10004000B7010008B7010008B7010008B7010008B0
:10005000B7010008B7010008B7010008B7010008A0
:10006000B7010008B7010008B1060008B701000891
:10007000B7010008B7010008B7010008B701000880
:10008000B7010008B7010008B7010008B701000870
:10009000B7010008B7010008B7010008F50600081D
:1000A000B7010008B7010008B7010008B701000850
:1000B000B7010008B7010008E9120008B7010008FD
:1000C000B7010008B7010008B7010008B701000830
:1000D000B7010008D11300080515000869150008CC
:1000E000B7010008B7010008B701000800F002F8E6
:1000F00000F045F80AA090E8000C82448344AAF17D
:100100000107DA4501D100F03AF8AFF2090EBAE87A
:100110000F0013F0010F18BFFB1A43F0010318473B
:100120003C1C00005C1C0000103A24BF78C878C159
:10013000FAD8520724BF30C830C144BF04680C60ED
:10014000704700000023002400250026103A28BF35
:1001500078C1FBD8520728BF30C148BF0B60704739
:10016000642900F09980782900F0D280732900F08A
:100170000682002070471FB51FBD10B510BD00F0EE
:1001800031FA1146FFF7F7FF01F0B6FB00F04FFA26
:1001900003B4FFF7F2FF03BC01F041FB09488047BD
:1001A00009480047FEE7FEE7FEE7FEE7FEE7FEE759
:1001B000FEE7FEE7FEE7FEE704480549054A064B71
:1001C0007047000089120008ED0000086802002056
:1001D00068080020680400206804002070470000C0
:1001E0000FB4044910B503AA029800F0CDF910BC71
:1001F0005DF814FB4000002070B504468569006876
:10020000C10601D5302600E02026C00707D070BD0A
:10021000D4E9012130469047206A401C20626D1EBF
:10022000F6D570BD70B5044685690078C00707D162
:1002300070BDD4E9012120209047206A401C206233
:100240006D1EF6D570BD70B50C460546012A05D069
:100250002878800600D5EA69002302E0012305E042
:100260005B1C934202D2E05C0028F9D1A869E61831
:10027000C01AA861286A184428622846FFF7BCFF04
:1002800004E0D5E9012114F8010B9047B442F8D3FA
:100290002846FFF7C7FF70BD2DE9F0410646002450
:1002A00010687529314616A510D0AFF300800028DC
:1002B00002DA404213A507E031688A0701D512A58A
:1002C00002E0490704D511A5012401E0AFF3008045
:1002D00000210A2206F1240709E0B0FBF2FCB0FB82
:1002E000F2F302FB1C00303078541846491C0028F9
:1002F000F3D123462A463046BDE8F04100F0D4B899
:10030000000000002D0000002B0000002000000075
:1003100070B504460D4621461068AFF30080218871
:10032000090502D50F4A7A4402E00E4A7A440E3299
:10033000002104F1240305E000F00F060009965D9A
:100340005E54491C0028F7D120780023000704D50B
:10035000702D02D009B1022311322046BDE8704051
:1003600000F0A2B8F61900002DE9F05F89460446B6
:100370004FF0000ADFF824B1FB44C0F820A020466B
:10038000E168884700287DD0252806D0D4E90121DE
:100390009047206A401C2062F1E700255F46204616
:1003A000E16888472028064607DB312E05D2B819B8
:1003B00010F8200C08B10543F1E7A80701D525F096
:1003C0000405C4F81CA00027C4F818A02A2E09D0E0
:1003D000304601F01DFA38B304EB8708303EC8F808
:1003E000186019E059F8041B204604EB870291615C
:1003F000E1688847012F064618D1E069002820DA15
:1004000025F020051DE0D8F8180000EB800006EB71
:1004100040003038C8F818002046E1688847064692
:1004200001F0F6F90028EED1012F0AD02E2E08D1C6
:100430002046E16888477F1C0646022F45F02005CC
:10044000C4DBA069002803DA404245F00105A06141
:10045000E80701D025F01005A6B1A6F14100192842
:1004600002D8203645F400654A46314620462560CC
:100470004D46FFF775FE60B1012807D0ED1D25F050
:10048000070000E007E000F1080978E705F104093A
:1004900075E730467AE7206ABDE8F09FCC19000086
:1004A00070477047704770472DE9F0470D469946F1
:1004B0009246044600F124080168880604D5E069E4
:1004C00021F01001216000E00120A84201DD471B5E
:1004D00000E00027A1697A1902EB0900081AA0615F
:1004E0002078C00602D42046FFF786FE002608E0EA
:1004F000D4E901211AF806009047206A401C761CB6
:1005000020624E45F4DB2078C0060AD52046FFF76E
:1005100073FE06E0D4E9012130209047206A401C98
:100520002062381EA7F10107F4DC07E0D4E90121BD
:1005300018F805009047206A401C2062281EA5F18B
:100540000105F3DC2046FFF76DFE2078000602D59A
:100550000220BDE8F0870120FBE710B5436913B125
:10056000AFF3008001E0FFF76EFE012010BD1278AE
:1005700000F124010A7000224A700122EDE711689F
:100580004FF0FF32E9E70000074B70B50D467B44A2
:1005900000F011F80446284600F020F810B14FF0A2
:1005A000FF3070BD204670BD4B13000001694A1C2E
:1005B00002610878704700B58FB0CDE901310021A4
:1005C000059105497944CDE9031011466846FFF7C6
:1005D000CBFE0FB000BD0000E5FFFFFF007B00F089
:1005E00080007047754600F029F8AE460500694660
:1005F000534620F00700854618B020B5FFF7DCFD14
:10060000BDE820404FF000064FF000074FF0000813
:100610004FF0000B21F00701AC46ACE8C009ACE894
:10062000C009ACE8C009ACE8C0098D467047044673
:10063000AFF300802046FFF7ABFD00000048704795
:10064000040200202DE9F0410746884615460421A2
:10065000052000F0B1F90021012000F023FC8021E9
:100660000A2000F011FC002405E0395D092000F0AB
:1006700019FC601CC4B24445F7DB0321012000F0E3
:1006800011FCFF2400BF052000F0E2FB0646601EBF
:10069000C4B21CB106F004000028F4D0222000F0FF
:1006A000D7FB2870212000F0D3FB6870BDE8F081F3
:1006B00010B5102000F036F8012813D10A2001F0FF
:1006C000CFF80948006800F0100058B907480068E2
:1006D00040F01000054908600548006880F02000DF
:1006E0000349086010BD00000818014014040140CF
:1006F0000C0C014010B5202000F014F801280BD19B
:100700000648006840F0200004490860044800687A
:1007100080F020000249086010BD00001404014070
:100720000C0C014001460020034A12680A400AB13D
:10073000012000E000207047140401402DE9F04141
:10074000024600250026002000230024002791F8FF
:1007500003C00CF00F0591F803C00CF0100CBCF1B5
:10076000000F03D091F802C04CEA050591F800C0D3
:10077000BCF1000F31D0146800202BE04FF0010CC9
:100780000CFA00F3B1F800C00CEA03069E4220D137
:1007900083004FF00F0C0CFA03F7BC4305FA03FC7F
:1007A0004CEA040491F803C0BCF1280F06D14FF0C5
:1007B000010C0CFA00FCC2F814C00AE091F803C066
:1007C000BCF1480F05D14FF0010C0CFA00FCC2F847
:1007D00010C0401C0828D1D31460B1F800C0BCF18F
:1007E000FF0F34DD546800202EE000F1080C4FF0BC
:1007F000010808FA0CF3B1F800C00CEA03069E42A7
:1008000021D183004FF00F0C0CFA03F7BC4305FA1B
:1008100003FC4CEA040491F803C0BCF1280F05D195
:1008200000F1080C08FA0CF8C2F8148091F803C023
:10083000BCF1480F07D100F1080C4FF0010808FA8D
:100840000CF8C2F81080401C0828CED35460BDE8D4
:10085000F0810000F0B50A460023002400210025A5
:1008600000F00046B6F1004F02D11D4EF16901E0E3
:100870001B4E7168C0F3034583B200F44016B6F511
:10088000401F08D121F07061154E766826F0706621
:10089000134F7E6012E000F48016B6F5801F06D17B
:1008A000032606FA05F4A14341F0706106E0460D07
:1008B000360103FA06F6B14341F0706122B1460DEC
:1008C000360103FA06F6314300F00046B6F1004F58
:1008D00002D1034EF16101E0014E7160F0BD0000F4
:1008E0000000014041617047016170472DE9F0410E
:1008F00005460E46022700242946522000F0BAF988
:1009000068B944F00104304600F0B2F838B944F058
:100910000204304600F0D9F908B944F00404072C69
:1009200000D100273846BDE8F081000008B501215C
:10093000084600F017FB01210E48FFF78BFF01214D
:10094000082000F00FFB0C20ADF8000010208DF8FF
:10095000030003208DF8020069460748FFF7EEFE0A
:1009600004210548FFF7C0FF08210348FFF7BCFF3B
:1009700008BD000000023000000C014008B5012154
:10098000042000F0EFFAC020ADF8000010208DF830
:10099000030003208DF8020069460648FFF7CEFEEB
:1009A00040210448FFF7A0FF80210248FFF79CFF89
:1009B00008BD00000008014070B505460C46002641
:1009C000284600F045FA064626EA0401284600F0CB
:1009D00069FA70BD10B5FFF7D1FF00F0FBF900F028
:1009E00041F800F032F8412000F001F810BD10B5D8
:1009F0000446412C25D108210846FFF7DDFF3D21A3
:100A0000112000F04FFA8621172000F04BFA7F21C9
:100A1000262000F047FA1E212D2000F043FA002185
:100A20002C2000F03FFA8D212A2000F03BFA3E21D5
:100A30002B2000F037FA022000F033FF00F005F819
:100A400001E0012010BD0020FCE710B5142000F0EB
:100A5000FFF9044604F0030018B90321142000F044
:100A600013FA10BD10B503211420FFF7A5FF10BD28
:100A7000F0B587B00546002708210846FFF79CFF20
:100A800000210D2000F00EFA80210E20FFF794FFC8
:100A900093208DF8040020208DF8050006A801ABF6
:100AA000022201A900900C2000F045F8064686B904
:100AB000002407E001A8005D285501A8005D47401B
:100AC000601CC4B2042CF5DB01A8005DB84200D064
:100AD000022680210E2000F0D7F9304607B0F0BD85
:100AE0002DE9F04188B004460D4616461F468DF8A4
:100AF00008408DF809503068CDF80A00B088ADF88C
:100B00000E003868049007A802AB0C2202A90090DE
:100B10000E2000F010F88046B8F1000F05D1082033
:100B200000F096F900F0080008B94FF002084046BE
:100B300008B0BDE8F0812DE9FE4F06468846914693
:100B40009A46DDF830B0022002900020019000901B
:100B50000C2E06D00E2E09D11220019010200090EC
:100B600005E0772001903020009000E000BF00BF3A
:100B7000019840F08001022000F094F980210420C7
:100B8000FFF71AFF0021012000F08CF980210A20D4
:100B900000F07AF9002506E018F80510092000F0A9
:100BA00081F9681C85B24D45F6DB3146012000F025
:100BB00079F90C2E03D180210D2000F065F94FF456
:100BC000167500BF042000F043F90446681E85B284
:100BD00035B104F0010018B9009820400028F1D088
:100BE00080210D20FFF7E8FE002D38D0062000F010
:100BF0002FF900F01B0078BB0020029001982040E4
:100C000000F0010008B1012002900C2E27D10A202B
:100C100000F01EF904460C2000F01AF900F0070756
:100C20002FB1601E07EBC0008BF8000003E0E00668
:100C3000000E8BF8000004B90124122C00DD1224F0
:100C4000002506E0092000F003F90AF80500681CF9
:100C500085B2A542F6DB02E0FFE702200290802188
:100C60000C2000F011F90021012000F01BF902987E
:100C7000BDE8FE8F70B588B005460C4608210846D1
:100C8000FFF79AFE07210D2000F00CF90321142034
:100C900000F0FAF88DF8085007A802AB012202A96B
:100CA00000900C20FFF747FF064656B99DF81C0040
:100CB000102806D19DF8080020709DF8090060708A
:100CC00000E00226304608B070BD70B588B0054619
:100CD00093208DF8080070208DF8090000208DF811
:100CE0000E0000240BE0295D02AAA01C11549DF8FF
:100CF0000E00295D48408DF80E00601CC4B2042C23
:100D0000F1DB0DF10F02072102A8FFF79BFC082180
:100D10000846FFF751FE07A802AB092202A900907E
:100D20000C20FFF708FF06462EB99DF81C00182876
:100D300001D1002600E00226304608B070BDF0B5B3
:100D400087B006460F46A0208DF804008DF8056098
:100D50000DF10602022101A8FFF774FC06A801AB01
:100D6000042201A900900C20FFF7E5FE05464DB9CD
:100D70009DF81800042805D19DF8040000F00F002C
:100D80000A2800D0022515BB002404E0385D01A923
:100D90000855601CC4B2102CF8DB05AA102101A86C
:100DA000FFF750FC06A801AB122201A900900C200D
:100DB000FFF7C1FE05464DB99DF81800042805D17E
:100DC0009DF8040000F00F000A2800D002252846F4
:100DD00007B0F0BD10B580211C48FFF785FD02204B
:100DE00000F05FFD80211948FFF77CFD022000F034
:100DF00058FD80211548FFF777FD022000F051FDD6
:100E00000F21012000F04EF80F21012000F04AF8D8
:100E1000022000F046FD3D21112000F043F81E2184
:100E20002D2000F03FF800212C2000F03BF88D2110
:100E30002A2000F037F83E212B2000F033F8402123
:100E4000152000F02FF8002010BD00000008014020
:100E500070B50446002640210A48FFF743FD7E2076
:100E600000EA440040F08005284600F03BF90020ED
:100E700000F038F9064640210248FFF735FD3046BC
:100E800070BD00000008014070B505460C46002604
:100E90002846FFF7DDFF064646EA0401284600F033
:100EA00001F870BD70B504460D4640210848FFF7B3
:100EB00019FD7E2000EA4406304600F013F928466A
:100EC00000F010F940210248FFF70EFD70BD000050
:100ED0000008014070B5002100230F22C47804B33C
:100EE000154C246804F4E064C4F5E064210AC1F1FF
:100EF0000403CA40447804FA03F18478144021437F
:100F000009010E4C0678A155047804F01F05012450
:100F1000AC4005786D11AD0005F1E025C5F8004144
:100F200009E0047804F01F050124AC40044D067864
:100F3000761145F8264070BD0CED00E000E400E0BD
:100F400080E100E029B1064AD2690243044BDA612C
:100F500004E0034AD2698243014BDA617047000022
:100F60000010024029B1064A92690243044B9A617B
:100F700004E0034A92698243014B9A617047000082
:100F80000010024030B500210022002400232D4D26
:100F90006D6805F00C0121B1042905D0082923D181
:100FA00005E0294D056022E0274D05601FE0254D35
:100FB0006D6805F47012234D6D6805F480340225C8
:100FC00005EB92421CB9214D554305600BE01D4DC8
:100FD0006D6805F400351DB11C4D5543056002E0F8
:100FE000194D5543056002E0174D056000BF00BF75
:100FF000144D6D6805F0F0010909154D6B5C05682D
:10100000DD4045600F4D6D6805F4E061090A104D43
:101010006B5C4568DD4085600A4D6D6805F4605184
:10102000C90A0B4D6B5C4568DD40C560054D6D68B8
:1010300005F44041890B074D6B5CC568B5FBF3F5C2
:10104000056130BD0010024000127A0000093D0029
:10105000520000206200002000B587B00121082066
:10106000FFF780FF01218803FFF76CFF4FF460401A
:10107000ADF8180018208DF81B0003208DF81A0019
:1010800006A91648FFF75AFB4FF460411348FFF7D3
:101090002BFC0020ADF804004FF48270ADF8060080
:1010A0000020ADF80800ADF80A00ADF80C004FF4D0
:1010B0000070ADF80E000820ADF810000020ADF86B
:1010C00012000720ADF8140001A9054800F040F80F
:1010D0000121034800F022F807B000BD000C0140D8
:1010E0000038004010B5044600BF02210A4800F055
:1010F00021F80028F9D02146074800F027F800BF62
:101100000121054800F016F80028F9D0024800F047
:101110001AF8C4B2204610BD0038004021B1028840
:1011200042F04002028004E002884FF6BF731A408A
:10113000028070470246002013890B400BB101204A
:1011400000E0002070470146888970478181704720
:1011500010B50022028802F441520B884C882343C8
:101160008C882343CC8823430C8923434C89234315
:101170008C892343CC8923431A430280838B4FF20B
:10118000FF74234083830B8A038210BD10B500F0E7
:1011900001F810BD0CB500200190009033480068A4
:1011A00040F480303149086000BF3048006800F4E6
:1011B000003000900198401C0190009818B90198E7
:1011C000B0F5A06FF1D12948006800F4003010B1EB
:1011D0000120009001E0002000900098012843D1F8
:1011E0002348006840F01000214908600846006864
:1011F00020F0030008600846006840F00200086024
:101200001A484068194948600846406848600846DE
:10121000406840F4806048600846406820F47C10D4
:1012200048600846406840F4E81048600846006896
:1012300040F08070086000BF0C48006800F000704B
:101240000028F9D00948406820F0030007494860A9
:101250000846406840F00200486000BF034840680C
:1012600000F00C000828F9D10CBD0000001002406D
:10127000002002404FF0E020006920F004004FF011
:10128000E02108617047000010B51348006840F085
:1012900001001149086008464068104908400E499D
:1012A0004860084600680E4908400B490860084637
:1012B000006820F4802008600846406820F4FE00A2
:1012C00048604FF41F008860FFF760FF4FF0006038
:1012D0000449086010BD0000001002400000FFF843
:1012E000FFFFF6FE08ED00E02DE9F04704211E485F
:1012F00000F05DF840B104211B4800F04FF81A4897
:1013000000F052F8194908800221174800F04FF800
:10131000002827D00221144800F040F84FF4007153
:10132000114800F03BF8104800F03BF807463846FB
:1013300000F016FC80460D48008800F011FC814644
:10134000414600F02BFB0646094900F01DFC05460E
:1013500000F0E6FB84B2234604480288394605A023
:10136000FEF73EFFBDE8F087000800405000002077
:101370000000C842D6DCC6DAA3BA2564202020B813
:10138000DFB5E7C6BDA3BA2564202020D5BCBFD5F4
:10139000B1C8A3BA256425250D0A0000CA430282FC
:1013A00070470146888E70470146088F704730B5F8
:1013B0000246002000230024158A05EA01039589CE
:1013C00005EA010413B10CB1012000E0002030BD9A
:1013D00010B52021144800F011F901280BD1124852
:1013E000001D00881149124A12788854104800786C
:1013F000401C0F49087040F224410B4800F00BF9E3
:1014000001280FD1084800880748001D00880020E7
:101410000649074A1278885406A0FEF7E1FE00202C
:101420000349087010BD000000380140680000202A
:1014300044000020C4E3B7A2CBCDB5C4CAFDBEDDD5
:10144000CAC7A3BA25730D0A0000000010B586B004
:10145000044601210420FFF785FD01218803FFF7E1
:1014600081FD4FF40070ADF8140018208DF81700BE
:1014700003208DF8160005A92048FFF75FF94FF407
:101480008060ADF8140004208DF8170003208DF85B
:10149000160005A91948FFF751F901940020ADF88D
:1014A0000800ADF80A00ADF80C00ADF810000C20F3
:1014B000ADF80E0001A9124800F0FCF8012240F23C
:1014C00025510F4800F0D1F8012240F224410C4888
:1014D00000F0CBF825208DF8000001208DF80100E8
:1014E0008DF802008DF803006846FFF7F3FC012138
:1014F000034800F077F806B010BD00000008014076
:101500000038014010B52021134800F077F8012879
:101510000FD11148001D00881049096808700F4854
:101520000068401C0D4908600D480078401C0C49BB
:10153000087040F22441084800F06DF801280AD1F3
:10154000054800880448001D0088002005490872ED
:1015500008460249086010BD0044004048000020D1
:101560004C000020F801002010B52021144800F0A4
:1015700045F801280BD11248001D00881149124A74
:101580001278885410480078401C0F49087040F2C7
:1015900024410B4800F03FF801280FD1084800888B
:1015A0000748001D008800200649074A1278885421
:1015B00006A0FEF715FE00200349087010BD0000CC
:1015C00000480040300100204D000020C4E3B7A2D5
:1015D000CBCDB5C4CAFDBEDDCAC7A3BA25730D0AFB
:1015E0000000000021B1828942F40052828104E0AF
:1015F00082894DF6FF731A408281704702460020AF
:10160000B1F5007F00D100BF13880B400BB1012062
:1016100000E00020704770B502460024002300253A
:10162000002040F66A16B14200D100BFC1F3421556
:1016300001F01F03012606FA03F3012D02D196895A
:10164000334006E0022D02D1168A334001E0968A2B
:1016500033400C12012606FA04F41688344013B104
:101660000CB1012000E0002070BDF0B5034600245D
:1016700000260025002040F66A17B94200D100BFBD
:101680001846C1F3421401F01F06012707FA06F5B8
:10169000012C01D10C3004E0022C01D1103000E00B
:1016A00014301AB107682F43076002E00768AF43A0
:1016B0000760F0BD2DE9F04786B005460E460024D0
:1016C000A24600BFA1460027B08900B100BF2F4647
:1016D0002C8A4CF6FF700440F08804432C82AC89BD
:1016E0004EF6F3100440B0883189084371890843ED
:1016F0000443AC81AC8A4FF6FF400440B0890443F8
:10170000AC8201A8FFF73EFC1F48874202D1DDF8FA
:1017100010A001E0DDF80CA0A88900F4004040B161
:101720000AEBCA0000EB0A1031684900B0FBF1F87F
:1017300007E00AEBCA0000EB0A1031688900B0FB31
:10174000F1F86420B8FBF0F004012009642101FBEA
:101750001089A88900F4004040B1322000EBC90094
:10176000B0FBF1F000F00700044308E0322000EB8A
:1017700009106421B0FBF1F000F00F0004432C814C
:1017800006B0BDE8F0870000003801402DE9F047C1
:1017900081460C4692461E46089F0225394612484D
:1017A000FFF7A4F8054675B9A046E01704EB907062
:1017B0008010032202EB8000C1B23B460B4A60203E
:1017C000FFF78EF9054615B909A0FEF709FD25B901
:1017D00031462046FFF7B3FA054615B908A0FEF7D3
:1017E000FFFCE8B2BDE8F0870400002017000020ED
:1017F000C3DCC2EBD1E9D6A4B3C9B9A6210D0A0056
:10180000CAFDBEDDD0B4C8EB4F4B210D0A0000006D
:1018100030380A2801D20120704700207047014665
:1018200000BF7047FF214FF0E022916142F2283162
:10183000414351611146096941F00101116100BF45
:101840004FF0E021096901F480310029F8D04FF010
:10185000E021096921F001014FF0E0221161704798
:1018600030B503460025B3F5E96F03DC1846FFF7F2
:10187000D9FF15E004E0A3F5E96083B2681CC5B2A6
:10188000B3F5E96FF7DA002405E04FF4E960FFF7FC
:10189000C9FF601CC4B2AC42F7DB1846FFF7C2FFB9
:1018A00030BDFF214FF0E022916100EBC00151619A
:1018B0001146096941F00101116100BF4FF0E021BB
:1018C000096901F480310029F8D04FF0E02109695D
:1018D00021F001014FF0E0221161704700BF054A7D
:1018E000128802F04002002AF9D0C2B2014B1B1D3F
:1018F0001A8070470038014086B012A30FCBCDE9A3
:101900000423CDE90201FFF7B5FC4FF4E130FFF706
:101910009DFDFFF70BF8FFF79FFBFFF75BF810E06B
:101920004FF47A70FFF79CFF0A4802AB0A4A0A217B
:1019300000906020FFF72AFF18B9102102A800F0DC
:101940000DF8EDE78888888888888888888888885E
:1019500088888888000000201700002070B50546A0
:101960000E4600240AE024B9295D07A0FEF738FCE2
:1019700003E0295D06A0FEF733FC641CB442F2DBF1
:1019800005A0FEF72DFC70BD3078253032582000C0
:1019900025303258200000000D0A00004FF47F0C63
:1019A0001CEAD0121EBF1CEAD11392EA0C0F93EA74
:1019B0000C0F00F0858090EA010F48BF42F480725E
:1019C00040F4000C41F400002CF07F4120F07F40F7
:1019D00000B58142A2EB03020FF2081CACEB504EA3
:1019E000C0F100009EF800E04FEA4E0E00FB0EFC36
:1019F00038BF49004FEA2C1C02F5FA020CFB0EF32B
:101A00004FEACE1E4FEA112C4FEAC1210EEB635E66
:101A100042EB22420EFB0CFC4FEA1C5300FB03116D
:101A20004FEA112C4FEA01310EFB0CFC4FEADC4C63
:101A300000FB0C11C14228BF09184CEB03335DF8C1
:101A400004EB10EB410143EBC250B2F57C0F38BF01
:101A5000704729D512F0F00F1CBF00F1C04000F014
:101A600000407047008182838485868788898B8CBB
:101A70008D8E8F919293959697999A9C9D9FA0A2F7
:101A8000A3A5A7A8AAACAEB0B2B3B5B7B9BCBEC047
:101A9000C2C5C7C9CCCED1D4D7D9DCDFE2E6E9ECE8
:101AA000F0F3F7FAFE0000004FEA400C0CF1807CE6
:101AB000BCF17E4F28BF7047B0F1C04000F02BB999
:101AC00090EA010F0CEAD11348BF42F480726245DC
:101AD00038BF634507D213F47F0F16D080EA0100A8
:101AE00000F00040704710B500F0CFF8097EFC3ED2
:101AF00000F005B880EA010000F00040704780EA7D
:101B0000010000F0004000F006B912F47F0F04BF9E
:101B10000248704780EA010000F0FDB80000C07F75
:101B2000C10DD1F19E0206DB4FEA002343F00043D2
:101B300023FA02F07047004207D54FEA4001B1F1A5
:101B4000FE4F02D24FF00000704710B500F09DF834
:101B500049922480002070476FEA200070470000FF
:101B6000B0FA80F310FA03F2C3F19D030AD0D9054D
:101B700001EB1220530638BF704700F1010008BF87
:101B800020F00100704700004FF47F0C1CEAD012D7
:101B90001EBF1CEAD11392EA0C0F93EA0C0F00F05F
:101BA000478090EA010F48BF42F480724FF0004C2A
:101BB0004CEA00204CEA012102EB0302A0FB0113D6
:101BC000A2F50002002918BF43F001035B0028BF03
:101BD0004FEA330342EB22425FEA132C4CEBC25034
:101BE0002EBFBCEB436FB2F57C0F70474FEA036C1E
:101BF000BCF1004F08BF20F00100B2F57C0F38BFE8
:101C000070470BD582F0FF0212F5803FC8BF7047C6
:101C100000F1C040D8BF00F00040704700F5000C54
:101C20005FEA4C0C48BF7047B0F1C04000F073B899
:101C300090EA010F0CEAD11348BF42F4807262456A
:101C400038BF634504D280EA010000F000407047CD
:101C500010B500F01AF800BF8900013E00F007B887
:101C600000F009B85FEA410C5FEA1C6C08D080EA1A
:101C7000010000F050B85FEA400C5FEA1C6CF6D13E
:101C80004FF00040A0F5800070470EF1020E2EF0DC
:101C9000030E5EF8044B244204D44FEA4102B2F131
:101CA0007F4F11D84FEA4003B3F17F4F0CD80ED1CC
:101CB0004FEAD07CB2F17F4F0CEB4C0C0CF1020CD4
:101CC00008BF4CEBD17C04E04FF0080C01E04FEA78
:101CD000D17C0CEB4C0324FA03F404F00704B4F1B8
:101CE000040C06D20EEB840CBDE810404CF0010C45
:101CF0006047DFE80CF0070802024FF00040A0F553
:101D0000800010BD0846420018BFD2F1807288BF23
:101D100000F0004010BDFF2141EAD050C0057047DF
:101D20003031323334353637383941424344454611
:101D3000403058003031323334353637383961620B
:101D4000636465664030780004000008000000000D
:101D50000000000200010000100000007C1D0008CF
:101D6000000000206800000028010008E41D0008B1
:101D70006800002000080000440100080000000086
:101D80000000FFFFFFFFFFFFFFFF0001020304FF52
:101D9000FFFF00FFFFFFFFFFFF585858585858FF3C
:101DA0000780295858585858585858585858580063
:101DB0000000000000000000000000000000000023
:101DC00000000000F80100200000000000000000FA
:101DD00000000102030401020304060708090204CB
:041DE00006080000F1
:04000005080000ED02
:00000001FF
