:020000040800F2
:1000000050B000204D0300085503000857030008B6
:10001000590300085B0300085D03000800000000AE
:100020000000000000000000000000009502000831
:100030006103000800000000E9020008B140000868
:1000400067030008670300086703000867030008E8
:1000500067030008670300086703000867030008D8
:1000600067030008670300086703000867030008C8
:1000700067030008670300086703000867030008B8
:100080006703000867030008811800086703000879
:100090006703000867030008670300086703000898
:1000A0008D410008B9410008670300086703000894
:1000B00067030008E54100081142000867030008D3
:1000C0006703000867030008670300086703000868
:1000D00067030008D54400086703000867030008A9
:1000E0006703000867030008670300086703000848
:1000F0006703000867030008670300086703000838
:100100006703000867030008670300086703000827
:100110006703000867030008670300086703000817
:100120006703000867030008670300086703000807
:1001300067030008670300086703000867030008F7
:1001400067030008670300086703000867030008E7
:1001500067030008670300086703000867030008D7
:1001600067030008670300086703000867030008C7
:1001700067030008670300086703000867030008B7
:10018000670300086703000800F002F800F073F846
:100190000AA090E8000C82448344AAF10107DA45E2
:1001A00001D100F068F8AFF2090EBAE80F0013F0C1
:1001B000010F18BFFB1A43F001031847F08E00002F
:1001C000108F000010F8013B0A4413F0030408BF2D
:1001D00010F8014B1D1108BF10F8015B641E05D01B
:1001E00010F8016B641E01F8016BF9D1002D15D0D8
:1001F00010F8014B03F00C030C2BA1EB04040ABF15
:1002000010F8013BA4EB8314A4EB032405F10103D4
:1002100014F8016B5B1E01F8016BF9D5914238BFF0
:1002200010F8013BD1D3704700230024002500269D
:10023000103A28BF78C1FBD8520728BF30C148BF49
:100240000B607047662908F00084642900F0108173
:10025000732900F0FE84002070471FB508F0EBFB07
:1002600000F062FD04000020002107F0C1FDE06005
:100270001FBD10B510BD00F05BFE1146FFF7EDFF8E
:1002800005F06EFA00F079FE03B4FFF7F2FF03BC4D
:1002900005F08DF92A4B19680868B0E8F04F80F333
:1002A0000988BFF36F8F4FF0000080F3118870470B
:1002B0000000000006480068006880F3088862B605
:1002C00061B6BFF34F8FBFF36F8F00DF00BF00BF7A
:1002D00008ED00E0DFF80C00016841F470010160F6
:1002E000704700BF88ED00E0EFF30980BFF36F8F28
:1002F000134B1A681EF0100F08BF20ED108A20E97A
:10030000F04F106008B44FF0500080F31188BFF335
:100310004F8FBFF36F8F06F047FE4FF0000080F362
:10032000118808BC19680868B0E8F04F1EF0100F7B
:1003300008BFB0EC108A80F30988BFF36F8F704755
:10034000DC540020EFF30580704700000948804727
:1003500009480047FEE7FEE7FEE7FEE7FEE7FEE7A7
:10036000FEE7FEE7FEE7FEE704480549054A064BBF
:1003700070470000C14000088901000850AA002011
:1003800050B0002050AC002050AC0020704700005E
:100390000FB4044910B503AA029800F05FFC10BC2A
:1003A0005DF814FB2C0000200FB41CB5074B06AA07
:1003B0007B4469460090059800F021FC00206946C6
:1003C00000F030FC1CBC5DF814FB0000710800005C
:1003D00070B5044685690068C10601D5302600E085
:1003E0002026C00707D070BDD4E9012130469047D0
:1003F000206A401C20626D1EF6D570BD70B50446A3
:1004000085690078C00707D170BDD4E9012120209B
:100410009047206A401C20626D1EF6D570BD70B5F5
:100420000C460546012A05D02878800600D5EA69E1
:10043000002302E0012305E05B1C934202D2E05C52
:100440000028F9D1A869E618C01AA861286A1844DA
:1004500028622846FFF7BCFF04E0D5E9012114F823
:10046000010B9047B442F8D32846FFF7C7FF70BD91
:100470002DE9F0410646002410687529314616A57D
:1004800010D0AFF30080002802DA404213A507E045
:1004900031688A0701D512A502E0490704D511A5E4
:1004A000012401E0AFF3008000210A2206F12407B5
:1004B00009E0B0FBF2FCB0FBF2F302FB1C003030B1
:1004C00078541846491C0028F3D123462A46304662
:1004D000BDE8F04100F027B9000000002D00000049
:1004E0002B000000200000002DE9F05F8946044643
:1004F0004FF0000ADFF824B1FB44C0F820A02046EA
:10050000E168884700287DD0252806D0D4E901215C
:100510009047206A401C2062F1E700255F46204694
:10052000E16888472028064607DB312E05D2B81936
:1005300010F8200C08B10543F1E7A80701D525F014
:100540000405C4F81CA00027C4F818A02A2E09D05E
:10055000304605F025F838B304EB8708303EC8F87C
:10056000186019E059F8041B204604EB87029161DA
:10057000E1688847012F064618D1E069002820DA93
:1005800025F020051DE0D8F8180000EB800006EBF0
:1005900040003038C8F818002046E1688847064611
:1005A00004F0FEFF0028EED1012F0AD02E2E08D134
:1005B0002046E16888477F1C0646022F45F020054B
:1005C000C4DBA069002803DA404245F00105A061C0
:1005D000E80701D025F01005A6B1A6F141001928C1
:1005E00002D8203645F400654A463146204625604B
:1005F0004D46FFF727FE60B1012807D0ED1D25F01D
:10060000070000E007E000F1080978E705F10409B8
:1006100075E730467AE7206ABDE8F09F748A0000EB
:10062000032A40F2308010F0030C00F0158011F81E
:10063000013BBCF1020F624498BF11F801CB00F8F6
:10064000013B38BF11F8013BA2F1040298BF00F84A
:1006500001CB38BF00F8013B11F0030300F0108319
:10066000083AC0F0088051F8043B083A51F804CB2E
:10067000A0E80810F5E7121D5CBF51F8043B40F8F4
:10068000043BAFF30080D20724BF11F8013B11F8FF
:1006900001CB48BF11F8012B24BF00F8013B00F843
:1006A00001CB48BF00F8012B704702F0FF0343EA7B
:1006B000032242EA024200F017BB4FF0000200B5ED
:1006C000134694469646203922BFA0E80C50A0E875
:1006D0000C50B1F12001BFF4F7AF090728BFA0E823
:1006E0000C5048BF0CC05DF804EB890028BF40F8EF
:1006F000042B08BF704748BF20F8022B11F0804F31
:1007000018BF00F8012B704770477047704770475B
:1007100010B500F00DFB006810BD10B5044600F0E8
:1007200007FB046010BD2DE9F0470D46994692463F
:10073000044600F124080168880604D5E06921F028
:100740001001216000E00120A84201DD471B00E00C
:100750000027A1697A1902EB0900081AA061207824
:10076000C00602D42046FFF733FE002608E0D4E995
:1007700001211AF806009047206A401C761C20626E
:100780004E45F4DB2078C0060AD52046FFF720FE50
:1007900006E0D4E9012130209047206A401C206205
:1007A000381EA7F10107F4DC07E0D4E9012118F8AD
:1007B00005009047206A401C2062281EA5F1010513
:1007C000F3DC2046FFF71AFE2078000602D502204F
:1007D000BDE8F0870120FBE770472DE9FF4F0C468D
:1007E0001E464FF0FF378BB0D2E90001DDF8608084
:1007F0000A908A46C1F30A5505B93D4600210846CC
:100800004FF00000BAF1000F00F4400005DA00EBF1
:1008100080004FF4400101EA50004FEA9059B9F1CD
:10082000010F00DDB9460A9850EA4A000ED044F69E
:100830001050A5F2FF3545432F14B8F1000F1ED01C
:100840007542291E1EDDC9F100021CE0B8F1010F3E
:100850004FF0000001D0302103E0F24305E02154C5
:10086000401CB042FBDB30460022002121540B9992
:10087000C1F80880C1E900200FB0BDE8F08FBD1BB2
:100880006D1CDEE74A4600DA694206A800F0DAFA93
:1008900006AB93E8070003AB83E8070050460A99CC
:1008A00000F0B2FB8DE80700A0F500501F38009063
:1008B0000398002D09DD42F21F014A46084403A9AE
:1008C0000390684600F011FE08E0A0F500504A468B
:1008D0001F3803A90390684600F01BFE8DE807004F
:1008E0000004000C03D04FF0FF30410800E0104638
:1008F000B8F1000F03D00022009215461EE0751ECD
:1009000005D400F019FA303262556D1EF9D5B346A0
:100910000122084302D000227F1C04E02078302806
:1009200001D100227F1E002A099786D01DE0112DDB
:1009300007DA00F001FA303262556D1C50EA01020C
:10094000F5D1084302D00098C8B10EE00021681E1E
:1009500005E0235C625C63542254401E491C8142C2
:10096000F7DBAB46A81B401E0990002004F80B00E3
:100970000B98099AC0F80880C0E9002B7CE7112683
:100980004FF0000859E72DE9F04F88460446D21D84
:1009900022F0070191B0D1E90001CDE90A0103F08D
:1009A000B9FE02460B98C00F01D02D2007E0206849
:1009B000810701D52B2002E0202101EAC000032A93
:1009C000099001D0072A05DB03464146204600F086
:1009D000F9F90BE12078800601D5E06900E00620F6
:1009E000B8F1650F814606D0B8F1660F18D0B8F19E
:1009F000670F70D131E00020B9F1110F009001DBD9
:100A0000112301E009F101030AAA01A90CA8FFF7CB
:100A1000E4FEDDE90C70002609F10105834647E09C
:100A200001204B4600904FF000470AAA01A90CA8EC
:100A3000FFF7D3FEDDE90DB00C995D46002610B935
:100A400009F101000D18B9EB050003D4C0F1FF3620
:100A500009F10105A5EB09002BE0B9F1010F01DA5D
:100A60004FF001090020B9F1110F0090484601DD57
:100A7000112300E003460AAA01A90CA8FFF7ADFE66
:100A8000DDE90C704D4600268346207800070AD425
:100A9000AB4500DA5D4601A8012D04DD411911F8CE
:100AA000011C302907D04F4502DA17F1040F04DA90
:100AB000012082460FE06D1EEEE7002F02DCED1BE9
:100AC0003E4403E0781CA84200DD7D1CB81B00F109
:100AD000010A4FF000472078000703D4AA4501DB44
:100AE0004FF0FF3A0021B7F1004F0DF143088DF8A8
:100AF000431024D002202B23002F01DA7F422D2324
:100B00000A21021EA0F1010000DC5FB197FBF1FC9D
:100B100097FBF1F201FB1C7C17460CF1300C08F836
:100B200001CDEEE7A8F1010003702188090501D588
:100B3000452100E06521A0F1010800F8011C099899
:100B40000FA9A1EB0807FF1D00B10120411901EB1E
:100B5000EA70A1693844081A401EA0612078C006D6
:100B600002D42046FFF734FC099828B1D4E90121CA
:100B70009047206A401C20622078C00622D520467B
:100B8000FFF726FC1EE0002E04DBB34502DD01A8C2
:100B9000805D00E03020D4E901219047206A401CAC
:100BA0002062761CAAF101005FEA000A0AD100F077
:100BB000BBF8C0680168405CD4E901219047206A15
:100BC000401C2062281EA5F10105DCDC07E0D4E909
:100BD000012118F8010B9047206A401C2062381E42
:100BE000A7F10107F3DC2046FFF708FC032011B052
:100BF00043E6000001694A1C02610878704700B5AD
:100C00008FB0CDE901310021059105497944CDE945
:100C1000031011466846FFF767FC0FB000BD0000E7
:100C2000E5FFFFFF0A6802F8010B0A60704710B584
:100C3000436913B1AFF3008001E0FFF7F0FB01203F
:100C400010BD127800F124010A7000224A700122BE
:100C5000EDE711684FF0FF32E9E70000074B70B590
:100C60000D467B44FFF7CBFF0446284600F058F9B9
:100C700010B14FF0FF3070BD204670BD5B4A0000E0
:100C800010B5203AC0F00B80B1E81850203AA0E827
:100C90001850B1E81850A0E81850BFF4F5AF5FEA5B
:100CA000027C24BFB1E81850A0E8185044BF18C90E
:100CB00018C0BDE810405FEA827C24BF51F8043BB5
:100CC00040F8043B08BF7047D20728BF31F8023B09
:100CD00048BF11F8012B28BF20F8023B48BF00F89D
:100CE000012B70474FF000020429C0F0128010F071
:100CF000030C3FF4E4ACCCF1040CBCF1020F18BFC0
:100D000000F8012BA8BF20F8022BA1EB0C01FFF784
:100D1000D6BC5FEAC17C24BF00F8012B00F8012B90
:100D200048BF00F8012B70470048704710AA002008
:100D300000487047F0A9002030B5B0F10A024FEA30
:100D4000900E71F100034EEA817EB0EB0E0061EB74
:100D500091014FEA101E4EEA017E10EB0E0041EBAE
:100D600011114FEA102E4EEA016E10EB0E0041EB0E
:100D700011214FEA104E4EEA014E10EB0E0041EBEE
:100D80001141401841F100014FEAD00040EA4170A2
:100D90004FEAD10110EB80054FEA810444EA9074D8
:100DA00044EB01046D1944EB0404521BA3414FF0C2
:100DB000000348BF0A3200D530BD401C41F100019C
:100DC00030BD00002DE9F0411F46044603260168AE
:100DD000072A01F4006004DB08B116A505E016A59A
:100DE00003E008B115A500E015A521F01000206072
:100DF000A069C01EA0610FB1401EA0612046FFF790
:100E0000E7FA4FB1D4E9012138469047206A401CE7
:100E10002062C01C206206E0206AFAE7D4E90121C2
:100E200015F8010B9047761EF8D22046FFF7E6FA38
:100E3000BDE8F0814E414E006E616E00494E4600A5
:100E4000696E66002DE9F047814616468AB0334840
:100E500078440DC88DE80D0030487844801C03AC00
:100E60000DC884E80D0041F69B300844372190FB03
:100E7000F1F290FBF1F5A5F1800501FB12041B3C9A
:100E800002D56442012000E00020DFF890A08046F7
:100E90000027FA44AAF1BE0A0DE0E00709D0324665
:100EA000684607EB47010AEB810100F032FB8DE851
:100EB000070064107F1C002CEFD1184F7F44AC3F1B
:100EC00018E0E80714D007EB04100DF1180A90E8B9
:100ED0000E008AE80E00C068F04201D1981908900F
:100EE000324606A903A800F014FB03AB83E8070011
:100EF0006D10641C002DE4D132466946B8F1000F34
:100F000003A802D000F0F1FA01E000F002FBC9E909
:100F10000001C9F808200AB0BDE8F087408200004F
:100F2000007B00F08000704700487047F0A9002067
:100F30007546FFF7F9FFAE4605006946534620F0B7
:100F40000700854618B020B5FFF70EFABDE820402F
:100F50004FF000064FF000074FF000084FF0000B75
:100F600021F00701AC46ACE8C009ACE8C009ACE828
:100F7000C009ACE8C0098D4670470446AFF3008055
:100F80002046FFF781F900004FF0013C50F8042B98
:100F900051F8043B9A4221D1A2EB0C03934313EA8C
:100FA000CC1317D150F8042B51F8043B9A4215D1B9
:100FB000A2EB0C03934313EACC130BD150F8042B90
:100FC00051F8043B9A4209D1A2EB0C03934313EA74
:100FD000CC13DBD04FF00000704700BFD01A01BA2D
:100FE000B1FA81F101F0180122FA01F0CB40C1F110
:100FF0002001DBB2C0B2C01A2CFA01F3D11A91431E
:1010000011EAC311E6D170475FEA400C08BF91F0C6
:10101000000F4FEA8C234FEAC12243EA51514FEAB5
:101020001C5018BF00F5F0404FEA300018BF41F0E7
:1010300000415FEA6C5C00F02980BCF1FF3F08BF13
:1010400040F080407047130C06BF12044FF0100CA4
:101050004FF0000C130E04BF12020CF1080C130F1A
:1010600004BF12010CF1040C930F04BF92000CF1A9
:10107000020CD30F04BF52000CF1010C11464FF0CB
:101080000002A0F11F00A0EB0C00704711F0004F10
:1010900008BF704731F000413FF4D5AF0B0C06BFDD
:1010A00009044FF0100C4FF0000C0B0E04BF0902A6
:1010B0000CF1080C0B0F04BF09010CF1040C8B0F91
:1010C00004BF89000CF1020CCB0F04BF49000CF1E6
:1010D000010CCCF12003A0EB0C0022FA03F302FA7E
:1010E0000CF241EA030100F10100704720F07F4C4F
:1010F00080EA030023F07F47ACEB070303F57C5342
:1011000000F0004003F1FF032DE980494FEA154B41
:1011100009B44FEA144325EA0B4E24EA03480FF2C0
:10112000042606EB132749083E785FEA320203FBE8
:101130000667C7F5000707FB06F64FEA54374FEA84
:10114000D64606F1020607FB066CCCF1005C4FEABE
:101150001C472CEA074C07FB06F40CFB06F504EBD6
:1011600015464FEA961634BF00204FF000404FEA74
:10117000D13706FB07FC4FEA1C4C0CFB0BF7D21BCC
:1011800003FB0CF761EB07010CFB0EF7B0EB07401C
:1011900072EB17420CFB08F734BFA2EB0742B2EB2D
:1011A000074261EB17414FEA0C444FEA910706FBF7
:1011B00007FC4FEA1C4C0CFB0BF7B0EBC74072EB83
:1011C000573203FB0CF734BFA2EBC742B2EBC74266
:1011D00061EB57310CFB0EF7B0EBC70072EB5772A7
:1011E0000CFB08F734BFA2EBC702B2EBC70261EBFE
:1011F0005771039F4FEA816141EA921104EBCC04DD
:101200004FEAD1374FEA826206FB07FC42EA9012AE
:101210004FEA80604FEA1C4C0CFB0BF7D21B03FB20
:101220000CF761EB07010CFB0EF7B0EB074072EB1C
:1012300017420CFB08F734BFA2EB0742B2EB0742A0
:1012400061EB17414FEA8C554FEA910704EB9C2460
:1012500006FB07FC4FEA1C4C0CFB0BF7B0EBC7403E
:1012600072EB573203FB0CF734BFA2EBC742B2EB71
:10127000C74261EB57310CFB0EF7B0EBC70072EBC6
:1012800057720CFB08F734BFA2EBC702B2EBC702E0
:1012900061EB577115EB4C254FEA816141EA9211E0
:1012A0004FEA82624FEAD13742EA901206FB07FC0E
:1012B00044F100044FEA80604FEA1C4C0CFB0BF732
:1012C000D21B03FB0CF761EB07010CFB0EF7B0EB35
:1012D000074072EB17420CFB08F734BFA2EB074242
:1012E000B2EB074261EB174115EB1C154FEA813158
:1012F00041EA92414FEA823242EA90424FEA80301C
:101300004FEA0C7644F1000448EA03434EEA0B48E6
:101310004FF0000EB2EB080C71EB030724BF6246DE
:1013200039464EEB0E0E4FF0000B0018524149416A
:101330004BEB0B0BB2EB080C71EB03077BF1000BD3
:1013400024BF624639464EEB0E0E4FF0000B0018DC
:10135000524149414BEB0B0BB2EB080C71EB03070D
:101360007BF1000B24BF624639464EEB0E0E51EA6C
:10137000020718BF46F0010616EB0E7655F1000283
:1013800054F1000103D5BDE88901BDE80088BDE83E
:101390008901BDE80048B619524141EB0101A3F1B2
:1013A0000103704780807F7E7D7C7B7A79787776B9
:1013B00076757473727171706F6E6E6D6C6C6B6A32
:1013C0006A696868676666656464636362616160D0
:1013D000605F5F5E5E5D5D5C5C5B5B5A5A5959584D
:1013E00058575756565555555454535352525251B7
:1013F000515050504F4F4F4E4E4D4D4D4C4C4C4B0D
:101400004B4B4A4A4A494949484848474747474653
:10141000464645454544444444434343434242428F
:1014200042414141002B26D4770021D01CB54FEA20
:10143000370703B44FF010004FF010014FF00000D9
:101440000FBCBDE810400BF1010BBBF1010F08BF51
:101450005FEA170722BF12F1010211F101014FF0FB
:10146000004143F1000300F0004043EA00007047F0
:10147000F9D35708DAE746EA064613F1400F4FEA78
:1014800016461FDD13F1200FDFBF16430A46002169
:1014900020335B42C8D0C3F1200746EA064602FA71
:1014A00007F74FEA164646EA0706C3F1200722FA75
:1014B00003F201FA07F721FA03F14FF0000342EAC1
:1014C0000702B1E746EA020646EA06464FEA164632
:1014D00046EA0106BCBF46EA0646360C4FF000035A
:1014E0004FF000024FF000019EE72DE9C0489346FF
:1014F00030B491E8380007C831EA400C48BF34EAFC
:10150000430C03D5FFF7F2FDFFF78CFFF0BCBDE8FD
:1015100000882DE9C048934630B491E8380007C8E8
:1015200010F0804F08BF13F0804F03D100F005F892
:10153000FFF778FFF0BCBDE8008820F07F4780EA25
:10154000030023F07F4C07EB0C03A3F57C5300F062
:101550000040A3F1FE0392F0000F00F0B38095F07D
:10156000000F00F077802DE901494FEA11404FEA62
:10157000144621EA004800FB06FC24EA064708FB63
:1015800006F607FB08F800FB07F718EB06484CEBDC
:10159000164C4FEA124B18EB07484FEA15464CEB36
:1015A000174022EA0B4E0BFB06FC25EA06470EFB12
:1015B00006F607FB0EFE0BFB07F71EEB064E4CEB89
:1015C000164C4FF000061EEB074E4CEB174B18EB7A
:1015D0000B0840F1000018EB0E0B58EB000840F12F
:1015E00000008F1A4FF000013CBFC943661B14BFB7
:1015F000B5EB040C00213CBFC943F61B4FEA17446E
:101600004EEA8E0E27EA04454FEA1C4704FB0762A8
:101610002CEA074C05FB07F70CFB05F604FB0CFC5A
:1016200016EB074642EB174216EB0C4642EB1C4208
:101630001BEB060658EB0202414146EA9E0601D525
:10164000BDE80189B619524141EB0101A3F1010343
:10165000BDE801894FEA14454FEA114724EA0546DF
:1016600021EA074C05FB07F406FB07F70CFB06F124
:1016700005FB0CFC11EB074144EB17444FEA124702
:1016800011EB0C4144EB1C4422EA074C05FB07F22A
:1016900006FB07F70CFB06F605FB0CFC16EB0746F2
:1016A00042EB174216EB0C4642EB1C456A1854F10C
:1016B000000148BF7047B619524141EB0101A3F147
:1016C0000103704795F0000F37D04FEA11424FEAFF
:1016D000144721EA024624EA074C02FB07F106FB05
:1016E00007F70CFB06F402FB0CFC14EB074441EB80
:1016F00017414FEA154714EB0C4441EB1C4125EA16
:10170000074C02FB07F506FB07F70CFB06F602FB8E
:101710000CFC16EB074645EB174516EB0C4645EB64
:101720001C42121951F1000148BF7047B6195241CD
:1017300041EB0101A3F1010370474FEA14454FEA61
:10174000114724EA054621EA074C05FB07F106FB91
:1017500007F70CFB06F24FF0000605FB0CFC12EB42
:10176000074241EB174112EB0C4251EB1C4148BFC1
:101770007047921841EB0101A3F10103704700008B
:1017800000B58DB00121084601F0E8FD01210802F5
:1017900001F004FE08200B9003208DF8300000209B
:1017A0008DF833000BA9144800F05CFC0020079072
:1017B0000A9009904FF48030089007A800F030F8A4
:1017C000002001908DF808008DF809000390059025
:1017D00001208DF8180001A9084800F073F80723CC
:1017E00001220321054800F097F80121034800F089
:1017F0000CF80DB000BD00000000024000200140C8
:1018000000220A12D3430360704721B1826842F07C
:101810000102826003E0826822F001028260704768
:101820000021084A1168084A1140D0E900231A43F0
:1018300083681A43C3681A431143044AC2F8041365
:101840007047000004230140E030FCFF002001400D
:101850000146C86C80B2704770B502460020002374
:1018600000240B12556801268E4005EA060415680F
:101870001D4015B10CB1012000E0002070BD00003A
:1018800010B540F205210B48FFF7E6FF012807D10C
:101890000848FFF7DDFF0446214607A0FEF778FD64
:1018A00040F205210348FFF7ABFF024800F090F833
:1018B00010BD000000200140646174613A25640D90
:1018C0000A00000030B50246002000235068104C8A
:1018D00020400D790C6844EA05242043506090684C
:1018E0000C4C2040D1E903542C438D682C434D7996
:1018F00044EA450420439060D06A20F470000C7DD7
:10190000641EE4B2234340EA0350D06230BD0000BD
:10191000FFFEFFFCFDF7FFC0F0B504460D460020BA
:101920000021092D11DDE068A5F10A0606EB460746
:10193000072606FA07F18843A5F10A0606EB4606D4
:1019400003FA06F10843E0600CE0206905EB450767
:10195000072606FA07F1884305EB450603FA06F168
:1019600008432061072A0FDA606B561E06EB8607D4
:101970001F2606FA07F18843561E06EB860605FA6F
:1019800006F10843606322E00D2A0FDA206BD61FB0
:1019900006EB86071F2606FA07F18843D61F06EBDB
:1019A000860605FA06F10843206310E0E06AA2F11A
:1019B0000D0606EB86071F2606FA07F18843A2F1FB
:1019C0000D0606EB860605FA06F10843E062F0BD57
:1019D000816841F080418160704700000246DFED80
:1019E000310AB0EE600A002000BF09E002EB80037C
:1019F000D3ED000A70EE800AB0EE600A431CD8B244
:101A00008842F3DBF1EE000A80EE201AB0EE410AC4
:101A1000F2EE000AB4EEE00AF1EE10FA04DBDFEDBC
:101A2000220AB0EE600A3CE0F1EE0C0AB4EEE00AE5
:101A3000F1EE10FA0BDBF2EE000AB4EEE00AF1EE82
:101A400010FA04D2DFED190AB0EE600A29E0F1EED7
:101A5000000AB4EEE00AF1EE10FA0BDBF1EE0C0A2C
:101A6000B4EEE00AF1EE10FA04D2DFED110AB0EEA6
:101A7000600A16E0F0EE080AB4EEE00AF1EE10FAA1
:101A80000BDBF1EE000AB4EEE00AF1EE10FA04D23C
:101A9000F0EE000AB0EE600A03E0DFED060AB0EEF9
:101AA000600A7047000000009A9989403333534020
:101AB000333313406666A63F30B58BB00024002553
:101AC000182105A8FEF7F9FD14216846FEF7F5FD7B
:101AD0008BE000F07DFF04467CB104E0681C85B219
:101AE000012003F0C3FD0121424800F003FB002860
:101AF000F4D1B5F5C87F00DD0224012C5DD10024AE
:101B000000253D4A0021022001F071FB41F288309E
:101B100003F0ACFD01F0D2F8384A0021232001F097
:101B200049FB37A30C220121022001F07DFB00F0CC
:101B30004FFB05E005A800F013FB1E2004F064FF36
:101B40009DF81B000028F5D000F0E2FA9DF81F3048
:101B50009DF81E202CA16846FEF726FC00208DF87B
:101B60001B0001F0ABF82CA310220121322001F060
:101B700091F96B46102203210F2001F08BF902E04E
:101B800000F026FF0446002CFAD013E000F020FFFE
:101B900004467CB104E0681C85B2012003F066FDB8
:101BA0000121144800F0A6FA0028F4D1B5F5C87F49
:101BB00000DD0224002CE9D10324022C0CD101F019
:101BC0007DF802F069FD2A23102215480178154896
:101BD000007801F08BF909E0032C03D101F06EF8D5
:101BE00000F022F8642004F00FFF72E700BF0BB092
:101BF00030BD000000000240BF480020BF40002070
:101C0000746573742E2E2E00483A25336420204CC0
:101C10003A25336400000000D1AAD1B900000000C9
:101C2000515500205055002010B50C4A00210120CC
:101C300001F0C0FA0AA310220121412001F05EF850
:101C40000AA310220321412001F058F80AA3102210
:101C50000521522001F052F810BD0000BF400020C5
:101C6000B0B4CFC2B0B4BCFC00000000BFAACABC74
:101C7000D1AAD1B900000000BCECB2E9000000001C
:101C800000B52DED028B83B0124890ED000A10EEE6
:101C9000101A084606F05EFE41EC180B53EC182BA8
:101CA0000DA101A8FEF780FB0DA310220121432006
:101CB00001F0BAFA01AB18220321452001F0B4FA71
:101CC00009A30C220621642001F0AEFA03B0BDEC9A
:101CD000028B00BDBCA9002025302E31660000001B
:101CE00043616C6F7269650063616C0030B50246D8
:101CF0004FF6FF7009E0C4B2157884EA0503521C60
:101D0000054C34F8134084EA10200C00A1F10105C1
:101D1000E9B2F0D130BD00003E8B00082DE9F04162
:101D2000B0EE403A0746884644463D46984890ED16
:101D3000000AB5EEC00AF1EE10FA02D180ED003AC9
:101D40001FE19348D0ED000AB0EE430A00F03EF9DF
:101D50000028F5D08F4800688F4908606878297896
:101D6000C1EB011100EB8100C0EB0010A97801EB81
:101D700080004FF47A714843E97801EB810100EB70
:101D8000810686480660006883490968401AFA2877
:101D90007EDB834890ED000A8248D0ED000A30EEE9
:101DA000600A8148D0ED000AB4EEE00AF1EE10FAC4
:101DB000EEDB7A480068774908607C480078401C70
:101DC0007A4908707A480068401C79490860794867
:101DD0000068301AB0F5FA6F7ED308460068012813
:101DE00006D194ED000AF1EE040AC0EE202A3FE08D
:101DF0006F480068022806D194ED000AF1EE000A4F
:101E0000C0EE202A34E06A480068032806D194ED29
:101E1000000AF0EE080AC0EE202A29E064480068B3
:101E2000042806D194ED000AF0EE000AC0EE202A44
:101E30001EE05F480068052806D194ED000ADFED3A
:101E40005E0AC0EE202A13E059480068072802D134
:101E5000D4ED002A0CE056480068082806D194ED1D
:101E6000000ADFED550A60EE202A01E0DFED532A7B
:101E70004F4890ED000AB8EE400A20EE220AF0EE3C
:101E8000000AC0EE204A90ED000AB8EE400A00E0D9
:101E90004DE020EE224AD4ED010AB0EE001A80EEA9
:101EA000810AF1EE020A64EEA00A20EE200ADFEDBC
:101EB000440AC0EE203A434890ED000A30EE230A6F
:101EC00080ED000A90ED010A30EE040A80ED010A6F
:101ED00038480660002000E001E0354908603348DA
:101EE000007805280CDA2D4800682B490968401A4B
:101EF00040F6B831884203DB00202C49087016E018
:101F00002A480078052812DB24480068224909681D
:101F1000401A40F6B831884209DC2A4880682349D3
:101F200009780844274988600020204908701B4828
:101F3000006819490968401AFA2822DB184890ED10
:101F4000000A1848D0ED000A30EE600A1E48D0EDB5
:101F5000000AB4EEE00AF1EE10FA12DB0F48006856
:101F60000C4908600E48D0ED000A0E4890ED001AAA
:101F700070EEC10AB0EE600A02F070FA0A4880ED15
:101F8000000A034880ED003A0E48BDE8F0810000E9
:101F90006C550020705500207455002078550020A5
:101FA000885500208C550020905500209C5500201D
:101FB000A0550020A45500209A99993F00000000E8
:101FC0000000E144E4A90020985500201F48007853
:101FD0001F490870B4EEE00AF1EE10FA08DB0120A8
:101FE0001A4908701B480068401C1A49086009E03B
:101FF000002016490870174800681749086000203B
:10200000144908601148007890B91148007878B1F7
:102010001148006802280BDBB3EE041AF4EEC10A83
:10202000F1EE10FA04DB0D48C0ED000A0120704704
:102030000748007838B90548007820B10848C0ED55
:10204000000A0020F3E70020F1E700007D550020A2
:102050007C550020805500208455002088550020A4
:102060008C550020F0B50A4600210023002400BF53
:102070003DE0012505FA01F3156805EA03049C42D9
:1020800034D105684F000326BE40B543056015797D
:102090004E00B5400668354305601579012D02D024
:1020A0001579022D16D185684F000326BE40B54331
:1020B000856055794E00B540866835438560456832
:1020C00001268E40B5434560456896798E40B6B28C
:1020D00035434560C5684F000326BE40B543C56023
:1020E000D5794E00B540C6683543C560491C1029F6
:1020F000BFD3F0BD0246002013690B400BB1012095
:1021000000E0002070474183704701837047000062
:1021100010B586B06946064800F0CEF804464FF484
:1021200000510448FFF7F1FF204606B010BD000043
:10213000490000200008024010B586B069460648F4
:1021400000F0BAF804464FF400510448FFF7DDFFF1
:10215000204606B010BD000091000020000802409B
:1021600070B504462146034800F0A6F80546284607
:1021700070BD00006100002070B504462146034890
:1021800000F09AF80546284670BD0000A90000201E
:102190001CB500F04BF90121042001F0DFF84FF4E9
:1021A0000050009001208DF8040000208DF80600FA
:1021B00002208DF8050069460448FFF753FF4FF4ED
:1021C00000510248FFF79FFF1CBD000000080240BD
:1021D00010B586B04FF400510548FFF794FF6946EB
:1021E000044800F069F80446204606B010BD00001F
:1021F000000802403100002010B586B04FF40051B5
:102200000548FFF780FF6946044800F055F804468A
:10221000204606B010BD00000008024079000020F2
:1022200070B5054600F0D6F9CD2000F0A5F900F014
:1022300025F90646012E03D100F0EAF9012070BD10
:1022400000240DE000F03EF92855172C03D10120A1
:1022500000F064F902E0002000F060F9601CC4B2F4
:10226000182CEFDB00F0D4F93046E8E770B50546EE
:1022700000F0B0F9CC2000F07FF900F0FFF806463E
:10228000012E03D100F0C4F9012070BD00240DE03F
:10229000285D00F071F900F0F1F80646012E03D137
:1022A00000F0B6F90220F0E7601CC4B2182CEFDB96
:1022B00000F0AEF90020E8E72DE9F04105460C46B4
:1022C00001271221281DFFF711FD0646EE82284640
:1022D000FFF7CCFF052003F097F92046FFF7A0FF9A
:1022E000E68A1221201DFFF701FDB04200D0002731
:1022F0003846BDE8F081000070B52DED0A8B86B040
:102300000026002439A310220121432000F0F6FC0E
:1023100065E000F05DFB0646E6B104E0601C84B2B7
:10232000012003F0A3F901213348FFF7E3FE002861
:10233000F4D1B4F5C87F0CDD00F0C0FC02F0ACF9BC
:102340002A2310222D4801782D48007800F0CEFD78
:1023500046E00024F52001F033FC00EE100AB8EE50
:10236000400A10EE105A9FED271B9FED280B02F03C
:10237000EBF9B0EE40BAF0EE60BA284606F0EAFAA1
:1023800041EC1C0B53EC1B2B05F042FE41EC1A0BED
:102390009FED200B53EC102B05F0E6FF41EC190BE1
:1023A0009FED1E0B53EC102B05F076FD41EC180B46
:1023B00005F040FD0546284606F0CCFA41EC180B26
:1023C00053EC182B17A101A8FDF7EEFF01AB182263
:1023D0000321472000F028FF1E2004F015FB98E79A
:1023E00000BF06B0BDEC0A8B70BD0000CAB5CAB113
:1023F000CAAAB6C8000000000000024051550020E3
:102400005055002000000000000030400000000097
:10241000000000400000000000405F40000000009D
:10242000000018C025322E31660000001CB50121C5
:10243000084600F093FF0420009001208DF804006E
:1024400000208DF8060003208DF8050069460A4833
:10245000FFF708FE0220009001208DF80600694673
:102460000548FFF7FFFD04210348FFF74EFE022158
:102470000148FFF74AFE1CBD0000024010B50421D0
:102480000F48FFF740FE02210D48FFF73EFE0520F2
:1024900003F000F904210A48FFF737FE022108483B
:1024A000FFF728FE28B104210548FFF72CFE012084
:1024B00010BD04210248FFF726FE0020F8E70000C7
:1024C0000000024070B5002404211348FFF71BFEF2
:1024D00002211148FFF719FE002515E004210E48DE
:1024E000FFF711FE052003F0D5F86006040E042165
:1024F0000948FFF70AFE02210748FFF7FBFD08B174
:1025000044F00104681CC5B2082DE7DB0421024831
:10251000FFF7F9FD204670BD0000024010B50446EB
:1025200004211448FFF7EFFD052003F0B3F8012C58
:102530000BD102210F48FFF7E8FD012003F0AAF8B4
:1025400004210C48FFF7E1FD0BE054B902210948D2
:10255000FFF7D9FD012003F09DF804210548FFF79E
:10256000D4FD052003F096F804210248FFF7CBFDC7
:1025700010BD00000000024070B50446002520E0B8
:1025800004211348FFF7BFFD052003F083F804F092
:10259000800020B102210E48FFF7B7FD03E00221C1
:1025A0000B48FFF7B0FD012003F074F80421084840
:1025B000FFF7ABFD052003F06DF86006040E681C04
:1025C000C5B2082DDCDB04210148FFF79CFD70BD7E
:1025D0000000024010B504210C48FFF794FD0221D1
:1025E0000A48FFF792FD04210848FFF78EFD0520F9
:1025F00003F050F802210548FFF785FD052003F0A0
:1026000049F804210148FFF77EFD10BD000002409B
:1026100010B504210A48FFF776FD02210848FFF7AC
:1026200072FD04210648FFF770FD052003F032F823
:1026300002210348FFF769FD052003F02BF810BDC8
:10264000000002401CB50121022000F087FE4FF47B
:102650008070009001208DF8040000208DF80600A5
:1026600003208DF8050069460B48FFF7FBFC4FF48B
:102670000070009001208DF8060069460648FFF7BB
:10268000F1FC4FF480710448FFF73FFD4FF40071F7
:102690000148FFF73AFD1CBD000402402DE9F0415E
:1026A0000546884614461E4600F002F9002141EA1C
:1026B0004501C8B200F0C8F800F038F8074627B165
:1026C00000F01AF90120BDE8F081404600F0BCF8A6
:1026D00000F02CF807461FB100F00EF90220F2E7D7
:1026E00000F0E6F8012101EB4501C8B200F0ACF8BA
:1026F00000F01CF807461FB100F0FEF80320E2E7E7
:102700000EE000F03DF83070012C03D1012000F004
:1027100069F802E0002000F065F8761C601EC4B283
:10272000002CEED100F0E8F80020CCE710B54FF413
:1027300080711248FFF7E7FC4FF400710F48FFF774
:10274000E4FC052002F0A6FF4FF480710B48FFF770
:10275000DCFC4FF400710948FFF7CCFC30B14FF4BA
:1027600080710648FFF7CFFC012010BD4FF4807147
:102770000248FFF7C8FC0020F7E700000004024011
:1027800070B500244FF480711548FFF7BCFC4FF47E
:1027900000711348FFF7B9FC002518E04FF4807171
:1027A0000F48FFF7B0FC052002F074FF6006040E2E
:1027B0004FF480710A48FFF7A8FC4FF400710848F5
:1027C000FFF798FC08B144F00104681CC5B2082D5D
:1027D000E4DB4FF480710248FFF795FC204670BDA2
:1027E0000004024010B504464FF480711548FFF70D
:1027F0008AFC052002F04EFF012C0BD1610211482A
:10280000FFF783FC012002F045FF21020D48FFF78E
:102810007CFC0DE064B94FF400710A48FFF773FCCB
:10282000012002F037FF4FF480710648FFF76DFC7E
:10283000052002F02FFF4FF480710248FFF763FC80
:1028400010BD00000004024070B50446002524E0DD
:102850004FF480711548FFF756FC052002F01AFF6F
:1028600004F0800028B14FF400711048FFF74DFCD0
:1028700004E04FF400710D48FFF745FC012002F021
:1028800009FF4FF480710948FFF73FFC052002F073
:1028900001FF6006040E681CC5B2082DD8DB4FF49A
:1028A00080710248FFF72FFC70BD00000004024059
:1028B00010B54FF480710F48FFF725FC4FF40071FD
:1028C0000C48FFF722FC4FF480710A48FFF71DFC0B
:1028D000052002F0DFFE4FF400710648FFF713FCFD
:1028E000052002F0D7FE4FF480710248FFF70BFC81
:1028F00010BD00000004024010B54FF480710C4878
:10290000FFF701FC4FF400710948FFF7FCFB4FF49F
:1029100080710748FFF7F9FB052002F0BBFE4FF47A
:1029200000710348FFF7F1FB052002F0B3FE10BD74
:10293000000402402DE9F04706460F4690469946AE
:10294000FFF7B6FF002141EA4601C8B2FFF77CFF5E
:10295000FFF7ECFE054625B1FFF7CEFF0120BDE8ED
:10296000F0873846FFF770FFFFF7E0FE05461DB120
:10297000FFF7C2FF0220F2E700240DE019F804007F
:10298000FFF762FFFFF7D2FE05461DB1FFF7B4FF68
:102990000320E4E7601CC4B24445EFDBFFF7ACFF63
:1029A0000020DCE71CB50121084600F0D7FC01201F
:1029B000009000208DF804008DF8070002208DF8AB
:1029C000050069460148FFF74DFB1CBD00000240B1
:1029D00010B500240E48007880B101210D48FFF7A2
:1029E00089FB58B10A2002F019FE01210948FFF7BE
:1029F00081FB18B100200649087001240121054817
:102A0000FFF778FB10B9012001490870204610BD7E
:102A100009010020000002401CB50121084600F019
:102A20009DFC8020009001208DF8040000208DF88E
:102A300007008DF806008DF8050069460348FFF78A
:102A400011FB80210148FFF760FB1CBD0000024024
:102A50001CB50121022000F081FC4FF48060009041
:102A600001208DF8040000208DF807008DF8060085
:102A70008DF8050069460448FFF7F4FA4FF48061C9
:102A80000148FFF740FB1CBD000402401CB51AA121
:102A900003C9CDE90001FFF7D5FD032002F0C8FD11
:102AA0006B4601226B216820FFF744FF642002F08F
:102AB000BFFD0DF1010301226B216820FFF73AFFF2
:102AC0000DF10203012219216820FFF733FF0DF1F8
:102AD000030301221A216820FFF72CFF01AB01221A
:102AE0001B216820FFF726FF0DF1050301221C21A1
:102AF0006820FFF71FFF1CBD8001070418000000BD
:102B000000B52DED048B83B03B2000F03DF809EEBD
:102B1000100A3D2000F038F808EE100A3F2000F0BF
:102B200033F808EE900AB8EEC90ADFED160A80EE17
:102B3000201AB2EE040A21EE000A8DED000AF8EE2A
:102B4000C80A9FED101A80EE810AF2EE040A20EE08
:102B5000200A8DED010AF8EEE80A9FED0A1A80EED0
:102B6000810AF2EE040A20EE200A8DED020A9DEDA4
:102B7000000ADDED010A9DED021A03B0BDEC048BE5
:102B800000BD00000000804638B504466B460222B6
:102B900021466820FFF782FD9DF801009DF8001096
:102BA00040EA012000B238BD13B584B00121080706
:102BB00000F0E4FB012000F0CBFB012000F01EFC44
:102BC0004FF4007000F026FC012000F017FC00BF5D
:102BD000612000F0F3FB0028FAD0012000F014FC83
:102BE000002000F0C3FDF52820D07F200290FF20B8
:102BF00003900020019001A800F086FD9DF8173099
:102C00009DF816209DF815109DF8140000F09CFE0C
:102C10009DF813309DF812209DF811109DF81000BA
:102C200000F080FEF521002000F0D0FE06B010BDBF
:102C300070B5002100230F22C4781CB3174C246800
:102C400004F4E064C4F5E064C4F30721C1F10404B2
:102C5000E3B20A4144789C40E1B2847814402143B5
:102C60000C07210E0E4C05786155047804F01F0501
:102C70000124AC4005786D11AD0005F1E025C5F8E3
:102C8000004109E0047804F01F050124AC40054D23
:102C90000678761145F8264070BD00000CED00E086
:102CA00000E400E080E100E002490143024A1160D3
:102CB000704700000000FA050CED00E070B500243C
:102CC00019E004F1B001C8B2002100F0EFFA0021D0
:102CD000084600F0EBFA0021102000F0E7FA00258A
:102CE00005E00121002000F0E1FA681CC5B2842D46
:102CF000F7DB601CC4B2082CE3DB70BD2DE9F041AA
:102D00000546884616461C4600270AE007FB065182
:102D100088B223463246414600F0E6F9A41C781CEE
:102D200087B220780028F1D1BDE8F0811CB50121DF
:102D3000084600F013FB0121022000F00FFB42F2D5
:102D4000A800009001208DF8040000208DF80700F5
:102D50008DF8060003208DF8050069460548FFF749
:102D600081F94FF40040009069460348FFF77AF973
:102D70001CBD0000000402400000024010B5FFF737
:102D8000D5FF4FF400414148FFF7BDF9642002F040
:102D900059FC4FF400513E48FFF7B7F90021AE202F
:102DA00000F084FA0021084600F080FA002110208B
:102DB00000F07CFA0021402000F078FA0021812008
:102DC00000F074FA0021CF2000F070FA0021A12059
:102DD00000F06CFA0021C82000F068FA0021A6205B
:102DE00000F064FA0021A82000F060FA00213F20E2
:102DF00000F05CFA0021D32000F058FA00210846C8
:102E000000F054FA0021D52000F050FA0021802073
:102E100000F04CFA0021D92000F048FA0021F120FE
:102E200000F044FA0021DA2000F040FA00211220DC
:102E300000F03CFA0021DB2000F038FA00214020AD
:102E400000F034FA0021202000F030FA00210220A6
:102E500000F02CFA00218D2000F028FA0021142027
:102E600000F024FA0021A42000F020FA0021A6207E
:102E700000F01CFA0021AF2000F018FAFFF71EFF47
:102E80000021084600F04EFA10BD0000000002408C
:102E9000000402402DE9F0410746884615461C46CD
:102EA00000261EE02078202811DB20787F280EDC09
:102EB0002378B91988B22A46414600F017F8284607
:102EC00005EBD07106EB61018EB2641C09E0B91903
:102ED00088B223462A46414600F006F9701986B2A8
:102EE000A41C20780028DDD1BDE8F0812DE9F04751
:102EF0000646884617469946A9F12000C5B2F01942
:102F0000832818DDF119832291FBF2F13846FA1774
:102F100007EB5272D21002FB018101F0FF08F01999
:102F20008338B84201DA002605E0F019833890FBB7
:102F3000F7F0784386B20C2F13D1F0B2414600F07F
:102F4000F1F900240AE005EB450104EB4101624A76
:102F5000505C012100F0AAF9601CC4B2062CF2DB1F
:102F6000B8E0102F25D1F0B2414600F0DBF9002483
:102F700008E004EB0511594A505C012100F096F974
:102F8000601CC4B2082CF4DB08F10102D1B2F0B22B
:102F900000F0C8F9002409E004EB051108314F4A9C
:102FA000505C012100F082F9601CC4B2082CF3DBF4
:102FB00090E0182F3FD1F0B2414600F0B3F9002461
:102FC0000AE005EBC50104EB8101454A505C012193
:102FD00000F06CF9601CC4B20C2CF2DB08F10102A9
:102FE000D1B2F0B200F09EF900240BE005EBC50170
:102FF00004EB81010C313A4A505C012100F056F992
:10300000601CC4B20C2CF1DB08F10202D1B2F0B2A8
:1030100000F088F900240BE005EBC50104EB810109
:1030200018312F4A505C012100F040F9601CC4B2F5
:103030000C2CF1DB4EE0202F4CD1F0B2414600F0D9
:1030400071F9002408E004EB8511264A505C012147
:1030500000F02CF9601CC4B2102CF4DB08F1010262
:10306000D1B2F0B200F05EF9002409E004EB851162
:1030700010311C4A505C012100F018F9601CC4B2E8
:10308000102CF3DB08F10202D1B2F0B200F04AF9E1
:10309000002409E004EB85112031124A505C012123
:1030A00000F004F9601CC4B2102CF3DB08F1030239
:1030B000D1B2F0B200F036F9002409E004EB85113A
:1030C0003031084A505C012100F0F0F8601CC4B2B5
:1030D000102CF3DBBDE8F0873E8D00080A010020CC
:1030E000FA060020561400202DE9F04706468846CF
:1030F00014469946002512E099F800002B4911F872
:103100001510884209D199F80100012101EB450110
:10311000264A515C884200D102E0681CC5B2EBE748
:1031200000BF3019832818DD3119832291FBF2F199
:103130002046E21704EB5272D21002FB018101F02B
:10314000FF0830198338A04201DA002605E0301963
:10315000833890FBF4F0604386B2102C24D1F0B297
:10316000414600F0DFF8002708E007EB4511104A60
:10317000505C012100F09AF8781CC7B2102FF4DBE4
:1031800008F10102D1B2F0B200F0CCF8002709E05A
:1031900007EB45111031064A505C012100F086F81A
:1031A000781CC7B2102FF3DBBDE8F087162C002087
:1031B0003F2C00202DE9F04180460E4614460025A4
:1031C00011E07019C1B2404600F0ACF8002706E0EB
:1031D0002078012100F06AF8641C781CC7B2402FE7
:1031E000F6DB681CC5B2082DEBDBBDE8F0812DE9EC
:1031F000F04180460E461446002511E07019C1B218
:10320000404600F08FF8002706E02078012100F00A
:103210004DF8641C781CC7B2802FF6DB681CC5B261
:10322000082DEBDBBDE8F0812DE9F0470646884626
:1032300015461C4600270EE0A94605EBD97149103A
:1032400007FB016188B223782A464146FFF74EFE0C
:10325000641C781CC7B220780028EDD1BDE8F08747
:103260002DE9F04106460F461546F0B2394600F00A
:1032700059F8002405E0285D012100F017F8601CD2
:10328000C4B20E2CF7DB7A1CD1B2F0B200F04AF8CF
:103290000E35002405E0285D012100F007F8601CD0
:1032A000C4B20E2CF7DBBDE8F081000070B5044617
:1032B0000E4620211948FEF726FF80211748FEF709
:1032C00022FF2EB14FF400411548FEF71EFF04E027
:1032D0004FF400411248FEF716FF002517E00821C1
:1032E0000E48FEF710FF04F0800020B120210B48AB
:1032F000FEF70BFF03E020210848FEF704FF08213A
:103300000648FEF702FF6006040E681CC5B2082DD1
:10331000E5DB80210148FEF7F8FE70BD00040240A5
:103320000000024070B504460D4605F1B001C8B278
:103330000021FFF7BBFF04F00F000021FFF7B6FFED
:10334000102141EA24100021FFF7B0FF70BD0000FA
:10335000014908627047000000000E4229B1064A88
:1033600012680243044B1A6004E0034A1268824365
:10337000014B1A60704700003038024029B1064AFC
:1033800012680243044B1A6004E0034A1268824345
:10339000014B1A60704700004038024029B1064ACC
:1033A00012680243044B1A6004E0034A1268824325
:1033B000014B1A60704700004438024010B50146C6
:1033C0000022002300204A11012A02D10A4C23685E
:1033D00008E0022A03D1084C7034236802E0064C4E
:1033E0007434236801F01F02012494401C400CB186
:1033F000012000E0002010BD0038024001490860B3
:1034000070470000800E4742014908607047000085
:103410003C0E4742002100F44072B2F5407F08D1D3
:10342000094A116821F4F811084A02401143064A7A
:103430001160054A68321268C0F30B031A43024B4D
:1034400068331A607047000008380240FFFCFF0F25
:10345000014600BF080900EB8000420001F00F00A8
:103460001044C0B270470146002204E0501CC2B2B2
:10347000A1F10A00C1B20A29F8DA100741EA106086
:103480007047000008B50022009200200021104A79
:10349000126802F04002CAB9421E0D4B1A6000BF0A
:1034A0000B4A126802F04001009A521C0092009AE6
:1034B000B2F5803F01D00029F2D0054A126802F02F
:1034C00040020AB1012002E0002000E0012008BD16
:1034D0000C2800400348006820F080000149086083
:1034E000704700000C28004030B591B0002586E000
:1034F00010A9002000F0E0F80FA9002000F0B6F8B5
:103500009DF83E0000909DF83D309DF83F203EA183
:1035100008A8FCF749FF9DF841309DF840203FA1E5
:1035200001A8FCF741FF9DF83C00082836D2DFE8EF
:1035300000F035040B121920272E3BA31022062180
:103540002D20FFF771FE29E039A3102206212D203E
:10355000FFF76AFE22E038A3102206212D20FFF794
:1035600063FE1BE036A3102206212D20FFF75CFE30
:1035700014E035A3102206212D20FFF755FE0DE0A3
:1035800033A3102206212D20FFF74EFE06E032A3C2
:10359000102206212D20FFF747FE00BF00BF01AB20
:1035A000182201212320FFF73FFE08AB102204213F
:1035B0001920FFF739FEFFF70BFA0546DDB104E0ED
:1035C000601C84B2012002F051F801212448FEF76A
:1035D00091FD0028F4D1B4F5C87F0CDDFFF76EFB38
:1035E00001F05AF82A2310221E4801781E4800785C
:1035F000FFF77CFC04E04FF4967003F005FA77E7E0
:1036000000BF11B030BD00003230253032642D25AE
:103610003032642D253032640000000025303264E1
:103620003A25303264000000204D6F6E200000000B
:103630005475657320000000205765642000000069
:103640005468757273000000204672692000000003
:1036500020536174200000002053756E200000008C
:1036600000000240515500205055002070B506461C
:103670000C4600250E4800680E4900EA0105280C9A
:10368000E070C5F30420607005F03F00A070C5F342
:10369000423020705EB9E078FFF7DAFEE0706078C3
:1036A000FFF7D6FE6070A078FFF7D2FEA07070BD65
:1036B000042800403FFFFF0070B506460C46002579
:1036C0000F4800680F4900EA0105C5F30540207066
:1036D000C5F30620607005F07F00A07005F480003F
:1036E000000CE0705EB92078FFF7B2FE20706078C1
:1036F000FFF7AEFE6070A078FFF7AAFEA07070BD65
:10370000002800407F7F7F0030B504460025CA2096
:103710001549086053200860FFF7B4FE00B91DE0AA
:1037200011481C38006820F040000F491C3908601F
:1037300008460068216808430B491C3908600A499B
:103740001439A068086008460068A18840EA014072
:10375000054914390860FFF7BDFE0125FF20024925
:103760000860284630BD00002428004008B5014606
:103770000020009004480090009800EB8100009029
:103780000098006808BD0000502800402DE9F04175
:1037900005460C46002600274DB9607800F0100061
:1037A000102804D1607820F010000A30607005B94C
:1037B00008E06078FFF74CFE0646A078FFF748FE69
:1037C000064600BF55B1E0780004617840EA012068
:1037D000A1780843217840EA413611E0E078FFF70C
:1037E00042FE4FEA00486078FFF73DFE48EA0028B5
:1037F000A078FFF738FE48EA0008207848EA40360B
:10380000CA201249086053200860FFF73BFE08B940
:10381000002714E00E4830400C4920390860FFF7BB
:1038200059FE0A481C38006800F0200030B900F04A
:103830009DF808B9002702E0012700E00127FF20DA
:10384000024908603846BDE8F081000024280040A5
:103850003FFFFF002DE9F04105460C4600260027FA
:103860004DB92E48006800F0400000B102E0002091
:10387000E07000BF0DE02948006800F0400020B172
:103880002078FFF7E5FD064602E00020E07000BF6B
:1038900000BF55B120780004617840EA0120A1788A
:1038A0000843E17840EA014611E02078FFF7DBFDAC
:1038B0004FEA00486078FFF7D6FD48EA0028A07874
:1038C000FFF7D1FD48EA0008E07848EA0046CA2040
:1038D00012491C31086053200860FFF7D3FD08B976
:1038E000002713E00E4830400C4908390860FFF704
:1038F000F1FD0A48006800F0200030B900F036F809
:1039000008B9002702E0012700E00127FF20034952
:103910001C3108603846BDE8F081000008280040EE
:103920007F7F7F00F8B504460D4617461E468DF88A
:1039300002708DF801508DF800608DF803406946E3
:103940000020FFF723FFF8BDF8B504460D461646E4
:103950001F468DF800408DF801508DF802608DF8FB
:10396000037069460020FFF775FFF8BD08B5002217
:10397000009200200021CA22134B1A6053221A60C1
:10398000114A183A126822F0A0020F4B183B1A6035
:1039900000BF0D4A183A126802F02001009A521C2A
:1039A0000092009AB2F5003F01D00029F1D0064AFA
:1039B000183A126802F020020AB1012000E000204B
:1039C000FF22014B1A6008BD2428004008B50022E0
:1039D0000092044A0092009A02EB80020092009A40
:1039E000116008BD5028004030B58BB00024002580
:1039F000182105A8FCF761FE14216846FCF75DFE5E
:103A000090E0FEF7E5FF04467CB104E0681C85B257
:103A1000012001F02BFE01214448FEF76BFB00283A
:103A2000F4D1B5F5C87F00DD0224012C62D1002459
:103A300000253F4A00210220FFF7D9FB4FF49650A2
:103A400001F014FEFFF73AF93A4A00212020FFF76F
:103A5000B1FB39A30C2206215220FFF7E5FBFEF74C
:103A6000CBFB05E005A8FEF787FB1E2002F0CCFF8C
:103A70009DF81B000028F5D09DF81B0030490978FF
:103A80008842EFD0FEF758FB9DF81B002C490870C8
:103A90009DF81B202BA16846FCF786FCFFF70EF96A
:103AA0002AA3102201213220FFF7F4F96B461822D5
:103AB00003210F20FFF7EEF902E0FEF789FF04462D
:103AC000002CFAD013E0FEF783FF04467CB104E03B
:103AD000681C85B2012001F0C9FD01211348FEF7E1
:103AE00009FB0028F4D1B5F5C87F00DD0224002CC5
:103AF000E9D10324022C0CD1FFF7E0F800F0CCFD53
:103B00002A2310221348017813480078FFF7EEF9B2
:103B100009E0032C03D1FFF7D1F800F01FF864206F
:103B200002F072FF6DE700BF0BB030BD0000024035
:103B3000BF4C0020BF3E0020746573742E2E2E00F3
:103B4000665500202533642042504D00D0C4C2CABF
:103B500000000000515500205055002010B50C4ABF
:103B600000210120FFF726FB0AA31022012141209A
:103B7000FFF7C4F80AA3102203214120FFF7BEF883
:103B80000AA3102205215220FFF7B8F810BD00004B
:103B9000BF3E0020B0B4CFC2B0B4BCFC00000000F7
:103BA000BFAACABCD0C4C2CA00000000BCECB2E9C3
:103BB0000000000010B5FEF745FD00F03EF810BD16
:103BC0002DE9F0418046FEF773FE8020FEF73CFEB3
:103BD000FEF7ACFD0446012C04D1FEF78DFE01205A
:103BE000BDE8F0814046FEF72FFEFEF79FFD04463C
:103BF000012C03D1FEF780FE0120F1E7552001F0F2
:103C00002BFDFEF755FE8120FEF71EFE00BFFEF7DE
:103C10008DFD0028FBD1FEF7B3FD05460020FEF721
:103C2000E1FDFEF7ADFD06460120FEF7DBFDFEF7E8
:103C300063FE46EA05273846D2E710B5FEF738FEA0
:103C40008020FEF701FEFEF771FD0446012C03D132
:103C5000FEF752FE012010BDFE20FEF7F5FDFEF737
:103C600065FD0446012C03D1FEF746FE0220F2E773
:103C7000FEF742FE0020EEE770B500240025002686
:103C8000FEF7A6FE04467CB104E0681C85B2012064
:103C900001F0ECFC01214C48FEF72CFA0028F4D18D
:103CA000B5F5C87F00DD0224012C5CD147480078BF
:103CB000412803D146480078052839D04348007888
:103CC000412816D020231022414801783F4800782F
:103CD000FFF70CF93D48007837303C4908702A233B
:103CE00010223B48017839480078FFF7FFF800259B
:103CF00018E0202310223648017834480078FFF776
:103D0000F5F80A203149087031480078801C3049A4
:103D100008702A231022084601782C480078FFF703
:103D2000E5F800252B480078401C2A49087049E036
:103D3000202310222648017824480078FFF7D6F87F
:103D40000A20224908700120214908702A231022E4
:103D5000084601781D480078FFF7C8F800250120C3
:103D60001C4908702EE0022C2CD1FEF7A7FF194841
:103D70000078072824D2DFE800F02304080C131A87
:103D80001C00FDF751FF01261AE0FFF7E7FE0226AF
:103D900016E0114A00210120FFF70CFA03260FE07C
:103DA0000E4A00210120FFF705FA042608E0052647
:103DB00006E00B4A00210120FFF7FCF9062600BFB0
:103DC00000BF0025304670BD000002405055002065
:103DD0005155002065550020BF420020BF440020FF
:103DE000BF4600202DE9F0412DED048B04460E4620
:103DF0001746254695ED000A20EE000AD5ED010A8A
:103E000095ED011A00EE810AD5ED020A95ED021A30
:103E100000EE810A10EE101A084604F09BFD41ECFA
:103E2000190BB0EE490AF0EE690A01F0A9FAB0EEFA
:103E3000408AF0EE608A51EC180B03F0FBFF064954
:103E4000086039463046044A92ED000AFDF766FFE5
:103E5000BDEC048BBDE8F081685500202248006865
:103E600040F08050204908602048006840F44040FD
:103E70001E4908601C48383800681B4938390860FA
:103E80000846006808600846006840F480500860F2
:103E90001748091F0860081F006840F08070091F5C
:103EA000086000BF10484038006800F0007000282B
:103EB000F8D040F202700F4908600B4838380068AB
:103EC00020F003000849383908600846006840F0CF
:103ED0000200086000BF04483838006800F00C0099
:103EE0000828F8D1704700004038024000700040B8
:103EF00010640107003C024000B52DED028B83B039
:103F0000124890ED010A10EE101A084604F022FD46
:103F100041EC180B53EC182B0DA101A8FCF744FA47
:103F20000DA3102201213B20FFF77EF901AB1822DF
:103F300003214520FFF778F90AA30C2206217320FC
:103F4000FFF772F903B0BDEC028B00BDBCA90020E5
:103F500025302E316600000044697374616E63651C
:103F6000000000004D0000001CB5094809A182684E
:103F70006846FCF719FA09A3102201214320FFF734
:103F800053F96B46182203214720FFF74DF91CBD5A
:103F9000BCA9002025303464000000005374657013
:103FA0000000000070B50026002501245CE0FEF74B
:103FB0000FFD0646002E43D004E0681C85B20120A8
:103FC00001F054FB01212A48FEF794F80028F4D1AF
:103FD000B5F5C87F0CDDFEF771FE00F05DFB2A230E
:103FE00010222448017824480078FEF77FFF3CE047
:103FF0000025601CC4B2042C00D10124FEF75EFE33
:10400000012C04D0022C0AD0032C18D10FE01B4A3B
:1040100000210120FFF7CEF8FFF7A6FF0FE0184AB6
:1040200000210120FFF7C6F8FDF72AFE07E0154A38
:1040300000210120FFF7BEF8FFF75EFF00BF00BFC1
:10404000012C04D0022C05D0032C09D105E0FFF788
:104050008BFF05E0FDF714FE02E0FFF74DFF00BF08
:1040600000BF642002F0D0FCA1E700BF70BD0000DB
:10407000000002405155002050550020BF4600204E
:10408000BF500020BF520020042808D14FF0E0218B
:10409000096941F004014FF0E022116107E04FF09F
:1040A000E021096921F004014FF0E022116170471D
:1040B00010B503F0F5FB012801D003F077F810BD2F
:1040C00010B51548006840F47000134908601348A3
:1040D000006840F001001149086000200F490831D4
:1040E00008600E4800680E4908400C4908600D48F9
:1040F000091D0860081F006820F48020091F08605F
:10410000002006490C310860FFF7A8FE4FF0006060
:1041100001498039086010BD88ED00E00038024098
:10412000FFFFF6FE103000247FB505460C46012146
:104130004804FFF733F90295ADF804400020ADF8CC
:104140000600ADF80C0001A90F4800F0A5F8012207
:1041500011460D4800F096F819208DF80000022055
:104160008DF801008DF8020001208DF803006846EB
:10417000FEF75EFD0121044800F058F801210248D5
:1041800000F063F87FBD00000044014010B501213C
:10419000074800F066F8012809D10648406980F018
:1041A0008000044948610121014800F04BF810BD2E
:1041B000004001400000024010B50121074800F016
:1041C00050F8012809D10648406980F08000044970
:1041D00048610121014800F035F810BD004401405C
:1041E0000000024010B50121074800F03AF801280C
:1041F00009D10648406980F08000044948610121E6
:10420000014800F01FF810BD00040040000002400B
:1042100010B50121044800F024F8012803D1012140
:10422000014800F00FF810BD0008004021B10288DD
:1042300042F08002028004E002884FF67F731A4049
:1042400002807047CA430282704721B1028842F05F
:104250000102028004E002884FF6FE731A400280D9
:10426000704730B50246002000230024158A05EA75
:104270000103958905EA010413B10CB1012000E0A6
:10428000002030BD1AB183890B43838102E083890A
:104290008B4383817047000000220288184B9842AC
:1042A0000ED0184B98420BD0B0F1804F08D0164B6F
:1042B000984205D0154B984202D0154B984204D134
:1042C0004FF68F731A404B881A43124B984207D00F
:1042D000114B984204D04FF6FF431A400B891A4302
:1042E00002804B68C3620B880385054B984202D05D
:1042F000044B984201D18B7A038601238382704755
:10430000000001400004014000040040000800409B
:10431000000C0040001000400014004070B52DED6E
:104320000A8B86B0002600243BA3102201213720EF
:10433000FEF7E4FC6AE0FEF74BFB0646E6B104E05C
:10434000601C84B2012001F091F901213548FDF78C
:10435000D1FE0028F4D1B4F5C87F0CDDFEF7AEFC29
:1043600000F09AF92A2310222F4801782F4800786C
:10437000FEF7BCFD4BE00024F320FFF721FC00EE2C
:10438000100AB8EE400A10EE105A9FED291B9FED5F
:104390002A0B00F0D9F9B0EE40BAF0EE60BA284628
:1043A00004F0D8FA41EC1C0B53EC1B2B03F030FE4D
:1043B00041EC1A0B9FED220B53EC102B03F0D4FFB2
:1043C00041EC190B9FED200B53EC102B03F064FD17
:1043D00041EC180B03F02EFD0546284604F0BAFA0E
:1043E00041EC180B53EC182B19A101A8FBF7DCFFCB
:1043F00001AB182203213720FEF716FF164A0421CD
:104400006E20FEF72DFF1E2002F0FEFA93E700BF9C
:1044100006B0BDEC0A8B70BDCAB5CAB1CEC2B6C873
:1044200000000000000002405155002050550020BF
:1044300000000000000030400000000000000040CC
:10444000D7A3703D0AF76540CDCCCCCCCC6C47C02F
:1044500025322E3166000000BF54002010B5F0EE6A
:10446000401A194890ED000AB0EE402A174800683B
:1044700004280CDA16481549096800EB8100C0EDE4
:10448000001A12480068401C1049086019E0042115
:104490000F48FDF7A3FAB0EE402A01240CE00C48C7
:1044A00000EB840090ED000A601E094901EB8000DA
:1044B00080ED000A601CC4B2042CF0DB0448C0ED9F
:1044C000031AB0EE420A10BD90550020945500200A
:1044D000D4A9002010B52021144800F039F8012893
:1044E0000BD1124800F06BF81149124A1278885427
:1044F00010480078401C0F49087040F224410B48D6
:1045000000F033F801280FD1084800880748808858
:1045100000210748074A12788154014606A0FBF79C
:1045200037FF00200349087010BD00000010014053
:10453000A855002030000020C4E3B7A2CBCDB5C4FD
:10454000CAFDBEDDCAC7A3BA25730D0A000000006C
:1045500002460020B1F5007F00D100BF13880B4058
:104560000BB1012000E00020704770B50246002426
:1045700000230025002040F66A16B14200D100BF9A
:10458000C1F3421501F01F03012606FA03F3012DC2
:1045900002D19689334006E0022D02D1168A3340BB
:1045A00001E0968A33400C12012606FA04F41688BC
:1045B000344013B10CB1012000E0002070BD014671
:1045C0008888C0F3080070477CB52C4903C9CDE941
:1045D00000014626FEF720FAFEF7E4F9FEF738FA66
:1045E00042F20F710846FFF79FFDFDF7C9F8FEF78D
:1045F000C5FBFDF7C5F8FFF7DDFAFDF7C9FDFEF7CE
:1046000045FADDE90001FEF7CFFA002515E0601C50
:10461000C4B2072C00D10024194800EB4422002129
:104620003046FEF7C7FD642001F02AF8FEF746FB8E
:10463000A6F10A00C6B2681CC5B20E2DE7DB114A0E
:1046400000210120FEF7B6FD0FA3102202213C201D
:10465000FEF7EAFD0EA3102204213F20FEF7E4FD41
:1046600000BFFEF7B5F90028FBD0FEF727FB2A2391
:10467000102201210A20FEF739FC7CBD688F00085A
:10468000BF2E0020BF3C002077656C636F6D650016
:10469000746F20757365000010B512A310220121FC
:1046A0001420FEF72BFB11A3102201214B20FEF753
:1046B00025FB10A3102203211420FEF71FFB0FA3DC
:1046C000102203214B20FEF719FB0EA31022052117
:1046D0001420FEF713FB0DA3102205214B20FEF73B
:1046E0000DFB10BDD1AAD1B900000000D0C4C2CAD0
:1046F00000000000CEC2B6C800000000CAAAB6C8BA
:1047000000000000CAB1BCE400000000B2BDCAFD58
:104710000000000003B401984100009850EAC12055
:1047200018BF04204A0D18BF40F0010040F2FF728C
:10473000B2EB515F08BF40F00200012808BF05201E
:1047400002B07047000000002DE9F04D2DED040B84
:104750002DED0C8B96B0DDE92350259CDDF888A06B
:1047600025F0004624F00048BAF1000F14BF0121E3
:10477000002101EB4502FE4953184A1093422AD307
:10478000002814BF0123002303EB44030B44F94921
:104790008B4220D358EA00019FEDF78B6FD0DFF8F2
:1047A000E0B35D4503D1BAF1000F05D187E0BAF15E
:1047B000000F08BF002100D0012101EB450111F5D8
:1047C000001F08D8002814BF0121002101EB44017B
:1047D00011F5001F0BD99DED241B9DED220B16B08A
:1047E000BDEC0C8B04B0BDE8F04D00F09DBE002781
:1047F000002DBCBFE349884521DAE3498845A8BFBD
:1048000002271CDAC3451ADCE04901EB28511429C0
:1048100008DDC1F1340220FA02F101FA02F282420B
:104820000DD108E058B9C1F1140228FA02F101FAD9
:1048300002F2424503D101F00101C1F1020756EA3B
:104840000A011DD1002C1BDA002D18BF022F01D048
:10485000012F0AD00220FBF760FF16B0BDEC0C8BD5
:1048600004B0BDE8F04D00F047BE0220FBF755FF55
:1048700000F042FE51EC100B03F0D0FA83E01EE092
:104880009FEDC39B9FEDC4AB002872D1BD4880450E
:104890002DD105F1804010F5801008BFBAF1000F4E
:1048A0000DD0B34515DC002CA1BF9DED240B16B037
:1048B000BDEC0C8B04B0A8BFBDE8F08D12E0B0EEEB
:1048C000480AF0EE680A16B0BDEC0C8B04B0BDE8E7
:1048D000F08D002C06DA9DED240B51EC100B03F04B
:1048E0009DFA50E0AE48784490ED000BEBE7D845D8
:1048F0004FD1002C4ADA2EB186423BD1BAF1000FDB
:1049000044D126E0BAF1000F13D00220FBF705FFD7
:1049100000F026FE8DED020B9DED220B8DED000BC0
:1049200010EE900A039961F31E0003909DED020BB7
:10493000C9E78DED029B9DED220B19EE901A10EE4A
:10494000900A8DED000B61F31E0003909DED020BAC
:10495000B9E78DED02AB9DED220B1AEE901A10EE29
:10496000900A8DED000B61F31E0003909DED020B8C
:10497000A9E729E00ADA9DED220B51EC180B53EC64
:10498000102B03F045FB41EC100B9CE79DED220B37
:1049900099E7864218DAB4F1804F0DD0A4F10050A7
:1049A000B0F1FF5010D1002D0EDB9DED220B51EC2C
:1049B000100B01F0E1FDE6E79DED220B53EC102B0F
:1049C00051EC100B00F0AEBC9DED220B51EC100B26
:1049D00000F069FEBAF1000FCDE90C0134D19FED72
:1049E000720BDEB1A6F1E040B0F17F602CD1002D5A
:1049F00001DD002C0DDA002D01DD002C1FDB002D68
:104A000016DA002C14DB012F08BF9FED690B3FF471
:104A10005AAFB0EE490AF0EE690A54E7022F18BF08
:104A2000002D0CD0012F0AD1002DFFF64CAF06E06F
:104A3000002DB8BF002C07DA012F3FF444AFB0EED1
:104A40004A0AF0EE6A0A3EE7012000EBE57A5AEAEC
:104A500007000CD05848002580457CDD5749584850
:104A6000884514DDB0420DDB002C19DB2BE0012062
:104A7000FBF753FE16B0BDEC0C8B04B0BDE8F04D57
:104A800000F05EBDB34502DC002C09DC1BE0864271
:104A900002DA002C17DA03E05E4527DD002C12DD78
:104AA0000220FBF73AFE00F05BFD10EE901A19EEC3
:104AB000900A8DED020B8DED009B61F31E000390BB
:104AC0009DED020BFFE60220FBF727FE00F058FDEC
:104AD00010EE901A18EE900A8DED020B8DED008B02
:104AE00061F31E0003909DED020BECE69DED220BA1
:104AF00053EC182B51EC100B03F042FE9FED320BE0
:104B0000CDE90A0153EC102B9DED0A0B51EC100B73
:104B100003F02AFC9FED2E1B53EC112B03F058FDE4
:104B20009DED0A1B53EC112B03F01EFC9FED2A1B7D
:104B300053EC112B03F04CFD9DED0A0B41EC190BCE
:104B400053EC102B51EC100B03F00EFC53EC192B13
:104B500003F00AFC00E07EE09FED210B41EC1A0B14
:104B600053EC102B9DED0A0B51EC100B3CE00000B8
:104B7000FFFF1F00FFFF0F00000000000000F03FDC
:104B80000000F03F0000F07F0000404301FCFFFF09
:104B9000000000000000F07F0000000000000000A6
:104BA0002647000000000000000000000000008018
:104BB000000000000000F0FF0000E0410000F043B2
:104BC000FFFFEF3F00000000000000000000D03FAA
:104BD000555555555555D53F000000000000E03FA4
:104BE000000000604715F73F03F0BEFB41EC190BD6
:104BF0009FEDFD0B51EC1A0B53EC102B03F0B4FBA3
:104C000041EC1A0B9FEDFA0B53EC102B9DED0A0BA8
:104C100051EC100B03F0A8FB53EC1A2B03F0B0FD82
:104C200041EC1A0B51EC190B53EC1A2B03F034F92D
:104C30000690CDE906519DED060B53EC192B51EC76
:104C4000100B03F09DFD53EC1A2B03F0C1FC41EC5B
:104C5000100B00F09FB90020B6F5801F0EDA9FED13
:104C6000E60B53EC102B9DED0C0B51EC100B03F0ED
:104C70007BFBCDE90C016FF034000E4600EB2650B3
:104C8000A0F2FF38C6F31300DD4940F07F6646F01E
:104C900040568842D8BF002409DDDA498142C8BFA6
:104CA000012404DC0024A6F5801608F10108D6488A
:104CB000784400EBC4000D9690ED00BB9DED0C0B0D
:104CC00053EC1B2B51EC100B03F05AFD9DED0C0B1C
:104CD00041EC1A0B53EC1B2B51EC100B03F0DCF8DE
:104CE00041EC100B51EC180B53EC102B03F090F926
:104CF00041EC1C0B51EC1A0B53EC1C2B03F034FB56
:104D000041EC190BC1488DED109B7844109590ED46
:104D1000000B4FF0005040EA660000EB84408DED40
:104D20000A0B00F500200B909DED0A0B53EC1B2B9A
:104D300051EC100B03F024FD9DED0C1B53EC112BDB
:104D400003F046FC41EC100B53EC102B9DED100BC7
:104D500051EC100B03F008FB9DED0A0B41EC1B0B13
:104D600053EC102B9DED100B51EC100B03F0FCFAE3
:104D700053EC1A2B03F02CFC53EC1B2B03F000FD1F
:104D800053EC1C2B03F0F0FA41EC1B0B53EC192BEA
:104D900051EC190B03F0E8FA41EC1A0B9C48062180
:104DA000B0EE4A0AF0EE6A0A784400F026FBB0EE54
:104DB00040CAF0EE60CA53EC1A2B51EC1A0B03F008
:104DC000D3FA53EC1C2B03F0CFFA9DED100B41EC02
:104DD0001A0B53EC192B51EC100B03F05DF853EC4C
:104DE0001B2B03F0C1FA53EC1A2B03F055F89DED81
:104DF000100B41EC1A0B53EC102B51EC100B03F081
:104E0000B3FA41EC1C0B9FED84DB53EC1D2B03F03C
:104E100043F853EC1A2B03F03FF80A90CDE90A51FE
:104E20009DED0A0B53EC1D2B51EC100B03F0A8FC6D
:104E300053EC1C2B03F0A4FC53EC1A2B03F0C8FB1F
:104E40009DED0A0B41EC1C0B53EC102B9DED100B50
:104E500051EC100B03F088FA41EC1A0B53EC192BB0
:104E600051EC1C0B03F080FA9DED0A0B41EC190B81
:104E700053EC102B51EC1B0B03F076FA53EC192B6F
:104E800003F00AF841EC190B51EC1A0B53EC192BF7
:104E900003F002F81090CDE910519DED100B53EC8A
:104EA0001A2B51EC100B03F06BFC53EC192B03F095
:104EB0008FFB41EC190B9FED5A0B53EC102B9DED22
:104EC000100B51EC100B03F04FFA41EC1A0B9FED55
:104ED000560B51EC190B53EC102B03F045FA41EC37
:104EE000190B9FED530B53EC102B9DED100B51EC58
:104EF000100B03F039FA53EC192B02F0CDFF41EC03
:104F0000100B4D48784400EBC40090ED001B51ECB1
:104F1000100B53EC112B02F0BFFF41EC190B404674
:104F200003F0CEF9CDE90A0153EC192B51EC1A0B21
:104F300002F0B2FF41EC100B4048784400EBC40093
:104F400090ED00BB51EC100B53EC1B2B02F0A4FFB7
:104F50009DED0A1B53EC112B02F09EFF0690CDE94C
:104F600006519DED0A0B53EC102B9DED060B51ECF9
:104F7000100B03F005FC53EC1B2B03F001FC53EC6E
:104F80001A2B03F0FDFB53EC192B03F021FB41EC32
:104F9000100B00BF781EB0EE48AAF0EE68AA5AEADD
:104FA000000008BF9FED268B9DED241B53EC102BBA
:104FB0008DED001B00959DED240B51EC100B03F0C3
:104FC000D3F99DED000B41EC190B53EC102B9DED2B
:104FD000240B51EC100B03F0D3FB9DED061B53EC9F
:104FE000112B03F0C1F92FE0FE822B654715F73F27
:104FF00044DF5DF80BAE543E00000000000040436B
:105000008E9803007AB60B00D442000002430000E1
:105010000C420000000000000000000000000840FA
:10502000000000E009C7EE3FFD033ADC09C7EE3F90
:10503000F5015B14E02F3EBEA04000005A40000086
:10504000000000000000F0BF53EC192B02F024FF19
:105050009DED060B41EC190B53EC102B9DED000B55
:1050600051EC100B03F080F9CDE910019DED100B10
:1050700051EC190B53EC102B02F00EFFCDE902019D
:105080000C46AB498C422FDB611A084318D19DEDC9
:10509000100B53EC102B9DED020B51EC100B03F099
:1050A0006FFB41EC1B0B9FEDA40B51EC190B53EC68
:1050B000102B02F0F1FE53EC1B2B03F053FA2DD210
:1050C0000220FBF72AFB00F04BFA10EE901A18EEC4
:1050D000900A8DED020B8DED008B61F31E000390A5
:1050E0009DED020BFFF7EFBB954A24F00041914282
:1050F00014D39449214408437FF4E5AC9DED100B93
:1051000053EC102B9DED020B51EC100B03F038FB10
:1051100053EC192B03F026FA7FF6D5AC24F00040AF
:1051200089498A4A002601EB205182422BDA481C29
:105130004FF4801121FA00F02044854AC0F30A514F
:105140007A44A1F2FF3192ED000B824A8DED0A0BF9
:10515000CA4020EA0202C0F3130040F48010C1F1FB
:10516000140120FA01F60B92002CB8BF76429DED97
:105170000A0B53EC102B9DED100B51EC100B03F0B0
:10518000FFFACDE910019DED100B51EC190B53EC1A
:10519000102B02F081FE9FED700B0A90CDE90A51B1
:1051A00053EC102B9DED0A0B51EC100B03F0DCF8C7
:1051B00041EC1B0B9FED6A0B53EC102B9DED0A0B82
:1051C00051EC100B03F0D0F89DED100B41EC1C0BD3
:1051D00053EC102B9DED0A0B51EC100B03F0D0FAA1
:1051E00053EC192B03F0F4F99FED5F1B53EC112BDB
:1051F00003F0BAF853EC1C2B02F04EFE41EC190BF5
:1052000051EC1B0B53EC192B02F046FECDE90201C9
:105210009DED020B53EC1B2B51EC100B03F0B0FA7D
:1052200053EC192B03F0D4F99DED020B41EC190B53
:1052300053EC102B51EC100B03F096F8CDE90A015A
:105240004B489DED0A0B0521784400F0D6F89DED02
:105250000A1B51EC100B53EC112B03F085F89DED5C
:10526000021B53EC112B03F0B3F9CDE906019DEDC0
:10527000020B53EC192B51EC100B03F075F853ECA7
:10528000192B02F009FE9FED3C0B41EC190B53EC7E
:10529000102B9DED060B51EC100B03F071FA9DEDF8
:1052A000060B41EC1B0B53EC102B9DED020B51EC4C
:1052B000100B03F059F853EC1B2B02F0A9FE53EC32
:1052C000192B03F05DFA9DED021B53EC112B03F03B
:1052D00057FA53EC1A2B03F07BF9CDE9020101EBED
:1052E000065001150029C8BF039015DC9DED020B87
:1052F000324651EC100B03F0DCFBFFF70BFA0428ED
:1053000008BF00F03DF932469DED020B51EC100B49
:1053100003F0CFFBCDE902019DED020B51EC180B20
:1053200053EC102B03F020F8FFF72DBB000000001A
:105330000000904000000000FE822B654715973C5E
:1053400000CC904000346F3F01FCFFFF0000E03FC5
:10535000CC3E0000FFFF0F0000000000432EE63FA0
:10536000396CA80C615C20BEEF39FAFE422EE63F94
:105370009C3D000000000000000000000000004014
:1053800000B52DED048BB0EE409AF0EE609A83B03C
:1053900051EC190B03F028F941EC180B18EE100A28
:1053A00018EE901A8DED008B002818BF01200843DD
:1053B00020F00040C0F17F6000F1E040C00F14D049
:1053C00019EE101A19EE900A8DED009B002918BFF6
:1053D0000121084320F00040C0F17F6000F1E0406F
:1053E000C00F04BF0120FBF798F9B0EE480A03B0E4
:1053F000F0EE680ABDEC048B00BD70B504462DEDDF
:10540000028B4D1E00EBC500B0EE408AF0EE608AC4
:1054100090ED000B35F0060017D053EC182B51EC33
:10542000100B02F0A1FF41EC100B6D1E04EBC50048
:1054300090ED001B51EC100B53EC112B02F02CFDE6
:1054400041EC100B35F00600E7D1022D36D0042DCB
:105450001CD0062D1CBFBDEC028B70BD53EC182B6D
:1054600051EC100B02F080FF94ED0A1B53EC112B52
:1054700002F012FD53EC182B02F076FF94ED081B9E
:1054800053EC112B02F008FD41EC100B53EC182BE0
:1054900051EC100B02F068FF94ED061B53EC112B3E
:1054A00002F0FAFC53EC182B02F05EFF94ED040BB3
:1054B00053EC102B02F0F0FC41EC100B53EC182BCA
:1054C00051EC100B02F050FF94ED021B53EC112B2A
:1054D00002F0E2FC53EC182B02F046FF94ED001BA7
:1054E00053EC112B02F0D8FCBDEC028B41EC100BFD
:1054F00070BD0000000000009FED070B10B553ECDD
:10550000102B9FED070B51EC100B02F081FD41ECCD
:10551000100B10BD000000000000000000000000A3
:10552000000000000000F03F10B553EC112B51ECCF
:10553000100B02F0B1FC41EC100B10BD000000009C
:105540009FED050B10B553EC102B51EC100B02F036
:105550005FFD41EC100B10BD0000000000000000DA
:105560009FED050B10B553EC102B51EC100B02F016
:10557000FBFE41EC100B10BD0000000000000070AD
:105580009FED050B10B553EC102B51EC100B02F0F6
:10559000EBFE41EC100B10BD0000000000000010FD
:1055A00030380A2801D20120704700207047014698
:1055B00000BF704704E000F0F5F80A2001F024FA7B
:1055C000F9E7000070B5A8250420FEF75DFD0C4842
:1055D00005702C464FF47A7014FB00F40120094941
:1055E00008804FF0E020006940F002004FF0E02119
:1055F000086108464461006940F00100086170BD1F
:10560000280000202A00002001464AF2104201FB37
:1056100002F000E0401E0028FCD17047014646F22F
:10562000A81201FB02F000E0401E0028FCD17047E8
:10563000014646F2A81201FB02F000E0401E0028DD
:10564000FCD17047014646F2A81201FB02F000E0CF
:10565000401E0028FCD17047014646F2A81201FB0B
:1056600002F000E0401E0028FCD17047014646F2DF
:10567000A81201FB02F000E0401E0028FCD1704798
:10568000014646F2A81201FB02F000E0401E00288D
:10569000FCD1704701462A2201FB02F000E0401EC7
:1056A0000028FCD1704782B0CDE9000121F0004014
:1056B00001909DED000B02B051EC100B7047000003
:1056C00000BF054A128802F04002002AF9D0C2B297
:1056D000014B9A80704700000010014008B500207F
:1056E000009038E01C480068002834D000230122D4
:1056F00069461948006801F0ADFD60B39DF80000EF
:10570000072823D2DFE800F02204090E13181D0039
:10571000FCF7D2F90020009018E0FEF765F90020B0
:10572000009013E0FEF7FAFD002000900EE0FCF779
:10573000E3FD0020009009E0FDF7D6FE0020009078
:1057400004E0FEF72FFC0020009000BF00BF0348DC
:10575000006801F0CFFAC5E72400002018000020FF
:105760001CB54FF44070FDF79FFAFFF72BFFFEF7D3
:105770002BFF0748012100238022CDE9001005A15D
:10578000074802F05DF801F031FB00201CBD00006D
:105790001400002073746172745F7461736B000095
:1057A000E965000810B5FDF7ABF91A4880ED000A6D
:1057B000C0ED010A80ED021A17490020FDF77CFFB9
:1057C0001648807816490978884207D013488078AF
:1057D0001349087000201149C87004E00F48C078D0
:1057E000401C0E49C8700C4800780C4908700A48E3
:1057F000407848700848807888700A4A0548FEF763
:10580000F1FA0949D0E900238068C1E900238860E2
:1058100010BD0000C8A900205C5500206155002083
:105820006055002054550020BCA9002008B5002078
:105830000090FEF731FF16E0FEF71EFA00900A48CE
:10584000006868B19DF8000050B100231A4669460F
:105850000548006801F03AFE002001F01DFB02E05F
:10586000322001F0D1F8E7E7240000202DE9F041D3
:1058700005460E461C4807681C480068001D00F0DD
:1058800005FF50B91948006890F82C100120884095
:1058900017490968814316480160681C38B936B158
:1058A00012480168091D134800F02EFF1AE07C1908
:1058B0000E4800684460BC4207D20C480168091DCC
:1058C0000D48006800F006FF0CE008480168091D5B
:1058D0000A48006800F0FEFE09480068844201D2D0
:1058E00007480460BDE8F081F0540020DC5400203B
:1058F000F454002080590020E4540020E05400209B
:105900000C55002010B5044600F00AFF244800683A
:10591000401C234908602348006840B921480460BE
:105920000846006801280DD100F0EEF90AE01E4893
:10593000006838B91B480068C06AE16A884201D82B
:105940001848046019480068401C18490860084657
:105950000068606494F82C1001208840144909689C
:10596000084313490860E16A01EB8101114A02EB27
:105970008100211D00F0C8FE00F016FF0A480068F3
:1059800068B108480068C06AE16A884207D24FF0EF
:10599000805009490860BFF34F8FBFF36F8F10BD70
:1059A000EC540020DC540020F8540020085500205E
:1059B000F4540020B056002004ED00E010B500F0D3
:1059C000AFFE10480068D0B90F4800F073FE0F48D2
:1059D00000F070FE0C480E4908600C480D49086044
:1059E00000221021052001F0FBFB06490860084653
:1059F000006820B108A10348006800F0C9FF00F06A
:105A0000D3FE10BD2055002094590020A859002035
:105A1000185500201C550020546D725100000000E4
:105A200070B523E001F0B8FA1348006808B9012006
:105A300000E00020054602F0BFF8BDB900F070FE9E
:105A40000D48C068C468201D00F020FE0B480068A7
:105A5000401E0A4908600A480068401E084908605C
:105A600000F0A2FE204600F060F800BF0448006885
:105A70000028D7D170BD00006C590020EC540020E4
:105A8000E854002070B504460D46206C70B1216CBE
:105A9000E0680844E0606168E068884201D32068FB
:105AA000E0602846226CE168FAF7BAFD70BD2DE986
:105AB000F04104460F4615464FF00008A66B206CD7
:105AC00040B9206860BB606801F0B0FF80460020EC
:105AD000606025E07DB93946226CA068FAF7A0FD28
