:020000040800F2
:100000005807002099010008A1010008A301000879
:10001000A5010008A7010008A901000800000000D0
:10002000000000000000000000000000AB0100081C
:10003000AD01000800000000AF010008B101000898
:10004000B3010008B3010008B3010008B3010008C0
:10005000B3010008B3010008B3010008B3010008B0
:10006000B3010008B3010008B3010008B3010008A0
:10007000B3010008B3010008B3010008B301000890
:10008000B3010008B3010008B3010008B301000880
:10009000B3010008B3010008B3010008B301000870
:1000A000B3010008B3010008B3010008B301000860
:1000B000B3010008A10B0008B3010008B301000858
:1000C000B3010008B3010008B3010008B301000840
:1000D000B3010008450C0008610D0008B3010008D9
:1000E000B3010008B3010008B301000800F002F8F2
:1000F00000F042F80AA090E8000C82448344AAF180
:100100000107DA4501D100F037F8AFF2090EBAE87D
:100110000F0013F0010F18BFFB1A43F0010318473B
:100120003011000050110000103A24BF78C878C187
:10013000FAD8520724BF30C830C144BF04680C60ED
:10014000704700000023002400250026103A28BF35
:1001500078C1FBD8520728BF30C148BF0B60704739
:10016000642900F0A580732900F04D8100207047BC
:100170001FB51FBD10B510BD00F078F91146FFF78F
:10018000F7FF01F031F800F096F903B4FFF7F2FF42
:1001900003BC01F017F800000948804709480047F0
:1001A000FEE7FEE7FEE7FEE7FEE7FEE7FEE7FEE727
:1001B000FEE7FEE704480549054A064B7047000084
:1001C000410B0008ED0000085801002058070020EE
:1001D0005803002058030020704700000FB4044962
:1001E00010B503AA029800F013F910BC5DF814FBD7
:1001F000000000202DE9F0410E4604460020206258
:100200002046E168884730B3252805D0D4E901218C
:100210009047206A401CF2E7E168204600278847A3
:10022000050018D0A5F14100192802D820354FF457
:1002300000673246294620462760FFF791FF40B10C
:10024000012804D0F61D26F007060836D8E7361D2B
:10025000D6E72846DAE7206ABDE8F08170B50C469B
:100260000546012A05D02878800600D5EA690023D2
:1002700002E0012305E05B1C934202D2E05C00280F
:10028000F9D1A869E618C01AA861286A184428623A
:100290002846AFF3008004E0D5E9012114F8010BF2
:1002A0009047B442F8D32846AFF3008070BD0000F9
:1002B0002DE9F0410646002410687529314616A53F
:1002C00010D0AFF30080002802DA404213A507E007
:1002D00031688A0701D512A502E0490704D511A5A6
:1002E000012401E0AFF3008000210A2206F1240777
:1002F00009E0B0FBF2FCB0FBF2F302FB1C00303073
:1003000078541846491C0028F3D123462A46304623
:10031000BDE8F04100F00CB8000000002D00000026
:100320002B000000200000007047704770477047A6
:100330002DE9F0470D4699469246044600F12408FF
:100340000168880604D5E06921F01001216000E011
:100350000120A84201DD471B00E00027A1697A19AE
:1003600002EB0900081AA0612078C00602D42046DA
:10037000AFF30080002608E0D4E901211AF8060056
:100380009047206A401C761C20624E45F4DB2078A2
:10039000C0060AD52046AFF3008006E0D4E901216B
:1003A00030209047206A401C2062381EA7F10107C8
:1003B000F4DC07E0D4E9012118F805009047206A31
:1003C000401C2062281EA5F10105F3DC2046AFF396
:1003D00000802078000602D50220BDE8F0870120C9
:1003E000FBE710B5436913B1AFF3008001E0FFF7FD
:1003F00035FF012010BD127800F124010A7000229F
:100400004A700122EDE711684FF0FF32E9E7000082
:10041000074B70B50D467B4400F011F804462846A2
:1004200000F020F810B14FF0FF3070BD204670BDD5
:10043000B30D000001694A1C02610878704700B5DD
:100440008FB0CDE901310021059105497944CDE90D
:10045000031011466846FFF7CDFE0FB000BD000047
:10046000E5FFFFFF007B00F080007047754600F05D
:1004700029F8AE4605006946534620F00700854638
:1004800018B020B5FFF796FEBDE820404FF00006FB
:100490004FF000074FF000084FF0000B21F007016C
:1004A000AC46ACE8C009ACE8C009ACE8C009ACE8AF
:1004B000C0098D4670470446AFF300802046FFF721
:1004C00064FE000000487047F40000202DE9F04170
:1004D000024600250026002000230024002791F872
:1004E00003C00CF00F0591F803C00CF0100CBCF128
:1004F000000F03D091F802C04CEA050591F800C046
:10050000BCF1000F31D0146800202BE04FF0010C3B
:100510000CFA00F3B1F800C00CEA03069E4220D1A9
:1005200083004FF00F0C0CFA03F7BC4305FA03FCF1
:100530004CEA040491F803C0BCF1280F06D14FF037
:10054000010C0CFA00FCC2F814C00AE091F803C0D8
:10055000BCF1480F05D14FF0010C0CFA00FCC2F8B9
:1005600010C0401C0828D1D31460B1F800C0BCF101
:10057000FF0F34DD546800202EE000F1080C4FF02E
:10058000010808FA0CF3B1F800C00CEA03069E4219
:1005900021D183004FF00F0C0CFA03F7BC4305FA8E
:1005A00003FC4CEA040491F803C0BCF1280F05D108
:1005B00000F1080C08FA0CF8C2F8148091F803C096
:1005C000BCF1480F07D100F1080C4FF0010808FA00
:1005D0000CF8C2F81080401C0828CED35460BDE847
:1005E000F0814161704701617047000008B5012149
:1005F000082000F015F94FF48070ADF80000482095
:100600008DF8030069460248FFF760FF08BD00004F
:10061000000C014008B50121042000F001F902207E
:10062000ADF8000010208DF8030003208DF80200C3
:1006300069460448FFF74AFF02210248FFF7D3FF4B
:1006400008BD00000008014010B52D48007830B109
:10065000012815D0022824D0032844D132E00821F3
:100660002848FFF7C0FF10212648FFF7BAFF2021D6
:100670002448FFF7B6FF40212248FFF7B4FF32E0DD
:1006800008212048FFF7ADFF10211E48FFF7ABFF00
:1006900020211C48FFF7A5FF40211A48FFF7A3FFC0
:1006A00021E008211748FFF79CFF10211548FFF7AC
:1006B0009AFF20211348FFF796FF40211148FFF7CA
:1006C00090FF10E008210F48FFF78DFF10210D4823
:1006D000FFF787FF20210B48FFF785FF40210948DE
:1006E000FFF77FFF00BF00BF05480078401C0449AA
:1006F000087008460078042801DB0020087010BD4F
:1007000010000020000C014070B5002100230F22D2
:10071000C47804B3154C246804F4E064C4F5E064C0
:10072000210AC1F10403CA40447804FA03F1847831
:100730001440214309010E4C0678A155047804F0B9
:100740001F050124AC4005786D11AD0005F1E025D1
:10075000C5F8004109E0047804F01F050124AC400D
:10076000044D0678761145F8264070BD0CED00E08A
:1007700000E400E080E100E010B54FF400410E48D5
:10078000FFF731FF4FF480410B48FFF72CFF4FF488
:1007900000510948FFF727FF4FF480510648FFF743
:1007A00020FF4FF400610448FFF71BFF4FF4806106
:1007B0000148FFF716FF10BD000C014010B54FF4C3
:1007C00000410E48FFF70DFF4FF480410B48FFF743
:1007D00008FF4FF400510948FFF703FF4FF4805121
:1007E0000648FFF700FF4FF400610448FFF7FBFEE7
:1007F0004FF480610148FFF7F6FE10BD000C014088
:1008000029B1064AD2690243044BDA6104E0034A83
:10081000D2698243014BDA61704700000010024048
:1008200029B1064A92690243044B9A6104E0034AE3
:1008300092698243014B9A617047000000100240A8
:1008400030B500210022002400232D4D6D6805F0F5
:100850000C0121B1042905D0082923D105E0294D37
:10086000056022E0274D05601FE0254D6D6805F409
:100870007012234D6D6805F48034022505EB924219
:100880001CB9214D554305600BE01D4D6D6805F405
:1008900000351DB11C4D5543056002E0194D55430F
:1008A000056002E0174D056000BF00BF144D6D6884
:1008B00005F0F0010909154D6B5C0568DD404560E8
:1008C0000F4D6D6805F4E061090A104D6B5C4568D9
:1008D000DD4085600A4D6D6805F46051C90A0B4D15
:1008E0006B5C4568DD40C560054D6D6805F44041B1
:1008F000890B074D6B5CC568B5FBF3F5056130BD31
:100900000010024000127A0000093D00160000208D
:100910002600002000B587B001210420FFF780FFEA
:1009200001210803FFF77CFFE020ADF81800182034
:100930008DF81B0003208DF81A0006A91548FFF753
:10094000C5FDE0211348FFF74EFE0020ADF804007E
:100950004FF48270ADF806000020ADF80800ADF845
:100960000A00ADF80C004FF40070ADF80E0008203E
:10097000ADF810000020ADF812000720ADF814000B
:1009800001A9054800F040F80121034800F022F8D1
:1009900007B000BD000801400030014010B504461A
:1009A00000BF02210A4800F021F80028F9D02146B2
:1009B000074800F027F800BF0121054800F016F8AD
:1009C0000028F9D0024800F01AF8C4B2204610BD41
:1009D0000030014021B1028842F04002028004E070
:1009E00002884FF6BF731A4002807047024600200B
:1009F00013890B400BB1012000E000207047014635
:100A0000888970478181704710B50022028802F4FE
:100A100041520B884C8823438C882343CC88234342
:100A20000C8923434C8923438C892343CC8923435A
:100A30001A430280838B4FF2FF74234083830B8A17
:100A4000038210BD10B500F001F810BD0CB50020F8
:100A5000019000903348006840F4803031490860CC
:100A600000BF3048006800F4003000900198401C3E
:100A70000190009818B90198B0F5A06FF1D12948FC
:100A8000006800F4003010B10120009001E0002067
:100A900000900098012843D12348006840F01000DE
:100AA000214908600846006820F0030008600846F5
:100AB000006840F0020008601A4840681949486020
:100AC0000846406848600846406840F480604860D6
:100AD0000846406820F47C1048600846406840F4AE
:100AE000E81048600846006840F08070086000BF69
:100AF0000C48006800F000700028F9D009484068F0
:100B000020F00300074948600846406840F00200B2
:100B1000486000BF0348406800F00C000828F9D185
:100B20000CBD000000100240002002404FF0E02009
:100B3000006920F004004FF0E021086170470000D8
:100B400010B51348006840F00100114908600846DC
:100B50004068104908400E494860084600680E4940
:100B600008400B4908600846006820F480200860AF
:100B70000846406820F4FE0048604FF41F0088607B
:100B8000FFF760FF4FF000600449086010BD0000EF
:100B9000001002400000FFF8FFFFF6FE08ED00E045
:100BA00010B50121194800F03CF870B30121174835
:100BB00000F034F8FFF748FD15480068012813D10C
:100BC00001021448FFF70FFD4FF480711148FFF741
:100BD00008FD4FF480710F48FFF705FDFFF7CCFDCE
:100BE00001200D49087005E009480068022801D17C
:100BF000FFF7E4FD06480068401C05490860084608
:100C00000068032801D10120086010BD00040040E5
:100C10000C0000200008014012000020CA4302829C
:100C2000704730B50246002000230024158A05EAEB
:100C30000103958905EA010413B10CB1012000E01C
:100C4000002030BD08B52021144800F02DF90128FE
:100C500013D11248001D0088C0B200906A460121DD
:100C60000F48006800F034FA0D480068401C0C4939
:100C7000086002210B48FFF7B4FC40F2244107480A
:100C800000F01FF9012808D1044800880348001D1E
:100C9000008802210348FFF7A6FC08BD0038014088
:100CA000040000200008014010B586B00446012170
:100CB0000420FFF7B5FD01218803FFF7B1FD4FF4D4
:100CC0000070ADF8140018208DF8170003208DF87F
:100CD000160005A92048FFF7F9FB4FF48060ADF836
:100CE000140004208DF8170003208DF8160005A9C4
:100CF0001948FFF7EBFB01940020ADF80800ADF8B0
:100D00000A00ADF80C00ADF810000C20ADF80E0094
:100D100001A9124800F024F9012240F225510F48A0
:100D200000F0F9F8012240F224410C4800F0F3F8F9
:100D300025208DF8000001208DF801008DF80200BB
:100D40008DF803006846FFF7DFFC0121034800F03F
:100D50009FF806B010BD00000008014000380140B7
:100D600010B52021144800F09FF801280BD112483B
:100D7000001D00881149124A1278885410480078E2
:100D8000401C0F49087040F224410B4800F099F8CC
:100D900001280FD1084800880748001D008800205E
:100DA0000649074A1278885406A0FFF717FA002070
:100DB0000349087010BD0000004400402C000020D2
:100DC00008000020C4E3B7A2CBCDB5C4CAFDBEDD88
:100DD000CAC7A3BA25730D0A0000000010B586B07B
:100DE000044601210420FFF71BFD01214804FFF701
:100DF00007FD0420ADF8140018208DF8170003201B
:100E00008DF8160005A92048FFF760FB0820ADF813
:100E1000140004208DF8170003208DF8160005A992
:100E20001948FFF753FB01940020ADF80800ADF816
:100E30000A00ADF80C00ADF810000C20ADF80E0063
:100E400001A9124800F08CF8012240F225510F4808
:100E500000F061F8012240F224410C4800F05BF8F8
:100E600026208DF8000001208DF801008DF8020089
:100E70008DF803006846FFF747FC0121034800F0A6
:100E800007F806B010BD0000000801400044004013
:100E900021B1828942F40052828104E082894DF6B8
:100EA000FF731A408281704702460020B1F5007F2F
:100EB00000D100BF13880B400BB1012000E00020DF
:100EC000704770B50246002400230025002040F63C
:100ED0006A16B14200D100BFC1F3421501F01F03F1
:100EE000012606FA03F3012D02D19689334006E06C
:100EF000022D02D1168A334001E0968A33400C124B
:100F0000012606FA04F41688344013B10CB101200E
:100F100000E0002070BDF0B5034600240026002547
:100F2000002040F66A17B94200D100BF1846C1F34D
:100F3000421401F01F06012707FA06F5012C01D122
:100F40000C3004E0022C01D1103000E014301AB152
:100F500007682F43076002E00768AF430760F0BDF2
:100F60002DE9F04786B005460E460024A24600BF94
:100F7000A1460027B08900B100BF2F462C8A4CF64D
:100F8000FF700440F08804432C82AC894EF6F310C5
:100F90000440B08831890843718908430443AC8117
:100FA000AC8A4FF6FF400440B0890443AC8201A8EC
:100FB000FFF746FC1F48874202D1DDF810A001E090
:100FC000DDF80CA0A88900F4004040B10AEBCA008B
:100FD00000EB0A1031684900B0FBF1F807E00AEBBA
:100FE000CA0000EB0A1031688900B0FBF1F86420F8
:100FF000B8FBF0F004012009642101FB1089A889E5
:1010000000F4004040B1322000EBC900B0FBF1F029
:1010100000F00700044308E0322000EB09106421CF
:10102000B0FBF1F000F00F0004432C8106B0BDE8E6
:10103000F08700000038014010B5044600F0B2F817
:1010400010210E48FFF7CDFAD820FFF7A7FCC4F314
:101050000740FFF7A3FCC4F30720FFF79FFCE0B2B3
:10106000FFF79CFC10210548FFF7BDFA00BF00F018
:101070005FF800F001000028F9D110BD0008014020
:1010800070B505460C4606E02846FFF7D5FF05F586
:101090008035601EC4B2002CF6D170BD08B5FFF7D4
:1010A00039FC01210420FFF7BBFB1020ADF8000044
:1010B0008DF8030003208DF8020069460348FFF70E
:1010C00005FA10210148FFF78EFA08BD000801401B
:1010D00070B504460D46164600F064F8102113481A
:1010E000FFF77FFA0220FFF759FCC4F30740FFF730
:1010F00055FCC4F30720FFF751FCE0B2FFF74EFCAC
:1011000005E03078FFF74AFC761C681E85B2002D9A
:10111000F7D110210548FFF766FA00BF00F008F884
:1011200000F001000028F9D170BD00000008014066
:1011300010B510210748FFF754FA0520FFF72EFCE1
:10114000FF20FFF72BFC044610210248FFF74BFA63
:10115000204610BD0008014070B50024002500267F
:1011600010210F48FFF73DFA9020FFF717FC0020F1
:10117000FFF714FC0020FFF711FC0020FFF70EFC26
:101180000020FFF70BFC04460020FFF707FC054694
:1011900010210348FFF727FA45EA0426304670BDC0
:1011A0000008014010B510210548FFF71AFA062083
:1011B000FFF7F4FB10210248FFF715FA10BD0000FD
:1011C00000080140014600BF7047000000BF054A0B
:1011D000128802F04002002AF9D0C2B2014B1B1D56
:1011E0001A80704700380140FFF7A0FCFFF712FAA1
:1011F000FFF7FCF94FF4E130FFF756FD4FF41640CE
:10120000FFF7ECFDFFF74AFFFFF7A6FF0446214674
:1012100007A0FEF7E3FF08A0FEF7E0FF15214FF45B
:101220003020FFF72DFF07A0FEF7D8FF00BFFEE735
:1012300049443A25640D0A00BFAACABCB2C1B3FD35
:101240000D0A0000B2C1B3FDCDEAB3C90D0A00001A
:1012500070120008000000202C0000002801000887
:101260009C1200082C0000202C07000044010008FC
:101270000000000000000B00000000000000000063
:101280000000010000000000000001020304010250
:0C12900003040607080902040608000019
:04000005080000ED02
:00000001FF
