:020000040800F2
:10000000F0580020950200089D0200089F02000899
:10001000A1020008A3020008A502000800000000D9
:10002000000000000000000000000000A70200081F
:10003000A902000800000000AB020008AD020008A1
:10004000AF020008AF020008AF020008AF020008CC
:10005000AF020008AF020008AF020008AF020008BC
:10006000AF020008AF020008AF020008AF020008AC
:10007000AF020008AF020008AF020008AF0200089C
:10008000AF020008AF02000839160008AF020008EE
:10009000AF020008AF020008AF020008AF0200087C
:1000A000CD2E0008F92E0008AF020008AF020008AC
:1000B000AF020008AF020008AF020008AF0200085C
:1000C000AF020008AF020008AF020008AF0200084C
:1000D000AF0200088D300008AF020008AF02000830
:1000E000AF020008AF020008AF020008AF0200082C
:1000F000AF020008AF020008AF020008AF0200081C
:10010000AF020008AF020008AF020008AF0200080B
:10011000AF020008AF020008AF020008AF020008FB
:10012000AF020008AF020008AF020008AF020008EB
:10013000AF020008AF020008AF020008AF020008DB
:10014000AF020008AF020008AF020008AF020008CB
:10015000AF020008AF020008AF020008AF020008BB
:10016000AF020008AF020008AF020008AF020008AB
:10017000AF020008AF020008AF020008AF0200089B
:10018000AF020008AF02000800F002F800F073F8B8
:100190000AA090E8000C82448344AAF10107DA45E2
:1001A00001D100F068F8AFF2090EBAE80F0013F0C1
:1001B000010F18BFFB1A43F0010318475C3700001A
:1001C0007C37000010F8013B0A4413F0030408BF19
:1001D00010F8014B1D1108BF10F8015B641E05D01B
:1001E00010F8016B641E01F8016BF9D1002D15D0D8
:1001F00010F8014B03F00C030C2BA1EB04040ABF15
:1002000010F8013BA4EB8314A4EB032405F10103D4
:1002100014F8016B5B1E01F8016BF9D5914238BFF0
:1002200010F8013BD1D3704700230024002500269D
:10023000103A28BF78C1FBD8520728BF30C148BF49
:100240000B607047662903F00C83642900F0B480CA
:10025000732900F02E84002070471FB503F0F7FAD1
:1002600000F03EFC04000020002103F017F9E060DC
:100270001FBD10B510BD00F037FD1146FFF7EDFFB3
:1002800003F04AF800F055FD03B4FFF7F2FF03BC9A
:1002900002F0D2FF0948804709480047FEE7FEE721
:1002A000FEE7FEE7FEE7FEE7FEE7FEE7FEE7FEE726
:1002B00004480549054A064B70470000012E000816
:1002C00089010008F0520020F0580020F05400206E
:1002D000F0540020704700000FB4044910B503AA81
:1002E000029800F0EBFB10BC5DF814FB0800002046
:1002F0000FB41CB5074B06AA7B44694600900598CD
:1003000000F0ADFB0020694600F0BCFB1CBC5DF8B2
:1003100014FB00008907000070B504468569006879
:10032000C10601D5302600E02026C00707D070BDE9
:10033000D4E9012130469047206A401C20626D1E9E
:10034000F6D570BD70B5044685690078C00707D141
:1003500070BDD4E9012120209047206A401C206212
:100360006D1EF6D570BD70B50C460546012A05D048
:100370002878800600D5EA69002302E0012305E021
:100380005B1C934202D2E05C0028F9D1A869E61810
:10039000C01AA861286A184428622846FFF7BCFFE3
:1003A00004E0D5E9012114F8010B9047B442F8D3D9
:1003B0002846FFF7C7FF70BD2DE9F041064600242F
:1003C00010687529314616A510D0AFF300800028BB
:1003D00002DA404213A507E031688A0701D512A569
:1003E00002E0490704D511A5012401E0AFF3008024
:1003F00000210A2206F1240709E0B0FBF2FCB0FB61
:10040000F2F302FB1C00303078541846491C0028D7
:10041000F3D123462A463046BDE8F04100F0B3B898
:10042000000000002D0000002B0000002000000054
:100430002DE9F05F894604464FF0000ADFF824B149
:10044000FB44C0F820A02046E168884700287DD002
:10045000252806D0D4E901219047206A401C20625B
:10046000F1E700255F462046E168884720280646D8
:1004700007DB312E05D2B81910F8200C08B105435E
:10048000F1E7A80701D525F00405C4F81CA0002752
:10049000C4F818A02A2E09D0304602F0C6FE38B3A0
:1004A00004EB8708303EC8F8186019E059F8041BBF
:1004B000204604EB87029161E1688847012F0646D8
:1004C00018D1E069002820DA25F020051DE0D8F8D1
:1004D000180000EB800006EB40003038C8F8180028
:1004E0002046E1688847064602F09FFE0028EED1CC
:1004F000012F0AD02E2E08D12046E16888477F1CA4
:100500000646022F45F02005C4DBA069002803DA67
:10051000404245F00105A061E80701D025F0100533
:10052000A6B1A6F14100192802D8203645F400658D
:100530004A463146204625604D46FFF783FE60B1AE
:10054000012807D0ED1D25F0070000E007E000F1CD
:10055000080978E705F1040975E730467AE7206A6B
:10056000BDE8F09F2C34000070477047704770471B
:1005700010B500F0B9FA006810BD10B5044600F0DF
:10058000B3FA046010BD2DE9F0470D469946924636
:10059000044600F124080168880604D5E06921F0CA
:1005A0001001216000E00120A84201DD471B00E0AE
:1005B0000027A1697A1902EB0900081AA0612078C6
:1005C000C00602D42046FFF7A7FE002608E0D4E9C3
:1005D00001211AF806009047206A401C761C206210
:1005E0004E45F4DB2078C0060AD52046FFF794FE7E
:1005F00006E0D4E9012130209047206A401C2062A7
:10060000381EA7F10107F4DC07E0D4E9012118F84E
:1006100005009047206A401C2062281EA5F10105B4
:10062000F3DC2046FFF78EFE2078000602D502207C
:10063000BDE8F0870120FBE770472DE9FF4F0C462E
:100640001E464FF0FF378BB0D2E90001DDF8608025
:100650000A908A46C1F30A5505B93D46002108466D
:100660004FF00000BAF1000F00F4400005DA00EB93
:1006700080004FF4400101EA50004FEA9059B9F16F
:10068000010F00DDB9460A9850EA4A000ED044F640
:100690001050A5F2FF3545432F14B8F1000F1ED0BE
:1006A0007542291E1EDDC9F100021CE0B8F1010FE0
:1006B0004FF0000001D0302103E0F24305E0215467
:1006C000401CB042FBDB30460022002121540B9934
:1006D000C1F80880C1E900200FB0BDE8F08FBD1B54
:1006E0006D1CDEE74A4600DA694206A800F086FA89
:1006F00006AB93E8070003AB83E8070050460A996E
:1007000000F05EFB8DE80700A0F500501F38009058
:100710000398002D09DD42F21F014A46084403A94F
:100720000390684600F0BDFD08E0A0F500504A4681
:100730001F3803A90390684600F0C7FD8DE8070045
:100740000004000C03D04FF0FF30410800E01046D9
:10075000B8F1000F03D00022009215461EE0751E6E
:1007600005D400F0C5F9303262556D1EF9D5B34697
:100770000122084302D000227F1C04E020783028A8
:1007800001D100227F1E002A099786D01DE0112D7D
:1007900007DA00F0ADF9303262556D1C50EA010203
:1007A000F5D1084302D00098C8B10EE00021681EC0
:1007B00005E0235C625C63542254401E491C814264
:1007C000F7DBAB46A81B401E0990002004F80B0085
:1007D0000B98099AC0F80880C0E9002B7CE7112625
:1007E0004FF0000859E72DE9F04F88460446D21D26
:1007F00022F0070191B0D1E90001CDE90A0102F030
:10080000BFFC02460B98C00F01D02D2007E02068E6
:10081000810701D52B2002E0202101EAC000032A34
:10082000099001D0072A05DB03464146204600F027
:10083000A5F90BE12078800601D5E06900E00620EB
:10084000B8F1650F814606D0B8F1660F18D0B8F13F
:10085000670F70D131E00020B9F1110F009001DB7A
:10086000112301E009F101030AAA01A90CA8FFF76D
:10087000E4FEDDE90C70002609F10105834647E03E
:1008800001204B4600904FF000470AAA01A90CA88E
:10089000FFF7D3FEDDE90DB00C995D46002610B9D7
:1008A00009F101000D18B9EB050003D4C0F1FF36C2
:1008B00009F10105A5EB09002BE0B9F1010F01DAFF
:1008C0004FF001090020B9F1110F0090484601DDF9
:1008D000112300E003460AAA01A90CA8FFF7ADFE08
:1008E000DDE90C704D4600268346207800070AD4C7
:1008F000AB4500DA5D4601A8012D04DD411911F870
:10090000011C302907D04F4502DA17F1040F04DA31
:10091000012082460FE06D1EEEE7002F02DCED1B8A
:100920003E4403E0781CA84200DD7D1CB81B00F1AA
:10093000010A4FF000472078000703D4AA4501DBE5
:100940004FF0FF3A0021B7F1004F0DF143088DF849
:10095000431024D002202B23002F01DA7F422D23C5
:100960000A21021EA0F1010000DC5FB197FBF1FC3F
:1009700097FBF1F201FB1C7C17460CF1300C08F8D8
:1009800001CDEEE7A8F1010003702188090501D52A
:10099000452100E06521A0F1010800F8011C09983B
:1009A0000FA9A1EB0807FF1D00B10120411901EBC0
:1009B000EA70A1693844081A401EA0612078C00678
:1009C00002D42046FFF7A8FC099828B1D4E90121F8
:1009D0009047206A401C20622078C00622D520461D
:1009E000FFF79AFC1EE0002E04DBB34502DD01A8F0
:1009F000805D00E03020D4E901219047206A401C4E
:100A00002062761CAAF101005FEA000A0AD100F018
:100A100067F8C0680168405CD4E901219047206A0A
:100A2000401C2062281EA5F10105DCDC07E0D4E9AA
:100A3000012118F8010B9047206A401C2062381EE3
:100A4000A7F10107F3DC2046FFF77CFC032011B07F
:100A500043E6000001694A1C02610878704700B54E
:100A60008FB0CDE901310021059105497944CDE9E7
:100A7000031011466846FFF7DBFC0FB000BD000015
:100A8000E5FFFFFF0A6802F8010B0A60704710B526
:100A9000436913B1AFF3008001E0FFF764FC01206C
:100AA00010BD127800F124010A7000224A70012260
:100AB000EDE711684FF0FF32E9E70000074B70B532
:100AC0000D467B44FFF7CBFF0446284600F004F9AF
:100AD00010B14FF0FF3070BD204670BD37280000C8
:100AE00000487047AC520020004870478C520020EC
:100AF00030B5B0F10A024FEA900E71F100034EEAF0
:100B0000817EB0EB0E0061EB91014FEA101E4EEAC0
:100B1000017E10EB0E0041EB11114FEA102E4EEA50
:100B2000016E10EB0E0041EB11214FEA104E4EEA20
:100B3000014E10EB0E0041EB1141401841F1000154
:100B40004FEAD00040EA41704FEAD10110EB800536
:100B50004FEA810444EA907444EB01046D1944EBBC
:100B60000404521BA3414FF0000348BF0A3200D5D2
:100B700030BD401C41F1000130BD00002DE9F041C5
:100B80001F46044603260168072A01F4006004DBBF
:100B900008B116A505E016A503E008B115A500E00B
:100BA00015A521F010002060A069C01EA0610FB142
:100BB000401EA0612046FFF7AFFB4FB1D4E90121F1
:100BC00038469047206A401C2062C01C206206E024
:100BD000206AFAE7D4E9012115F8010B9047761E47
:100BE000F8D22046FFF7AEFBBDE8F0814E414E0043
:100BF0006E616E00494E4600696E66002DE9F04751
:100C0000814616468AB0334878440DC88DE80D00F9
:100C100030487844801C03AC0DC884E80D0041F6D0
:100C20009B300844372190FBF1F290FBF1F5A5F1E0
:100C3000800501FB12041B3C02D56442012000E048
:100C40000020DFF890A080460027FA44AAF1BE0AEF
:100C50000DE0E00709D03246684607EB47010AEB92
:100C6000810100F032FB8DE8070064107F1C002C2E
:100C7000EFD1184F7F44AC3F18E0E80714D007EBE2
:100C800004100DF1180A90E80E008AE80E00C06802
:100C9000F04201D198190890324606A903A800F045
:100CA00014FB03AB83E807006D10641C002DE4D136
:100CB00032466946B8F1000F03A802D000F0F1FAFD
:100CC00001E000F002FBC9E90001C9F808200AB000
:100CD000BDE8F087F42C0000007B00F08000704736
:100CE000004870478C5200207546FFF7F9FFAE466A
:100CF00005006946534620F00700854618B020B528
:100D0000FFF7D6FABDE820404FF000064FF000078D
:100D10004FF000084FF0000B21F00701AC46ACE8A3
:100D2000C009ACE8C009ACE8C009ACE8C0098D4610
:100D300070470446AFF300802046FFF7A5FA000095
:100D40004FF0013C50F8042B51F8043B9A4221D15A
:100D5000A2EB0C03934313EACC1317D150F8042BE6
:100D600051F8043B9A4215D1A2EB0C03934313EACA
:100D7000CC130BD150F8042B51F8043B9A4209D103
:100D8000A2EB0C03934313EACC13DBD04FF000002B
:100D9000704700BFD01A01BAB1FA81F101F0180111
:100DA00022FA01F0CB40C1F12001DBB2C0B2C01A7F
:100DB0002CFA01F3D11A914311EAC311E6D170471D
:100DC0005FEA400C08BF91F0000F4FEA8C234FEA16
:100DD000C12243EA51514FEA1C5018BF00F5F040C0
:100DE0004FEA300018BF41F000415FEA6C5C00F050
:100DF0002980BCF1FF3F08BF40F080407047130CD2
:100E000006BF12044FF0100C4FF0000C130E04BF7D
:100E100012020CF1080C130F04BF12010CF1040CA8
:100E2000930F04BF92000CF1020CD30F04BF5200C9
:100E30000CF1010C11464FF00002A0F11F00A0EBD5
:100E40000C00704711F0004F08BF704731F00041AF
:100E50003FF4D5AF0B0C06BF09044FF0100C4FF058
:100E6000000C0B0E04BF09020CF1080C0B0F04BFA1
:100E700009010CF1040C8B0F04BF89000CF1020C6A
:100E8000CB0F04BF49000CF1010CCCF12003A0EB07
:100E90000C0022FA03F302FA0CF241EA030100F11A
:100EA0000100704720F07F4C80EA030023F07F4769
:100EB000ACEB070303F57C5300F0004003F1FF03A4
:100EC0002DE980494FEA154B09B44FEA144325EA4E
:100ED0000B4E24EA03480FF2042606EB13274908B9
:100EE0003E785FEA320203FB0667C7F5000707FB9F
:100EF00006F64FEA54374FEAD64606F1020607FBDC
:100F0000066CCCF1005C4FEA1C472CEA074C07FB4F
:100F100006F40CFB06F504EB15464FEA961634BFB3
:100F200000204FF000404FEAD13706FB07FC4FEAA4
:100F30001C4C0CFB0BF7D21B03FB0CF761EB0701FE
:100F40000CFB0EF7B0EB074072EB17420CFB08F7F7
:100F500034BFA2EB0742B2EB074261EB17414FEA05
:100F60000C444FEA910706FB07FC4FEA1C4C0CFBB4
:100F70000BF7B0EBC74072EB573203FB0CF734BFF3
:100F8000A2EBC742B2EBC74261EB57310CFB0EF745
:100F9000B0EBC70072EB57720CFB08F734BFA2EB43
:100FA000C702B2EBC70261EB5771039F4FEA816141
:100FB00041EA921104EBCC044FEAD1374FEA826246
:100FC00006FB07FC42EA90124FEA80604FEA1C4C95
:100FD0000CFB0BF7D21B03FB0CF761EB07010CFBBF
:100FE0000EF7B0EB074072EB17420CFB08F734BF6B
:100FF000A2EB0742B2EB074261EB17414FEA8C5577
:101000004FEA910704EB9C2406FB07FC4FEA1C4CBB
:101010000CFB0BF7B0EBC74072EB573203FB0CF73E
:1010200034BFA2EBC742B2EBC74261EB57310CFBB6
:101030000EF7B0EBC70072EB57720CFB08F734BF2A
:10104000A2EBC702B2EBC70261EB577115EB4C255F
:101050004FEA816141EA92114FEA82624FEAD13749
:1010600042EA901206FB07FC44F100044FEA80605C
:101070004FEA1C4C0CFB0BF7D21B03FB0CF761EB8C
:1010800007010CFB0EF7B0EB074072EB17420CFBAD
:1010900008F734BFA2EB0742B2EB074261EB1741FE
:1010A00015EB1C154FEA813141EA92414FEA823239
:1010B00042EA90424FEA80304FEA0C7644F1000455
:1010C00048EA03434EEA0B484FF0000EB2EB080C1F
:1010D00071EB030724BF624639464EEB0E0E4FF00C
:1010E000000B0018524149414BEB0B0BB2EB080CC3
:1010F00071EB03077BF1000B24BF624639464EEBD0
:101100000E0E4FF0000B0018524149414BEB0B0BF8
:10111000B2EB080C71EB03077BF1000B24BF6246B6
:1011200039464EEB0E0E51EA020718BF46F0010693
:1011300016EB0E7655F1000254F1000103D5BDE81F
:101140008901BDE80088BDE88901BDE80048B619FD
:10115000524141EB0101A3F10103704780807F7E82
:101160007D7C7B7A7978777676757473727171701D
:101170006F6E6E6D6C6C6B6A6A69686867666665CF
:101180006464636362616160605F5F5E5E5D5D5C5D
:101190005C5B5B5A5A5959585857575656555555CE
:1011A0005454535352525251515050504F4F4F4E2E
:1011B0004E4D4D4D4C4C4C4B4B4B4A4A4A4949497C
:1011C00048484847474747464646454545444444BE
:1011D000444343434342424242414141002B26D4CF
:1011E000770021D01CB54FEA370703B44FF0100049
:1011F0004FF010014FF000000FBCBDE810400BF1A4
:10120000010BBBF1010F08BF5FEA170722BF12F104
:10121000010211F101014FF0004143F1000300F020
:10122000004043EA00007047F9D35708DAE746EA7E
:10123000064613F1400F4FEA16461FDD13F1200F4B
:10124000DFBF16430A46002120335B42C8D0C3F1FA
:10125000200746EA064602FA07F74FEA164646EA2C
:101260000706C3F1200722FA03F201FA07F721FA71
:1012700003F14FF0000342EA0702B1E746EA020633
:1012800046EA06464FEA164646EA0106BCBF46EA6B
:101290000646360C4FF000034FF000024FF00001FD
:1012A0009EE72DE9C048934630B491E8380007C85E
:1012B00031EA400C48BF34EA430C03D5FFF7F2FD96
:1012C000FFF78CFFF0BCBDE800882DE9C0489346CD
:1012D00030B491E8380007C810F0804F08BF13F011
:1012E000804F03D100F005F8FFF778FFF0BCBDE8B0
:1012F000008820F07F4780EA030023F07F4C07EB53
:101300000C03A3F57C5300F00040A3F1FE0392F020
:10131000000F00F0B38095F0000F00F077802DE90A
:1013200001494FEA11404FEA144621EA004800FB08
:1013300006FC24EA064708FB06F607FB08F800FB54
:1013400007F718EB06484CEB164C4FEA124B18EB1C
:1013500007484FEA15464CEB174022EA0B4E0BFBB1
:1013600006FC25EA06470EFB06F607FB0EFE0BFB06
:1013700007F71EEB064E4CEB164C4FF000061EEB2B
:10138000074E4CEB174B18EB0B0840F1000018EB25
:101390000E0B58EB000840F100008F1A4FF00001CF
:1013A0003CBFC943661B14BFB5EB040C00213CBF16
:1013B000C943F61B4FEA17444EEA8E0E27EA04454E
:1013C0004FEA1C4704FB07622CEA074C05FB07F7B2
:1013D0000CFB05F604FB0CFC16EB074642EB174230
:1013E00016EB0C4642EB1C421BEB060658EB0202C6
:1013F000414146EA9E0601D5BDE80189B619524130
:1014000041EB0101A3F10103BDE801894FEA144555
:101410004FEA114724EA054621EA074C05FB07F489
:1014200006FB07F70CFB06F105FB0CFC11EB074173
:1014300044EB17444FEA124711EB0C4144EB1C44B8
:1014400022EA074C05FB07F206FB07F70CFB06F642
:1014500005FB0CFC16EB074642EB174216EB0C465D
:1014600042EB1C456A1854F1000148BF7047B61999
:10147000524141EB0101A3F10103704795F0000FC8
:1014800037D04FEA11424FEA144721EA024624EAD4
:10149000074C02FB07F106FB07F70CFB06F402FB07
:1014A0000CFC14EB074441EB17414FEA154714EBD2
:1014B0000C4441EB1C4125EA074C02FB07F506FBF7
:1014C00007F70CFB06F602FB0CFC16EB074645EB98
:1014D000174516EB0C4645EB1C42121951F1000161
:1014E00048BF7047B619524141EB0101A3F1010316
:1014F00070474FEA14454FEA114724EA054621EAAE
:10150000074C05FB07F106FB07F70CFB06F24FF053
:10151000000605FB0CFC12EB074241EB174112EBF6
:101520000C4251EB1C4148BF7047921841EB01013E
:10153000A3F101037047000000B58DB001210846FA
:1015400001F02AF90121080201F046F908200B9068
:1015500003208DF8300000208DF833000BA91448CB
:1015600000F02AFB002007900A9009904FF4803089
:10157000089007A800F030F8002001908DF80800CE
:101580008DF809000390059001208DF8180001A93D
:10159000084800F073F8072301220321054800F0F2
:1015A00097F80121034800F00CF80DB000BD0000D1
:1015B000000002400020014000220A12D3430360D1
:1015C000704721B1826842F00102826003E08268C4
:1015D00022F00102826070470021084A1168084A1F
:1015E0001140D0E900231A4383681A43C3681A43A1
:1015F0001143044AC2F80413704700000423014059
:10160000E030FCFF002001400146C86C80B270470A
:1016100070B502460020002300240B1255680126F5
:101620008E4005EA060415681D4015B10CB1012075
:1016300000E0002070BD000010B540F205210B480D
:10164000FFF7E6FF012807D10848FFF7DDFF044652
:10165000214607A0FEF740FE40F205210348FFF7B0
:10166000ABFF024800F090F810BD000000200140E0
:10167000646174613A25640D0A00000030B50246C9
:10168000002000235068104C20400D790C6844EA7B
:1016900005242043506090680C4C2040D1E903544D
:1016A0002C438D682C434D7944EA450420439060D7
:1016B000D06A20F470000C7D641EE4B2234340EA3B
:1016C0000350D06230BD0000FFFEFFFCFDF7FFC0FD
:1016D000F0B504460D4600200021092D11DDE0681B
:1016E000A5F10A0606EB4607072606FA07F1884326
:1016F000A5F10A0606EB460603FA06F10843E06088
:101700000CE0206905EB4507072606FA07F1884338
:1017100005EB450603FA06F108432061072A0FDAB4
:10172000606B561E06EB86071F2606FA07F18843F4
:10173000561E06EB860605FA06F10843606322E0B2
:101740000D2A0FDA206BD61F06EB86071F2606FA36
:1017500007F18843D61F06EB860605FA06F1084313
:10176000206310E0E06AA2F10D0606EB86071F2653
:1017700006FA07F18843A2F10D0606EB860605FA84
:1017800006F10843E062F0BD816841F0804181606C
:10179000704700000246DFED310AB0EE600A00201B
:1017A00000BF09E002EB8003D3ED000A70EE800A6F
:1017B000B0EE600A431CD8B28842F3DBF1EE000AB7
:1017C00080EE201AB0EE410AF2EE000AB4EEE00A12
:1017D000F1EE10FA04DBDFED220AB0EE600A3CE025
:1017E000F1EE0C0AB4EEE00AF1EE10FA0BDBF2EEC9
:1017F000000AB4EEE00AF1EE10FA04D2DFED190AA5
:10180000B0EE600A29E0F1EE000AB4EEE00AF1EE73
:1018100010FA0BDBF1EE0C0AB4EEE00AF1EE10FA6E
:1018200004D2DFED110AB0EE600A16E0F0EE080A0D
:10183000B4EEE00AF1EE10FA0BDBF1EE000AB4EEC2
:10184000E00AF1EE10FA04D2F0EE000AB0EE600AFF
:1018500003E0DFED060AB0EE600A7047000000000A
:101860009A99894033335340333313406666A63F19
:101870002DE9F041B0EE403A0746884644463D46E1
:10188000984890ED000AB5EEC00AF1EE10FA02D1C8
:1018900080ED003A1FE19348D0ED000AB0EE430A14
:1018A00000F03EF90028F5D08F4800688F490860A5
:1018B00068782978C1EB011100EB8100C0EB0010C2
:1018C000A97801EB80004FF47A714843E97801EB85
:1018D000810100EB8106864806600068834909683B
:1018E000401AFA287EDB834890ED000A8248D0ED4A
:1018F000000A30EE600A8148D0ED000AB4EEE00A3A
:10190000F1EE10FAEEDB7A480068774908607C480F
:101910000078401C7A4908707A480068401C794970
:10192000086079480068301AB0F5FA6F7ED308462F
:101930000068012806D194ED000AF1EE040AC0EE19
:10194000202A3FE06F480068022806D194ED000A83
:10195000F1EE000AC0EE202A34E06A48006803284D
:1019600006D194ED000AF0EE080AC0EE202A29E024
:1019700064480068042806D194ED000AF0EE000ADD
:10198000C0EE202A1EE05F480068052806D194EDCD
:10199000000ADFED5E0AC0EE202A13E05948006815
:1019A000072802D1D4ED002A0CE056480068082828
:1019B00006D194ED000ADFED550A60EE202A01E021
:1019C000DFED532A4F4890ED000AB8EE400A20EEB2
:1019D000220AF0EE000AC0EE204A90ED000AB8EEAE
:1019E000400A00E04DE020EE224AD4ED010AB0EEBC
:1019F000001A80EE810AF1EE020A64EEA00A20EEDF
:101A0000200ADFED440AC0EE203A434890ED000A78
:101A100030EE230A80ED000A90ED010A30EE040A50
:101A200080ED010A38480660002000E001E03549F9
:101A300008603348007805280CDA2D4800682B49E7
:101A40000968401A40F6B831884203DB00202C496F
:101A5000087016E02A480078052812DB2448006840
:101A600022490968401A40F6B831884209DC2A4800
:101A70008068234909780844274988600020204964
:101A800008701B48006819490968401AFA2822DBC7
:101A9000184890ED000A1848D0ED000A30EE600AB0
:101AA0001E48D0ED000AB4EEE00AF1EE10FA12DBA7
:101AB0000F4800680C4908600E48D0ED000A0E4837
:101AC00090ED001A70EEC10AB0EE600A01F0A2FAC1
:101AD0000A4880ED000A034880ED003A0E48BDE850
:101AE000F081000060510020645100206851002006
:101AF0006C5100207C510020805100208451002036
:101B00009051002094510020985100209A99993FBB
:101B1000000000000000E144805200208C510020B1
:101B20001F4800781F490870B4EEE00AF1EE10FA81
:101B300008DB01201A4908701B480068401C1A493C
:101B4000086009E000201649087017480068174926
:101B500008600020144908601148007890B91148C5
:101B6000007878B11148006802280BDBB3EE041A44
:101B7000F4EEC10AF1EE10FA04DB0D48C0ED000AE4
:101B8000012070470748007838B90548007820B12F
:101B90000848C0ED000A0020F3E70020F1E700004C
:101BA00071510020705100207451002078510020A4
:101BB0007C51002080510020F0B50A46002100230E
:101BC000002400BF3DE0012505FA01F3156805EA90
:101BD00003049C4234D105684F000326BE40B54340
:101BE000056015794E00B5400668354305601579E6
:101BF000012D02D01579022D16D185684F000326DC
:101C0000BE40B543856055794E00B5408668354382
:101C10008560456801268E40B543456045689679E4
:101C20008E40B6B235434560C5684F000326BE40BE
:101C3000B543C560D5794E00B540C6683543C5602B
:101C4000491C1029BFD3F0BD0246002013690B4088
:101C50000BB1012000E000207047418370470183F1
:101C6000704700001CB500F01DF80121042000F0B1
:101C700093FD4FF40050009001208DF804000020E7
:101C80008DF8060002208DF8050069460448FFF72C
:101C900093FF4FF400510248FFF7DFFF1CBD000027
:101CA000000802401CB50121084600F075FD042023
:101CB000009001208DF8040000208DF8060003201C
:101CC0008DF8050069460A48FFF776FF022000906C
:101CD00001208DF8060069460548FFF76DFF0421D5
:101CE0000348FFF7BCFF02210148FFF7B8FF1CBD06
:101CF000000002401CB50121022000F04DFD4FF410
:101D00008070009001208DF8040000208DF80600FE
:101D100003208DF8050069460B48FFF74DFF4FF48F
:101D20000070009001208DF8060069460648FFF714
:101D300043FF4FF480710448FFF791FF4FF40071A7
:101D40000148FFF78CFF1CBD000402402DE9F04163
:101D50000546884614461E4600F002F9002141EA75
:101D60004501C8B200F0C8F800F038F8074627B1BE
:101D700000F01AF90120BDE8F081404600F0BCF8FF
:101D800000F02CF807461FB100F00EF90220F2E730
:101D900000F0E6F8012101EB4501C8B200F0ACF813
:101DA00000F01CF807461FB100F0FEF80320E2E740
:101DB0000EE000F03DF83070012C03D1012000F05E
:101DC00069F802E0002000F065F8761C601EC4B2DD
:101DD000002CEED100F0E8F80020CCE710B54FF46D
:101DE00080711248FFF739FF4FF400710F48FFF779
:101DF00036FF052001F078FA4FF480710B48FFF7A9
:101E00002EFF4FF400710948FFF71EFF30B14FF469
:101E100080710648FFF721FF012010BD4FF480714B
:101E20000248FFF71AFF0020F7E700000004024015
:101E300070B500244FF480711548FFF70EFF4FF482
:101E400000711348FFF70BFF002518E04FF4807175
:101E50000F48FFF702FF052001F046FA6006040E66
:101E60004FF480710A48FFF7FAFE4FF400710848FA
:101E7000FFF7EAFE08B144F00104681CC5B2082D62
:101E8000E4DB4FF480710248FFF7E7FE204670BDA7
:101E90000004024010B504464FF480711548FFF766
:101EA000DCFE052001F020FA012C0BD16102114863
:101EB000FFF7D5FE012001F017FA21020D48FFF7C8
:101EC000CEFE0DE064B94FF400710A48FFF7C5FE7D
:101ED000012001F009FA4FF480710648FFF7BFFEB8
:101EE000052001F001FA4FF480710248FFF7B5FEBA
:101EF00010BD00000004024070B50446002524E037
:101F00004FF480711548FFF7A8FE052001F0ECF9A9
:101F100004F0800028B14FF400711048FFF79FFED5
:101F200004E04FF400710D48FFF797FE012001F027
:101F3000DBF94FF480710948FFF791FE052001F0AD
:101F4000D3F96006040E681CC5B2082DD8DB4FF427
:101F500080710248FFF781FE70BD0000000402405E
:101F600010B54FF480710F48FFF777FE4FF4007102
:101F70000C48FFF774FE4FF480710A48FFF76FFEBC
:101F8000052001F0B1F94FF400710648FFF765FE36
:101F9000052001F0A9F94FF480710248FFF75DFEBA
:101FA00010BD00000004024010B54FF480710C48D1
:101FB000FFF753FE4FF400710948FFF74EFE4FF450
:101FC00080710748FFF74BFE052001F08DF94FF4B3
:101FD00000710348FFF743FE052001F085F910BDAD
:101FE000000402402DE9F04706460F469046994608
:101FF000FFF7B6FF002141EA4601C8B2FFF77CFFB8
:10200000FFF7ECFE054625B1FFF7CEFF0120BDE846
:10201000F0873846FFF770FFFFF7E0FE05461DB179
:10202000FFF7C2FF0220F2E700240DE019F80400D8
:10203000FFF762FFFFF7D2FE05461DB1FFF7B4FFC1
:102040000320E4E7601CC4B24445EFDBFFF7ACFFBC
:102050000020DCE71CB50121084600F09DFB0120B3
:10206000009000208DF804008DF8070002208DF804
:10207000050069460148FFF79FFD1CBD00000240B6
:102080001CB50121084600F087FB8020009001204C
:102090008DF8040000208DF807008DF806008DF8FB
:1020A000050069460348FFF787FD80210148FFF7D7
:1020B000D6FD1CBD000002401CB50121022000F02D
:1020C0006BFB4FF48060009001208DF8040000202D
:1020D0008DF807008DF806008DF805006946044864
:1020E000FFF76AFD4FF480610148FFF7B6FD1CBDA4
:1020F000000402401CB51AA103C9CDE90001FFF795
:10210000F9FD032001F0E6F86B4601226B216820FF
:10211000FFF768FF642001F0DDF80DF101030122F3
:102120006B216820FFF75EFF0DF1020301221921E8
:102130006820FFF757FF0DF1030301221A216820E1
:10214000FFF750FF01AB01221B216820FFF74AFF78
:102150000DF1050301221C216820FFF743FF1CBD80
:10216000800107041800000000B52DED048B83B03A
:102170003B2000F03DF809EE100A3D2000F038F851
:1021800008EE100A3F2000F033F808EE900AB8EE8F
:10219000C90ADFED160A80EE201AB2EE040A21EE1B
:1021A000000A8DED000AF8EEC80A9FED101A80EEC5
:1021B000810AF2EE040A20EE200A8DED010AF8EE03
:1021C000E80A9FED0A1A80EE810AF2EE040A20EE78
:1021D000200A8DED020A9DED000ADDED010A9DED5C
:1021E000021A03B0BDEC048B00BD00000000804665
:1021F00038B504466B46022221466820FFF7A6FD4B
:102200009DF801009DF8001040EA012000B238BDA1
:1022100013B584B00121080700F0CEFA012000F0C8
:10222000B5FA012000F008FB4FF4007000F010FB3D
:10223000012000F001FB00BF612000F0DDFA002862
:10224000FAD0012000F0FEFA002000F0EBFBFF289E
:1022500020D07F200290FF2003900020019001A851
:1022600000F0AEFB9DF817309DF816209DF8151074
:102270009DF8140000F0C4FC9DF813309DF8122066
:102280009DF811109DF8100000F0A8FCFF2100201F
:1022900000F0F8FC06B010BD70B5002100230F223D
:1022A000C4781CB3174C246804F4E064C4F5E064FB
:1022B000C4F30721C1F10404E3B20A4144789C400D
:1022C000E1B28478144021430C07210E0E4C0578AE
:1022D0006155047804F01F050124AC4005786D11A8
:1022E000AD0005F1E025C5F8004109E0047804F0EF
:1022F0001F050124AC40054D0678761145F82640AF
:1023000070BD00000CED00E000E400E080E100E0C2
:1023100070B5002419E004F1B001C8B2002100F04A
:10232000E3F90021084600F0DFF90021102000F059
:10233000DBF9002505E00121002000F0D5F9681C3B
:10234000C5B2842DF7DB601CC4B2082CE3DB70BD82
:102350001CB50121084600F01FFA0121022000F0FF
:102360001BFA42F2A800009001208DF80400002022
:102370008DF807008DF8060003208DF805006946EA
:102380000548FFF719FC4FF40040009069460348E8
:10239000FFF712FC1CBD00000004024000000240D8
:1023A00010B5FFF7D5FF4FF400414148FFF755FC4A
:1023B000642000F06CFF4FF400513E48FFF74FFCE3
:1023C0000021AE2000F090F90021084600F08CF9C1
:1023D0000021102000F088F90021402000F084F94D
:1023E0000021812000F080F90021CF2000F07CF94D
:1023F0000021A12000F078F90021C82000F074F934
:102400000021A62000F070F90021A82000F06CF94E
:1024100000213F2000F068F90021D32000F064F98A
:102420000021084600F060F90021D52000F05CF999
:102430000021802000F058F90021D92000F054F943
:102440000021F12000F050F90021DA2000F04CF9D1
:102450000021122000F048F90021DB2000F044F9AF
:102460000021402000F040F90021202000F03CF93C
:102470000021022000F038F900218D2000F034F90D
:102480000021142000F030F90021A42000F02CF9E4
:102490000021A62000F028F90021AF2000F024F947
:1024A000FFF736FF0021084600F05AF910BD000082
:1024B00000000240000402402DE9F047064688462D
:1024C00017469946A9F12000C5B2F019832818DDF6
:1024D000F119832291FBF2F13846FA1707EB527299
:1024E000D21002FB018101F0FF08F0198338B842D5
:1024F00001DA002605E0F019833890FBF7F0784305
:1025000086B2082F11D1F0B2414600F029F900241B
:1025100008E004EB8501624A505C012100F0E4F818
:10252000601CC4B2042CF4DBB8E0102F25D1F0B24B
:10253000414600F015F9002408E004EB0511594A62
:10254000505C012100F0D0F8601CC4B2082CF4DB10
:1025500008F10102D1B2F0B200F002F9002409E062
:1025600004EB051108314F4A505C012100F0BCF822
:10257000601CC4B2082CF3DB90E0182F3FD1F0B2FE
:10258000414600F0EDF800240AE005EBC50104EB3C
:102590008101454A505C012100F0A6F8601CC4B2DC
:1025A0000C2CF2DB08F10102D1B2F0B200F0D8F845
:1025B00000240BE005EBC50104EB81010C313A4A24
:1025C000505C012100F090F8601CC4B20C2CF1DBCF
:1025D00008F10202D1B2F0B200F0C2F800240BE020
:1025E00005EBC50104EB810118312F4A505C012134
:1025F00000F07AF8601CC4B20C2CF1DB4EE0202F06
:102600004CD1F0B2414600F0ABF8002408E004EBF6
:102610008511264A505C012100F066F8601CC4B2A6
:10262000102CF4DB08F10102D1B2F0B200F098F8FE
:10263000002409E004EB851110311C4A505C012193
:1026400000F052F8601CC4B2102CF3DB08F1020257
:10265000D1B2F0B200F084F8002409E004EB851157
:102660002031124A505C012100F03EF8601CC4B2D7
:10267000102CF3DB08F10302D1B2F0B200F070F8D5
:10268000002409E004EB85113031084A505C012137
:1026900000F02AF8601CC4B2102CF3DBBDE8F08710
:1026A0000C0000208801002078070020D4140020AE
:1026B0002DE9F0470646884615461C4600270EE0E1
:1026C000A94605EBD971491007FB016188B223784F
:1026D0002A464146FFF7F0FE641C781CC7B22078FA
:1026E0000028EDD1BDE8F08770B504460E462021E4
:1026F0001948FFF7B2FA80211748FFF7AEFA2EB15A
:102700004FF400411548FFF7AAFA04E04FF40041E6
:102710001248FFF7A2FA002517E008210E48FFF73C
:102720009CFA04F0800020B120210B48FFF797FAB3
:1027300003E020210848FFF790FA08210648FFF738
:102740008EFA6006040E681CC5B2082DE5DB8021F8
:102750000148FFF784FA70BD000402400000024007
:1027600070B504460D4605F1B001C8B20021FFF76F
:10277000BBFF04F00F000021FFF7B6FF102141EA74
:1027800024100021FFF7B0FF70BD0000014908626E
:102790007047000000000E4229B1064A1268024349
:1027A000044B1A6004E0034A12688243014B1A602A
:1027B000704700003038024029B1064A12680243CF
:1027C000044B1A6004E0034A12688243014B1A600A
:1027D000704700004038024029B1064A126802439F
:1027E000044B1A6004E0034A12688243014B1A60EA
:1027F000704700004438024010B501460022002313
:1028000000204A11012A02D10A4C236808E0022A5A
:1028100003D1084C7034236802E0064C74342368FA
:1028200001F01F02012494401C400CB1012000E083
:10283000002010BD003802400149086070470000C8
:10284000800E474201490860704700003C0E474235
:10285000002100F44072B2F5407F08D1094A1168A6
:1028600021F4F811084A02401143064A1160054A52
:1028700068321268C0F30B031A43024B68331A60C4
:102880007047000008380240FFFCFF0F014600BF00
:10289000080900EB8000420001F00F001044C0B2B4
:1028A00070470146002204E0501CC2B2A1F10A00A8
:1028B000C1B20A29F8DA100741EA10607047000037
:1028C00008B50022009200200021104A126802F090
:1028D0004002CAB9421E0D4B1A6000BF0B4A126873
:1028E00002F04001009A521C0092009AB2F5803F1B
:1028F00001D00029F2D0054A126802F040020AB164
:10290000012002E0002000E0012008BD0C2800406A
:102910000348006820F0800001490860704700000B
:102920000C28004070B506460C4600250E4800688D
:102930000E4900EA0105280CE070C5F30420607020
:1029400005F03F00A070C5F3423020705EB9E0781A
:10295000FFF79CFFE0706078FFF798FF6070A07849
:10296000FFF794FFA07070BD042800403FFFFF00F8
:1029700070B506460C4600250F4800680F4900EA6E
:102980000105C5F305402070C5F30620607005F011
:102990007F00A07005F48000000CE0705EB9207824
:1029A000FFF774FF20706078FFF770FF6070A07809
:1029B000FFF76CFFA07070BD002800407F7F7F0094
:1029C00030B504460025CA20154908605320086028
:1029D000FFF776FF00B91DE011481C38006820F0B1
:1029E00040000F491C390860084600682168084308
:1029F0000B491C3908600A491439A0680860084668
:102A00000068A18840EA0140054914390860FFF7D1
:102A10007FFF0125FF2002490860284630BD0000E5
:102A20002428004008B5014600200090044800908A
:102A3000009800EB810000900098006808BD00003D
:102A4000502800402DE9F04105460C46002600279D
:102A50004DB9607800F01000102804D1607820F0A3
:102A600010000A30607005B908E06078FFF70EFFCB
:102A70000646A078FFF70AFF064600BF55B1E0788A
:102A80000004617840EA0120A1780843217840EAF7
:102A9000413611E0E078FFF704FF4FEA0048607824
:102AA000FFF7FFFE48EA0028A078FFF7FAFE48EAA1
:102AB0000008207848EA4036CA20124908605320AE
:102AC0000860FFF7FDFE08B9002714E00E4830400B
:102AD0000C4920390860FFF71BFF0A481C380068C2
:102AE00000F0200030B900F09DF808B9002702E09E
:102AF000012700E00127FF20024908603846BDE8B1
:102B0000F0810000242800403FFFFF002DE9F04144
:102B100005460C46002600274DB92E48006800F0F7
:102B2000400000B102E00020E07000BF0DE0294845
:102B3000006800F0400020B12078FFF7A7FE0646AD
:102B400002E00020E07000BF00BF55B12078000413
:102B5000617840EA0120A1780843E17840EA014623
:102B600011E02078FFF79DFE4FEA00486078FFF7FC
:102B700098FE48EA0028A078FFF793FE48EA00088C
:102B8000E07848EA0046CA2012491C310860532008
:102B90000860FFF795FE08B9002713E00E483040A3
:102BA0000C4908390860FFF7B3FE0A48006800F0D6
:102BB000200030B900F036F808B9002702E00127FC
:102BC00000E00127FF2003491C3108603846BDE8BA
:102BD000F0810000082800407F7F7F00F8B50446A0
:102BE0000D4617461E468DF802708DF801508DF87F
:102BF00000608DF8034069460020FFF723FFF8BD11
:102C0000F8B504460D4616461F468DF800408DF86F
:102C100001508DF802608DF8037069460020FFF7BF
:102C200075FFF8BD08B50022009200200021CA22DD
:102C3000134B1A6053221A60114A183A126822F094
:102C4000A0020F4B183B1A6000BF0D4A183A1268D9
:102C500002F02001009A521C0092009AB2F5003F47
:102C600001D00029F1D0064A183A126802F0200279
:102C70000AB1012000E00020FF22014B1A6008BDCC
:102C80002428004008B500220092044A0092009ACD
:102C900002EB80020092009A116008BD50280040AB
:102CA00010B5FFF727F800F001F810BD10B5FFF7D9
:102CB00057F98020FFF720F9FFF790F80446012C20
:102CC00003D1FFF771F9012010BDFE20FFF714F9C1
:102CD000FFF784F80446012C03D1FFF765F90220C1
:102CE000F2E7FFF761F90020EEE700002DE9F0417F
:102CF0002DED048B04460E461746254695ED000A39
:102D000020EE000AD5ED010A95ED011A00EE810AC8
:102D1000D5ED020A95ED021A00EE810A10EE101AA6
:102D2000084600F023FD41EC190BB0EE490AF0EE25
:102D3000690A00F03DFAB0EE408AF0EE608A51EC8C
:102D4000180B00F0C1FB0649086039463046044ABA
:102D500092ED000AFEF78CFDBDEC048BBDE8F0811E
:102D60005C5100202248006840F0805020490860F3
:102D70002048006840F440401E4908601C4838382C
:102D800000681B4938390860084600680860084632
:102D9000006840F4805008601748091F0860081F49
:102DA000006840F08070091F086000BF104840387C
:102DB000006800F000700028F8D040F202700F495F
:102DC00008600B483838006820F00300084938399B
:102DD00008600846006840F00200086000BF044830
:102DE0003838006800F00C000828F8D1704700005F
:102DF000403802400070004010640107003C02406F
:102E000010B51548006840F4700013490860134875
:102E1000006840F001001149086000200F490831A6
:102E200008600E4800680E4908400C4908600D48CB
:102E3000091D0860081F006820F48020091F086031
:102E4000002006490C310860FFF78CFF4FF000604E
:102E500001498039086010BD88ED00E0003802406B
:102E6000FFFFF6FE103000247FB505460C46012119
:102E70004804FFF7B1FC0295ADF804400020ADF81E
:102E80000600ADF80C0001A90F4800F081F80122FE
:102E900011460D4800F072F819208DF8000002204C
:102EA0008DF801008DF8020001208DF803006846BE
:102EB000FFF7F2F90121044800F034F8012102483B
:102EC00000F03FF87FBD00000044014010B5012133
:102ED000074800F042F8012809D10648406980F00F
:102EE0008000044948610121014800F027F810BD25
:102EF000004001400000024010B50121074800F0E9
:102F00002CF8012809D10648406980F08000044966
:102F100048610121014800F011F810BD0044014052
:102F20000000024021B1028842F08002028004E0E9
:102F300002884FF67F731A4002807047CA430282AC
:102F4000704721B1028842F00102028004E0028849
:102F50004FF6FE731A400280704730B502460020DB
:102F600000230024158A05EA0103958905EA010476
:102F700013B10CB1012000E0002030BD1AB18389EB
:102F80000B43838102E083898B4383817047000078
:102F900000220288184B98420ED0184B98420BD052
:102FA000B0F1804F08D0164B984205D0154B98428F
:102FB00002D0154B984204D14FF68F731A404B88BC
:102FC0001A43124B984207D0114B984204D04FF647
:102FD000FF431A400B891A4302804B68C3620B8877
:102FE0000385054B984202D0044B984201D18B7A5D
:102FF00003860123838270470000014000040140E2
:103000000004004000080040000C00400010004098
:103010000014004010B5F0EE401A194890ED000A77
:10302000B0EE402A1748006804280CDA1648154903
:10303000096800EB8100C0ED001A12480068401CCE
:103040001049086019E004210F48FEF7A3FBB0EE19
:10305000402A01240CE00C4800EB840090ED000AAB
:10306000601E094901EB800080ED000A601CC4B2BB
:10307000042CF0DB0448C0ED031AB0EE420A10BD88
:1030800084510020885100207052002010B520216A
:10309000144800F039F801280BD1124800F06BF801
:1030A0001149124A1278885410480078401C0F4980
:1030B000087040F224410B4800F033F801280FD18A
:1030C000084800880748808800210748074A127886
:1030D0008154014606A0FDF7FFF80020034908705F
:1030E00010BD000000100140A85100200500002084
:1030F000C4E3B7A2CBCDB5C4CAFDBEDDCAC7A3BA6F
:1031000025730D0A0000000002460020B1F5007F83
:1031100000D100BF13880B400BB1012000E000205C
:10312000704770B50246002400230025002040F6B9
:103130006A16B14200D100BFC1F3421501F01F036E
:10314000012606FA03F3012D02D19689334006E0E9
:10315000022D02D1168A334001E0968A33400C12C8
:10316000012606FA04F41688344013B10CB101208C
:1031700000E0002070BD01468888C0F30800704759
:1031800003B401984100009850EAC12018BF042000
:103190004A0D18BF40F0010040F2FF72B2EB515FE0
:1031A00008BF40F00200012808BF052002B07047A8
:1031B00000B52DED048BB0EE409AF0EE609A83B02E
:1031C00051EC190B00F006FA41EC180B18EE100A3E
:1031D00018EE901A8DED008B002818BF01200843CF
:1031E00020F00040C0F17F6000F1E040C00F14D03B
:1031F00019EE101A19EE900A8DED009B002918BFE8
:103200000121084320F00040C0F17F6000F1E04060
:10321000C00F04BF0120FDF7B0F9B0EE480A03B0BB
:10322000F0EE680ABDEC048B00BD30380A2801D2EC
:103230000120704700207047014600BF7047FF2102
:103240004FF0E022916145F208214143516111465E
:10325000096941F00101116100BF4FF0E0210969E6
:1032600001F480310029F8D04FF0E021096921F004
:1032700001014FF0E0221161704701464AF210420D
:1032800001FB02F000E0401E0028FCD1704730B581
:103290000346002540F21E30834203DC1846FFF748
:1032A000CEFF16E004E0A3F21E3083B2681CC5B264
:1032B00040F21E308342F6DA002405E040F21E3070
:1032C000FFF7BDFF601CC4B2AC42F7DB1846FFF746
:1032D000B6FF30BD01464AF2104201FB02F000E0A9
:1032E000401E0028FCD1704701462A2201FB02F053
:1032F00000E0401E0028FCD17047000000BF054AD6
:10330000128802F04002002AF9D0C2B2014B9A8022
:1033100070470000001001402DED028B92B04E4925
:1033200003C9CDE910019FED4D0A8DED010A9FED16
:103330004C0A8DED020AFEF7A3FEFEF78BFEFEF7A8
:10334000BBFE44F29F1142F20F70FFF78DFDFEF7B6
:10335000F3F8FFF725F8FEF7EFF8FFF7A1FCFEF70B
:1033600081FCFEF7C7FEDDE91001FEF751FF72E0B8
:10337000FEF7FAFE8DED0D0ACDED0E0A8DED0F1A5A
:103380000CA90020FFF7F4FA0BA90020FFF7CAFAF6
:103390003448807834490978884207D031488078A9
:1033A0003149087000202F49C87004E02D48C078CA
:1033B000401C2C49C8709DF830002A4908709DF8BF
:1033C000310048709DF83200887001AA0DA8FFF7FF
:1033D0008DFC2649D0E900238068C1E9002388607C
:1033E000084623A1826803A8FCF782FF03AB1022E2
:1033F00001210320FFF75CF91C4890ED000A10EE54
:10340000101A084600F0B2F941EC180B53EC182BD7
:103410001AA103A8FCF76CFF03AB10220321084696
:10342000FFF746F9114890ED010A10EE101A084610
:1034300000F09CF941EC180B53EC182B13A103A8D6
:10344000FCF756FF03AB102205210320FFF730F9EC
:103450001420FFF712FF8BE7683800089A99D93FCC
:103460000000864201000020000000209C51002046
:10347000537465703A253035640000006B616C3A16
:1034800025302E3166204B414C0000006469733AB0
:1034900025302E3166204D200000000010B5002997
:1034A0000AD00878002807D005487844FDF748FC82
:1034B000002801D0002010BD0248784410BD000053
:1034C0008E0400008604000021F00042A2F1605248
:1034D000B2F5801F01F0004328BFD2F17F6C0BD9F9
:1034E0005FEA001C43EAC20242EB507018BF70470B
:1034F00028BF20F001007047B2F5801FBCBF1846FE
:1035000070474FEA410C1CF5001F02D2084600F03C
:10351000A3B970B500F009F800000089FFF7F6BF05
:103520004FF00040A0F5800070470EF1020E2EF023
:10353000030E5EF8046B364205D4012A43EB030503
:1035400015F5001F12D8012841EB010C1CF5001FD6
:103550000CD80ED14FEAD17C15F5001F0CEB4C0CAA
:103560000CF1020C08BF4CEBD37C04E04FF0080CCC
:1035700001E04FEAD37C0CEB4C0526FA05F606F089
:103580000706B6F1040C06D20EEB860CBDE87040BF
:103590004CF0010C6047DFE80CF0090B02024FF021
:1035A00000414FF00000A1F5002170BD1946104602
:1035B000012851EB010418BFD4F5001484BF00208A
:1035C00001F0004170BD0808A0F500114FEA31017B
:1035D000704700002DE9F04101F5801CBCF5001F8B
:1035E000C0F2A9804FEA115C21EA0C510CF1FD0CEC
:1035F00041F480115FEA5C0C0CF5C07C01D3400003
:10360000494130A4890241EA905187028E0E0A0C8A
:10361000A45D04FB04F602FB06F6C6F14046A4FBDB
:103620000662F60D46EA422606FB06F4A4FB0123D9
:103630005242C3F1404338BF5B1EA6FB0242002446
:10364000E6FB0324D20B42EA4446A6FB0623A1FB79
:1036500002E2A3FB07E4E3FB61426442C2F1404E95
:1036600038BFAEF1010EA6FB04234FF00002E6FBCB
:103670000E32A2FB03463400E2FB6264A1FB06E6C5
:10368000A4FB07E8E4FB61687642C8F1405838BF04
:10369000A8F10108A2FB06E4A3FB08E5E2FB6854DD
:1036A000A1FB05E6A7FB04E8E1FB648618F1200511
:1036B00056F10006A809A8F11B08B10908F03F0857
:1036C000B8F10A0F40EA86601CD901EB0C51BDE845
:1036D000F08100BFFCF5EEE8E2DDD8D3CFCBC7C365
:1036E000C0BDB9B6B4B1AEACA9A7A5A3A19F9D9B1F
:1036F0009A9896959392908F8D8C8B8988878685E2
:1037000084838281A0FB006800FB01F208EB420881
:10371000B8EB872807D5341858EB0104D5D5401CE1
:1037200051F10001D1E7341A78EB0104CDD4401EE9
:1037300071F10001C9E75FEA4C0C5FEA9C5C0DD1B6
:1037400005D34FF0000001F00041BDE8F081BDE875
:10375000F04170B5FFF7E9FE6DDBFFBEBDE8F0415B
:103760004FF00000004970470000F87F43004FEA27
:10377000D30C4FEA3C0C43401FBF40070CF1605193
:1037800013F0FE4F70471CF0006F03D100200CF0C7
:10379000004170470CF0004343EA507010B540EA16
:1037A000CC0000F00EF800BF000000924FEA0001CC
:1037B000FFF709BF4FF000414FF00000A1F50021D5
:1037C00070470EF1020E2EF0030E5EF8044B2442F9
:1037D00004D44FEA4102B2F17F4F11D84FEA4003BF
:1037E000B3F17F4F0CD80ED14FEAD07CB2F17F4FAE
:1037F0000CEB4C0C0CF1020C08BF4CEBD17C04E040
:103800004FF0080C01E04FEAD17C0CEB4C0324FA9A
:1038100003F404F00704B4F1040C06D20EEB840C9C
:10382000BDE810404CF0010C6047DFE80CF00708E1
:1038300002024FF00040A0F5800010BD0846420093
:1038400018BFD2F1807288BF00F0004010BD4FF069
:103850004070E1EE100A7047FF2141EAD050C005E8
:103860007047FCF7C0BF000013061B0606061400D5
:103870000400000800000000000000020001000039
:103880001000000002400000000000A00000000046
:1038900005400000000000C8000000000C400000CF
:1038A0000000409C00000000194000000020BCBE49
:1038B0000000000034400000BFC91B8E000000045F
:1038C000B5400000504BCFD06607E2CF01000000AA
:1038D0006C4100003E8251AADFEEA73401000000D7
:1038E000D9420000DCB5A0E23A301F97FFFFFFFF8E
:1038F000B4450000FD25A0C8E9A3C14FFFFFFFFFAD
:10390000FF3F00000000008000000000FF3F0000BB
:103910000000008000000000543900080000002072
:103920009C510000C40100085C5B00089C51002011
:1039300054070000280200081C000000430000009B
:10394000F8FFFFFF0C0000000E0000000F00000059
:103950002E000000F2000120195E0000040602247F
:103960003C243C004CFE001E7A5E78705E3E4800AF
:10397000061C10147C82423C000018103C181010E9
:103980007C1000C000001001102200400000807078
:103990001C023844380000447C406C544C004454B1
:1039A0006C0030687C604C4C7C007804100600048D
:1039B0007C006C14135C54411300484C12C849102D
:1039C0000424421801101800422418000C540C3C26
:1039D0007A767C40383840447C7C003844444B1133
:1039E00050110C22401020046464200C1160100956
:1039F000448084FC04007C4418300544007C602032
:103A000022047C1004407C5C2812F83410083C40EE
:103A10004C547C00042C214010120C30300C1C241F
:103A20007C0C6C106C000448704864A020090000F5
:103A3000FE00000638C007100600010001800121C9
:103A400009101E68687840007E7800704848007849
:103A50004A7E0000787800487E4A00F8A8B8C8423C
:103A600018100B00487A400088FA00007EEC10091C
:103A7000427E407808780848241370481C300BF8C0
:103A8000F80078C8F8004878483843087C081007E0
:103A900018202018186828200830480088D83808CE
:103AA0001C0411100010FE820000FF0082FE1000B6
:103AB00001010202885700F8913233061004100CFD
:103AC000020385A7100440C078031558133F040370
:103AD00014090000708888FC083054100D2020FF65
:103AE000211E00F008F08060183E1005310C031E06
:103AF0001011111388700FE00C1E21232C1927219F
:103B00001000120E703004E018046014040718202E
:103B1000D13005020418E06820042018076F600CFB
:103B20004080F0804040000202010FAF31201301BD
:103B3000011173010146CB90704F32010181B873BE
:103B400030307113C038B832605F117E1005100834
:103B500008107220070F102020100FF146100110DE
:103B60000620203F2020E012080112F04010052816
:103B7000242221E812300F21D210071820212122FF
:103B80001C792004804030311016060524243F247F
:103B90002400F8888888080800001920202011ECEB
:103BA0001406E01088889048130F11111A1FC511D0
:103BB0003F26682133003EBD43708850431C22508D
:103BC00043F008902006011222221190C00400C088
:103BD000C0C2668038510F100440201070100601DA
:103BE00002040810B03240011548310113000015DD
:103BF000224032112513040272437048C01150262E
:103C0000370C140530C828E8003408071827282F77
:103C100028171E2580200A203C230202273820086E
:103C2000D0119F250D21D026C000270838AD1530B2
:103C30004005080008F8B03120154021303004E874
:103C4000081030A0042320181033000370313F31D6
:103C5000402004221E024011A41009F808203F2130
:103C600001012125220852857F5200111EC029031F
:103C7000227F0E2007F888C028180870400501260A
:103C80003820405200A0132030201EF80F032120BE
:103C90002004013E014F4004F830C0601220E43699
:103CA0003FEF21B025EF41B045E031809301002086
:103CB0003006282830504FC0250131C034040C3064
:103CC00020B021C14A380032189F42188231A041E9
:103CD000D023001F901C061F0008788873041D7CE9
:103CE0000314050007380E7F12089F2200241405D4
:103CF000033E013E114014081868808068180820AF
:103D0000302C03032C30200838C82F5150218F212C
:103D10003F1C0520382621CF032DA00336FED834C2
:103D20000400007FE85B04381F2F0001570425F8CA
:103D30002D5B04290825301D55050C0410020204D2
:103D4000E503528001F2001E3D910419C0140424C1
:103D5000241240400410F000104B3F11D061212A82
:103D60000ED042114A1E90200321F02210B34DD2F2
:103D7000041004001F2401195094078080E09090E3
:103D800020D041774008006B949494936060110FA9
:103D9000158041F3AC048098987F0321613112595A
:103DA00001119031311406203F2406298FEDAF0315
:103DB00061D7214B2103112BC16071A045A0312097
:103DC000216583FF91E02D630321E03391FF4C31A6
:103DD0005019A11E20B10571C02233E03219E0450F
:103DE00031250252104D7680106140293D430C036D
:103DF0005D21123009010E300C07380601CD31A1CA
:103E00004406310E2E31200D21751005818678185B
:103E10001F51D13C06000021302C800429024AFCAD
:103E2000012F013EE9032DCE05411721084C040264
:103E300002FCA7054E405F041F000236050E120467
:103E4000E705011D018BF0F0138F770F48056B1C00
:103E50001C28100560301C8C04021C0C47610510E6
:103E6000058383FF83011004FB8783B93E1F9E05F2
:103E70003E1FBF053C0880C06020F820E0E5043C00
:103E80000903070C18FF71E1810F061C070F1210C0
:103E90007F100F05061C04C03010C5031D7B043DB8
:103EA000250630071018CF38C631122E0023062100
:103EB000122D2A064C05E0F010F013053C08C0E076
:103EC000173FF8C70338041F070F33081007130FF5
:103ED0000E191010A90004238C4C38FD1F80602E91
:103EE0000545559EFE440615C51D4E051D7403ACC3
:103EF00005081060806C065EFE1C07272010E48D0C
:103F0000DB064AC01A500C6666243810FF183C24A1
:103F1000666648A16C45582DD1083310FF06011084
:103F20002405125A0115CC7210010525E9761CD220
:103F30007D91074638D41D5C0941A93E60BB046DE4
:103F40003A0415B0332060DA3FFEFFC3061F01FFBD
:103F5000D4081C0401070E9D094C05180E07017DAD
:103F6000048FC0E0520883FFFF9D431F1FE21DB76F
:103F7000066220481E0319032C05C060301FF1079C
:103F80002405181C12110B3E1EFA0671231DD007C2
:103F90001D9A073C04182FE77C04220E2270041897
:103FA0000F07943EE034085C09C0A098848380FF2A
:103FB000FFC30442006E21D24220013DC9042D53AB
:103FC000053A182B23070B6A331C0FE62380C09297
:103FD00039887004FCFF21251A0193154E320825FB
:103FE00021FB21253E60BD092DBB087183971F1F52
:103FF0001F5521180A83CF6C1810303068CFF48019
:1040000004070F08B531D93620441C041F3F60B1A6
:1040100007272010447004000C1C6B051AA705101C
:10402000B345FC9E0C8C03BAD81E2D25082DDC0848
:10403000A804284482D03D3508CD870B724401E99D
:10404000594D480889F53004824428544D58085D7C
:104050008C0885D61E07BA0B5405E0101808A67107
:10406000C02C08C0E020109090A041033C09FEFF46
:1040700000F8FF03FC07DA0719405C05111111096C
:104080006C0A6B8060401C0880784740415FF053A9
:10409000053C04101C131C031C04111F1861082686
:1040A000E0D54E601D092EFF3903491D4961556851
:1040B00045D41360E06C4AFCAC3D7C0349AC1F1056
:1040C0000891054220484A406549A929D059A92AA2
:1040D00008D04123198A21B4316B1E106505620195
:1040E0006B19F6021C0624CD3C034D900931901D3E
:1040F00027031EC3DD0A51901E0F7F0A21483DD0C1
:1041000008210841481D170432FF483586310852FE
:1041100020B70D196003011625150D700580C07FAD
:104120003F642C0500A0E06069088008FFFF300CA8
:104130003AE18064640400131E67FDC803E200FCDA
:1041400045D9214F2408FF0FFFE0807C034A12105D
:10415000AB1DC00551B326E0861D3C032DA6072CE0
:1041600007FF01071E78C0B1061DA3032DA2030C93
:104170000414030F1F5C049E005C04960C8C35B184
:104180003FFFFFF509040412101F0F680113488454
:10419000081911173C6C6721D466C0D4700470D024
:1041A00008AD112A21FD5DCC033E402C0424080FEC
:1041B0001C18383070E0237F070CCC0367806067E1
:1041C000980460800143AD7E0465D5322006558891
:1041D000396A3D9E061F1008E40619A53D1E0936E2
:1041E000A08D1804077EE0F86DDF044F071E8705D9
:1041F000214031282109140803FFC0C03C3FF06B67
:104200003D7E041D5B083D3F05514945671D9A06EB
:104210003C05877CE886680C640510181601D451AB
:104220006C32206D3C06010F3CF8E06B08B1B43FE6
:1042300080E0C80422A04E2D870830046018066A6A
:104240005405101C1711F84D8C081204019D8108AB
:104250006DD7064E7F870C1D670CAEC0A304AC045F
:104260000718E03A072C04030C70D10521449EFC8A
:10427000830E6DD2087E40C60A2D090C2DCA0A0E87
:104280003008CA087DEC0A5DFA0900042A04040813
:10429000461C0498988414052EFCE40D3C040F1F62
:1042A000190B0618041F1018D09D21092C09FFFFB7
:1042B000180804040CF8E9083E1FE905EE18C505C6
:1042C0001004E0F818E53E3C96052C04030F0CA200
:1042D000075608433D17032D24091004E0F81C2459
:1042E0003E0886044A031B114EED9E079009F8888C
:1042F0008484848CF8E0498E049A072DC106154EFB
:1043000067FFFF97AD1304AD13062C0870F88C04FB
:104310000CFCF434062C08707ECF85858DCD1F10E3
:10432000E1D811D73204FC4D79046D87041D48048F
:104330005660D221210E12FE800431250110269FE5
:10434000C0C08104B54430058040E01CB54DE50493
:1043500039AC4DC7040E1CF04C089960100504FCE4
:10436000FC08B111044EFC0B065104011025011587
:10437000D875B01404F0180CD33D040855B0E60C01
:10438000D4514835F81D77087F88904D08A5AF3582
:10439000D467F8FCD4139088EAC14715421EFC9FED
:1043A0000F000415041C18D62D2F102C083878CCBB
:1043B000C484840CC7121E009D046C051011191FC3
:1043C000970B86C06585F829AF21B5DD24084587A0
:1043D000558D1E0F4A070911641C05040C7CC47915
:1043E000074B740C42FC04031F0C92081C0C041CA9
:1043F000F48004ECFC8400E41C4D1122018BFF0FBF
:104400000F91083407040C3CE4C024D51D6809E46E
:1044100007120101131C18B113043C6C37C43CF99A
:104420009C05C080817F6B0A7D7512111E5FC4746C
:104430006A0C1C04181E13210A8E1847127EF8807D
:10444000049C041028C7CA084E3F8004ED9904015B
:10445000120C9C040404F891126BC728C17C044020
:10446000403F5C091D590F04041004081851014E07
:1044700001BC04C0C0C03205B8050FFFFF1F09C250
:104480001F0F7C04060F0F48041D090B3004783CF5
:104490001C054DB00C62010501287F9107100638FC
:1044A0003838F83F0541071D2804200570F0FF70DB
:1044B0000131073963596A9D3E101F40F0B4136DF6
:1044C000A4121C051E7FF0C0E6075A0C1C21DB4C11
:1044D0000701FF07071EFCF9031F03078C054005B2
:1044E0007F080C06A41D830B5D320D3DD6092E7E80
:1044F00008055C05FF7E00E0870C3C0F000103020D
:1045000083611C03F8FE030103FEF70F3D6F0D1DD1
:10451000A30B2E081C08414296403E6C077FFFC04B
:1045200080603F27031C0CF8FC03030F3E78E080FB
:1045300081713B14214F1F060CCE123C0705030767
:104540000E0C0CDE069C051C1CFC78EF0D062C02E4
:104550003B9DF80D6F6030400E1D4A0FBBFC0FD322
:10456000DC041F7FE027032D640C4D580EE004305F
:1045700060C01CCC040FFCF00006890F1D241551EF
:10458000F80D15DC0D1DB2082C0A604086FF8F4027
:10459000603038A4120C0E27181C0C0602F1FFE143
:1045A00002060C1C180B10DEFE5515EEFF5C1509FB
:1045B00036EB0C062980C7473F1EC907B201010D23
:1045C000416C03BD3C03CD86038670207404C0702B
:1045D0001C66A10C04041000301C7E29827D290D6C
:1045E00047F0FEFB3C040107FE09115F3FFF5F033C
:1045F0004F80FF59045983AE06A403C380C0F29DC7
:10460000760BED860B1D2E151E085C0329C68D82C8
:104610000D2D7D0F5D93125F1E19D3046C04C1FF35
:104620003EA20D3F30186F033DE10350040E0D0C08
:10463000016F0E03BF03313F6D42064DB7034004C7
:1046400080C17F3F2D6E0D1D79174C04030206C1FA
:10465000033DC0031D4303CF0406F710AEC04A114B
:104660006F0C0300102F302CC5141D29188EFFBCB1
:104670000C21C3730F0FC172C0015DD312B1915FE2
:10468000C0C3C50D3F01FFE712530304809F07031A
:1046900081047E4081042405E0FC07819043C083AF
:1046A000DFB0047FFF83401D3B043580620CC0C235
:1046B000C08055167D1F0B3DE70CCEFCE207CDF701
:1046C0000635FF71B01C043E7FF1EF081D50122F1C
:1046D000417FD0102405F0FC0E023F4F070E01056C
:1046E0001D810475409201BE694063FCFFD74DEF08
:1046F00004113A420C2F3FE17F300D4004070708B8
:10470000BE0D1905041D970DCD5404DDBA030D1817
:1047100004037D9006ED5919BD480A0F126E7EC341
:10472000039F80409E188D2110EC0403040848105C
:104730006D8810011145B2200139EE910101117609
:1047400001145ACDBA1041926E03530CDDC10365BA
:10475000814DB913CC053C3F3900020335D6AE0379
:10476000591ADD44044901697F1C0C0E0381E0786D
:104770000C04F83C0106201C1E1FFF0310063F7F9F
:1047800040203C043F18874103FE064103CDFF074C
:104790006C07C07C03033FFCF3192F80782A032C9D
:1047A00005080B7FF807131DFB035D37031D42034C
:1047B0003F0C084F10BEC000046D6D0E7DC1035E3E
:1047C000FFBC054DC1035D7A03B94351C03D1517C8
:1047D0005FE0FC7A0E297B9E0EBF047D220871C02B
:1047E0003D03126180717F7DFA136DC6067D0A1448
:1047F0002EC0C60661802F0C04021491C02109B19D
:10480000C01EE0DE1891C03F030F381581C0A0051F
:10481000080C0E0140021DC0404DAD134D7A040935
:1048200011007D3F045D17052200FE45C04D2F0A93
:104830004FFCFC5E0D4DBF054208C041BF81C9ADB4
:1048400031114D5A12657F4DD505817F710A41BCEA
:104850006D3B0F0D10F0050D11000655049E003341
:104860000F0126421C0470F0F0BE195C04C0603FCA
:10487000BC1461B771C821B7880480E0189D1EFF81
:104880009204C406030F3CF0C040A406090F0E08B2
:1048900008010121BC0510C025B75DE9055680401F
:1048A0002F0FFF3C181D0B1155401D6A0C4405FECF
:1048B000C0F00F5015BF2D491B6A0F4991401DC410
:1048C0000631402D68124D71107EFF751141145153
:1048D000405D770608041101070F008DBA091D8697
:1048E000098AE00039C09E3F00035DBF039980CD77
:1048F00080031C04000081C80A35404D981D4DB945
:104900001E091E80B1801DF91A3F3FFFA0073D52CE
:104910000631804E0181070C07270F3F7663611037
:104920000004D404073FF9C04601C08DBF064D8482
:10493000084C053E7FE1C04B0825651D63192DAB72
:10494000205C060103030706C10B5E0FC0066DC1A4
:104950000B3DFF035D04042D141FAD12130A140751
:104960008E9504BD40033DDB1A9D4003D93FAEFF49
:10497000BF076D821639805DA62041093F07FF27DA
:104980000C8D4C131D4F0D92F00E31C56D65074116
:1049900035910632013E22F3064EC0B0091C053F98
:1049A000FCE01E9209B004FCF00F3D55A771806138
:1049B000C0496C8FC030161A1D48137C04070F7C49
:1049C0004003370E0B771D40033DC0055EC0410418
:1049D00071401C04031F7CBD169F80708019BF03AB
:1049E000FF931AC9448EC00105214845974C04C065
:1049F000F03897192D580353703CF02D80035C0458
:104A00000E0F093F057E0CA40CCFF8F85F070D1AB6
:104A10007F043D670F8E3F5C19FF0060DB0CDC04F8
:104A20000F3CE095076F0107400491131E3EFF22E3
:104A30006DE107031CF8F87289064D21089F3F3F7E
:104A400033081F101CCE0A00046118200001D28018
:104A5000014DCB110004480C0810623DC0187D04C4
:104A60001B1C04C0E33351192DF00A4D0F055D0FD7
:104A70000A1D7B141D5E1A1D4E14CD761B6D551339
:104A80008D27193D8106BD0E18AC050F07060800DD
:104A90000B0D11FE097E60AB1A8D95171DB21BBF61
:104AA0008000010CBD48098DFE1B6D42175DF51697
:104AB000D2FE7F5D40070C071404020F0704044A6E
:104AC0000F7E40EE173D711C5E11E01C6F1F1E41F2
:104AD000105D120BDE0143053D45182D6D0C3EFEA9
:104AE00025180C04122003037F04FD3F07011480E6
:104AF0004C0460C0A0CA143C04C7FF3073185D7B2F
:104B0000132C04387D47D51EB0068382467E3CF8C0
:104B1000F580DD10064DCF066DF707BDC4037E801E
:104B2000C50651C10F2AE1F1000851430224C043D8
:104B30002D0E1A6F808001080112C04DC0185E60F2
:104B40008C211D261A5C05180C3E71D81EAD00087C
:104B50002D800A5D7E080E26E0BF030116C06D168B
:104B6000174FE0F0931D6D991D6D45095D9A082D55
:104B7000BE09B20006ED0F0C1988052F80091A80B6
:104B80007D451C3DF31E8D00039D800E0124803D5C
:104B9000D71A1D1C232C05FFFF86847F05011440B6
:104BA0007DC11C5EC050030D1540032F8486F41E8A
:104BB0000112801F40409C1B3D961D6D050E1DC2BD
:104BC000090623017ECDC10351813C0680070F0CED
:104BD00018081BBFC30001080514012D2B038FF813
:104BE000FF1F060D1240064DD40E0E1204F41E6D6A
:104BF000FA178D0218C5C0713D0D1540047E204E78
:104C00001D4E20E51C2D69061DBC0A9FC038B81139
:104C10000F16010F43132D6C1B5E20261D41411CF6
:104C200009077FF080F00F1FFC7B1B5D31103D38C2
:104C30000A0715010FBF2D1B1C7EA0F61C4D090A8B
:104C40006C06473E38E6C1BC072C040C0E09C90DA2
:104C50005D400B0118C07D81032E03381D7D1115A9
:104C60002D29110F18601F2A225D2D1D1D7C1D4D41
:104C700088191E031B042C04F0381E2E113DEA1D5A
:104C80004C040C0E0B01086D00126DFD23A6084F9D
:104C90004D7A279D9412DF02FCA90FBF1F20B10C93
:104CA000DD40140129101D2A19CDEE141DB411D9AF
:104CB000DA9FFC02F6291D70209D1D171D492A1E32
:104CC00002DB141F382053210F2F2018F3241C2936
:104CD000CAB1BCE4D1AAD1B9D0C4C2CACEC2B6C886
:104CE000CAAAB5C6B0B4CFC2BCFCBFAACABCBCEC91
:104CF000B2E9B2BDCAFDCAB508041D821B7EFCB371
:104D0000232D54221F1010900B44040106402B1E2B
:104D1000F86E0E5C06F0121212F28E272DC9161EC6
:104D20001FDE20631F00211DE6082F0C0B3B282DE2
:104D3000620A1DAB27310351073DE427128201228D
:104D4000FA051F8202651E3E1F1712111F334458B9
:104D5000201DD1201EE02A2B5DF3103D7624323F2A
:104D6000231C04780001A90F280E14A4442434AD98
:104D70006624940444A41460100A0808090909FD73
:104D800009090B091C0708001060028C7E21229281
:104D9000013D0E1A1009047E01407E42427E021D32
:104DA0005C2C2DE9041DDE262005FC252624082C7C
:104DB0000F040040308F80844C55252525554C0D1F
:104DC000273140413F71402004444850C51C0550E4
:104DD000484440B00A3C0500FF2010D51D3D1E1E72
:104DE0002DF50A2D242C551E2D07241C11FF902073
:104DF000988888E98E8888A89800024281DB276C11
:104E00000980844B2810284780BC2A1DE8284F427F
:104E100082C52A8D321F3DC70F1C0E4030EF24245F
:104E200080E49C105454FF54102E141201017F2171
:104E3000512618274445455F45454400803C36FED1
:104E40003C21062D80139C0440300F470C1C05109C
:104E500010F01FD9281C0740E05847405072171C1B
:104E6000064022150816802813FE42011DA02D2899
:104E70000D1010D0FF905020504C434C50DA1D2E96
:104E8000121009FF00414458414E6032101040009A
:104E9000404424A4948C84FF848C94A424F015783A
:104EA000435F4A012E5F95291DB61E1E7C7B053E81
:104EB000FF482311301C058090884684052E2FAAB8
:104EC0001D2DBB291C04905234EB252C0634528036
:104ED000708FEF2A1C0900829A566322528E3F235C
:104EE0001404330C33D12C0A100C0484146405060A
:104EF000F4181F0C132C140C00048484444724144D
:104F00000C070C1424448404420A0C062AE060E0D6
:104F1000C080D40A6C04C0FC7C16161C050C0F1B48
:104F200019C1240C091F313B7B7BEFCFC783BB1A10
:104F30002C06FCFFCFFB7FF316EE03311C0C051E85
:104F400080F0FC1FD2268C050080F9FFCD04700490
:104F500070E8B8B90C0520E0FC1F07391BC3FC7FC3
:104F600025000B2003070F1F1F3E3C88F87F3D21C3
:104F7000BC5E87C50BDD0F2F0C0716FF1F18383CD2
:104F80000CE7281C0480E07051174F07031B19120F
:104F90000301130706011D521A1E0C641911011C8E
:104FA000041F3F70652231011D4D0BCE700E0D0C9C
:104FB000052706060F01FB180D36A60C0A2CC000AB
:104FC000100680E0FC3E0E013901100B1E3F3361DC
:104FD00061E3E7EFFCF801091F471C07E0FEFFE76C
:104FE000FD3F9529FA03010C051EC0F87F0FD32859
:104FF000940480E0FDE83C07307CF8F0F0E081109C
:1050000000041FC0F83E3D2162E9252DAC100405C7
:10501000210F8FFF7F652C0560FEFFC39B20F902E7
:105020001C04F8FF37F41C031D1030BA5807381C55
:105030000E060303025A07021C063C78D89F9FE421
:105040002BDD4317EDB8270F11080C3C1FB5FA0EE6
:105050003603F622E10B0D21951B1FE0E01814200A
:10506000077E1F87C3E343CB1C0C071F3F7D71E105
:10507000C18FBFFFF04A180D1F4B040406113CFFFF
:10508000FFFD3F701005010181F119061F03C4AD3A
:10509000CF0828090F1F3F3E7E7E7CFC7E09200240
:1050A0000714E0F8E90D237C041C0600081E1F1BF2
:1050B000EA1E1AF07421E85DF9121D95041D010421
:1050C0000C062138787030E02A1D4C04F8FC07CA21
:1050D0001E1D261D28043FFFC3090C04270E0F07C1
:1050E000801FAC0430371F961D2D691B0C0438023D
:1050F0000F073D105AC0D10528FD4D49031406F095
:105100007898F878704F6161D4041C0B7FF3C10369
:1051100083FFFE1E30304C060E1EC031257C058FED
:10512000FF791E54134D4D301DB91A1DA7200805D7
:105130001D8EC0F83C011F80E0EA039D5D191E0230
:10514000C3051C05363C7C780A040920010D176450
:10515000060C0420C0F07E3F042D4D0C2DB5031D20
:10516000B50519052270EA2D75322D7D06DC043F48
:105170006B78B805091B055F3E7FE1235D11066E64
:105180000312280D237C2E2C05607F7F306F190FB2
:10519000400E043E1259028DEE310D24FC2F1C0AE4
:1051A000E0F838D8F87C1E0721733439011F0F3F0F
:1051B000020408081F81FFFFF0F060E0001C04807B
:1051C000EFFF6414CE01DF2E3D8C0508061C83E33F
:1051D0007B1F0701DDEA051C05020E1F3707062DA0
:1051E00091030C041DF03C1F4A030E16802708088B
:1051F000042281F17F001DDA1628060686C66E3C61
:105200000229EB3D7C066A80000D242B21CEC73B92
:105210001139020A2801009E0638070C063F030FC9
:105220007C78704B2459002DD91E0F2BE0E001042F
:105230001DC50349003D46072C0718387070677F6D
:105240008A030D1F0608F806C7FF3D1E07004D9E86
:10525000240D1EC503A804C0F07C003C06061E7782
:10526000DEF8070A19000A221E000D107A060C0645
:105270001F030787F37D3D061C07C0E03019190F97
:1052800010152D040449014A600108061CE0FE1FA8
:105290006F78F70C0414103C3FC1110C072A0F3F24
:1052A000E1C38301FF030D11390708063B0306160E
:1052B0001C0C002D65331E70B5110E24C003042E86
:1052C0008001062DAC055E3100041D1A052D561710
:1052D00008081E18397F6FEFC78700080417C6FF3C
:1052E0007D000A201C00A5C40A2507004D5E0B1D89
:1052F000AA030913000C0415C7F37CA2112F103068
:10530000BE0B5E03D11F4DDC1A3E06040638063084
:105310003070606000040837F0FE3F7D78E080BFA9
:105320001F071F91104E415A220E3DE0B1240E601E
:1053300003D618EEC081280D23340A2C17701818D4
:105340000CCCCCCC0C183070F9FB0B18B8F07038C2
:10535000988C8C4A030E203032061D951B4EE0239C
:105360000A4DE11A2FFCFC46343E01BF280C051DF6
:1053700080E07F0FB00A100FB87C1E13030370F893
:1053800080F169390F0E311D281D1C047868F0AFBB
:105390001C0C091BC0CC0E377D7870F0BD071D4476
:1053A000152DA6334C06F030F090101C253D9725A6
:1053B0000C0C2319F1F131E1E0203030181C3D08CC
:1053C000EE03F50E230103030D5B811A7006D0C0B6
:1053D000E8E0F0012DB80A7D7A21B00580C8C8E068
:1053E0001CCDBB0B000614E0F0FCFEFF010004190D
:1053F000FEFCF81B1DEB3B3D891901160100061B45
:105400003FE1E33FFF013DBB38C21F3543CFC3350A
:10541000133FC37B021AFE423D690550090A1C1462
:1054200010171737F70112F9351EF8282B50047F93
:10543000C7FCA862F31B13F7C10162E367CD1F0A23
:105440005009020009030F9F3F7F34000418C383F3
:10545000FCD60E1A1FC70B1DD2251DAA0C6149854B
:105460002F237F7F380E2803812B4D6B0711010CF2
:10547000042E070703F00F0E2D80E509ADF10D1680
:10548000F0F210047F7F1F014C083F7F7FFFFEF882
:10549000F057351D3B264EE00D0D0D173806194807
:1054A00025966DB4051DC00B22F8F91D0E37CAE014
:1054B000462FFEFCC60D29892D5A241DCF09400414
:1054C000FCFCFE216EF7C63F3404C0F8FC3408052E
:1054D0001607C1F8FE822F7F0F8937856D4E7F53E7
:1054E0000E23C0F04CE0077F1F83C1F0F03B167F16
:1054F00087113011D90F12FFE3C60732F0881F1F42
:105500000FB812F71E7FC41D57243C04303078DAE0
:10551000311B008727ED9D1E2DA50E121F8D2D21FD
:10552000111DA50C250E277F0FC431161D33032D29
:1055300039111004F0F1F7082BFC7F460E1E01DB39
:105540002A01151C0D28F1131EE077310D2BF513E0
:10555000ADED104C04FF313069401DA324022FFC37
:105560004015CF2C05BBBBBB407204EF00FFEA190E
:1055700001244024059B9B99A63A012F401C0C80D6
:10558000F0F83C8EE7F7F1F9FDFD45040C0928FB26
:10559000F8F3E7CF1CF8F0CB061E3F1A22CDC40368
:1055A0000C062A3F86E0FF7F9E070C1462070F0E51
:1055B0001C193B3B3B33333B3B191C0C0E070301CF
:1055C00089201DBD140E1FFE970F0D1784124EC0AB
:1055D000C303061AFC2B1D5B090112221DEF037C7D
:1055E00005FEBFEFF3E9031D1F06FE80072C2160B7
:1055F00063DFF3228EF0183C3D21040D10E9037E99
:10560000FC4C143EFF6C0C3E035C0531012E3F88C0
:10561000059D210DEE1F74052D71051DE51A4C0623
:10562000E0F8FCBFE7B2060E16F8BA0B1D2E10BF4D
:10563000F0807C036117BC05FEFFEFFBBC04C1D703
:105640004DE7124D8004EF7F3CF92A0E157FB70617
:105650000D28310A1D74131DB8162D8C05223F0725
:105660001D940C0D19DF2B2DF60A1C09F0F838F8E3
:10567000FCFE0ECEB8070C07261F0707FFFEF870CA
:1056800012180D1C3E7E7F7FBFCFCFE3637373B3D1
:105690000C082A39393777F6E7832F3215DB819EDC
:1056A0001D7B044FF07F6E3115441C0903079FFEDC
:1056B000FCFECE8634081D4D0C0D153A145C050316
:1056C0001FFFF89B2221339D961D1005C3E7F73776
:1056D000921D4C031408717373E3EFCFBFFF0314E3
:1056E0003E08434D202B7806030F1E7CF85E8C0588
:1056F0000F3F7FF0F9181DA207DEFF4831ADA50D61
:10570000212B2D200FBF787F6B336B01038E1D146F
:10571000170C042F7F1F018F044E0F982E1D5C184D
:105720000E2F0F4A324C05031F3F7880070F1A7067
:105730003FFE181C0C44C80088A8A8FCA8A8A8888C
:10574000A43D1C08FC002090AC482832431D89333E
:105750001C088C9090F09C9090FE3C13F808201C44
:1057600011087C886C0800809C94949CE09C94B404
:10577000DC46432C08E42820208040BC5A3A1E8096
:1057800056382E84D91C1E849E431248014EF805BB
:105790003E0C0C15F848F8009868C80CC848D83872
:1057A000051C0810003F0A0A0A2A011D2C0B0402DE
:1057B0003F0101050921213F064011111C220B0A5E
:1057C000121A260000241B001B222B3422310A3718
:1057D00000043C2A2A3900392A2A3C0400201FF4FC
:1057E000455C060020170817A71F5D6F351DC544CF
:1057F0004C0422223FC246121F091004211A070836
:105800007E3B2C4A1C154848A8FC80809CA8A824F4
:10581000300080A8C88CC8A880F82745CD4E153F19
:1058200028C89C454F8868F5471DB4413D381D2662
:10583000882C1C05504CE8585342152C32A801DE28
:105840002802371DF80B2EECAB3C4EE0AC1DDC04FF
:105850000808E8642321F231F31D26291DE91D2CD7
:10586000053E003F08C73B7F000B69283DC41C5123
:10587000C41DE23B3D70441D3847213B9C073F005F
:1058800005253F05E814B0040F10383C2D3E474273
:105890003F0515241D6A488C06213F2125294421F6
:1058A00010048810F8921EF8594315F01411FCA446
:1058B000A4A4ECB4A4A4FC2000F0909090101E1FAF
:1058C000F84425491D013931BF25CC2D881C5D4B7D
:1058D000475D6047212C139498308EF0A7150D2753
:1058E0002B07140A100927100F10270007B1100703
:1058F000202B2A2A2A3F041F2B2019432506170490
:1059000003B22C04201013ED1C2DC649252125239C
:105910001C04012119FF081A01231DC83D43180763
:105920001711183DC8310D372A0D05160C1E4019E8
:10593000031F20A001261518351212BC1C1EBC9096
:105940003C1C0A94B4B414FC14B4B494CE493E2064
:105950005F2C1C0440B08CC6461F8CB07B1D140607
:10596000205CD05050FF36FCFB05221805160C1D9C
:105970000E491D644814052328282F183C05033FB1
:105980000122204A2C0D2000023A0A0A3A0E3A0A55
:105990002A3A9E493D7B392D37444D1E4A1DC0454C
:1059A00018063F120A00073906270718AD0204BD82
:1059B0000304CD0404AD0504BD0604BD0704CD08F1
:1059C00004AD09040D193A098D0204DD03049D0498
:1059D00004BD0504BD0604ED07048D0804BD0904DB
:1059E000AD9D461D72481C0830D090189090B0FABA
:1059F0004B1F90507C4D2C05385050489743125007
:105A000016EC055000F010104C211A1DF81F1D98BF
:105A1000415ED0A2325F1020594B200A1050F8503E
:105A200050A098D0B0F140054020585001ED333DD2
:105A30008EE0C72410083F447F0443340F083E77AC
:105A40008A491215013E55FA211F017D26214C0578
:105A50007D017F104C488E16A73A300704040504D8
:105A6000047F061DBF4E4E0EB0212E70AE218C0C51
:105A7000017F157F010A4A7F0A1F02E536D0041F05
:105A80002070411E1B07047E1ED9241D6B4819F38C
:105A90004D69323DDF448D773D7DEF3219FF2004A3
:105AA000A06030062D13401340E0101EE03D4F2D46
:105AB000AE3C2D2A041BB0D01C3D6F481D07306E34
:105AC00020A5243DA3419DB1240D1258382C0C1162
:105AD0000DFF098483404F20100B094820051F014A
