:020000040800F2
:1000000050090020D1010008D9010008DB010008D7
:10001000DD010008DF010008E10100080000000028
:10002000000000000000000000000000E3010008E4
:10003000E501000800000000E7010008E9010008F0
:10004000EB010008EB010008EB010008EB010008E0
:10005000EB010008EB010008EB010008EB010008D0
:10006000EB010008EB010008EB010008EB010008C0
:10007000EB010008EB010008EB010008EB010008B0
:10008000EB010008EB010008EB010008EB010008A0
:10009000EB010008EB010008EB010008EB01000890
:1000A000EB010008EB010008EB010008EB01000880
:1000B000EB0100081D0F0008EB010008EB01000830
:1000C000EB010008EB010008EB010008EB01000860
:1000D000EB010008E91000081D120008EB01000800
:1000E000EB010008EB010008EB01000800F002F84A
:1000F00000F05FF80AA090E8000C82448344AAF163
:100100000107DA4501D100F054F8AFF2090EBAE860
:100110000F0013F0010F18BFFB1A43F0010318473B
:100120009C150000BC1500000A444FF0000C10F8AC
:10013000013B13F0070408BF10F8014B1D1108BF65
:1001400010F8015B641E05D010F8016B641E01F805
:10015000016BF9D113F0080F1EBF10F8014BAD1C55
:100160000C1B09D16D1E58BF01F801CBFAD505E073
:1001700014F8016B01F8016B6D1EF9D59142D6D3CD
:10018000704700000023002400250026103A28BFF5
:1001900078C1FBD8520728BF30C148BF0B607047F9
:1001A000732900F0DD80002070471FB51FBD10B51A
:1001B00010BD00F007F91146FFF7F7FF01F048FA0C
:1001C00000F025F903B4FFF7F2FF03BC01F0D2F908
:1001D0000948804709480047FEE7FEE7FEE7FEE7DB
:1001E000FEE7FEE7FEE7FEE7FEE7FEE70448054917
:1001F000054A064B70470000BD0E0008ED000008E0
:100200005003002050090020500500205005002018
:10021000704700000FB4044910B503AA029800F01B
:10022000A3F810BC5DF814FB000000202DE9F0419C
:100230000E460446002020622046E168884730B31D
:10024000252805D0D4E901219047206A401CF2E717
:10025000E168204600278847050018D0A5F1410035
:10026000192802D820354FF4006732462946204627
:100270002760FFF795FF40B1012804D0F61D26F056
:1002800007060836D8E7361DD6E72846DAE7206A9B
:10029000BDE8F08170B50C460546012A05D02878E6
:1002A000800600D5EA69002302E0012305E05B1C1B
:1002B000934202D2E05C0028F9D1A869E618C01A7E
:1002C000A861286A184428622846AFF3008004E039
:1002D000D5E9012114F8010B9047B442F8D3284620
:1002E000AFF3008070BD4FF0000200B51346944696
:1002F0009646203922BFA0E80C50A0E80C50B1F17E
:100300002001BFF4F7AF090728BFA0E80C5048BF91
:100310000CC05DF804EB890028BF40F8042B08BF2F
:10032000704748BF20F8022B11F0804F18BF00F82B
:10033000012B7047704770477047704710B543698D
:1003400013B1AFF3008001E0FFF7A4FF012010BD5F
:10035000127800F124010A7000224A700122EDE7B0
:1003600011684FF0FF32E9E7074B70B50D467B444B
:1003700000F011F80446284600F020F810B14FF0C4
:10038000FF3070BD204670BDC312000001694A1CD9
:1003900002610878704700B58FB0CDE901310021C6
:1003A000059105497944CDE9031011466846FFF7E8
:1003B0003DFF0FB000BD0000E5FFFFFF007B00F038
:1003C00080007047754600F029F8AE460500694682
:1003D000534620F00700854618B020B5FFF706FF0A
:1003E000BDE820404FF000064FF000074FF0000836
:1003F0004FF0000B21F00701AC46ACE8C009ACE8B7
:10040000C009ACE8C009ACE8C0098D467047044695
:10041000AFF300802046FFF7D5FE0000004870478C
:10042000EC0200202DE9F0410246002500260020C4
:1004300000230024002791F803C00CF00F0591F869
:1004400003C00CF0100CBCF1000F03D091F802C0F7
:100450004CEA050591F800C0BCF1000F31D01468DA
:1004600000202BE04FF0010C0CFA00F3B1F800C0B3
:100470000CEA03069E4220D183004FF00F0C0CFAC9
:1004800003F7BC4305FA03FC4CEA040491F803C0EB
:10049000BCF1280F06D14FF0010C0CFA00FCC2F899
:1004A00014C00AE091F803C0BCF1480F05D14FF029
:1004B000010C0CFA00FCC2F810C0401C0828D1D373
:1004C0001460B1F800C0BCF1FF0F34DD54680020A7
:1004D0002EE000F1080C4FF0010808FA0CF3B1F817
:1004E00000C00CEA03069E4221D183004FF00F0C9E
:1004F0000CFA03F7BC4305FA03FC4CEA040491F838
:1005000003C0BCF1280F05D100F1080C08FA0CF863
:10051000C2F8148091F803C0BCF1480F07D100F174
:10052000080C4FF0010808FA0CF8C2F81080401CC3
:100530000828CED35460BDE8F0810000F0B50A462B
:10054000002300240021002500F00046B6F1004FF2
:1005500002D11D4EF16901E01B4E7168C0F30345E5
:1005600083B200F44016B6F5401F08D121F0706147
:10057000154E766826F07066134F7E6012E000F428
:100580008016B6F5801F06D1032606FA05F4A143AE
:1005900041F0706106E0460D360103FA06F6B143FC
:1005A00041F0706122B1460D360103FA06F631437F
:1005B00000F00046B6F1004F02D1034EF16101E0B8
:1005C000014E7160F0BD00000000014002460020B5
:1005D00093680B400BB1012000E00020704741619F
:1005E000704701617047000008B50121082000F044
:1005F000D5FA4FF48070ADF8000048208DF8030064
:1006000069460248FFF70EFF08BD0000000C0140DC
:1006100010B500241048007890B14FF480710F4855
:10062000FFF7D4FF60B90A2000F0C5FF4FF48071D6
:100630000A48FFF7CBFF18B90020074908700124CA
:100640004FF480710548FFF7C1FF10B10120024946
:100650000870204610BD000000020020000C014080
:1006600008B50121042000F099FA0220ADF800003D
:1006700010208DF8030003208DF80200694604481D
:10068000FFF7D0FE02210248FFF7ABFF08BD0000D4
:100690000008014008B50121084600F07FFA012159
:1006A0000A48FFF74BFF0121082000F077FA782075
:1006B000ADF8000010208DF8030003208DF8020033
:1006C00069460348FFF7AEFE08BD00000002300097
:1006D000000C014010B52D48007830B1012815D02C
:1006E000022824D0032844D132E008212848FFF70B
:1006F00078FF10212648FFF772FF20212448FFF7DA
:100700006EFF40212248FFF76CFF32E008212048AD
:10071000FFF765FF10211E48FFF763FF20211C48EB
:10072000FFF75DFF40211A48FFF75BFF21E008213A
:100730001748FFF754FF10211548FFF752FF2021FB
:100740001348FFF74EFF40211148FFF748FF10E024
:1007500008210F48FFF745FF10210D48FFF73FFF25
:1007600020210B48FFF73DFF40210948FFF737FFE5
:1007700000BF00BF05480078401C044908700846C7
:100780000078042801DB0020087010BD0102002061
:10079000000C014070B5002100230F22C47804B37F
:1007A000154C246804F4E064C4F5E064210AC1F146
:1007B0000403CA40447804FA03F1847814402143C6
:1007C00009010E4C0678A155047804F01F05012498
:1007D000AC4005786D11AD0005F1E025C5F800418C
:1007E00009E0047804F01F050124AC40044D0678AC
:1007F000761145F8264070BD0CED00E000E400E005
:1008000080E100E02DE9F0438DB00546002400278B
:1008100000264FF001084FF0010934216846FFF728
:1008200062FD00BF2BE0285D202812DB285D7F28B9
:100830000FDCB81C302802DD4FF0000826E0285DF0
:100840000DF80600B81CC7B2601CC4B2701CC6B25A
:1008500013E0B81C302802DD4FF0000816E0285DD8
:100860000DF8060028194178701C0DF80010F81CCE
:10087000C7B2A01CC4B2B01CC6B24FF00108285DBC
:100880000D2803D0281940780A28CCD100BF0D20AC
:100890000DF806000A21701C0DF8001001210B480C
:1008A00000F0A9FB03E0684600F09CF88146B9F12E
:1008B000000FF8D1B8F1010F04D04FF00109002763
:1008C0000026AFE70DB0BDE8F08300000004004053
:1008D00008B50121042000F061F90121082000F091
:1008E0005DF94FF4C850ADF8000010208DF80300FA
:1008F00003208DF8020069460548FFF793FD4FF489
:100900007C40ADF8000069460248FFF78BFD08BD4A
:1009100000080140000C014010B54FF400410E48A2
:10092000FFF75FFE4FF480410B48FFF75AFE4FF48C
:1009300000510948FFF755FE4FF480510648FFF774
:100940004EFE4FF400610448FFF749FE4FF480610A
:100950000148FFF744FE10BD000C014010B54FF4F4
:1009600000410E48FFF73BFE4FF480410B48FFF774
:1009700036FE4FF400510948FFF731FE4FF4805125
:100980000648FFF72CFE4FF400610448FFF727FEEE
:100990004FF480610148FFF722FE10BD000C0140BA
:1009A00010B54FF400410E48FFF719FE4FF4804197
:1009B0000B48FFF714FE4FF400510948FFF70FFEF4
:1009C0004FF480510648FFF70CFE4FF400610448D5
:1009D000FFF707FE4FF480610148FFF702FE10BDEC
:1009E000000C01402DE9F0478CB00546002400269C
:1009F00030216846FFF777FC00273D480078012842
:100A000073D100203A4908703CE0285D202819DBAA
:100A1000285D7F2816DC285D074607EB47004FF46A
:100A2000302101EB00113348007801EB40080DEB59
:100A300006020221404600F077FDB01CC6B2601CE1
:100A4000C4B21FE0285DA1385E2100FB01F928191E
:100A50004078A0F1A10A09EB0A0707EBC700264975
:100A600001EBC0002349097801EB410100EB0108CB
:100A70000DEB06020321404600F056FDF01CC6B205
:100A8000A01CC4B2285D0D2803D0281940780A287C
:100A9000BBD1684600F038F84FF480711748FFF773
:100AA000A0FD4FF480711548FFF799FD4FF4807158
:100AB0001248FFF796FD0F480078401C0D4908705A
:100AC00008460078182810DB0020087078210C48B0
:100AD000FFF785FD00210B4800F08DFAFFF73EFF80
:100AE00000200CB0BDE8F087FFE70120F9E7000027
:100AF000040200200C02002006180B000008014030
:100B0000000C01400004004070B50546002404E0DC
:100B1000285D00F005F8601CC4B2302CF8DB70BD15
:100B200070B504464FF400611348FFF758FD0025E7
:100B30001EE04FF400611048FFF751FD04F0800003
:100B400028B14FF480510C48FFF74BFD04E04FF4FF
:100B500080510948FFF743FD4FF400610648FFF755
:100B600040FD6006040E012000F046FD681CC5B281
:100B7000082DDEDB70BD00000008014029B1064AE7
:100B8000D2690243044BDA6104E0034AD26982432A
:100B9000014BDA61704700000010024029B1064A9B
:100BA00092690243044B9A6104E0034A92698243CA
:100BB000014B9A61704700000010024030B50021DF
:100BC0000022002400232D4D6D6805F00C0121B199
:100BD000042905D0082923D105E0294D056022E02C
:100BE000274D05601FE0254D6D6805F47012234DFB
:100BF0006D6805F48034022505EB92421CB9214D45
:100C0000554305600BE01D4D6D6805F400351DB1C1
:100C10001C4D5543056002E0194D5543056002E047
:100C2000174D056000BF00BF144D6D6805F0F00161
:100C30000909154D6B5C0568DD4045600F4D6D6819
:100C400005F4E061090A104D6B5C4568DD40856084
:100C50000A4D6D6805F46051C90A0B4D6B5C45681F
:100C6000DD40C560054D6D6805F44041890B074DB9
:100C70006B5CC568B5FBF3F5056130BD0010024043
:100C800000127A0000093D000D0200201D02002024
:100C900000B587B001210420FFF780FF0121080380
:100CA000FFF77CFFE020ADF8180018208DF81B003E
:100CB00003208DF81A0006A91548FFF7B3FBE021C1
:100CC0001348FFF78EFC0020ADF804004FF482704B
:100CD000ADF806000020ADF80800ADF80A00ADF848
:100CE0000C004FF40070ADF80E000820ADF81000B5
:100CF0000020ADF812000720ADF8140001A9054846
:100D000000F040F80121034800F022F807B000BDD0
:100D1000000801400030014010B5044600BF022128
:100D20000A4800F021F80028F9D02146074800F0D1
:100D300027F800BF0121054800F016F80028F9D077
:100D4000024800F01AF8C4B2204610BD003001403D
:100D500021B1028842F04002028004E002884FF68E
:100D6000BF731A40028070470246002013890B406F
:100D70000BB1012000E000207047014688897047D0
:100D80008181704710B50022028802F441520B881D
:100D90004C8823438C882343CC8823430C892343EA
:100DA0004C8923438C892343CC8923431A430280F3
:100DB000838B4FF2FF74234083830B8A038210BD21
:100DC00010B500F001F810BD0CB5002001900090A6
:100DD0003348006840F480303149086000BF304833
:100DE000006800F4003000900198401C01900098C9
:100DF00018B90198B0F5A06FF1D12948006800F446
:100E0000003010B10120009001E000200090009817
:100E1000012843D12348006840F0100021490860B0
:100E20000846006820F0030008600846006840F0AB
:100E3000020008601A48406819494860084640683E
:100E400048600846406840F4806048600846406852
:100E500020F47C1048600846406840F4E810486080
:100E60000846006840F08070086000BF0C480068C9
:100E700000F000700028F9D00948406820F0030015
:100E8000074948600846406840F00200486000BFDB
:100E90000348406800F00C000828F9D10CBD0000A0
:100EA00000100240002002404FF0E020006920F0D6
:100EB00004004FF0E02108617047000010B51348AE
:100EC000006840F001001149086008464068104978
:100ED00008400E494860084600680E4908400B4922
:100EE00008600846006820F48020086008464068D2
:100EF00020F4FE0048604FF41F008860FFF760FF99
:100F00004FF000600449086010BD0000001002406E
:100F10000000FFF8FFFFF6FE08ED00E010B501212C
:100F2000114800F074F8E8B101210F4800F060F8B2
:100F3000FFF7D0FB0D48007800F0010010B9FFF773
:100F4000EBFC01E0FFF72CFD08480068401C074956
:100F5000086008460068032804D3002008600120C8
:100F60000349087010BD000000040040FC0100208F
:100F7000040200207FB505460C4601210220FFF740
:100F8000FDFDADF80850ADF804400020ADF80A00B2
:100F9000ADF8060001A90F4800F054F81D208DF8A7
:100FA000000001208DF801008DF802008DF803008B
:100FB0006846FFF7EFFB01221146064800F038F8BB
:100FC0000121044800F008F80021024800F013F85D
:100FD0007FBD00000004004021B1028842F0800281
:100FE000028004E002884FF67F731A400280704747
:100FF000CA430282704721B1028842F00102028096
:1010000004E002884FF6FE731A400280704730B544
:101010000246002000230024158A05EA0103958971
:1010200005EA010413B10CB1012000E0002030BD3D
:101030001AB183890B43838102E083898B438381C7
:1010400070470000002202881D4B98420ED01D4BB5
:1010500098420BD0B0F1804F08D01B4B984205D07E
:101060001A4B984202D01A4B984204D14FF68F7314
:101070001A404B881A43174B984207D0164B984298
:1010800004D04FF6FF431A40CB881A4302808B8866
:1010900083850B8803850A4B98420BD0094B9842F5
:1010A00008D00E4B984205D00D4B984202D00D4B04
:1010B000984201D10B7A0386012383827047000096
:1010C000002C0140003401400004004000080040B2
:1010D000000C00400010004000140040004001409F
:1010E000004401400048014010B52021194800F09B
:1010F00039F901280FD11748001D00881649174AF1
:101100001278885415480078401C14490870022150
:101110001348FFF764FA40F224410E4800F02FF91B
:10112000012816D10B4800880A48001D00880D20B0
:1011300009490A4A127888540A21074A0748007860
:10114000401C115400200549087002210448FFF793
:1011500048FA10BD0038014004000020F8010020CA
:101160000008014010B586B0044601210420FFF7B5
:1011700015FD01218803FFF711FD4FF40070ADF854
:10118000140018208DF8170003208DF8160005A90B
:101190002048FFF747F94FF48060ADF814000420B1
:1011A0008DF8170003208DF8160005A91948FFF7E0
:1011B00039F901940020ADF80800ADF80A00ADF847
:1011C0000C00ADF810000C20ADF80E0001A912487B
:1011D00000F024F9012240F225510F4800F0F9F8FF
:1011E000012240F224410C4800F0F3F825208DF84C
:1011F000000001208DF801008DF802008DF8030039
:101200006846FFF7C7FA0121034800F09FF806B0CF
:1012100010BD0000000801400038014010B5202139
:10122000144800F09FF801280BD11248001D0088D7
:101230001149124A1278885410480078401C0F490E
:10124000087040F224410B4800F099F801280FD1B2
:10125000084800880748001D008800200649074A02
:101260001278885406A0FEF7D5FF002003490870C5
:1012700010BD00000044004024020020F9010020BD
:10128000C4E3B7A2CBCDB5C4CAFDBEDDCAC7A3BAFD
:1012900025730D0A0000000010B586B00446012138
:1012A0000420FFF77BFC01214804FFF767FC0420C2
:1012B000ADF8140018208DF8170003208DF81600E3
:1012C00005A92048FFF7AEF80820ADF81400042067
:1012D0008DF8170003208DF8160005A91948FFF7AF
:1012E000A1F801940020ADF80800ADF80A00ADF8AF
:1012F0000C00ADF810000C20ADF80E0001A912484A
:1013000000F08CF8012240F225510F4800F061F8FE
:10131000012240F224410C4800F05BF826208DF8B1
:10132000000001208DF801008DF802008DF8030007
:101330006846FFF72FFA0121034800F007F806B0CE
:1013400010BD0000000801400044004021B1828926
:1013500042F40052828104E082894DF6FF731A4004
:101360008281704702460020B1F5007F00D100BFA6
:1013700013880B400BB1012000E00020704770B5CE
:101380000246002400230025002040F66A16B142E0
:1013900000D100BFC1F3421501F01F03012606FA78
:1013A00003F3012D02D19689334006E0022D02D1CC
:1013B000168A334001E0968A33400C12012606FA61
:1013C00004F41688344013B10CB1012000E0002071
:1013D00070BDF0B50346002400260025002040F62D
:1013E0006A17B94200D100BF1846C1F3421401F098
:1013F0001F06012707FA06F5012C01D10C3004E085
:10140000022C01D1103000E014301AB107682F43CC
:10141000076002E00768AF430760F0BD2DE9F047C1
:1014200086B005460E460024A24600BFA14600270E
:10143000B08900B100BF2F462C8A4CF6FF700440E3
:10144000F08804432C82AC894EF6F3100440B08837
:1014500031890843718908430443AC81AC8A4FF653
:10146000FF400440B0890443AC8201A8FFF7A6FB0B
:101470001F48874202D1DDF810A001E0DDF80CA082
:10148000A88900F4004040B10AEBCA0000EB0A1042
:1014900031684900B0FBF1F807E00AEBCA0000EB45
:1014A0000A1031688900B0FBF1F86420B8FBF0F055
:1014B00004012009642101FB1089A88900F400407F
:1014C00040B1322000EBC900B0FBF1F000F00700A2
:1014D000044308E0322000EB09106421B0FBF1F076
:1014E00000F00F0004432C8106B0BDE8F087000037
:1014F0000038014008B5FFF7CBFB01210420FFF7BE
:101500004DFB1020ADF800008DF8030003208DF88E
:10151000020069460348FEF785FF10210148FFF7E6
:1015200060F808BD0008014070B504460D46164637
:1015300010210F48FFF753F80320FFF7EDFBC4F32A
:101540000740FFF7E9FBC4F30720FFF7E5FBE0B234
:10155000FFF7E2FB05E0FF20FFF7DEFB3070761CB3
:101560006D1E002DF7D110210148FFF73AF870BD2C
:1015700000080140014600BF7047FF214FF0E02204
:10158000916142F22831414351611146096941F0AC
:101590000101116100BF4FF0E021096901F48031C0
:1015A0000029F8D04FF0E021096921F001014FF046
:1015B000E0221161704730B503460025B3F5E96FAD
:1015C00003DC1846FFF7D9FF15E004E0A3F5E96056
:1015D00083B2681CC5B2B3F5E96FF7DA002405E001
:1015E0004FF4E960FFF7C9FF601CC4B2AC42F7DBFF
:1015F0001846FFF7C2FF30BDFF214FF0E022916196
:1016000000EBC00151611146096941F0010111610E
:1016100000BF4FF0E021096901F480310029F8D0C2
:101620004FF0E021096921F001014FF0E022116142
:101630007047000000BF054A128802F04002002AED
:10164000F9D0C2B2014B1B1D1A807047003801400F
:10165000FFF72AFCFFF704F8FEF7C6FF4FF4E1306E
:10166000FFF780FD4FF41640FFF716FEFFF730F945
:10167000FFF710F8472141F63F70FFF77BFCFFF7BB
:1016800039FF13E0FEF7C4FF0446012C0ED10848D1
:10169000006880F00200064908600648FFF7B2F8CB
:1016A00078210548FEF79BFFFFF758F9EAE70000AD
:1016B0000C08014004000020000C0140DC1600086A
:1016C000000000202402000028010008F81600088D
:1016D000240200202C070000840100084103FF0DB4
:1016E0000A01FB5A010489112C0203040430090683
:0816F0000708090204060800C6
:04000005080000ED02
:00000001FF
